{
  "_format": "hh-sol-artifact-1",
  "contractName": "ClauseNFT",
  "sourceName": "contracts/ClauseNFT.sol",
  "abi": [
    {
      "inputs": [
        {
          "internalType": "string",
          "name": "_name",
          "type": "string"
        },
        {
          "internalType": "string",
          "name": "_symbol",
          "type": "string"
        },
        {
          "internalType": "string",
          "name": "baseURI",
          "type": "string"
        }
      ],
      "stateMutability": "nonpayable",
      "type": "constructor"
    },
    {
      "anonymous": false,
      "inputs": [
        {
          "indexed": true,
          "internalType": "address",
          "name": "owner",
          "type": "address"
        },
        {
          "indexed": true,
          "internalType": "address",
          "name": "approved",
          "type": "address"
        },
        {
          "indexed": true,
          "internalType": "uint256",
          "name": "tokenId",
          "type": "uint256"
        }
      ],
      "name": "Approval",
      "type": "event"
    },
    {
      "anonymous": false,
      "inputs": [
        {
          "indexed": true,
          "internalType": "address",
          "name": "owner",
          "type": "address"
        },
        {
          "indexed": true,
          "internalType": "address",
          "name": "operator",
          "type": "address"
        },
        {
          "indexed": false,
          "internalType": "bool",
          "name": "approved",
          "type": "bool"
        }
      ],
      "name": "ApprovalForAll",
      "type": "event"
    },
    {
      "anonymous": false,
      "inputs": [
        {
          "indexed": true,
          "internalType": "address",
          "name": "previousOwner",
          "type": "address"
        },
        {
          "indexed": true,
          "internalType": "address",
          "name": "newOwner",
          "type": "address"
        }
      ],
      "name": "OwnershipTransferred",
      "type": "event"
    },
    {
      "anonymous": false,
      "inputs": [
        {
          "indexed": true,
          "internalType": "address",
          "name": "from",
          "type": "address"
        },
        {
          "indexed": true,
          "internalType": "address",
          "name": "to",
          "type": "address"
        },
        {
          "indexed": true,
          "internalType": "uint256",
          "name": "tokenId",
          "type": "uint256"
        }
      ],
      "name": "Transfer",
      "type": "event"
    },
    {
      "inputs": [
        {
          "internalType": "address",
          "name": "to",
          "type": "address"
        },
        {
          "internalType": "uint256",
          "name": "tokenId",
          "type": "uint256"
        }
      ],
      "name": "approve",
      "outputs": [],
      "stateMutability": "nonpayable",
      "type": "function"
    },
    {
      "inputs": [
        {
          "internalType": "address",
          "name": "owner",
          "type": "address"
        }
      ],
      "name": "balanceOf",
      "outputs": [
        {
          "internalType": "uint256",
          "name": "",
          "type": "uint256"
        }
      ],
      "stateMutability": "view",
      "type": "function"
    },
    {
      "inputs": [
        {
          "internalType": "uint256",
          "name": "tokenId",
          "type": "uint256"
        }
      ],
      "name": "getApproved",
      "outputs": [
        {
          "internalType": "address",
          "name": "",
          "type": "address"
        }
      ],
      "stateMutability": "view",
      "type": "function"
    },
    {
      "inputs": [
        {
          "internalType": "address",
          "name": "owner",
          "type": "address"
        },
        {
          "internalType": "address",
          "name": "operator",
          "type": "address"
        }
      ],
      "name": "isApprovedForAll",
      "outputs": [
        {
          "internalType": "bool",
          "name": "",
          "type": "bool"
        }
      ],
      "stateMutability": "view",
      "type": "function"
    },
    {
      "inputs": [
        {
          "internalType": "address",
          "name": "_to",
          "type": "address"
        },
        {
          "internalType": "uint256",
          "name": "_tokenId",
          "type": "uint256"
        }
      ],
      "name": "mint",
      "outputs": [],
      "stateMutability": "nonpayable",
      "type": "function"
    },
    {
      "inputs": [
        {
          "internalType": "address",
          "name": "_to",
          "type": "address"
        },
        {
          "internalType": "uint256",
          "name": "_tokenId",
          "type": "uint256"
        },
        {
          "internalType": "string",
          "name": "tokenURI_",
          "type": "string"
        }
      ],
      "name": "mint",
      "outputs": [],
      "stateMutability": "nonpayable",
      "type": "function"
    },
    {
      "inputs": [],
      "name": "name",
      "outputs": [
        {
          "internalType": "string",
          "name": "",
          "type": "string"
        }
      ],
      "stateMutability": "view",
      "type": "function"
    },
    {
      "inputs": [],
      "name": "owner",
      "outputs": [
        {
          "internalType": "address",
          "name": "",
          "type": "address"
        }
      ],
      "stateMutability": "view",
      "type": "function"
    },
    {
      "inputs": [
        {
          "internalType": "uint256",
          "name": "tokenId",
          "type": "uint256"
        }
      ],
      "name": "ownerOf",
      "outputs": [
        {
          "internalType": "address",
          "name": "",
          "type": "address"
        }
      ],
      "stateMutability": "view",
      "type": "function"
    },
    {
      "inputs": [],
      "name": "renounceOwnership",
      "outputs": [],
      "stateMutability": "nonpayable",
      "type": "function"
    },
    {
      "inputs": [
        {
          "internalType": "address",
          "name": "from",
          "type": "address"
        },
        {
          "internalType": "address",
          "name": "to",
          "type": "address"
        },
        {
          "internalType": "uint256",
          "name": "tokenId",
          "type": "uint256"
        }
      ],
      "name": "safeTransferFrom",
      "outputs": [],
      "stateMutability": "nonpayable",
      "type": "function"
    },
    {
      "inputs": [
        {
          "internalType": "address",
          "name": "from",
          "type": "address"
        },
        {
          "internalType": "address",
          "name": "to",
          "type": "address"
        },
        {
          "internalType": "uint256",
          "name": "tokenId",
          "type": "uint256"
        },
        {
          "internalType": "bytes",
          "name": "data",
          "type": "bytes"
        }
      ],
      "name": "safeTransferFrom",
      "outputs": [],
      "stateMutability": "nonpayable",
      "type": "function"
    },
    {
      "inputs": [
        {
          "internalType": "address",
          "name": "operator",
          "type": "address"
        },
        {
          "internalType": "bool",
          "name": "approved",
          "type": "bool"
        }
      ],
      "name": "setApprovalForAll",
      "outputs": [],
      "stateMutability": "nonpayable",
      "type": "function"
    },
    {
      "inputs": [
        {
          "internalType": "string",
          "name": "baseURI_",
          "type": "string"
        }
      ],
      "name": "setBaseURI",
      "outputs": [],
      "stateMutability": "nonpayable",
      "type": "function"
    },
    {
      "inputs": [
        {
          "internalType": "bytes4",
          "name": "interfaceId",
          "type": "bytes4"
        }
      ],
      "name": "supportsInterface",
      "outputs": [
        {
          "internalType": "bool",
          "name": "",
          "type": "bool"
        }
      ],
      "stateMutability": "view",
      "type": "function"
    },
    {
      "inputs": [],
      "name": "symbol",
      "outputs": [
        {
          "internalType": "string",
          "name": "",
          "type": "string"
        }
      ],
      "stateMutability": "view",
      "type": "function"
    },
    {
      "inputs": [
        {
          "internalType": "uint256",
          "name": "tokenId",
          "type": "uint256"
        }
      ],
      "name": "tokenURI",
      "outputs": [
        {
          "internalType": "string",
          "name": "",
          "type": "string"
        }
      ],
      "stateMutability": "view",
      "type": "function"
    },
    {
      "inputs": [
        {
          "internalType": "address",
          "name": "from",
          "type": "address"
        },
        {
          "internalType": "address",
          "name": "to",
          "type": "address"
        },
        {
          "internalType": "uint256",
          "name": "tokenId",
          "type": "uint256"
        }
      ],
      "name": "transferFrom",
      "outputs": [],
      "stateMutability": "nonpayable",
      "type": "function"
    },
    {
      "inputs": [
        {
          "internalType": "address",
          "name": "newOwner",
          "type": "address"
        }
      ],
      "name": "transferOwnership",
      "outputs": [],
      "stateMutability": "nonpayable",
      "type": "function"
    }
  ],
  "bytecode": "0x60806040523480156200001157600080fd5b5060405162003298380380620032988339818101604052810190620000379190620003ca565b82828160009080519060200190620000519291906200017d565b5080600190805190602001906200006a9291906200017d565b5050506200008d62000081620000af60201b60201c565b620000b760201b60201c565b8060089080519060200190620000a59291906200017d565b50505050620004e8565b600033905090565b6000600660009054906101000a900473ffffffffffffffffffffffffffffffffffffffff16905081600660006101000a81548173ffffffffffffffffffffffffffffffffffffffff021916908373ffffffffffffffffffffffffffffffffffffffff1602179055508173ffffffffffffffffffffffffffffffffffffffff168173ffffffffffffffffffffffffffffffffffffffff167f8be0079c531659141344cd1fd0a4f28419497f9722a3daafe3b4186f6b6457e060405160405180910390a35050565b8280546200018b90620004b2565b90600052602060002090601f016020900481019282620001af5760008555620001fb565b82601f10620001ca57805160ff1916838001178555620001fb565b82800160010185558215620001fb579182015b82811115620001fa578251825591602001919060010190620001dd565b5b5090506200020a91906200020e565b5090565b5b80821115620002295760008160009055506001016200020f565b5090565b6000604051905090565b600080fd5b600080fd5b600080fd5b600080fd5b6000601f19601f8301169050919050565b7f4e487b7100000000000000000000000000000000000000000000000000000000600052604160045260246000fd5b62000296826200024b565b810181811067ffffffffffffffff82111715620002b857620002b76200025c565b5b80604052505050565b6000620002cd6200022d565b9050620002db82826200028b565b919050565b600067ffffffffffffffff821115620002fe57620002fd6200025c565b5b62000309826200024b565b9050602081019050919050565b60005b838110156200033657808201518184015260208101905062000319565b8381111562000346576000848401525b50505050565b6000620003636200035d84620002e0565b620002c1565b90508281526020810184848401111562000382576200038162000246565b5b6200038f84828562000316565b509392505050565b600082601f830112620003af57620003ae62000241565b5b8151620003c18482602086016200034c565b91505092915050565b600080600060608486031215620003e657620003e562000237565b5b600084015167ffffffffffffffff8111156200040757620004066200023c565b5b620004158682870162000397565b935050602084015167ffffffffffffffff8111156200043957620004386200023c565b5b620004478682870162000397565b925050604084015167ffffffffffffffff8111156200046b576200046a6200023c565b5b620004798682870162000397565b9150509250925092565b7f4e487b7100000000000000000000000000000000000000000000000000000000600052602260045260246000fd5b60006002820490506001821680620004cb57607f821691505b60208210811415620004e257620004e162000483565b5b50919050565b612da080620004f86000396000f3fe608060405234801561001057600080fd5b50600436106101215760003560e01c806370a08231116100ad578063b88d4fde11610071578063b88d4fde146102f2578063c87b56dd1461030e578063d3fc98641461033e578063e985e9c51461035a578063f2fde38b1461038a57610121565b806370a0823114610260578063715018a6146102905780638da5cb5b1461029a57806395d89b41146102b8578063a22cb465146102d657610121565b806323b872dd116100f457806323b872dd146101c057806340c10f19146101dc57806342842e0e146101f857806355f804b3146102145780636352211e1461023057610121565b806301ffc9a71461012657806306fdde0314610156578063081812fc14610174578063095ea7b3146101a4575b600080fd5b610140600480360381019061013b9190611d17565b6103a6565b60405161014d9190611d5f565b60405180910390f35b61015e610488565b60405161016b9190611e13565b60405180910390f35b61018e60048036038101906101899190611e6b565b61051a565b60405161019b9190611ed9565b60405180910390f35b6101be60048036038101906101b99190611f20565b610560565b005b6101da60048036038101906101d59190611f60565b610678565b005b6101f660048036038101906101f19190611f20565b6106d8565b005b610212600480360381019061020d9190611f60565b6106ee565b005b61022e600480360381019061022991906120e8565b61070e565b005b61024a60048036038101906102459190611e6b565b610730565b6040516102579190611ed9565b60405180910390f35b61027a60048036038101906102759190612131565b6107b7565b604051610287919061216d565b60405180910390f35b61029861086f565b005b6102a2610883565b6040516102af9190611ed9565b60405180910390f35b6102c06108ad565b6040516102cd9190611e13565b60405180910390f35b6102f060048036038101906102eb91906121b4565b61093f565b005b61030c60048036038101906103079190612295565b610955565b005b61032860048036038101906103239190611e6b565b6109b7565b6040516103359190611e13565b60405180910390f35b61035860048036038101906103539190612318565b610b2a565b005b610374600480360381019061036f9190612387565b610b4b565b6040516103819190611d5f565b60405180910390f35b6103a4600480360381019061039f9190612131565b610bdf565b005b60007f80ac58cd000000000000000000000000000000000000000000000000000000007bffffffffffffffffffffffffffffffffffffffffffffffffffffffff1916827bffffffffffffffffffffffffffffffffffffffffffffffffffffffff1916148061047157507f5b5e139f000000000000000000000000000000000000000000000000000000007bffffffffffffffffffffffffffffffffffffffffffffffffffffffff1916827bffffffffffffffffffffffffffffffffffffffffffffffffffffffff1916145b80610481575061048082610c63565b5b9050919050565b606060008054610497906123f6565b80601f01602080910402602001604051908101604052809291908181526020018280546104c3906123f6565b80156105105780601f106104e557610100808354040283529160200191610510565b820191906000526020600020905b8154815290600101906020018083116104f357829003601f168201915b5050505050905090565b600061052582610ccd565b6004600083815260200190815260200160002060009054906101000a900473ffffffffffffffffffffffffffffffffffffffff169050919050565b600061056b82610730565b90508073ffffffffffffffffffffffffffffffffffffffff168373ffffffffffffffffffffffffffffffffffffffff1614156105dc576040517f08c379a00000000000000000000000000000000000000000000000000000000081526004016105d39061249a565b60405180910390fd5b8073ffffffffffffffffffffffffffffffffffffffff166105fb610d18565b73ffffffffffffffffffffffffffffffffffffffff16148061062a575061062981610624610d18565b610b4b565b5b610669576040517f08c379a00000000000000000000000000000000000000000000000000000000081526004016106609061252c565b60405180910390fd5b6106738383610d20565b505050565b610689610683610d18565b82610dd9565b6106c8576040517f08c379a00000000000000000000000000000000000000000000000000000000081526004016106bf906125be565b60405180910390fd5b6106d3838383610e6e565b505050565b6106e0611168565b6106ea82826111e6565b5050565b61070983838360405180602001604052806000815250610955565b505050565b610716611168565b806008908051906020019061072c929190611c08565b5050565b60008061073c83611404565b9050600073ffffffffffffffffffffffffffffffffffffffff168173ffffffffffffffffffffffffffffffffffffffff1614156107ae576040517f08c379a00000000000000000000000000000000000000000000000000000000081526004016107a59061262a565b60405180910390fd5b80915050919050565b60008073ffffffffffffffffffffffffffffffffffffffff168273ffffffffffffffffffffffffffffffffffffffff161415610828576040517f08c379a000000000000000000000000000000000000000000000000000000000815260040161081f906126bc565b60405180910390fd5b600360008373ffffffffffffffffffffffffffffffffffffffff1673ffffffffffffffffffffffffffffffffffffffff168152602001908152602001600020549050919050565b610877611168565b6108816000611441565b565b6000600660009054906101000a900473ffffffffffffffffffffffffffffffffffffffff16905090565b6060600180546108bc906123f6565b80601f01602080910402602001604051908101604052809291908181526020018280546108e8906123f6565b80156109355780601f1061090a57610100808354040283529160200191610935565b820191906000526020600020905b81548152906001019060200180831161091857829003601f168201915b5050505050905090565b61095161094a610d18565b8383611507565b5050565b610966610960610d18565b83610dd9565b6109a5576040517f08c379a000000000000000000000000000000000000000000000000000000000815260040161099c906125be565b60405180910390fd5b6109b184848484611674565b50505050565b60606109c2826116d0565b610a01576040517f08c379a00000000000000000000000000000000000000000000000000000000081526004016109f89061274e565b60405180910390fd5b6000600760008481526020019081526020016000208054610a21906123f6565b80601f0160208091040260200160405190810160405280929190818152602001828054610a4d906123f6565b8015610a9a5780601f10610a6f57610100808354040283529160200191610a9a565b820191906000526020600020905b815481529060010190602001808311610a7d57829003601f168201915b505050505090506000610aab611711565b9050600081511415610ac1578192505050610b25565b600082511115610af6578082604051602001610ade9291906127aa565b60405160208183030381529060405292505050610b25565b80610b00856117a3565b604051602001610b119291906127aa565b604051602081830303815290604052925050505b919050565b610b32611168565b610b3c83836111e6565b610b46828261187b565b505050565b6000600560008473ffffffffffffffffffffffffffffffffffffffff1673ffffffffffffffffffffffffffffffffffffffff16815260200190815260200160002060008373ffffffffffffffffffffffffffffffffffffffff1673ffffffffffffffffffffffffffffffffffffffff16815260200190815260200160002060009054906101000a900460ff16905092915050565b610be7611168565b600073ffffffffffffffffffffffffffffffffffffffff168173ffffffffffffffffffffffffffffffffffffffff161415610c57576040517f08c379a0000000000000000000000000000000000000000000000000000000008152600401610c4e90612840565b60405180910390fd5b610c6081611441565b50565b60007f01ffc9a7000000000000000000000000000000000000000000000000000000007bffffffffffffffffffffffffffffffffffffffffffffffffffffffff1916827bffffffffffffffffffffffffffffffffffffffffffffffffffffffff1916149050919050565b610cd6816116d0565b610d15576040517f08c379a0000000000000000000000000000000000000000000000000000000008152600401610d0c9061262a565b60405180910390fd5b50565b600033905090565b816004600083815260200190815260200160002060006101000a81548173ffffffffffffffffffffffffffffffffffffffff021916908373ffffffffffffffffffffffffffffffffffffffff160217905550808273ffffffffffffffffffffffffffffffffffffffff16610d9383610730565b73ffffffffffffffffffffffffffffffffffffffff167f8c5be1e5ebec7d5bd14f71427d1e84f3dd0314c0f7b2291e5b200ac8c7c3b92560405160405180910390a45050565b600080610de583610730565b90508073ffffffffffffffffffffffffffffffffffffffff168473ffffffffffffffffffffffffffffffffffffffff161480610e275750610e268185610b4b565b5b80610e6557508373ffffffffffffffffffffffffffffffffffffffff16610e4d8461051a565b73ffffffffffffffffffffffffffffffffffffffff16145b91505092915050565b8273ffffffffffffffffffffffffffffffffffffffff16610e8e82610730565b73ffffffffffffffffffffffffffffffffffffffff1614610ee4576040517f08c379a0000000000000000000000000000000000000000000000000000000008152600401610edb906128d2565b60405180910390fd5b600073ffffffffffffffffffffffffffffffffffffffff168273ffffffffffffffffffffffffffffffffffffffff161415610f54576040517f08c379a0000000000000000000000000000000000000000000000000000000008152600401610f4b90612964565b60405180910390fd5b610f6183838360016118ef565b8273ffffffffffffffffffffffffffffffffffffffff16610f8182610730565b73ffffffffffffffffffffffffffffffffffffffff1614610fd7576040517f08c379a0000000000000000000000000000000000000000000000000000000008152600401610fce906128d2565b60405180910390fd5b6004600082815260200190815260200160002060006101000a81549073ffffffffffffffffffffffffffffffffffffffff02191690556001600360008573ffffffffffffffffffffffffffffffffffffffff1673ffffffffffffffffffffffffffffffffffffffff168152602001908152602001600020600082825403925050819055506001600360008473ffffffffffffffffffffffffffffffffffffffff1673ffffffffffffffffffffffffffffffffffffffff16815260200190815260200160002060008282540192505081905550816002600083815260200190815260200160002060006101000a81548173ffffffffffffffffffffffffffffffffffffffff021916908373ffffffffffffffffffffffffffffffffffffffff160217905550808273ffffffffffffffffffffffffffffffffffffffff168473ffffffffffffffffffffffffffffffffffffffff167fddf252ad1be2c89b69c2b068fc378daa952ba7f163c4a11628f55a4df523b3ef60405160405180910390a461116383838360016118f5565b505050565b611170610d18565b73ffffffffffffffffffffffffffffffffffffffff1661118e610883565b73ffffffffffffffffffffffffffffffffffffffff16146111e4576040517f08c379a00000000000000000000000000000000000000000000000000000000081526004016111db906129d0565b60405180910390fd5b565b600073ffffffffffffffffffffffffffffffffffffffff168273ffffffffffffffffffffffffffffffffffffffff161415611256576040517f08c379a000000000000000000000000000000000000000000000000000000000815260040161124d90612a3c565b60405180910390fd5b61125f816116d0565b1561129f576040517f08c379a000000000000000000000000000000000000000000000000000000000815260040161129690612aa8565b60405180910390fd5b6112ad6000838360016118ef565b6112b6816116d0565b156112f6576040517f08c379a00000000000000000000000000000000000000000000000000000000081526004016112ed90612aa8565b60405180910390fd5b6001600360008473ffffffffffffffffffffffffffffffffffffffff1673ffffffffffffffffffffffffffffffffffffffff16815260200190815260200160002060008282540192505081905550816002600083815260200190815260200160002060006101000a81548173ffffffffffffffffffffffffffffffffffffffff021916908373ffffffffffffffffffffffffffffffffffffffff160217905550808273ffffffffffffffffffffffffffffffffffffffff16600073ffffffffffffffffffffffffffffffffffffffff167fddf252ad1be2c89b69c2b068fc378daa952ba7f163c4a11628f55a4df523b3ef60405160405180910390a46114006000838360016118f5565b5050565b60006002600083815260200190815260200160002060009054906101000a900473ffffffffffffffffffffffffffffffffffffffff169050919050565b6000600660009054906101000a900473ffffffffffffffffffffffffffffffffffffffff16905081600660006101000a81548173ffffffffffffffffffffffffffffffffffffffff021916908373ffffffffffffffffffffffffffffffffffffffff1602179055508173ffffffffffffffffffffffffffffffffffffffff168173ffffffffffffffffffffffffffffffffffffffff167f8be0079c531659141344cd1fd0a4f28419497f9722a3daafe3b4186f6b6457e060405160405180910390a35050565b8173ffffffffffffffffffffffffffffffffffffffff168373ffffffffffffffffffffffffffffffffffffffff161415611576576040517f08c379a000000000000000000000000000000000000000000000000000000000815260040161156d90612b14565b60405180910390fd5b80600560008573ffffffffffffffffffffffffffffffffffffffff1673ffffffffffffffffffffffffffffffffffffffff16815260200190815260200160002060008473ffffffffffffffffffffffffffffffffffffffff1673ffffffffffffffffffffffffffffffffffffffff16815260200190815260200160002060006101000a81548160ff0219169083151502179055508173ffffffffffffffffffffffffffffffffffffffff168373ffffffffffffffffffffffffffffffffffffffff167f17307eab39ab6107e8899845ad3d59bd9653f200f220920489ca2b5937696c31836040516116679190611d5f565b60405180910390a3505050565b61167f848484610e6e565b61168b848484846118fb565b6116ca576040517f08c379a00000000000000000000000000000000000000000000000000000000081526004016116c190612ba6565b60405180910390fd5b50505050565b60008073ffffffffffffffffffffffffffffffffffffffff166116f283611404565b73ffffffffffffffffffffffffffffffffffffffff1614159050919050565b606060088054611720906123f6565b80601f016020809104026020016040519081016040528092919081815260200182805461174c906123f6565b80156117995780601f1061176e57610100808354040283529160200191611799565b820191906000526020600020905b81548152906001019060200180831161177c57829003601f168201915b5050505050905090565b6060600060016117b284611a92565b01905060008167ffffffffffffffff8111156117d1576117d0611fbd565b5b6040519080825280601f01601f1916602001820160405280156118035781602001600182028036833780820191505090505b509050600082602001820190505b600115611870578080600190039150507f3031323334353637383961626364656600000000000000000000000000000000600a86061a8153600a858161185a57611859612bc6565b5b049450600085141561186b57611870565b611811565b819350505050919050565b611884826116d0565b6118c3576040517f08c379a00000000000000000000000000000000000000000000000000000000081526004016118ba90612c67565b60405180910390fd5b806007600084815260200190815260200160002090805190602001906118ea929190611c08565b505050565b50505050565b50505050565b600061191c8473ffffffffffffffffffffffffffffffffffffffff16611be5565b15611a85578373ffffffffffffffffffffffffffffffffffffffff1663150b7a02611945610d18565b8786866040518563ffffffff1660e01b81526004016119679493929190612cdc565b602060405180830381600087803b15801561198157600080fd5b505af19250505080156119b257506040513d601f19601f820116820180604052508101906119af9190612d3d565b60015b611a35573d80600081146119e2576040519150601f19603f3d011682016040523d82523d6000602084013e6119e7565b606091505b50600081511415611a2d576040517f08c379a0000000000000000000000000000000000000000000000000000000008152600401611a2490612ba6565b60405180910390fd5b805181602001fd5b63150b7a0260e01b7bffffffffffffffffffffffffffffffffffffffffffffffffffffffff1916817bffffffffffffffffffffffffffffffffffffffffffffffffffffffff191614915050611a8a565b600190505b949350505050565b600080600090507a184f03e93ff9f4daa797ed6e38ed64bf6a1f0100000000000000008310611af0577a184f03e93ff9f4daa797ed6e38ed64bf6a1f0100000000000000008381611ae657611ae5612bc6565b5b0492506040810190505b6d04ee2d6d415b85acef81000000008310611b2d576d04ee2d6d415b85acef81000000008381611b2357611b22612bc6565b5b0492506020810190505b662386f26fc100008310611b5c57662386f26fc100008381611b5257611b51612bc6565b5b0492506010810190505b6305f5e1008310611b85576305f5e1008381611b7b57611b7a612bc6565b5b0492506008810190505b6127108310611baa576127108381611ba057611b9f612bc6565b5b0492506004810190505b60648310611bcd5760648381611bc357611bc2612bc6565b5b0492506002810190505b600a8310611bdc576001810190505b80915050919050565b6000808273ffffffffffffffffffffffffffffffffffffffff163b119050919050565b828054611c14906123f6565b90600052602060002090601f016020900481019282611c365760008555611c7d565b82601f10611c4f57805160ff1916838001178555611c7d565b82800160010185558215611c7d579182015b82811115611c7c578251825591602001919060010190611c61565b5b509050611c8a9190611c8e565b5090565b5b80821115611ca7576000816000905550600101611c8f565b5090565b6000604051905090565b600080fd5b600080fd5b60007fffffffff0000000000000000000000000000000000000000000000000000000082169050919050565b611cf481611cbf565b8114611cff57600080fd5b50565b600081359050611d1181611ceb565b92915050565b600060208284031215611d2d57611d2c611cb5565b5b6000611d3b84828501611d02565b91505092915050565b60008115159050919050565b611d5981611d44565b82525050565b6000602082019050611d746000830184611d50565b92915050565b600081519050919050565b600082825260208201905092915050565b60005b83811015611db4578082015181840152602081019050611d99565b83811115611dc3576000848401525b50505050565b6000601f19601f8301169050919050565b6000611de582611d7a565b611def8185611d85565b9350611dff818560208601611d96565b611e0881611dc9565b840191505092915050565b60006020820190508181036000830152611e2d8184611dda565b905092915050565b6000819050919050565b611e4881611e35565b8114611e5357600080fd5b50565b600081359050611e6581611e3f565b92915050565b600060208284031215611e8157611e80611cb5565b5b6000611e8f84828501611e56565b91505092915050565b600073ffffffffffffffffffffffffffffffffffffffff82169050919050565b6000611ec382611e98565b9050919050565b611ed381611eb8565b82525050565b6000602082019050611eee6000830184611eca565b92915050565b611efd81611eb8565b8114611f0857600080fd5b50565b600081359050611f1a81611ef4565b92915050565b60008060408385031215611f3757611f36611cb5565b5b6000611f4585828601611f0b565b9250506020611f5685828601611e56565b9150509250929050565b600080600060608486031215611f7957611f78611cb5565b5b6000611f8786828701611f0b565b9350506020611f9886828701611f0b565b9250506040611fa986828701611e56565b9150509250925092565b600080fd5b600080fd5b7f4e487b7100000000000000000000000000000000000000000000000000000000600052604160045260246000fd5b611ff582611dc9565b810181811067ffffffffffffffff8211171561201457612013611fbd565b5b80604052505050565b6000612027611cab565b90506120338282611fec565b919050565b600067ffffffffffffffff82111561205357612052611fbd565b5b61205c82611dc9565b9050602081019050919050565b82818337600083830152505050565b600061208b61208684612038565b61201d565b9050828152602081018484840111156120a7576120a6611fb8565b5b6120b2848285612069565b509392505050565b600082601f8301126120cf576120ce611fb3565b5b81356120df848260208601612078565b91505092915050565b6000602082840312156120fe576120fd611cb5565b5b600082013567ffffffffffffffff81111561211c5761211b611cba565b5b612128848285016120ba565b91505092915050565b60006020828403121561214757612146611cb5565b5b600061215584828501611f0b565b91505092915050565b61216781611e35565b82525050565b6000602082019050612182600083018461215e565b92915050565b61219181611d44565b811461219c57600080fd5b50565b6000813590506121ae81612188565b92915050565b600080604083850312156121cb576121ca611cb5565b5b60006121d985828601611f0b565b92505060206121ea8582860161219f565b9150509250929050565b600067ffffffffffffffff82111561220f5761220e611fbd565b5b61221882611dc9565b9050602081019050919050565b6000612238612233846121f4565b61201d565b90508281526020810184848401111561225457612253611fb8565b5b61225f848285612069565b509392505050565b600082601f83011261227c5761227b611fb3565b5b813561228c848260208601612225565b91505092915050565b600080600080608085870312156122af576122ae611cb5565b5b60006122bd87828801611f0b565b94505060206122ce87828801611f0b565b93505060406122df87828801611e56565b925050606085013567ffffffffffffffff811115612300576122ff611cba565b5b61230c87828801612267565b91505092959194509250565b60008060006060848603121561233157612330611cb5565b5b600061233f86828701611f0b565b935050602061235086828701611e56565b925050604084013567ffffffffffffffff81111561237157612370611cba565b5b61237d868287016120ba565b9150509250925092565b6000806040838503121561239e5761239d611cb5565b5b60006123ac85828601611f0b565b92505060206123bd85828601611f0b565b9150509250929050565b7f4e487b7100000000000000000000000000000000000000000000000000000000600052602260045260246000fd5b6000600282049050600182168061240e57607f821691505b60208210811415612422576124216123c7565b5b50919050565b7f4552433732313a20617070726f76616c20746f2063757272656e74206f776e6560008201527f7200000000000000000000000000000000000000000000000000000000000000602082015250565b6000612484602183611d85565b915061248f82612428565b604082019050919050565b600060208201905081810360008301526124b381612477565b9050919050565b7f4552433732313a20617070726f76652063616c6c6572206973206e6f7420746f60008201527f6b656e206f776e6572206f7220617070726f76656420666f7220616c6c000000602082015250565b6000612516603d83611d85565b9150612521826124ba565b604082019050919050565b6000602082019050818103600083015261254581612509565b9050919050565b7f4552433732313a2063616c6c6572206973206e6f7420746f6b656e206f776e6560008201527f72206f7220617070726f76656400000000000000000000000000000000000000602082015250565b60006125a8602d83611d85565b91506125b38261254c565b604082019050919050565b600060208201905081810360008301526125d78161259b565b9050919050565b7f4552433732313a20696e76616c696420746f6b656e2049440000000000000000600082015250565b6000612614601883611d85565b915061261f826125de565b602082019050919050565b6000602082019050818103600083015261264381612607565b9050919050565b7f4552433732313a2061646472657373207a65726f206973206e6f74206120766160008201527f6c6964206f776e65720000000000000000000000000000000000000000000000602082015250565b60006126a6602983611d85565b91506126b18261264a565b604082019050919050565b600060208201905081810360008301526126d581612699565b9050919050565b7f4552433732314d657461646174613a2055524920717565727920666f72206e6f60008201527f6e6578697374656e7420746f6b656e0000000000000000000000000000000000602082015250565b6000612738602f83611d85565b9150612743826126dc565b604082019050919050565b600060208201905081810360008301526127678161272b565b9050919050565b600081905092915050565b600061278482611d7a565b61278e818561276e565b935061279e818560208601611d96565b80840191505092915050565b60006127b68285612779565b91506127c28284612779565b91508190509392505050565b7f4f776e61626c653a206e6577206f776e657220697320746865207a65726f206160008201527f6464726573730000000000000000000000000000000000000000000000000000602082015250565b600061282a602683611d85565b9150612835826127ce565b604082019050919050565b600060208201905081810360008301526128598161281d565b9050919050565b7f4552433732313a207472616e736665722066726f6d20696e636f72726563742060008201527f6f776e6572000000000000000000000000000000000000000000000000000000602082015250565b60006128bc602583611d85565b91506128c782612860565b604082019050919050565b600060208201905081810360008301526128eb816128af565b9050919050565b7f4552433732313a207472616e7366657220746f20746865207a65726f2061646460008201527f7265737300000000000000000000000000000000000000000000000000000000602082015250565b600061294e602483611d85565b9150612959826128f2565b604082019050919050565b6000602082019050818103600083015261297d81612941565b9050919050565b7f4f776e61626c653a2063616c6c6572206973206e6f7420746865206f776e6572600082015250565b60006129ba602083611d85565b91506129c582612984565b602082019050919050565b600060208201905081810360008301526129e9816129ad565b9050919050565b7f4552433732313a206d696e7420746f20746865207a65726f2061646472657373600082015250565b6000612a26602083611d85565b9150612a31826129f0565b602082019050919050565b60006020820190508181036000830152612a5581612a19565b9050919050565b7f4552433732313a20746f6b656e20616c7265616479206d696e74656400000000600082015250565b6000612a92601c83611d85565b9150612a9d82612a5c565b602082019050919050565b60006020820190508181036000830152612ac181612a85565b9050919050565b7f4552433732313a20617070726f766520746f2063616c6c657200000000000000600082015250565b6000612afe601983611d85565b9150612b0982612ac8565b602082019050919050565b60006020820190508181036000830152612b2d81612af1565b9050919050565b7f4552433732313a207472616e7366657220746f206e6f6e20455243373231526560008201527f63656976657220696d706c656d656e7465720000000000000000000000000000602082015250565b6000612b90603283611d85565b9150612b9b82612b34565b604082019050919050565b60006020820190508181036000830152612bbf81612b83565b9050919050565b7f4e487b7100000000000000000000000000000000000000000000000000000000600052601260045260246000fd5b7f4552433732314d657461646174613a2055524920736574206f66206e6f6e657860008201527f697374656e7420746f6b656e0000000000000000000000000000000000000000602082015250565b6000612c51602c83611d85565b9150612c5c82612bf5565b604082019050919050565b60006020820190508181036000830152612c8081612c44565b9050919050565b600081519050919050565b600082825260208201905092915050565b6000612cae82612c87565b612cb88185612c92565b9350612cc8818560208601611d96565b612cd181611dc9565b840191505092915050565b6000608082019050612cf16000830187611eca565b612cfe6020830186611eca565b612d0b604083018561215e565b8181036060830152612d1d8184612ca3565b905095945050505050565b600081519050612d3781611ceb565b92915050565b600060208284031215612d5357612d52611cb5565b5b6000612d6184828501612d28565b9150509291505056fea2646970667358221220cedd979f7c510378b96d5eddf2f89a1805354191759e7616ff7abe95004f207264736f6c63430008090033",
  "linkReferences": {},
  "deployedLinkReferences": {}
}