{
  "_format": "hh-sol-artifact-1",
  "contractName": "ShareToken",
  "sourceName": "contracts/ShareToken.sol",
  "abi": [
    {
      "inputs": [],
      "stateMutability": "nonpayable",
      "type": "constructor"
    },
    {
      "inputs": [],
      "name": "Empty",
      "type": "error"
    },
    {
      "anonymous": false,
      "inputs": [
        {
          "indexed": true,
          "internalType": "address",
          "name": "_userAddress",
          "type": "address"
        },
        {
          "indexed": true,
          "internalType": "bool",
          "name": "_isFrozen",
          "type": "bool"
        }
      ],
      "name": "AddressFrozen",
      "type": "event"
    },
    {
      "anonymous": false,
      "inputs": [
        {
          "indexed": true,
          "internalType": "address",
          "name": "owner",
          "type": "address"
        },
        {
          "indexed": true,
          "internalType": "address",
          "name": "spender",
          "type": "address"
        },
        {
          "indexed": false,
          "internalType": "uint256",
          "name": "value",
          "type": "uint256"
        }
      ],
      "name": "Approval",
      "type": "event"
    },
    {
      "anonymous": false,
      "inputs": [
        {
          "indexed": true,
          "internalType": "address",
          "name": "delegator",
          "type": "address"
        },
        {
          "indexed": true,
          "internalType": "address",
          "name": "fromDelegate",
          "type": "address"
        },
        {
          "indexed": true,
          "internalType": "address",
          "name": "toDelegate",
          "type": "address"
        }
      ],
      "name": "DelegateChanged",
      "type": "event"
    },
    {
      "anonymous": false,
      "inputs": [
        {
          "indexed": true,
          "internalType": "address",
          "name": "delegate",
          "type": "address"
        },
        {
          "indexed": false,
          "internalType": "uint256",
          "name": "previousBalance",
          "type": "uint256"
        },
        {
          "indexed": false,
          "internalType": "uint256",
          "name": "newBalance",
          "type": "uint256"
        }
      ],
      "name": "DelegateVotesChanged",
      "type": "event"
    },
    {
      "anonymous": false,
      "inputs": [
        {
          "indexed": false,
          "internalType": "uint8",
          "name": "version",
          "type": "uint8"
        }
      ],
      "name": "Initialized",
      "type": "event"
    },
    {
      "anonymous": false,
      "inputs": [
        {
          "indexed": true,
          "internalType": "address",
          "name": "previousOwner",
          "type": "address"
        },
        {
          "indexed": true,
          "internalType": "address",
          "name": "newOwner",
          "type": "address"
        }
      ],
      "name": "OwnershipTransferred",
      "type": "event"
    },
    {
      "anonymous": false,
      "inputs": [
        {
          "indexed": false,
          "internalType": "uint256",
          "name": "proposalId",
          "type": "uint256"
        }
      ],
      "name": "ProposalCanceled",
      "type": "event"
    },
    {
      "anonymous": false,
      "inputs": [
        {
          "indexed": false,
          "internalType": "uint256",
          "name": "proposalId",
          "type": "uint256"
        },
        {
          "indexed": false,
          "internalType": "address",
          "name": "proposer",
          "type": "address"
        },
        {
          "indexed": false,
          "internalType": "address[]",
          "name": "targets",
          "type": "address[]"
        },
        {
          "indexed": false,
          "internalType": "uint256[]",
          "name": "values",
          "type": "uint256[]"
        },
        {
          "indexed": false,
          "internalType": "string[]",
          "name": "signatures",
          "type": "string[]"
        },
        {
          "indexed": false,
          "internalType": "bytes[]",
          "name": "calldatas",
          "type": "bytes[]"
        },
        {
          "indexed": false,
          "internalType": "uint256",
          "name": "startBlock",
          "type": "uint256"
        },
        {
          "indexed": false,
          "internalType": "uint256",
          "name": "endBlock",
          "type": "uint256"
        },
        {
          "indexed": false,
          "internalType": "string",
          "name": "description",
          "type": "string"
        }
      ],
      "name": "ProposalCreated",
      "type": "event"
    },
    {
      "anonymous": false,
      "inputs": [
        {
          "indexed": false,
          "internalType": "uint256",
          "name": "proposalId",
          "type": "uint256"
        }
      ],
      "name": "ProposalExecuted",
      "type": "event"
    },
    {
      "anonymous": false,
      "inputs": [
        {
          "indexed": false,
          "internalType": "uint256",
          "name": "oldProposalThreshold",
          "type": "uint256"
        },
        {
          "indexed": false,
          "internalType": "uint256",
          "name": "newProposalThreshold",
          "type": "uint256"
        }
      ],
      "name": "ProposalThresholdSet",
      "type": "event"
    },
    {
      "anonymous": false,
      "inputs": [
        {
          "indexed": false,
          "internalType": "uint256",
          "name": "oldQuorumNumerator",
          "type": "uint256"
        },
        {
          "indexed": false,
          "internalType": "uint256",
          "name": "newQuorumNumerator",
          "type": "uint256"
        }
      ],
      "name": "QuorumNumeratorUpdated",
      "type": "event"
    },
    {
      "anonymous": false,
      "inputs": [
        {
          "indexed": true,
          "internalType": "address",
          "name": "from",
          "type": "address"
        },
        {
          "indexed": true,
          "internalType": "address",
          "name": "to",
          "type": "address"
        },
        {
          "indexed": false,
          "internalType": "uint256",
          "name": "value",
          "type": "uint256"
        }
      ],
      "name": "Transfer",
      "type": "event"
    },
    {
      "anonymous": false,
      "inputs": [
        {
          "indexed": true,
          "internalType": "address",
          "name": "voter",
          "type": "address"
        },
        {
          "indexed": false,
          "internalType": "uint256",
          "name": "proposalId",
          "type": "uint256"
        },
        {
          "indexed": false,
          "internalType": "uint8",
          "name": "support",
          "type": "uint8"
        },
        {
          "indexed": false,
          "internalType": "uint256",
          "name": "weight",
          "type": "uint256"
        },
        {
          "indexed": false,
          "internalType": "string",
          "name": "reason",
          "type": "string"
        }
      ],
      "name": "VoteCast",
      "type": "event"
    },
    {
      "anonymous": false,
      "inputs": [
        {
          "indexed": true,
          "internalType": "address",
          "name": "voter",
          "type": "address"
        },
        {
          "indexed": false,
          "internalType": "uint256",
          "name": "proposalId",
          "type": "uint256"
        },
        {
          "indexed": false,
          "internalType": "uint8",
          "name": "support",
          "type": "uint8"
        },
        {
          "indexed": false,
          "internalType": "uint256",
          "name": "weight",
          "type": "uint256"
        },
        {
          "indexed": false,
          "internalType": "string",
          "name": "reason",
          "type": "string"
        },
        {
          "indexed": false,
          "internalType": "bytes",
          "name": "params",
          "type": "bytes"
        }
      ],
      "name": "VoteCastWithParams",
      "type": "event"
    },
    {
      "anonymous": false,
      "inputs": [
        {
          "indexed": false,
          "internalType": "uint256",
          "name": "oldVotingDelay",
          "type": "uint256"
        },
        {
          "indexed": false,
          "internalType": "uint256",
          "name": "newVotingDelay",
          "type": "uint256"
        }
      ],
      "name": "VotingDelaySet",
      "type": "event"
    },
    {
      "anonymous": false,
      "inputs": [
        {
          "indexed": false,
          "internalType": "uint256",
          "name": "oldVotingPeriod",
          "type": "uint256"
        },
        {
          "indexed": false,
          "internalType": "uint256",
          "name": "newVotingPeriod",
          "type": "uint256"
        }
      ],
      "name": "VotingPeriodSet",
      "type": "event"
    },
    {
      "inputs": [],
      "name": "BALLOT_TYPEHASH",
      "outputs": [
        {
          "internalType": "bytes32",
          "name": "",
          "type": "bytes32"
        }
      ],
      "stateMutability": "view",
      "type": "function"
    },
    {
      "inputs": [],
      "name": "COUNTING_MODE",
      "outputs": [
        {
          "internalType": "string",
          "name": "",
          "type": "string"
        }
      ],
      "stateMutability": "pure",
      "type": "function"
    },
    {
      "inputs": [],
      "name": "DOMAIN_SEPARATOR",
      "outputs": [
        {
          "internalType": "bytes32",
          "name": "",
          "type": "bytes32"
        }
      ],
      "stateMutability": "view",
      "type": "function"
    },
    {
      "inputs": [],
      "name": "EXTENDED_BALLOT_TYPEHASH",
      "outputs": [
        {
          "internalType": "bytes32",
          "name": "",
          "type": "bytes32"
        }
      ],
      "stateMutability": "view",
      "type": "function"
    },
    {
      "inputs": [
        {
          "internalType": "address",
          "name": "owner",
          "type": "address"
        },
        {
          "internalType": "address",
          "name": "spender",
          "type": "address"
        }
      ],
      "name": "allowance",
      "outputs": [
        {
          "internalType": "uint256",
          "name": "",
          "type": "uint256"
        }
      ],
      "stateMutability": "view",
      "type": "function"
    },
    {
      "inputs": [
        {
          "internalType": "address",
          "name": "spender",
          "type": "address"
        },
        {
          "internalType": "uint256",
          "name": "amount",
          "type": "uint256"
        }
      ],
      "name": "approve",
      "outputs": [
        {
          "internalType": "bool",
          "name": "",
          "type": "bool"
        }
      ],
      "stateMutability": "nonpayable",
      "type": "function"
    },
    {
      "inputs": [
        {
          "internalType": "address",
          "name": "account",
          "type": "address"
        }
      ],
      "name": "balanceOf",
      "outputs": [
        {
          "internalType": "uint256",
          "name": "",
          "type": "uint256"
        }
      ],
      "stateMutability": "view",
      "type": "function"
    },
    {
      "inputs": [
        {
          "internalType": "uint256",
          "name": "proposalId",
          "type": "uint256"
        },
        {
          "internalType": "uint8",
          "name": "support",
          "type": "uint8"
        }
      ],
      "name": "castVote",
      "outputs": [
        {
          "internalType": "uint256",
          "name": "",
          "type": "uint256"
        }
      ],
      "stateMutability": "nonpayable",
      "type": "function"
    },
    {
      "inputs": [
        {
          "internalType": "uint256",
          "name": "proposalId",
          "type": "uint256"
        },
        {
          "internalType": "uint8",
          "name": "support",
          "type": "uint8"
        },
        {
          "internalType": "uint8",
          "name": "v",
          "type": "uint8"
        },
        {
          "internalType": "bytes32",
          "name": "r",
          "type": "bytes32"
        },
        {
          "internalType": "bytes32",
          "name": "s",
          "type": "bytes32"
        }
      ],
      "name": "castVoteBySig",
      "outputs": [
        {
          "internalType": "uint256",
          "name": "",
          "type": "uint256"
        }
      ],
      "stateMutability": "nonpayable",
      "type": "function"
    },
    {
      "inputs": [
        {
          "internalType": "uint256",
          "name": "proposalId",
          "type": "uint256"
        },
        {
          "internalType": "uint8",
          "name": "support",
          "type": "uint8"
        },
        {
          "internalType": "string",
          "name": "reason",
          "type": "string"
        }
      ],
      "name": "castVoteWithReason",
      "outputs": [
        {
          "internalType": "uint256",
          "name": "",
          "type": "uint256"
        }
      ],
      "stateMutability": "nonpayable",
      "type": "function"
    },
    {
      "inputs": [
        {
          "internalType": "uint256",
          "name": "proposalId",
          "type": "uint256"
        },
        {
          "internalType": "uint8",
          "name": "support",
          "type": "uint8"
        },
        {
          "internalType": "string",
          "name": "reason",
          "type": "string"
        },
        {
          "internalType": "bytes",
          "name": "params",
          "type": "bytes"
        }
      ],
      "name": "castVoteWithReasonAndParams",
      "outputs": [
        {
          "internalType": "uint256",
          "name": "",
          "type": "uint256"
        }
      ],
      "stateMutability": "nonpayable",
      "type": "function"
    },
    {
      "inputs": [
        {
          "internalType": "uint256",
          "name": "proposalId",
          "type": "uint256"
        },
        {
          "internalType": "uint8",
          "name": "support",
          "type": "uint8"
        },
        {
          "internalType": "string",
          "name": "reason",
          "type": "string"
        },
        {
          "internalType": "bytes",
          "name": "params",
          "type": "bytes"
        },
        {
          "internalType": "uint8",
          "name": "v",
          "type": "uint8"
        },
        {
          "internalType": "bytes32",
          "name": "r",
          "type": "bytes32"
        },
        {
          "internalType": "bytes32",
          "name": "s",
          "type": "bytes32"
        }
      ],
      "name": "castVoteWithReasonAndParamsBySig",
      "outputs": [
        {
          "internalType": "uint256",
          "name": "",
          "type": "uint256"
        }
      ],
      "stateMutability": "nonpayable",
      "type": "function"
    },
    {
      "inputs": [
        {
          "internalType": "address",
          "name": "account",
          "type": "address"
        },
        {
          "internalType": "uint32",
          "name": "pos",
          "type": "uint32"
        }
      ],
      "name": "checkpoints",
      "outputs": [
        {
          "components": [
            {
              "internalType": "uint32",
              "name": "fromBlock",
              "type": "uint32"
            },
            {
              "internalType": "uint224",
              "name": "votes",
              "type": "uint224"
            }
          ],
          "internalType": "struct ERC20VotesUpgradeable.Checkpoint",
          "name": "",
          "type": "tuple"
        }
      ],
      "stateMutability": "view",
      "type": "function"
    },
    {
      "inputs": [],
      "name": "clauseNFT",
      "outputs": [
        {
          "internalType": "contract IERC721",
          "name": "",
          "type": "address"
        }
      ],
      "stateMutability": "view",
      "type": "function"
    },
    {
      "inputs": [],
      "name": "decimals",
      "outputs": [
        {
          "internalType": "uint8",
          "name": "",
          "type": "uint8"
        }
      ],
      "stateMutability": "view",
      "type": "function"
    },
    {
      "inputs": [
        {
          "internalType": "address",
          "name": "spender",
          "type": "address"
        },
        {
          "internalType": "uint256",
          "name": "subtractedValue",
          "type": "uint256"
        }
      ],
      "name": "decreaseAllowance",
      "outputs": [
        {
          "internalType": "bool",
          "name": "",
          "type": "bool"
        }
      ],
      "stateMutability": "nonpayable",
      "type": "function"
    },
    {
      "inputs": [
        {
          "internalType": "address",
          "name": "delegatee",
          "type": "address"
        }
      ],
      "name": "delegate",
      "outputs": [],
      "stateMutability": "nonpayable",
      "type": "function"
    },
    {
      "inputs": [
        {
          "internalType": "address",
          "name": "delegatee",
          "type": "address"
        },
        {
          "internalType": "uint256",
          "name": "nonce",
          "type": "uint256"
        },
        {
          "internalType": "uint256",
          "name": "expiry",
          "type": "uint256"
        },
        {
          "internalType": "uint8",
          "name": "v",
          "type": "uint8"
        },
        {
          "internalType": "bytes32",
          "name": "r",
          "type": "bytes32"
        },
        {
          "internalType": "bytes32",
          "name": "s",
          "type": "bytes32"
        }
      ],
      "name": "delegateBySig",
      "outputs": [],
      "stateMutability": "nonpayable",
      "type": "function"
    },
    {
      "inputs": [
        {
          "internalType": "address",
          "name": "account",
          "type": "address"
        }
      ],
      "name": "delegates",
      "outputs": [
        {
          "internalType": "address",
          "name": "",
          "type": "address"
        }
      ],
      "stateMutability": "view",
      "type": "function"
    },
    {
      "inputs": [
        {
          "internalType": "address[]",
          "name": "targets",
          "type": "address[]"
        },
        {
          "internalType": "uint256[]",
          "name": "values",
          "type": "uint256[]"
        },
        {
          "internalType": "bytes[]",
          "name": "calldatas",
          "type": "bytes[]"
        },
        {
          "internalType": "bytes32",
          "name": "descriptionHash",
          "type": "bytes32"
        }
      ],
      "name": "execute",
      "outputs": [
        {
          "internalType": "uint256",
          "name": "",
          "type": "uint256"
        }
      ],
      "stateMutability": "payable",
      "type": "function"
    },
    {
      "inputs": [
        {
          "internalType": "uint256",
          "name": "blockNumber",
          "type": "uint256"
        }
      ],
      "name": "getPastTotalSupply",
      "outputs": [
        {
          "internalType": "uint256",
          "name": "",
          "type": "uint256"
        }
      ],
      "stateMutability": "view",
      "type": "function"
    },
    {
      "inputs": [
        {
          "internalType": "address",
          "name": "account",
          "type": "address"
        },
        {
          "internalType": "uint256",
          "name": "blockNumber",
          "type": "uint256"
        }
      ],
      "name": "getPastVotes",
      "outputs": [
        {
          "internalType": "uint256",
          "name": "",
          "type": "uint256"
        }
      ],
      "stateMutability": "view",
      "type": "function"
    },
    {
      "inputs": [
        {
          "internalType": "address",
          "name": "account",
          "type": "address"
        }
      ],
      "name": "getVotes",
      "outputs": [
        {
          "internalType": "uint256",
          "name": "",
          "type": "uint256"
        }
      ],
      "stateMutability": "view",
      "type": "function"
    },
    {
      "inputs": [
        {
          "internalType": "address",
          "name": "account",
          "type": "address"
        },
        {
          "internalType": "uint256",
          "name": "blockNumber",
          "type": "uint256"
        }
      ],
      "name": "getVotes",
      "outputs": [
        {
          "internalType": "uint256",
          "name": "",
          "type": "uint256"
        }
      ],
      "stateMutability": "view",
      "type": "function"
    },
    {
      "inputs": [
        {
          "internalType": "address",
          "name": "account",
          "type": "address"
        },
        {
          "internalType": "uint256",
          "name": "blockNumber",
          "type": "uint256"
        },
        {
          "internalType": "bytes",
          "name": "params",
          "type": "bytes"
        }
      ],
      "name": "getVotesWithParams",
      "outputs": [
        {
          "internalType": "uint256",
          "name": "",
          "type": "uint256"
        }
      ],
      "stateMutability": "view",
      "type": "function"
    },
    {
      "inputs": [
        {
          "internalType": "uint256",
          "name": "proposalId",
          "type": "uint256"
        },
        {
          "internalType": "address",
          "name": "account",
          "type": "address"
        }
      ],
      "name": "hasVoted",
      "outputs": [
        {
          "internalType": "bool",
          "name": "",
          "type": "bool"
        }
      ],
      "stateMutability": "view",
      "type": "function"
    },
    {
      "inputs": [
        {
          "internalType": "address[]",
          "name": "targets",
          "type": "address[]"
        },
        {
          "internalType": "uint256[]",
          "name": "values",
          "type": "uint256[]"
        },
        {
          "internalType": "bytes[]",
          "name": "calldatas",
          "type": "bytes[]"
        },
        {
          "internalType": "bytes32",
          "name": "descriptionHash",
          "type": "bytes32"
        }
      ],
      "name": "hashProposal",
      "outputs": [
        {
          "internalType": "uint256",
          "name": "",
          "type": "uint256"
        }
      ],
      "stateMutability": "pure",
      "type": "function"
    },
    {
      "inputs": [
        {
          "internalType": "address",
          "name": "spender",
          "type": "address"
        },
        {
          "internalType": "uint256",
          "name": "addedValue",
          "type": "uint256"
        }
      ],
      "name": "increaseAllowance",
      "outputs": [
        {
          "internalType": "bool",
          "name": "",
          "type": "bool"
        }
      ],
      "stateMutability": "nonpayable",
      "type": "function"
    },
    {
      "inputs": [
        {
          "internalType": "string",
          "name": "_name",
          "type": "string"
        },
        {
          "internalType": "string",
          "name": "_symbol",
          "type": "string"
        },
        {
          "internalType": "address",
          "name": "_clauseNFT",
          "type": "address"
        },
        {
          "internalType": "uint256",
          "name": "_tokenId",
          "type": "uint256"
        }
      ],
      "name": "initialize",
      "outputs": [],
      "stateMutability": "nonpayable",
      "type": "function"
    },
    {
      "inputs": [],
      "name": "initialized",
      "outputs": [
        {
          "internalType": "bool",
          "name": "",
          "type": "bool"
        }
      ],
      "stateMutability": "view",
      "type": "function"
    },
    {
      "inputs": [
        {
          "internalType": "address",
          "name": "to",
          "type": "address"
        },
        {
          "internalType": "uint256",
          "name": "amount",
          "type": "uint256"
        }
      ],
      "name": "mint",
      "outputs": [],
      "stateMutability": "nonpayable",
      "type": "function"
    },
    {
      "inputs": [],
      "name": "name",
      "outputs": [
        {
          "internalType": "string",
          "name": "",
          "type": "string"
        }
      ],
      "stateMutability": "view",
      "type": "function"
    },
    {
      "inputs": [
        {
          "internalType": "address",
          "name": "owner",
          "type": "address"
        }
      ],
      "name": "nonces",
      "outputs": [
        {
          "internalType": "uint256",
          "name": "",
          "type": "uint256"
        }
      ],
      "stateMutability": "view",
      "type": "function"
    },
    {
      "inputs": [
        {
          "internalType": "address",
          "name": "account",
          "type": "address"
        }
      ],
      "name": "numCheckpoints",
      "outputs": [
        {
          "internalType": "uint32",
          "name": "",
          "type": "uint32"
        }
      ],
      "stateMutability": "view",
      "type": "function"
    },
    {
      "inputs": [
        {
          "internalType": "address",
          "name": "",
          "type": "address"
        },
        {
          "internalType": "address",
          "name": "",
          "type": "address"
        },
        {
          "internalType": "uint256[]",
          "name": "",
          "type": "uint256[]"
        },
        {
          "internalType": "uint256[]",
          "name": "",
          "type": "uint256[]"
        },
        {
          "internalType": "bytes",
          "name": "",
          "type": "bytes"
        }
      ],
      "name": "onERC1155BatchReceived",
      "outputs": [
        {
          "internalType": "bytes4",
          "name": "",
          "type": "bytes4"
        }
      ],
      "stateMutability": "nonpayable",
      "type": "function"
    },
    {
      "inputs": [
        {
          "internalType": "address",
          "name": "",
          "type": "address"
        },
        {
          "internalType": "address",
          "name": "",
          "type": "address"
        },
        {
          "internalType": "uint256",
          "name": "",
          "type": "uint256"
        },
        {
          "internalType": "uint256",
          "name": "",
          "type": "uint256"
        },
        {
          "internalType": "bytes",
          "name": "",
          "type": "bytes"
        }
      ],
      "name": "onERC1155Received",
      "outputs": [
        {
          "internalType": "bytes4",
          "name": "",
          "type": "bytes4"
        }
      ],
      "stateMutability": "nonpayable",
      "type": "function"
    },
    {
      "inputs": [
        {
          "internalType": "address",
          "name": "operator",
          "type": "address"
        },
        {
          "internalType": "address",
          "name": "from",
          "type": "address"
        },
        {
          "internalType": "uint256",
          "name": "_tokenId",
          "type": "uint256"
        },
        {
          "internalType": "bytes",
          "name": "data",
          "type": "bytes"
        }
      ],
      "name": "onERC721Received",
      "outputs": [
        {
          "internalType": "bytes4",
          "name": "",
          "type": "bytes4"
        }
      ],
      "stateMutability": "nonpayable",
      "type": "function"
    },
    {
      "inputs": [],
      "name": "owner",
      "outputs": [
        {
          "internalType": "address",
          "name": "",
          "type": "address"
        }
      ],
      "stateMutability": "view",
      "type": "function"
    },
    {
      "inputs": [
        {
          "internalType": "address",
          "name": "owner",
          "type": "address"
        },
        {
          "internalType": "address",
          "name": "spender",
          "type": "address"
        },
        {
          "internalType": "uint256",
          "name": "value",
          "type": "uint256"
        },
        {
          "internalType": "uint256",
          "name": "deadline",
          "type": "uint256"
        },
        {
          "internalType": "uint8",
          "name": "v",
          "type": "uint8"
        },
        {
          "internalType": "bytes32",
          "name": "r",
          "type": "bytes32"
        },
        {
          "internalType": "bytes32",
          "name": "s",
          "type": "bytes32"
        }
      ],
      "name": "permit",
      "outputs": [],
      "stateMutability": "nonpayable",
      "type": "function"
    },
    {
      "inputs": [
        {
          "internalType": "uint256",
          "name": "proposalId",
          "type": "uint256"
        }
      ],
      "name": "proposalDeadline",
      "outputs": [
        {
          "internalType": "uint256",
          "name": "",
          "type": "uint256"
        }
      ],
      "stateMutability": "view",
      "type": "function"
    },
    {
      "inputs": [
        {
          "internalType": "uint256",
          "name": "proposalId",
          "type": "uint256"
        }
      ],
      "name": "proposalSnapshot",
      "outputs": [
        {
          "internalType": "uint256",
          "name": "",
          "type": "uint256"
        }
      ],
      "stateMutability": "view",
      "type": "function"
    },
    {
      "inputs": [],
      "name": "proposalThreshold",
      "outputs": [
        {
          "internalType": "uint256",
          "name": "",
          "type": "uint256"
        }
      ],
      "stateMutability": "view",
      "type": "function"
    },
    {
      "inputs": [
        {
          "internalType": "uint256",
          "name": "proposalId",
          "type": "uint256"
        }
      ],
      "name": "proposalVotes",
      "outputs": [
        {
          "internalType": "uint256",
          "name": "againstVotes",
          "type": "uint256"
        },
        {
          "internalType": "uint256",
          "name": "forVotes",
          "type": "uint256"
        },
        {
          "internalType": "uint256",
          "name": "abstainVotes",
          "type": "uint256"
        }
      ],
      "stateMutability": "view",
      "type": "function"
    },
    {
      "inputs": [
        {
          "internalType": "address[]",
          "name": "targets",
          "type": "address[]"
        },
        {
          "internalType": "uint256[]",
          "name": "values",
          "type": "uint256[]"
        },
        {
          "internalType": "bytes[]",
          "name": "calldatas",
          "type": "bytes[]"
        },
        {
          "internalType": "string",
          "name": "description",
          "type": "string"
        }
      ],
      "name": "propose",
      "outputs": [
        {
          "internalType": "uint256",
          "name": "",
          "type": "uint256"
        }
      ],
      "stateMutability": "nonpayable",
      "type": "function"
    },
    {
      "inputs": [
        {
          "internalType": "address",
          "name": "_clauseNFT",
          "type": "address"
        },
        {
          "internalType": "uint256",
          "name": "_tokenId",
          "type": "uint256"
        }
      ],
      "name": "proposeUpdateClause",
      "outputs": [],
      "stateMutability": "nonpayable",
      "type": "function"
    },
    {
      "inputs": [
        {
          "internalType": "uint256",
          "name": "blockNumber",
          "type": "uint256"
        }
      ],
      "name": "quorum",
      "outputs": [
        {
          "internalType": "uint256",
          "name": "",
          "type": "uint256"
        }
      ],
      "stateMutability": "view",
      "type": "function"
    },
    {
      "inputs": [],
      "name": "quorumDenominator",
      "outputs": [
        {
          "internalType": "uint256",
          "name": "",
          "type": "uint256"
        }
      ],
      "stateMutability": "view",
      "type": "function"
    },
    {
      "inputs": [
        {
          "internalType": "uint256",
          "name": "blockNumber",
          "type": "uint256"
        }
      ],
      "name": "quorumNumerator",
      "outputs": [
        {
          "internalType": "uint256",
          "name": "",
          "type": "uint256"
        }
      ],
      "stateMutability": "view",
      "type": "function"
    },
    {
      "inputs": [],
      "name": "quorumNumerator",
      "outputs": [
        {
          "internalType": "uint256",
          "name": "",
          "type": "uint256"
        }
      ],
      "stateMutability": "view",
      "type": "function"
    },
    {
      "inputs": [
        {
          "internalType": "address",
          "name": "target",
          "type": "address"
        },
        {
          "internalType": "uint256",
          "name": "value",
          "type": "uint256"
        },
        {
          "internalType": "bytes",
          "name": "data",
          "type": "bytes"
        }
      ],
      "name": "relay",
      "outputs": [],
      "stateMutability": "payable",
      "type": "function"
    },
    {
      "inputs": [],
      "name": "renounceOwnership",
      "outputs": [],
      "stateMutability": "nonpayable",
      "type": "function"
    },
    {
      "inputs": [
        {
          "internalType": "address",
          "name": "_userAddress",
          "type": "address"
        },
        {
          "internalType": "bool",
          "name": "_freeze",
          "type": "bool"
        }
      ],
      "name": "setAddressFrozen",
      "outputs": [],
      "stateMutability": "nonpayable",
      "type": "function"
    },
    {
      "inputs": [
        {
          "internalType": "uint256",
          "name": "newProposalThreshold",
          "type": "uint256"
        }
      ],
      "name": "setProposalThreshold",
      "outputs": [],
      "stateMutability": "nonpayable",
      "type": "function"
    },
    {
      "inputs": [
        {
          "internalType": "uint256",
          "name": "newVotingDelay",
          "type": "uint256"
        }
      ],
      "name": "setVotingDelay",
      "outputs": [],
      "stateMutability": "nonpayable",
      "type": "function"
    },
    {
      "inputs": [
        {
          "internalType": "uint256",
          "name": "newVotingPeriod",
          "type": "uint256"
        }
      ],
      "name": "setVotingPeriod",
      "outputs": [],
      "stateMutability": "nonpayable",
      "type": "function"
    },
    {
      "inputs": [
        {
          "internalType": "uint256",
          "name": "proposalId",
          "type": "uint256"
        }
      ],
      "name": "state",
      "outputs": [
        {
          "internalType": "enum IGovernorUpgradeable.ProposalState",
          "name": "",
          "type": "uint8"
        }
      ],
      "stateMutability": "view",
      "type": "function"
    },
    {
      "inputs": [
        {
          "internalType": "bytes4",
          "name": "interfaceId",
          "type": "bytes4"
        }
      ],
      "name": "supportsInterface",
      "outputs": [
        {
          "internalType": "bool",
          "name": "",
          "type": "bool"
        }
      ],
      "stateMutability": "view",
      "type": "function"
    },
    {
      "inputs": [],
      "name": "symbol",
      "outputs": [
        {
          "internalType": "string",
          "name": "",
          "type": "string"
        }
      ],
      "stateMutability": "view",
      "type": "function"
    },
    {
      "inputs": [],
      "name": "token",
      "outputs": [
        {
          "internalType": "contract IVotesUpgradeable",
          "name": "",
          "type": "address"
        }
      ],
      "stateMutability": "view",
      "type": "function"
    },
    {
      "inputs": [],
      "name": "tokenId",
      "outputs": [
        {
          "internalType": "uint256",
          "name": "",
          "type": "uint256"
        }
      ],
      "stateMutability": "view",
      "type": "function"
    },
    {
      "inputs": [],
      "name": "totalSupply",
      "outputs": [
        {
          "internalType": "uint256",
          "name": "",
          "type": "uint256"
        }
      ],
      "stateMutability": "view",
      "type": "function"
    },
    {
      "inputs": [
        {
          "internalType": "address",
          "name": "to",
          "type": "address"
        },
        {
          "internalType": "uint256",
          "name": "amount",
          "type": "uint256"
        }
      ],
      "name": "transfer",
      "outputs": [
        {
          "internalType": "bool",
          "name": "",
          "type": "bool"
        }
      ],
      "stateMutability": "nonpayable",
      "type": "function"
    },
    {
      "inputs": [
        {
          "internalType": "address",
          "name": "from",
          "type": "address"
        },
        {
          "internalType": "address",
          "name": "to",
          "type": "address"
        },
        {
          "internalType": "uint256",
          "name": "amount",
          "type": "uint256"
        }
      ],
      "name": "transferFrom",
      "outputs": [
        {
          "internalType": "bool",
          "name": "",
          "type": "bool"
        }
      ],
      "stateMutability": "nonpayable",
      "type": "function"
    },
    {
      "inputs": [
        {
          "internalType": "address",
          "name": "newOwner",
          "type": "address"
        }
      ],
      "name": "transferOwnership",
      "outputs": [],
      "stateMutability": "nonpayable",
      "type": "function"
    },
    {
      "inputs": [
        {
          "internalType": "address",
          "name": "_clauseNFT",
          "type": "address"
        },
        {
          "internalType": "uint256",
          "name": "_tokenId",
          "type": "uint256"
        }
      ],
      "name": "updateClause",
      "outputs": [],
      "stateMutability": "nonpayable",
      "type": "function"
    },
    {
      "inputs": [
        {
          "internalType": "uint256",
          "name": "newQuorumNumerator",
          "type": "uint256"
        }
      ],
      "name": "updateQuorumNumerator",
      "outputs": [],
      "stateMutability": "nonpayable",
      "type": "function"
    },
    {
      "inputs": [],
      "name": "version",
      "outputs": [
        {
          "internalType": "string",
          "name": "",
          "type": "string"
        }
      ],
      "stateMutability": "view",
      "type": "function"
    },
    {
      "inputs": [],
      "name": "votingDelay",
      "outputs": [
        {
          "internalType": "uint256",
          "name": "",
          "type": "uint256"
        }
      ],
      "stateMutability": "view",
      "type": "function"
    },
    {
      "inputs": [],
      "name": "votingPeriod",
      "outputs": [
        {
          "internalType": "uint256",
          "name": "",
          "type": "uint256"
        }
      ],
      "stateMutability": "view",
      "type": "function"
    },
    {
      "stateMutability": "payable",
      "type": "receive"
    }
  ],
  "bytecode": "0x6080604052600061029160006101000a81548160ff0219169083151502179055503480156200002d57600080fd5b506200003e6200004460201b60201c565b620001ef565b600060019054906101000a900460ff161562000097576040517f08c379a00000000000000000000000000000000000000000000000000000000081526004016200008e9062000192565b60405180910390fd5b60ff801660008054906101000a900460ff1660ff161015620001095760ff6000806101000a81548160ff021916908360ff1602179055507f7f26b83ff96e1f2b6a682f133852f6798a09c465da95921460cefb384740249860ff604051620001009190620001d2565b60405180910390a15b565b600082825260208201905092915050565b7f496e697469616c697a61626c653a20636f6e747261637420697320696e69746960008201527f616c697a696e6700000000000000000000000000000000000000000000000000602082015250565b60006200017a6027836200010b565b915062000187826200011c565b604082019050919050565b60006020820190508181036000830152620001ad816200016b565b9050919050565b600060ff82169050919050565b620001cc81620001b4565b82525050565b6000602082019050620001e96000830184620001c1565b92915050565b61a2f680620001ff6000396000f3fe6080604052600436106103fe5760003560e01c80637b3c71d311610213578063c3cda52011610123578063ea0217cf116100ab578063f23a6e611161007a578063f23a6e6114611117578063f2fde38b14611154578063f542033f1461117d578063f8ce560a146111a6578063fc0c546a146111e357610444565b8063ea0217cf1461104b578063eb9019d414611074578063ece40cc1146110b1578063f1127ed8146110da57610444565b8063da39b354116100f2578063da39b35414610f66578063dd4e2ba514610f8f578063dd62ed3e14610fba578063deaaa7cc14610ff7578063e741b71c1461102257610444565b8063c3cda52014610eae578063c59057e414610ed7578063c69c09cf14610f14578063d505accf14610f3d57610444565b80639a802a6d116101a6578063a9059cbb11610175578063a9059cbb14610db0578063b58131b014610ded578063bc197c8114610e18578063c01f9e3714610e55578063c28bc2fa14610e9257610444565b80639a802a6d14610cce5780639ab24eb014610d0b578063a457c2d714610d48578063a7713a7014610d8557610444565b80638da5cb5b116101e25780638da5cb5b14610c105780638e539e8c14610c3b57806395d89b4114610c7857806397c3d33414610ca357610444565b80637b3c71d314610b2e5780637d5e81e214610b6b5780637ecebe0014610ba85780638400bb0414610be557610444565b8063395093511161030e57806356781388116102a157806360c4247f1161027057806360c4247f14610a375780636fcfff4514610a7457806370a0823114610ab157806370b0f66014610aee578063715018a614610b1757610444565b80635678138814610957578063587cde1e146109945780635c19a95c146109d15780635f398a14146109fa57610444565b806340c10f19116102dd57806340c10f191461088757806343859632146108b0578063544ffc9c146108ed57806354fd4d501461092c57610444565b806339509351146107935780633a46b1a8146107d05780633bccf4fd1461080d5780633e4f49e61461084a57610444565b806317d70f7c116103915780632d63f693116103605780632d63f693146106aa5780632fe3e261146106e7578063313ce567146107125780633644e5151461073d5780633932abb11461076857610444565b806317d70f7c146105e757806318160ddd1461061257806323b872dd1461063d5780632656227d1461067a57610444565b806306fdde03116103cd57806306fdde0314610517578063095ea7b314610542578063150b7a021461057f578063158ef93e146105bc57610444565b806301ffc9a71461044957806302a251a31461048657806303420181146104b157806306f3f9e6146104ee57610444565b36610444573073ffffffffffffffffffffffffffffffffffffffff1661042261120e565b73ffffffffffffffffffffffffffffffffffffffff161461044257600080fd5b005b600080fd5b34801561045557600080fd5b50610470600480360381019061046b9190616d67565b611216565b60405161047d9190616daf565b60405180910390f35b34801561049257600080fd5b5061049b61137b565b6040516104a89190616de3565b60405180910390f35b3480156104bd57600080fd5b506104d860048036038101906104d3919061703f565b61138a565b6040516104e59190616de3565b60405180910390f35b3480156104fa57600080fd5b506105156004803603810190610510919061711d565b61146f565b005b34801561052357600080fd5b5061052c61156c565b60405161053991906171d2565b60405180910390f35b34801561054e57600080fd5b5061056960048036038101906105649190617252565b61157b565b6040516105769190616daf565b60405180910390f35b34801561058b57600080fd5b506105a660048036038101906105a191906172e8565b61159e565b6040516105b3919061737f565b60405180910390f35b3480156105c857600080fd5b506105d16115fb565b6040516105de9190616daf565b60405180910390f35b3480156105f357600080fd5b506105fc61160f565b6040516106099190616de3565b60405180910390f35b34801561061e57600080fd5b50610627611616565b6040516106349190616de3565b60405180910390f35b34801561064957600080fd5b50610664600480360381019061065f919061739a565b611620565b6040516106719190616daf565b60405180910390f35b610694600480360381019061068f9190617654565b61164f565b6040516106a19190616de3565b60405180910390f35b3480156106b657600080fd5b506106d160048036038101906106cc919061711d565b61179e565b6040516106de9190616de3565b60405180910390f35b3480156106f357600080fd5b506106fc61180d565b604051610709919061771e565b60405180910390f35b34801561071e57600080fd5b50610727611831565b6040516107349190617748565b60405180910390f35b34801561074957600080fd5b5061075261183a565b60405161075f919061771e565b60405180910390f35b34801561077457600080fd5b5061077d611849565b60405161078a9190616de3565b60405180910390f35b34801561079f57600080fd5b506107ba60048036038101906107b59190617252565b611858565b6040516107c79190616daf565b60405180910390f35b3480156107dc57600080fd5b506107f760048036038101906107f29190617252565b61188f565b6040516108049190616de3565b60405180910390f35b34801561081957600080fd5b50610834600480360381019061082f9190617763565b611924565b6040516108419190616de3565b60405180910390f35b34801561085657600080fd5b50610871600480360381019061086c919061711d565b6119ae565b60405161087e9190617855565b60405180910390f35b34801561089357600080fd5b506108ae60048036038101906108a99190617252565b611ac4565b005b3480156108bc57600080fd5b506108d760048036038101906108d29190617870565b611ada565b6040516108e49190616daf565b60405180910390f35b3480156108f957600080fd5b50610914600480360381019061090f919061711d565b611b46565b604051610923939291906178b0565b60405180910390f35b34801561093857600080fd5b50610941611b7f565b60405161094e91906171d2565b60405180910390f35b34801561096357600080fd5b5061097e600480360381019061097991906178e7565b611bbc565b60405161098b9190616de3565b60405180910390f35b3480156109a057600080fd5b506109bb60048036038101906109b69190617927565b611bed565b6040516109c89190617963565b60405180910390f35b3480156109dd57600080fd5b506109f860048036038101906109f39190617927565b611c57565b005b348015610a0657600080fd5b50610a216004803603810190610a1c919061797e565b611c6b565b604051610a2e9190616de3565b60405180910390f35b348015610a4357600080fd5b50610a5e6004803603810190610a59919061711d565b611cd5565b604051610a6b9190616de3565b60405180910390f35b348015610a8057600080fd5b50610a9b6004803603810190610a969190617927565b611e26565b604051610aa89190617a41565b60405180910390f35b348015610abd57600080fd5b50610ad86004803603810190610ad39190617927565b611e7b565b604051610ae59190616de3565b60405180910390f35b348015610afa57600080fd5b50610b156004803603810190610b10919061711d565b611ec4565b005b348015610b2357600080fd5b50610b2c611fc1565b005b348015610b3a57600080fd5b50610b556004803603810190610b509190617a5c565b611fd5565b604051610b629190616de3565b60405180910390f35b348015610b7757600080fd5b50610b926004803603810190610b8d9190617b71565b61203d565b604051610b9f9190616de3565b60405180910390f35b348015610bb457600080fd5b50610bcf6004803603810190610bca9190617927565b61205d565b604051610bdc9190616de3565b60405180910390f35b348015610bf157600080fd5b50610bfa6120ad565b604051610c079190617ca7565b60405180910390f35b348015610c1c57600080fd5b50610c256120d4565b604051610c329190617963565b60405180910390f35b348015610c4757600080fd5b50610c626004803603810190610c5d919061711d565b6120fe565b604051610c6f9190616de3565b60405180910390f35b348015610c8457600080fd5b50610c8d612155565b604051610c9a91906171d2565b60405180910390f35b348015610caf57600080fd5b50610cb86121e7565b604051610cc59190616de3565b60405180910390f35b348015610cda57600080fd5b50610cf56004803603810190610cf09190617cc2565b6121f0565b604051610d029190616de3565b60405180910390f35b348015610d1757600080fd5b50610d326004803603810190610d2d9190617927565b612206565b604051610d3f9190616de3565b60405180910390f35b348015610d5457600080fd5b50610d6f6004803603810190610d6a9190617252565b612319565b604051610d7c9190616daf565b60405180910390f35b348015610d9157600080fd5b50610d9a612390565b604051610da79190616de3565b60405180910390f35b348015610dbc57600080fd5b50610dd76004803603810190610dd29190617252565b6123da565b604051610de49190616daf565b60405180910390f35b348015610df957600080fd5b50610e026123fd565b604051610e0f9190616de3565b60405180910390f35b348015610e2457600080fd5b50610e3f6004803603810190610e3a9190617d31565b61240c565b604051610e4c919061737f565b60405180910390f35b348015610e6157600080fd5b50610e7c6004803603810190610e77919061711d565b612421565b604051610e899190616de3565b60405180910390f35b610eac6004803603810190610ea79190617e00565b612490565b005b348015610eba57600080fd5b50610ed56004803603810190610ed09190617e74565b61261f565b005b348015610ee357600080fd5b50610efe6004803603810190610ef99190617654565b612723565b604051610f0b9190616de3565b60405180910390f35b348015610f2057600080fd5b50610f3b6004803603810190610f369190617f2d565b61275f565b005b348015610f4957600080fd5b50610f646004803603810190610f5f9190617f6d565b612775565b005b348015610f7257600080fd5b50610f8d6004803603810190610f889190617252565b6128b7565b005b348015610f9b57600080fd5b50610fa4612a80565b604051610fb191906171d2565b60405180910390f35b348015610fc657600080fd5b50610fe16004803603810190610fdc919061800f565b612abd565b604051610fee9190616de3565b60405180910390f35b34801561100357600080fd5b5061100c612b44565b604051611019919061771e565b60405180910390f35b34801561102e57600080fd5b5061104960048036038101906110449190617252565b612b68565b005b34801561105757600080fd5b50611072600480360381019061106d919061711d565b612ce4565b005b34801561108057600080fd5b5061109b60048036038101906110969190617252565b612de1565b6040516110a89190616de3565b60405180910390f35b3480156110bd57600080fd5b506110d860048036038101906110d3919061711d565b612dfd565b005b3480156110e657600080fd5b5061110160048036038101906110fc919061807b565b612efa565b60405161110e9190618130565b60405180910390f35b34801561112357600080fd5b5061113e6004803603810190611139919061814b565b61300b565b60405161114b919061737f565b60405180910390f35b34801561116057600080fd5b5061117b60048036038101906111769190617927565b613020565b005b34801561118957600080fd5b506111a4600480360381019061119f91906181e2565b6130a4565b005b3480156111b257600080fd5b506111cd60048036038101906111c8919061711d565b613267565b6040516111da9190616de3565b60405180910390f35b3480156111ef57600080fd5b506111f8613279565b60405161120591906182a2565b60405180910390f35b600030905090565b6000639a802a6d60e01b630342018160e01b635f398a1460e01b7f79dd796f000000000000000000000000000000000000000000000000000000001818187bffffffffffffffffffffffffffffffffffffffffffffffffffffffff1916827bffffffffffffffffffffffffffffffffffffffffffffffffffffffff191614806112fc57507f79dd796f000000000000000000000000000000000000000000000000000000007bffffffffffffffffffffffffffffffffffffffffffffffffffffffff1916827bffffffffffffffffffffffffffffffffffffffffffffffffffffffff1916145b8061136457507f4e2312e0000000000000000000000000000000000000000000000000000000007bffffffffffffffffffffffffffffffffffffffffffffffffffffffff1916827bffffffffffffffffffffffffffffffffffffffffffffffffffffffff1916145b806113745750611373826132a0565b5b9050919050565b600061138561330a565b905090565b60008061140d6114057fb3b3f3b703cd84ce352197dcff232b1b5d3cfb2025ce47cf04742d0651f1af888c8c8c8c6040516113c69291906182ed565b60405180910390208b805190602001206040516020016113ea959493929190618306565b60405160208183030381529060405280519060200120613315565b86868661332f565b90506114608a828b8b8b8080601f016020809104026020016040519081016040528093929190818152602001838380828437600081840152601f19601f820116905080830192505050505050508a61335a565b91505098975050505050505050565b61147761120e565b73ffffffffffffffffffffffffffffffffffffffff16611495613518565b73ffffffffffffffffffffffffffffffffffffffff16146114eb576040517f08c379a00000000000000000000000000000000000000000000000000000000081526004016114e2906183a5565b60405180910390fd5b3073ffffffffffffffffffffffffffffffffffffffff1661150a61120e565b73ffffffffffffffffffffffffffffffffffffffff161461156057600061152f613520565b60405161153d9291906182ed565b604051809103902090505b8061155461019661352d565b1461155e57611548565b505b61156981613609565b50565b60606115766137c0565b905090565b600080611586613518565b9050611593818585613853565b600191505092915050565b60006115f086868686868080601f016020809104026020016040519081016040528093929190818152602001838380828437600081840152601f19601f82011690508083019250505050505050613a1e565b905095945050505050565b61029160009054906101000a900460ff1681565b6102905481565b6000603554905090565b60008061162b613518565b9050611638858285613a32565b611643858585613abe565b60019150509392505050565b60008061165e86868686612723565b9050600061166b826119ae565b905060046007811115611681576116806177de565b5b816007811115611694576116936177de565b5b14806116c45750600560078111156116af576116ae6177de565b5b8160078111156116c2576116c16177de565b5b145b611703576040517f08c379a00000000000000000000000000000000000000000000000000000000081526004016116fa90618437565b60405180910390fd5b6001610195600084815260200190815260200160002060020160006101000a81548160ff0219169083151502179055507f712ae1383f79ac853f8d882153778e0260ef8f03b504e2866e0593e04d2b291f826040516117629190616de3565b60405180910390a16117778288888888613d39565b6117848288888888613e1e565b6117918288888888613f2d565b8192505050949350505050565b60006117fc61019560008481526020019081526020016000206000016040518060200160405290816000820160009054906101000a900467ffffffffffffffff1667ffffffffffffffff1667ffffffffffffffff1681525050613f8a565b67ffffffffffffffff169050919050565b7fb3b3f3b703cd84ce352197dcff232b1b5d3cfb2025ce47cf04742d0651f1af8881565b60006012905090565b6000611844613f98565b905090565b6000611853613fd8565b905090565b600080611863613518565b90506118848185856118758589612abd565b61187f9190618486565b613853565b600191505092915050565b60004382106118d3576040517f08c379a00000000000000000000000000000000000000000000000000000000081526004016118ca90618528565b60405180910390fd5b61191c61013160008573ffffffffffffffffffffffffffffffffffffffff1673ffffffffffffffffffffffffffffffffffffffff16815260200190815260200160002083613fe3565b905092915050565b60008061198561197d7f150214d74d59b7d1e90c73fc22ef3d991dd0a76b046543d4d80ab92d2a50328f898960405160200161196293929190618548565b60405160208183030381529060405280519060200120613315565b86868661332f565b90506119a287828860405180602001604052806000815250614134565b91505095945050505050565b600080610195600084815260200190815260200160002090508060020160009054906101000a900460ff16156119e8576007915050611abf565b8060020160019054906101000a900460ff1615611a09576002915050611abf565b6000611a148461179e565b90506000811415611a5a576040517f08c379a0000000000000000000000000000000000000000000000000000000008152600401611a51906185cb565b60405180910390fd5b438110611a6c57600092505050611abf565b6000611a7785612421565b9050438110611a8c5760019350505050611abf565b611a9585614154565b8015611aa65750611aa58561419c565b5b15611ab75760049350505050611abf565b600393505050505b919050565b611acc61428e565b611ad6828261430c565b5050565b60006101f8600084815260200190815260200160002060030160008373ffffffffffffffffffffffffffffffffffffffff1673ffffffffffffffffffffffffffffffffffffffff16815260200190815260200160002060009054906101000a900460ff16905092915050565b6000806000806101f860008681526020019081526020016000209050806000015481600101548260020154935093509350509193909250565b60606040518060400160405280600181526020017f3100000000000000000000000000000000000000000000000000000000000000815250905090565b600080611bc7613518565b9050611be484828560405180602001604052806000815250614134565b91505092915050565b600061013060008373ffffffffffffffffffffffffffffffffffffffff1673ffffffffffffffffffffffffffffffffffffffff16815260200190815260200160002060009054906101000a900473ffffffffffffffffffffffffffffffffffffffff169050919050565b611c68611c62613518565b8261431a565b50565b600080611c76613518565b9050611cc987828888888080601f016020809104026020016040519081016040528093929190818152602001838380828437600081840152601f19601f820116905080830192505050505050508761335a565b91505095945050505050565b60008061025e6000018054905090506000811415611cf95761025d54915050611e21565b600061025e600001600183611d0e91906185eb565b81548110611d1f57611d1e61861f565b5b906000526020600020016040518060400160405290816000820160009054906101000a900463ffffffff1663ffffffff1663ffffffff1681526020016000820160049054906101000a90047bffffffffffffffffffffffffffffffffffffffffffffffffffffffff167bffffffffffffffffffffffffffffffffffffffffffffffffffffffff167bffffffffffffffffffffffffffffffffffffffffffffffffffffffff1681525050905083816000015163ffffffff1611611e075780602001517bffffffffffffffffffffffffffffffffffffffffffffffffffffffff1692505050611e21565b611e1c8461025e6143a790919063ffffffff16565b925050505b919050565b6000611e7461013160008473ffffffffffffffffffffffffffffffffffffffff1673ffffffffffffffffffffffffffffffffffffffff16815260200190815260200160002080549050614496565b9050919050565b6000603360008373ffffffffffffffffffffffffffffffffffffffff1673ffffffffffffffffffffffffffffffffffffffff168152602001908152602001600020549050919050565b611ecc61120e565b73ffffffffffffffffffffffffffffffffffffffff16611eea613518565b73ffffffffffffffffffffffffffffffffffffffff1614611f40576040517f08c379a0000000000000000000000000000000000000000000000000000000008152600401611f37906183a5565b60405180910390fd5b3073ffffffffffffffffffffffffffffffffffffffff16611f5f61120e565b73ffffffffffffffffffffffffffffffffffffffff1614611fb5576000611f84613520565b604051611f929291906182ed565b604051809103902090505b80611fa961019661352d565b14611fb357611f9d565b505b611fbe816144e9565b50565b611fc961428e565b611fd36000614530565b565b600080611fe0613518565b905061203286828787878080601f016020809104026020016040519081016040528093929190818152602001838380828437600081840152601f19601f82011690508083019250505050505050614134565b915050949350505050565b600061204761428e565b612053858585856145f6565b9050949350505050565b60006120a660fd60008473ffffffffffffffffffffffffffffffffffffffff1673ffffffffffffffffffffffffffffffffffffffff1681526020019081526020016000206148fe565b9050919050565b61028f60009054906101000a900473ffffffffffffffffffffffffffffffffffffffff1681565b6000606560009054906101000a900473ffffffffffffffffffffffffffffffffffffffff16905090565b6000438210612142576040517f08c379a000000000000000000000000000000000000000000000000000000000815260040161213990618528565b60405180910390fd5b61214e61013283613fe3565b9050919050565b6060603780546121649061867d565b80601f01602080910402602001604051908101604052809291908181526020018280546121909061867d565b80156121dd5780601f106121b2576101008083540402835291602001916121dd565b820191906000526020600020905b8154815290600101906020018083116121c057829003601f168201915b5050505050905090565b60006064905090565b60006121fd84848461490c565b90509392505050565b60008061013160008473ffffffffffffffffffffffffffffffffffffffff1673ffffffffffffffffffffffffffffffffffffffff168152602001908152602001600020805490509050600081146122f05761013160008473ffffffffffffffffffffffffffffffffffffffff1673ffffffffffffffffffffffffffffffffffffffff1681526020019081526020016000206001826122a491906185eb565b815481106122b5576122b461861f565b5b9060005260206000200160000160049054906101000a90047bffffffffffffffffffffffffffffffffffffffffffffffffffffffff166122f3565b60005b7bffffffffffffffffffffffffffffffffffffffffffffffffffffffff16915050919050565b600080612324613518565b905060006123328286612abd565b905083811015612377576040517f08c379a000000000000000000000000000000000000000000000000000000000815260040161236e90618721565b60405180910390fd5b6123848286868403613853565b60019250505092915050565b60008061025e60000180549050146123d0576123ad61025e6149c5565b7bffffffffffffffffffffffffffffffffffffffffffffffffffffffff166123d5565b61025d545b905090565b6000806123e5613518565b90506123f2818585613abe565b600191505092915050565b6000612407614a2f565b905090565b600063bc197c8160e01b905095945050505050565b600061247f61019560008481526020019081526020016000206001016040518060200160405290816000820160009054906101000a900467ffffffffffffffff1667ffffffffffffffff1667ffffffffffffffff1681525050613f8a565b67ffffffffffffffff169050919050565b61249861120e565b73ffffffffffffffffffffffffffffffffffffffff166124b6613518565b73ffffffffffffffffffffffffffffffffffffffff161461250c576040517f08c379a0000000000000000000000000000000000000000000000000000000008152600401612503906183a5565b60405180910390fd5b3073ffffffffffffffffffffffffffffffffffffffff1661252b61120e565b73ffffffffffffffffffffffffffffffffffffffff1614612581576000612550613520565b60405161255e9291906182ed565b604051809103902090505b8061257561019661352d565b1461257f57612569565b505b6000808573ffffffffffffffffffffffffffffffffffffffff168585856040516125ac9291906182ed565b60006040518083038185875af1925050503d80600081146125e9576040519150601f19603f3d011682016040523d82523d6000602084013e6125ee565b606091505b5091509150612616828260405180606001604052806028815260200161a27260289139614a3a565b50505050505050565b83421115612662576040517f08c379a00000000000000000000000000000000000000000000000000000000081526004016126599061878d565b60405180910390fd5b60006126c46126bc7fe48329057bfd03d55e49b547132e39cffd9c1820ad7b9d4c5307691425d15adf8989896040516020016126a194939291906187ad565b60405160208183030381529060405280519060200120613315565b85858561332f565b90506126cf81614a5c565b8614612710576040517f08c379a00000000000000000000000000000000000000000000000000000000081526004016127079061883e565b60405180910390fd5b61271a818861431a565b50505050505050565b60008484848460405160200161273c9493929190618af1565b6040516020818303038152906040528051906020012060001c9050949350505050565b61276761428e565b6127718282614aba565b5050565b834211156127b8576040517f08c379a00000000000000000000000000000000000000000000000000000000081526004016127af90618b97565b60405180910390fd5b60007f6e71edae12b1b97f4d1f60370fef10105fa2faae0126114a169c64845d6126c98888886127e78c614a5c565b896040516020016127fd96959493929190618bb7565b604051602081830303815290604052805190602001209050600061282082613315565b905060006128308287878761332f565b90508973ffffffffffffffffffffffffffffffffffffffff168173ffffffffffffffffffffffffffffffffffffffff16146128a0576040517f08c379a000000000000000000000000000000000000000000000000000000000815260040161289790618c64565b60405180910390fd5b6128ab8a8a8a613853565b50505050505050505050565b6128bf61120e565b73ffffffffffffffffffffffffffffffffffffffff166128dd613518565b73ffffffffffffffffffffffffffffffffffffffff1614612933576040517f08c379a000000000000000000000000000000000000000000000000000000000815260040161292a906183a5565b60405180910390fd5b3073ffffffffffffffffffffffffffffffffffffffff1661295261120e565b73ffffffffffffffffffffffffffffffffffffffff16146129a8576000612977613520565b6040516129859291906182ed565b604051809103902090505b8061299c61019661352d565b146129a657612990565b505b8161028f60006101000a81548173ffffffffffffffffffffffffffffffffffffffff021916908373ffffffffffffffffffffffffffffffffffffffff16021790555061028f60009054906101000a900473ffffffffffffffffffffffffffffffffffffffff1673ffffffffffffffffffffffffffffffffffffffff166342842e0e3330846040518463ffffffff1660e01b8152600401612a4a93929190618c84565b600060405180830381600087803b158015612a6457600080fd5b505af1158015612a78573d6000803e3d6000fd5b505050505050565b60606040518060400160405280602081526020017f737570706f72743d627261766f2671756f72756d3d666f722c6162737461696e815250905090565b6000603460008473ffffffffffffffffffffffffffffffffffffffff1673ffffffffffffffffffffffffffffffffffffffff16815260200190815260200160002060008373ffffffffffffffffffffffffffffffffffffffff1673ffffffffffffffffffffffffffffffffffffffff16815260200190815260200160002054905092915050565b7f150214d74d59b7d1e90c73fc22ef3d991dd0a76b046543d4d80ab92d2a50328f81565b612b7061428e565b60008282604051602401612b85929190618cbb565b6040516020818303038152906040527fda39b354000000000000000000000000000000000000000000000000000000007bffffffffffffffffffffffffffffffffffffffffffffffffffffffff19166020820180517bffffffffffffffffffffffffffffffffffffffffffffffffffffffff8381831617835250505050905060608060603083600081518110612c1e57612c1d61861f565b5b602002602001019073ffffffffffffffffffffffffffffffffffffffff16908173ffffffffffffffffffffffffffffffffffffffff1681525050600082600081518110612c6e57612c6d61861f565b5b6020026020010181815250508381600081518110612c8f57612c8e61861f565b5b6020026020010181905250612cdb8383836040518060400160405280600d81526020017f55706461746520436c617573650000000000000000000000000000000000000081525061203d565b50505050505050565b612cec61120e565b73ffffffffffffffffffffffffffffffffffffffff16612d0a613518565b73ffffffffffffffffffffffffffffffffffffffff1614612d60576040517f08c379a0000000000000000000000000000000000000000000000000000000008152600401612d57906183a5565b60405180910390fd5b3073ffffffffffffffffffffffffffffffffffffffff16612d7f61120e565b73ffffffffffffffffffffffffffffffffffffffff1614612dd5576000612da4613520565b604051612db29291906182ed565b604051809103902090505b80612dc961019661352d565b14612dd357612dbd565b505b612dde81614b5c565b50565b6000612df58383612df0614be6565b61490c565b905092915050565b612e0561120e565b73ffffffffffffffffffffffffffffffffffffffff16612e23613518565b73ffffffffffffffffffffffffffffffffffffffff1614612e79576040517f08c379a0000000000000000000000000000000000000000000000000000000008152600401612e70906183a5565b60405180910390fd5b3073ffffffffffffffffffffffffffffffffffffffff16612e9861120e565b73ffffffffffffffffffffffffffffffffffffffff1614612eee576000612ebd613520565b604051612ecb9291906182ed565b604051809103902090505b80612ee261019661352d565b14612eec57612ed6565b505b612ef781614bfd565b50565b612f02616c1a565b61013160008473ffffffffffffffffffffffffffffffffffffffff1673ffffffffffffffffffffffffffffffffffffffff1681526020019081526020016000208263ffffffff1681548110612f5a57612f5961861f565b5b906000526020600020016040518060400160405290816000820160009054906101000a900463ffffffff1663ffffffff1663ffffffff1681526020016000820160049054906101000a90047bffffffffffffffffffffffffffffffffffffffffffffffffffffffff167bffffffffffffffffffffffffffffffffffffffffffffffffffffffff167bffffffffffffffffffffffffffffffffffffffffffffffffffffffff1681525050905092915050565b600063f23a6e6160e01b905095945050505050565b61302861428e565b600073ffffffffffffffffffffffffffffffffffffffff168173ffffffffffffffffffffffffffffffffffffffff161415613098576040517f08c379a000000000000000000000000000000000000000000000000000000000815260040161308f90618d56565b60405180910390fd5b6130a181614530565b50565b6130ac61428e565b61029160009054906101000a900460ff16156130fd576040517f08c379a00000000000000000000000000000000000000000000000000000000081526004016130f490618dc2565b60405180910390fd5b6131078484614c44565b61310f614ca1565b61311884614cfa565b613120614d8b565b61312984614ddc565b61315660017fffffffffffffffffffffffffffffffffffffffffffffffffffffffffffffffff6000614e48565b61315e614ea7565b61316730614ef8565b6131716000614f53565b8161028f60006101000a81548173ffffffffffffffffffffffffffffffffffffffff021916908373ffffffffffffffffffffffffffffffffffffffff16021790555061028f60009054906101000a900473ffffffffffffffffffffffffffffffffffffffff1673ffffffffffffffffffffffffffffffffffffffff166342842e0e3330846040518463ffffffff1660e01b815260040161321393929190618c84565b600060405180830381600087803b15801561322d57600080fd5b505af1158015613241573d6000803e3d6000fd5b50505050600161029160006101000a81548160ff02191690831515021790555050505050565b600061327282614fae565b9050919050565b61022a60009054906101000a900473ffffffffffffffffffffffffffffffffffffffff1681565b60007f01ffc9a7000000000000000000000000000000000000000000000000000000007bffffffffffffffffffffffffffffffffffffffffffffffffffffffff1916827bffffffffffffffffffffffffffffffffffffffffffffffffffffffff1916149050919050565b60006101c754905090565b6000613328613322613f98565b83615088565b9050919050565b6000806000613340878787876150bb565b9150915061334d8161519e565b8192505050949350505050565b6000806101956000888152602001908152602001600020905060016007811115613387576133866177de565b5b613390886119ae565b60078111156133a2576133a16177de565b5b146133e2576040517f08c379a00000000000000000000000000000000000000000000000000000000081526004016133d990618e54565b60405180910390fd5b600061344187613431846000016040518060200160405290816000820160009054906101000a900467ffffffffffffffff1667ffffffffffffffff1667ffffffffffffffff1681525050613f8a565b67ffffffffffffffff168661490c565b9050613450888888848861530c565b6000845114156134b3578673ffffffffffffffffffffffffffffffffffffffff167fb8e138887d0aa13bab447e82de9d5c1777041ecd21ca36ba824ff1e6c07ddda4898884896040516134a69493929190618e74565b60405180910390a261350a565b8673ffffffffffffffffffffffffffffffffffffffff167fe2babfbac5889a709b63bb7f598b324e08bc5a4fb9ec647fb3cbc9ec07eb87128988848989604051613501959493929190618f0a565b60405180910390a25b809250505095945050505050565b600033905090565b3660008036915091509091565b6000613538826153b3565b1561356f576040517f3db2a12a00000000000000000000000000000000000000000000000000000000815260040160405180910390fd5b60008260000160009054906101000a9004600f0b905082600101600082600f0b600f0b815260200190815260200160002054915082600101600082600f0b600f0b815260200190815260200160002060009055600181018360000160006101000a8154816fffffffffffffffffffffffffffffffff0219169083600f0b6fffffffffffffffffffffffffffffffff16021790555050919050565b6136116121e7565b811115613653576040517f08c379a000000000000000000000000000000000000000000000000000000000815260040161364a90619003565b60405180910390fd5b600061365d612390565b9050600081141580156136795750600061025e60000180549050145b1561376c5761025e6000016040518060400160405280600063ffffffff1681526020016136a5846153e8565b7bffffffffffffffffffffffffffffffffffffffffffffffffffffffff168152509080600181540180825580915050600190039060005260206000200160009091909190915060008201518160000160006101000a81548163ffffffff021916908363ffffffff16021790555060208201518160000160046101000a8154817bffffffffffffffffffffffffffffffffffffffffffffffffffffffff02191690837bffffffffffffffffffffffffffffffffffffffffffffffffffffffff16021790555050505b6137818261025e61545390919063ffffffff16565b50507f0553476bf02ef2726e8ce5ced78d63e26e602e4a2257b1f559418e24b463399781836040516137b4929190619023565b60405180910390a15050565b606061019480546137d09061867d565b80601f01602080910402602001604051908101604052809291908181526020018280546137fc9061867d565b80156138495780601f1061381e57610100808354040283529160200191613849565b820191906000526020600020905b81548152906001019060200180831161382c57829003601f168201915b5050505050905090565b600073ffffffffffffffffffffffffffffffffffffffff168373ffffffffffffffffffffffffffffffffffffffff1614156138c3576040517f08c379a00000000000000000000000000000000000000000000000000000000081526004016138ba906190be565b60405180910390fd5b600073ffffffffffffffffffffffffffffffffffffffff168273ffffffffffffffffffffffffffffffffffffffff161415613933576040517f08c379a000000000000000000000000000000000000000000000000000000000815260040161392a90619150565b60405180910390fd5b80603460008573ffffffffffffffffffffffffffffffffffffffff1673ffffffffffffffffffffffffffffffffffffffff16815260200190815260200160002060008473ffffffffffffffffffffffffffffffffffffffff1673ffffffffffffffffffffffffffffffffffffffff168152602001908152602001600020819055508173ffffffffffffffffffffffffffffffffffffffff168373ffffffffffffffffffffffffffffffffffffffff167f8c5be1e5ebec7d5bd14f71427d1e84f3dd0314c0f7b2291e5b200ac8c7c3b92583604051613a119190616de3565b60405180910390a3505050565b600063150b7a0260e01b9050949350505050565b6000613a3e8484612abd565b90507fffffffffffffffffffffffffffffffffffffffffffffffffffffffffffffffff8114613ab85781811015613aaa576040517f08c379a0000000000000000000000000000000000000000000000000000000008152600401613aa1906191bc565b60405180910390fd5b613ab78484848403613853565b5b50505050565b600073ffffffffffffffffffffffffffffffffffffffff168373ffffffffffffffffffffffffffffffffffffffff161415613b2e576040517f08c379a0000000000000000000000000000000000000000000000000000000008152600401613b259061924e565b60405180910390fd5b600073ffffffffffffffffffffffffffffffffffffffff168273ffffffffffffffffffffffffffffffffffffffff161415613b9e576040517f08c379a0000000000000000000000000000000000000000000000000000000008152600401613b95906192e0565b60405180910390fd5b613ba98383836154c1565b6000603360008573ffffffffffffffffffffffffffffffffffffffff1673ffffffffffffffffffffffffffffffffffffffff16815260200190815260200160002054905081811015613c30576040517f08c379a0000000000000000000000000000000000000000000000000000000008152600401613c2790619372565b60405180910390fd5b818103603360008673ffffffffffffffffffffffffffffffffffffffff1673ffffffffffffffffffffffffffffffffffffffff1681526020019081526020016000208190555081603360008573ffffffffffffffffffffffffffffffffffffffff1673ffffffffffffffffffffffffffffffffffffffff168152602001908152602001600020600082825401925050819055508273ffffffffffffffffffffffffffffffffffffffff168473ffffffffffffffffffffffffffffffffffffffff167fddf252ad1be2c89b69c2b068fc378daa952ba7f163c4a11628f55a4df523b3ef84604051613d209190616de3565b60405180910390a3613d33848484615563565b50505050565b3073ffffffffffffffffffffffffffffffffffffffff16613d5861120e565b73ffffffffffffffffffffffffffffffffffffffff1614613e175760005b8451811015613e15573073ffffffffffffffffffffffffffffffffffffffff16858281518110613da957613da861861f565b5b602002602001015173ffffffffffffffffffffffffffffffffffffffff161415613e0457613e03838281518110613de357613de261861f565b5b60200260200101518051906020012061019661560e90919063ffffffff16565b5b80613e0e90619392565b9050613d76565b505b5050505050565b600060405180606001604052806027815260200161a29a60279139905060005b8551811015613f2457600080878381518110613e5d57613e5c61861f565b5b602002602001015173ffffffffffffffffffffffffffffffffffffffff16878481518110613e8e57613e8d61861f565b5b6020026020010151878581518110613ea957613ea861861f565b5b6020026020010151604051613ebe919061940c565b60006040518083038185875af1925050503d8060008114613efb576040519150601f19603f3d011682016040523d82523d6000602084013e613f00565b606091505b5091509150613f10828286614a3a565b50505080613f1d90619392565b9050613e3e565b50505050505050565b3073ffffffffffffffffffffffffffffffffffffffff16613f4c61120e565b73ffffffffffffffffffffffffffffffffffffffff1614613f8357613f726101966153b3565b613f8257613f8161019661568a565b5b5b5050505050565b600081600001519050919050565b6000613fd37f8b73c3c69bb8fe3d512ecc4cf759cc79239f7b179b0ffacaa9a75d522b39400f613fc661570b565b613fce615715565b61571f565b905090565b60006101c654905090565b60008083805490509050600080829050600583111561405957600061400784615759565b8461401291906185eb565b90508561401f8883615853565b60000160009054906101000a900463ffffffff1663ffffffff16111561404757809150614057565b6001816140549190618486565b92505b505b5b808210156140b957600061406e8383615868565b90508561407b8883615853565b60000160009054906101000a900463ffffffff1663ffffffff1611156140a3578091506140b3565b6001816140b09190618486565b92505b5061405a565b60008114614108576140d7866001836140d291906185eb565b615853565b60000160049054906101000a90047bffffffffffffffffffffffffffffffffffffffffffffffffffffffff1661410b565b60005b7bffffffffffffffffffffffffffffffffffffffffffffffffffffffff16935050505092915050565b600061414a85858585614145614be6565b61335a565b9050949350505050565b6000806101f860008481526020019081526020016000209050806002015481600101546141819190618486565b61419261418d8561179e565b613267565b1115915050919050565b6000806000806141ab85611b46565b8093508195508294505050508082846141c49190618486565b6141ce9190618486565b61022a60009054906101000a900473ffffffffffffffffffffffffffffffffffffffff1673ffffffffffffffffffffffffffffffffffffffff16638e539e8c6142168861179e565b6040518263ffffffff1660e01b81526004016142329190616de3565b60206040518083038186803b15801561424a57600080fd5b505afa15801561425e573d6000803e3d6000fd5b505050506040513d601f19601f820116820180604052508101906142829190619438565b11159350505050919050565b614296613518565b73ffffffffffffffffffffffffffffffffffffffff166142b46120d4565b73ffffffffffffffffffffffffffffffffffffffff161461430a576040517f08c379a0000000000000000000000000000000000000000000000000000000008152600401614301906194b1565b60405180910390fd5b565b614316828261588e565b5050565b8161029260008473ffffffffffffffffffffffffffffffffffffffff1673ffffffffffffffffffffffffffffffffffffffff16815260200190815260200160002060006101000a81548173ffffffffffffffffffffffffffffffffffffffff021916908373ffffffffffffffffffffffffffffffffffffffff1602179055506143a3828261591c565b5050565b60004382106143eb576040517f08c379a00000000000000000000000000000000000000000000000000000000081526004016143e29061951d565b60405180910390fd5b60006143f683614496565b905060008460000180549050905060006144168660000184600085615a37565b90506000811461446a576144398660000160018361443491906185eb565b615aaa565b60000160049054906101000a90047bffffffffffffffffffffffffffffffffffffffffffffffffffffffff1661446d565b60005b7bffffffffffffffffffffffffffffffffffffffffffffffffffffffff16935050505092915050565b600063ffffffff80168211156144e1576040517f08c379a00000000000000000000000000000000000000000000000000000000081526004016144d8906195af565b60405180910390fd5b819050919050565b7fc565b045403dc03c2eea82b81a0465edad9e2e7fc4d97e11421c209da93d7a936101c6548260405161451d929190619023565b60405180910390a1806101c68190555050565b6000606560009054906101000a900473ffffffffffffffffffffffffffffffffffffffff16905081606560006101000a81548173ffffffffffffffffffffffffffffffffffffffff021916908373ffffffffffffffffffffffffffffffffffffffff1602179055508173ffffffffffffffffffffffffffffffffffffffff168173ffffffffffffffffffffffffffffffffffffffff167f8be0079c531659141344cd1fd0a4f28419497f9722a3daafe3b4186f6b6457e060405160405180910390a35050565b60006146006123fd565b61461d61460b613518565b60014361461891906185eb565b612de1565b101561465e576040517f08c379a000000000000000000000000000000000000000000000000000000000815260040161465590619641565b60405180910390fd5b60006146738686868680519060200120612723565b905084518651146146b9576040517f08c379a00000000000000000000000000000000000000000000000000000000081526004016146b0906196d3565b60405180910390fd5b83518651146146fd576040517f08c379a00000000000000000000000000000000000000000000000000000000081526004016146f4906196d3565b60405180910390fd5b6000865111614741576040517f08c379a00000000000000000000000000000000000000000000000000000000081526004016147389061973f565b60405180910390fd5b6000610195600083815260200190815260200160002090506147a2816000016040518060200160405290816000820160009054906101000a900467ffffffffffffffff1667ffffffffffffffff1667ffffffffffffffff1681525050615abf565b6147e1576040517f08c379a00000000000000000000000000000000000000000000000000000000081526004016147d8906197d1565b60405180910390fd5b60006147f36147ee611849565b615ad9565b6147fc43615ad9565b6148069190619805565b9050600061481a61481561137b565b615ad9565b826148259190619805565b905061483d8284600001615b3090919063ffffffff16565b6148538184600101615b3090919063ffffffff16565b7f7d84a6263ae0d98d3329bd7b46bb4e8d6f98cd35a7adb45c274c8b7fd5ebd5e08461487d613518565b8b8b8d5167ffffffffffffffff81111561489a57614899616ede565b5b6040519080825280602002602001820160405280156148cd57816020015b60608152602001906001900390816148b85790505b508c88888e6040516148e799989796959493929190619980565b60405180910390a183945050505050949350505050565b600081600001549050919050565b600061022a60009054906101000a900473ffffffffffffffffffffffffffffffffffffffff1673ffffffffffffffffffffffffffffffffffffffff16633a46b1a885856040518363ffffffff1660e01b815260040161496c929190618cbb565b60206040518083038186803b15801561498457600080fd5b505afa158015614998573d6000803e3d6000fd5b505050506040513d601f19601f820116820180604052508101906149bc9190619438565b90509392505050565b6000808260000180549050905060008114614a24576149f3836000016001836149ee91906185eb565b615aaa565b60000160049054906101000a90047bffffffffffffffffffffffffffffffffffffffffffffffffffffffff16614a27565b60005b915050919050565b60006101c854905090565b60608315614a4a57829050614a55565b614a548383615b5f565b5b9392505050565b60008060fd60008473ffffffffffffffffffffffffffffffffffffffff1673ffffffffffffffffffffffffffffffffffffffff1681526020019081526020016000209050614aa9816148fe565b9150614ab481615baf565b50919050565b8061029360008473ffffffffffffffffffffffffffffffffffffffff1673ffffffffffffffffffffffffffffffffffffffff16815260200190815260200160002060006101000a81548160ff0219169083151502179055508015158273ffffffffffffffffffffffffffffffffffffffff167fa3e40a317eac9d2f33de1f67819e7103be50ca171b0559ba3ef1313e2e9c9ed460405160405180910390a35050565b60008111614b9f576040517f08c379a0000000000000000000000000000000000000000000000000000000008152600401614b9690619aa2565b60405180910390fd5b7f7e3f7f0708a84de9203036abaa450dccc85ad5ff52f78c170f3edb55cf5e88286101c75482604051614bd3929190619023565b60405180910390a1806101c78190555050565b606060405180602001604052806000815250905090565b7fccb45da8d5717e6c4544694297c4ba5cf151d455c9bb0ed4fc7a38411bc054616101c85482604051614c31929190619023565b60405180910390a1806101c88190555050565b600060019054906101000a900460ff16614c93576040517f08c379a0000000000000000000000000000000000000000000000000000000008152600401614c8a90619b34565b60405180910390fd5b614c9d8282615bc5565b5050565b600060019054906101000a900460ff16614cf0576040517f08c379a0000000000000000000000000000000000000000000000000000000008152600401614ce790619b34565b60405180910390fd5b614cf8615c46565b565b600060019054906101000a900460ff16614d49576040517f08c379a0000000000000000000000000000000000000000000000000000000008152600401614d4090619b34565b60405180910390fd5b614d88816040518060400160405280600181526020017f3100000000000000000000000000000000000000000000000000000000000000815250615ca7565b50565b600060019054906101000a900460ff16614dda576040517f08c379a0000000000000000000000000000000000000000000000000000000008152600401614dd190619b34565b60405180910390fd5b565b600060019054906101000a900460ff16614e2b576040517f08c379a0000000000000000000000000000000000000000000000000000000008152600401614e2290619b34565b60405180910390fd5b614e3c81614e37611b7f565b615ca7565b614e4581615d22565b50565b600060019054906101000a900460ff16614e97576040517f08c379a0000000000000000000000000000000000000000000000000000000008152600401614e8e90619b34565b60405180910390fd5b614ea2838383615d8c565b505050565b600060019054906101000a900460ff16614ef6576040517f08c379a0000000000000000000000000000000000000000000000000000000008152600401614eed90619b34565b60405180910390fd5b565b600060019054906101000a900460ff16614f47576040517f08c379a0000000000000000000000000000000000000000000000000000000008152600401614f3e90619b34565b60405180910390fd5b614f5081615dfb565b50565b600060019054906101000a900460ff16614fa2576040517f08c379a0000000000000000000000000000000000000000000000000000000008152600401614f9990619b34565b60405180910390fd5b614fab81615e8f565b50565b6000614fb86121e7565b614fc183611cd5565b61022a60009054906101000a900473ffffffffffffffffffffffffffffffffffffffff1673ffffffffffffffffffffffffffffffffffffffff16638e539e8c856040518263ffffffff1660e01b815260040161501d9190616de3565b60206040518083038186803b15801561503557600080fd5b505afa158015615049573d6000803e3d6000fd5b505050506040513d601f19601f8201168201806040525081019061506d9190619438565b6150779190619b54565b6150819190619bdd565b9050919050565b6000828260405160200161509d929190619c86565b60405160208183030381529060405280519060200120905092915050565b6000807f7fffffffffffffffffffffffffffffff5d576e7357a4501ddfe92f46681b20a08360001c11156150f6576000600391509150615195565b60006001878787876040516000815260200160405260405161511b9493929190619cbd565b6020604051602081039080840390855afa15801561513d573d6000803e3d6000fd5b505050602060405103519050600073ffffffffffffffffffffffffffffffffffffffff168173ffffffffffffffffffffffffffffffffffffffff16141561518c57600060019250925050615195565b80600092509250505b94509492505050565b600060048111156151b2576151b16177de565b5b8160048111156151c5576151c46177de565b5b14156151d057615309565b600160048111156151e4576151e36177de565b5b8160048111156151f7576151f66177de565b5b1415615238576040517f08c379a000000000000000000000000000000000000000000000000000000000815260040161522f90619d4e565b60405180910390fd5b6002600481111561524c5761524b6177de565b5b81600481111561525f5761525e6177de565b5b14156152a0576040517f08c379a000000000000000000000000000000000000000000000000000000000815260040161529790619dba565b60405180910390fd5b600360048111156152b4576152b36177de565b5b8160048111156152c7576152c66177de565b5b1415615308576040517f08c379a00000000000000000000000000000000000000000000000000000000081526004016152ff90619e4c565b60405180910390fd5b5b50565b6153198585858585615eea565b600061029260008673ffffffffffffffffffffffffffffffffffffffff1673ffffffffffffffffffffffffffffffffffffffff16815260200190815260200160002060009054906101000a900473ffffffffffffffffffffffffffffffffffffffff16905060006002811115615392576153916177de565b5b60ff168460ff1614156153ab576153aa816001614aba565b5b505050505050565b60008160000160009054906101000a9004600f0b600f0b8260000160109054906101000a9004600f0b600f0b13159050919050565b60007bffffffffffffffffffffffffffffffffffffffffffffffffffffffff801682111561544b576040517f08c379a000000000000000000000000000000000000000000000000000000000815260040161544290619ede565b60405180910390fd5b819050919050565b6000806154748460000161546643614496565b61546f866153e8565b6160f2565b817bffffffffffffffffffffffffffffffffffffffffffffffffffffffff169150807bffffffffffffffffffffffffffffffffffffffffffffffffffffffff169050915091509250929050565b828261029360008373ffffffffffffffffffffffffffffffffffffffff1673ffffffffffffffffffffffffffffffffffffffff16815260200190815260200160002060009054906101000a900460ff16158061554857503373ffffffffffffffffffffffffffffffffffffffff168173ffffffffffffffffffffffffffffffffffffffff16145b61555157600080fd5b61555c858585616479565b5050505050565b600073ffffffffffffffffffffffffffffffffffffffff168273ffffffffffffffffffffffffffffffffffffffff16141580156155ae575060006155a683611e26565b63ffffffff16145b80156155ee5750600073ffffffffffffffffffffffffffffffffffffffff166155d683611bed565b73ffffffffffffffffffffffffffffffffffffffff16145b156155fe576155fd828361431a565b5b61560983838361647e565b505050565b60008260000160109054906101000a9004600f0b90508183600101600083600f0b600f0b815260200190815260200160002081905550600181018360000160106101000a8154816fffffffffffffffffffffffffffffffff0219169083600f0b6fffffffffffffffffffffffffffffffff160217905550505050565b60008160000160006101000a8154816fffffffffffffffffffffffffffffffff0219169083600f0b6fffffffffffffffffffffffffffffffff16021790555060008160000160106101000a8154816fffffffffffffffffffffffffffffffff0219169083600f0b6fffffffffffffffffffffffffffffffff16021790555050565b600060c954905090565b600060ca54905090565b6000838383463060405160200161573a959493929190619efe565b6040516020818303038152906040528051906020012090509392505050565b60008082141561576c576000905061584e565b60006001615779846164a9565b901c6001901b9050600181848161579357615792619bae565b5b048201901c905060018184816157ac576157ab619bae565b5b048201901c905060018184816157c5576157c4619bae565b5b048201901c905060018184816157de576157dd619bae565b5b048201901c905060018184816157f7576157f6619bae565b5b048201901c905060018184816158105761580f619bae565b5b048201901c9050600181848161582957615828619bae565b5b048201901c905061584a8182858161584457615843619bae565b5b0461658a565b9150505b919050565b60008260005281602060002001905092915050565b600060028284186158799190619bdd565b8284166158869190618486565b905092915050565b61589882826165a3565b6158a06166fb565b7bffffffffffffffffffffffffffffffffffffffffffffffffffffffff166158c6611616565b1115615907576040517f08c379a00000000000000000000000000000000000000000000000000000000081526004016158fe90619fc3565b60405180910390fd5b61591661013261671f83616735565b50505050565b600061592783611bed565b9050600061593484611e7b565b90508261013060008673ffffffffffffffffffffffffffffffffffffffff1673ffffffffffffffffffffffffffffffffffffffff16815260200190815260200160002060006101000a81548173ffffffffffffffffffffffffffffffffffffffff021916908373ffffffffffffffffffffffffffffffffffffffff1602179055508273ffffffffffffffffffffffffffffffffffffffff168273ffffffffffffffffffffffffffffffffffffffff168573ffffffffffffffffffffffffffffffffffffffff167f3134e8a2e6d97e929a7e54011ea5485d7d196dd5f0ba4d4ef95803e8e3fc257f60405160405180910390a4615a31828483616a04565b50505050565b60005b81831015615a9f576000615a4e8484615868565b90508463ffffffff16615a618783615aaa565b60000160009054906101000a900463ffffffff1663ffffffff161115615a8957809250615a99565b600181615a969190618486565b93505b50615a3a565b819050949350505050565b60008260005281602060002001905092915050565b600080826000015167ffffffffffffffff16149050919050565b600067ffffffffffffffff8016821115615b28576040517f08c379a0000000000000000000000000000000000000000000000000000000008152600401615b1f9061a055565b60405180910390fd5b819050919050565b808260000160006101000a81548167ffffffffffffffff021916908367ffffffffffffffff1602179055505050565b600082511115615b725781518083602001fd5b806040517f08c379a0000000000000000000000000000000000000000000000000000000008152600401615ba691906171d2565b60405180910390fd5b6001816000016000828254019250508190555050565b600060019054906101000a900460ff16615c14576040517f08c379a0000000000000000000000000000000000000000000000000000000008152600401615c0b90619b34565b60405180910390fd5b8160369080519060200190615c2a929190616c58565b508060379080519060200190615c41929190616c58565b505050565b600060019054906101000a900460ff16615c95576040517f08c379a0000000000000000000000000000000000000000000000000000000008152600401615c8c90619b34565b60405180910390fd5b615ca5615ca0613518565b614530565b565b600060019054906101000a900460ff16615cf6576040517f08c379a0000000000000000000000000000000000000000000000000000000008152600401615ced90619b34565b60405180910390fd5b6000828051906020012090506000828051906020012090508160c9819055508060ca8190555050505050565b600060019054906101000a900460ff16615d71576040517f08c379a0000000000000000000000000000000000000000000000000000000008152600401615d6890619b34565b60405180910390fd5b806101949080519060200190615d88929190616c58565b5050565b600060019054906101000a900460ff16615ddb576040517f08c379a0000000000000000000000000000000000000000000000000000000008152600401615dd290619b34565b60405180910390fd5b615de4836144e9565b615ded82614b5c565b615df681614bfd565b505050565b600060019054906101000a900460ff16615e4a576040517f08c379a0000000000000000000000000000000000000000000000000000000008152600401615e4190619b34565b60405180910390fd5b8061022a60006101000a81548173ffffffffffffffffffffffffffffffffffffffff021916908373ffffffffffffffffffffffffffffffffffffffff16021790555050565b600060019054906101000a900460ff16615ede576040517f08c379a0000000000000000000000000000000000000000000000000000000008152600401615ed590619b34565b60405180910390fd5b615ee781613609565b50565b60006101f8600087815260200190815260200160002090508060030160008673ffffffffffffffffffffffffffffffffffffffff1673ffffffffffffffffffffffffffffffffffffffff16815260200190815260200160002060009054906101000a900460ff1615615f91576040517f08c379a0000000000000000000000000000000000000000000000000000000008152600401615f889061a0e7565b60405180910390fd5b60018160030160008773ffffffffffffffffffffffffffffffffffffffff1673ffffffffffffffffffffffffffffffffffffffff16815260200190815260200160002060006101000a81548160ff02191690831515021790555060006002811115615fff57615ffe6177de565b5b60ff168460ff16141561602c57828160000160008282546160209190618486565b925050819055506160ea565b600160028111156160405761603f6177de565b5b60ff168460ff16141561606d57828160010160008282546160619190618486565b925050819055506160e9565b6002808111156160805761607f6177de565b5b60ff168460ff1614156160ad57828160020160008282546160a19190618486565b925050819055506160e8565b6040517f08c379a00000000000000000000000000000000000000000000000000000000081526004016160df9061a179565b60405180910390fd5b5b5b505050505050565b600080600085805490509050600081111561638957600061611f8760018461611a91906185eb565b615aaa565b6040518060400160405290816000820160009054906101000a900463ffffffff1663ffffffff1663ffffffff1681526020016000820160049054906101000a90047bffffffffffffffffffffffffffffffffffffffffffffffffffffffff167bffffffffffffffffffffffffffffffffffffffffffffffffffffffff167bffffffffffffffffffffffffffffffffffffffffffffffffffffffff168152505090508563ffffffff16816000015163ffffffff161115616213576040517f08c379a000000000000000000000000000000000000000000000000000000000815260040161620a9061a1e5565b60405180910390fd5b8563ffffffff16816000015163ffffffff16141561629857846162428860018561623d91906185eb565b615aaa565b60000160046101000a8154817bffffffffffffffffffffffffffffffffffffffffffffffffffffffff02191690837bffffffffffffffffffffffffffffffffffffffffffffffffffffffff160217905550616378565b8660405180604001604052808863ffffffff168152602001877bffffffffffffffffffffffffffffffffffffffffffffffffffffffff168152509080600181540180825580915050600190039060005260206000200160009091909190915060008201518160000160006101000a81548163ffffffff021916908363ffffffff16021790555060208201518160000160046101000a8154817bffffffffffffffffffffffffffffffffffffffffffffffffffffffff02191690837bffffffffffffffffffffffffffffffffffffffffffffffffffffffff16021790555050505b806020015185935093505050616471565b8560405180604001604052808763ffffffff168152602001867bffffffffffffffffffffffffffffffffffffffffffffffffffffffff168152509080600181540180825580915050600190039060005260206000200160009091909190915060008201518160000160006101000a81548163ffffffff021916908363ffffffff16021790555060208201518160000160046101000a8154817bffffffffffffffffffffffffffffffffffffffffffffffffffffffff02191690837bffffffffffffffffffffffffffffffffffffffffffffffffffffffff160217905550505060008492509250505b935093915050565b505050565b616489838383616bff565b6164a461649584611bed565b61649e84611bed565b83616a04565b505050565b600080600090506000608084901c11156164cb57608083901c92506080810190505b6000604084901c11156164e657604083901c92506040810190505b6000602084901c111561650157602083901c92506020810190505b6000601084901c111561651c57601083901c92506010810190505b6000600884901c111561653757600883901c92506008810190505b6000600484901c111561655257600483901c92506004810190505b6000600284901c111561656d57600283901c92506002810190505b6000600184901c1115616581576001810190505b80915050919050565b6000818310616599578161659b565b825b905092915050565b600073ffffffffffffffffffffffffffffffffffffffff168273ffffffffffffffffffffffffffffffffffffffff161415616613576040517f08c379a000000000000000000000000000000000000000000000000000000000815260040161660a9061a251565b60405180910390fd5b61661f600083836154c1565b80603560008282546166319190618486565b9250508190555080603360008473ffffffffffffffffffffffffffffffffffffffff1673ffffffffffffffffffffffffffffffffffffffff168152602001908152602001600020600082825401925050819055508173ffffffffffffffffffffffffffffffffffffffff16600073ffffffffffffffffffffffffffffffffffffffff167fddf252ad1be2c89b69c2b068fc378daa952ba7f163c4a11628f55a4df523b3ef836040516166e39190616de3565b60405180910390a36166f760008383615563565b5050565b60007bffffffffffffffffffffffffffffffffffffffffffffffffffffffff905090565b6000818361672d9190618486565b905092915050565b6000806000858054905090506000808214616804576167608760018461675b91906185eb565b615853565b6040518060400160405290816000820160009054906101000a900463ffffffff1663ffffffff1663ffffffff1681526020016000820160049054906101000a90047bffffffffffffffffffffffffffffffffffffffffffffffffffffffff167bffffffffffffffffffffffffffffffffffffffffffffffffffffffff167bffffffffffffffffffffffffffffffffffffffffffffffffffffffff1681525050616840565b6040518060400160405280600063ffffffff16815260200160007bffffffffffffffffffffffffffffffffffffffffffffffffffffffff168152505b905080602001517bffffffffffffffffffffffffffffffffffffffffffffffffffffffff16935061687584868863ffffffff16565b9250600082118015616890575043816000015163ffffffff16145b1561690a5761689e836153e8565b6168b4886001856168af91906185eb565b615853565b60000160046101000a8154817bffffffffffffffffffffffffffffffffffffffffffffffffffffffff02191690837bffffffffffffffffffffffffffffffffffffffffffffffffffffffff1602179055506169fa565b86604051806040016040528061691f43614496565b63ffffffff168152602001616933866153e8565b7bffffffffffffffffffffffffffffffffffffffffffffffffffffffff168152509080600181540180825580915050600190039060005260206000200160009091909190915060008201518160000160006101000a81548163ffffffff021916908363ffffffff16021790555060208201518160000160046101000a8154817bffffffffffffffffffffffffffffffffffffffffffffffffffffffff02191690837bffffffffffffffffffffffffffffffffffffffffffffffffffffffff16021790555050505b5050935093915050565b8173ffffffffffffffffffffffffffffffffffffffff168373ffffffffffffffffffffffffffffffffffffffff1614158015616a405750600081115b15616bfa57600073ffffffffffffffffffffffffffffffffffffffff168373ffffffffffffffffffffffffffffffffffffffff1614616b1f57600080616ac861013160008773ffffffffffffffffffffffffffffffffffffffff1673ffffffffffffffffffffffffffffffffffffffff168152602001908152602001600020616c0485616735565b915091508473ffffffffffffffffffffffffffffffffffffffff167fdec2bacdd2f05b59de34da9b523dff8be42e5e38e818c82fdb0bae774387a7248383604051616b14929190619023565b60405180910390a250505b600073ffffffffffffffffffffffffffffffffffffffff168273ffffffffffffffffffffffffffffffffffffffff1614616bf957600080616ba261013160008673ffffffffffffffffffffffffffffffffffffffff1673ffffffffffffffffffffffffffffffffffffffff16815260200190815260200160002061671f85616735565b915091508373ffffffffffffffffffffffffffffffffffffffff167fdec2bacdd2f05b59de34da9b523dff8be42e5e38e818c82fdb0bae774387a7248383604051616bee929190619023565b60405180910390a250505b5b505050565b505050565b60008183616c1291906185eb565b905092915050565b6040518060400160405280600063ffffffff16815260200160007bffffffffffffffffffffffffffffffffffffffffffffffffffffffff1681525090565b828054616c649061867d565b90600052602060002090601f016020900481019282616c865760008555616ccd565b82601f10616c9f57805160ff1916838001178555616ccd565b82800160010185558215616ccd579182015b82811115616ccc578251825591602001919060010190616cb1565b5b509050616cda9190616cde565b5090565b5b80821115616cf7576000816000905550600101616cdf565b5090565b6000604051905090565b600080fd5b600080fd5b60007fffffffff0000000000000000000000000000000000000000000000000000000082169050919050565b616d4481616d0f565b8114616d4f57600080fd5b50565b600081359050616d6181616d3b565b92915050565b600060208284031215616d7d57616d7c616d05565b5b6000616d8b84828501616d52565b91505092915050565b60008115159050919050565b616da981616d94565b82525050565b6000602082019050616dc46000830184616da0565b92915050565b6000819050919050565b616ddd81616dca565b82525050565b6000602082019050616df86000830184616dd4565b92915050565b616e0781616dca565b8114616e1257600080fd5b50565b600081359050616e2481616dfe565b92915050565b600060ff82169050919050565b616e4081616e2a565b8114616e4b57600080fd5b50565b600081359050616e5d81616e37565b92915050565b600080fd5b600080fd5b600080fd5b60008083601f840112616e8857616e87616e63565b5b8235905067ffffffffffffffff811115616ea557616ea4616e68565b5b602083019150836001820283011115616ec157616ec0616e6d565b5b9250929050565b600080fd5b6000601f19601f8301169050919050565b7f4e487b7100000000000000000000000000000000000000000000000000000000600052604160045260246000fd5b616f1682616ecd565b810181811067ffffffffffffffff82111715616f3557616f34616ede565b5b80604052505050565b6000616f48616cfb565b9050616f548282616f0d565b919050565b600067ffffffffffffffff821115616f7457616f73616ede565b5b616f7d82616ecd565b9050602081019050919050565b82818337600083830152505050565b6000616fac616fa784616f59565b616f3e565b905082815260208101848484011115616fc857616fc7616ec8565b5b616fd3848285616f8a565b509392505050565b600082601f830112616ff057616fef616e63565b5b8135617000848260208601616f99565b91505092915050565b6000819050919050565b61701c81617009565b811461702757600080fd5b50565b60008135905061703981617013565b92915050565b60008060008060008060008060e0898b03121561705f5761705e616d05565b5b600061706d8b828c01616e15565b985050602061707e8b828c01616e4e565b975050604089013567ffffffffffffffff81111561709f5761709e616d0a565b5b6170ab8b828c01616e72565b9650965050606089013567ffffffffffffffff8111156170ce576170cd616d0a565b5b6170da8b828c01616fdb565b94505060806170eb8b828c01616e4e565b93505060a06170fc8b828c0161702a565b92505060c061710d8b828c0161702a565b9150509295985092959890939650565b60006020828403121561713357617132616d05565b5b600061714184828501616e15565b91505092915050565b600081519050919050565b600082825260208201905092915050565b60005b83811015617184578082015181840152602081019050617169565b83811115617193576000848401525b50505050565b60006171a48261714a565b6171ae8185617155565b93506171be818560208601617166565b6171c781616ecd565b840191505092915050565b600060208201905081810360008301526171ec8184617199565b905092915050565b600073ffffffffffffffffffffffffffffffffffffffff82169050919050565b600061721f826171f4565b9050919050565b61722f81617214565b811461723a57600080fd5b50565b60008135905061724c81617226565b92915050565b6000806040838503121561726957617268616d05565b5b60006172778582860161723d565b925050602061728885828601616e15565b9150509250929050565b60008083601f8401126172a8576172a7616e63565b5b8235905067ffffffffffffffff8111156172c5576172c4616e68565b5b6020830191508360018202830111156172e1576172e0616e6d565b5b9250929050565b60008060008060006080868803121561730457617303616d05565b5b60006173128882890161723d565b95505060206173238882890161723d565b945050604061733488828901616e15565b935050606086013567ffffffffffffffff81111561735557617354616d0a565b5b61736188828901617292565b92509250509295509295909350565b61737981616d0f565b82525050565b60006020820190506173946000830184617370565b92915050565b6000806000606084860312156173b3576173b2616d05565b5b60006173c18682870161723d565b93505060206173d28682870161723d565b92505060406173e386828701616e15565b9150509250925092565b600067ffffffffffffffff82111561740857617407616ede565b5b602082029050602081019050919050565b600061742c617427846173ed565b616f3e565b9050808382526020820190506020840283018581111561744f5761744e616e6d565b5b835b818110156174785780617464888261723d565b845260208401935050602081019050617451565b5050509392505050565b600082601f83011261749757617496616e63565b5b81356174a7848260208601617419565b91505092915050565b600067ffffffffffffffff8211156174cb576174ca616ede565b5b602082029050602081019050919050565b60006174ef6174ea846174b0565b616f3e565b9050808382526020820190506020840283018581111561751257617511616e6d565b5b835b8181101561753b57806175278882616e15565b845260208401935050602081019050617514565b5050509392505050565b600082601f83011261755a57617559616e63565b5b813561756a8482602086016174dc565b91505092915050565b600067ffffffffffffffff82111561758e5761758d616ede565b5b602082029050602081019050919050565b60006175b26175ad84617573565b616f3e565b905080838252602082019050602084028301858111156175d5576175d4616e6d565b5b835b8181101561761c57803567ffffffffffffffff8111156175fa576175f9616e63565b5b8086016176078982616fdb565b855260208501945050506020810190506175d7565b5050509392505050565b600082601f83011261763b5761763a616e63565b5b813561764b84826020860161759f565b91505092915050565b6000806000806080858703121561766e5761766d616d05565b5b600085013567ffffffffffffffff81111561768c5761768b616d0a565b5b61769887828801617482565b945050602085013567ffffffffffffffff8111156176b9576176b8616d0a565b5b6176c587828801617545565b935050604085013567ffffffffffffffff8111156176e6576176e5616d0a565b5b6176f287828801617626565b92505060606177038782880161702a565b91505092959194509250565b61771881617009565b82525050565b6000602082019050617733600083018461770f565b92915050565b61774281616e2a565b82525050565b600060208201905061775d6000830184617739565b92915050565b600080600080600060a0868803121561777f5761777e616d05565b5b600061778d88828901616e15565b955050602061779e88828901616e4e565b94505060406177af88828901616e4e565b93505060606177c08882890161702a565b92505060806177d18882890161702a565b9150509295509295909350565b7f4e487b7100000000000000000000000000000000000000000000000000000000600052602160045260246000fd5b6008811061781e5761781d6177de565b5b50565b600081905061782f8261780d565b919050565b600061783f82617821565b9050919050565b61784f81617834565b82525050565b600060208201905061786a6000830184617846565b92915050565b6000806040838503121561788757617886616d05565b5b600061789585828601616e15565b92505060206178a68582860161723d565b9150509250929050565b60006060820190506178c56000830186616dd4565b6178d26020830185616dd4565b6178df6040830184616dd4565b949350505050565b600080604083850312156178fe576178fd616d05565b5b600061790c85828601616e15565b925050602061791d85828601616e4e565b9150509250929050565b60006020828403121561793d5761793c616d05565b5b600061794b8482850161723d565b91505092915050565b61795d81617214565b82525050565b60006020820190506179786000830184617954565b92915050565b60008060008060006080868803121561799a57617999616d05565b5b60006179a888828901616e15565b95505060206179b988828901616e4e565b945050604086013567ffffffffffffffff8111156179da576179d9616d0a565b5b6179e688828901616e72565b9350935050606086013567ffffffffffffffff811115617a0957617a08616d0a565b5b617a1588828901616fdb565b9150509295509295909350565b600063ffffffff82169050919050565b617a3b81617a22565b82525050565b6000602082019050617a566000830184617a32565b92915050565b60008060008060608587031215617a7657617a75616d05565b5b6000617a8487828801616e15565b9450506020617a9587828801616e4e565b935050604085013567ffffffffffffffff811115617ab657617ab5616d0a565b5b617ac287828801616e72565b925092505092959194509250565b600067ffffffffffffffff821115617aeb57617aea616ede565b5b617af482616ecd565b9050602081019050919050565b6000617b14617b0f84617ad0565b616f3e565b905082815260208101848484011115617b3057617b2f616ec8565b5b617b3b848285616f8a565b509392505050565b600082601f830112617b5857617b57616e63565b5b8135617b68848260208601617b01565b91505092915050565b60008060008060808587031215617b8b57617b8a616d05565b5b600085013567ffffffffffffffff811115617ba957617ba8616d0a565b5b617bb587828801617482565b945050602085013567ffffffffffffffff811115617bd657617bd5616d0a565b5b617be287828801617545565b935050604085013567ffffffffffffffff811115617c0357617c02616d0a565b5b617c0f87828801617626565b925050606085013567ffffffffffffffff811115617c3057617c2f616d0a565b5b617c3c87828801617b43565b91505092959194509250565b6000819050919050565b6000617c6d617c68617c63846171f4565b617c48565b6171f4565b9050919050565b6000617c7f82617c52565b9050919050565b6000617c9182617c74565b9050919050565b617ca181617c86565b82525050565b6000602082019050617cbc6000830184617c98565b92915050565b600080600060608486031215617cdb57617cda616d05565b5b6000617ce98682870161723d565b9350506020617cfa86828701616e15565b925050604084013567ffffffffffffffff811115617d1b57617d1a616d0a565b5b617d2786828701616fdb565b9150509250925092565b600080600080600060a08688031215617d4d57617d4c616d05565b5b6000617d5b8882890161723d565b9550506020617d6c8882890161723d565b945050604086013567ffffffffffffffff811115617d8d57617d8c616d0a565b5b617d9988828901617545565b935050606086013567ffffffffffffffff811115617dba57617db9616d0a565b5b617dc688828901617545565b925050608086013567ffffffffffffffff811115617de757617de6616d0a565b5b617df388828901616fdb565b9150509295509295909350565b60008060008060608587031215617e1a57617e19616d05565b5b6000617e288782880161723d565b9450506020617e3987828801616e15565b935050604085013567ffffffffffffffff811115617e5a57617e59616d0a565b5b617e6687828801617292565b925092505092959194509250565b60008060008060008060c08789031215617e9157617e90616d05565b5b6000617e9f89828a0161723d565b9650506020617eb089828a01616e15565b9550506040617ec189828a01616e15565b9450506060617ed289828a01616e4e565b9350506080617ee389828a0161702a565b92505060a0617ef489828a0161702a565b9150509295509295509295565b617f0a81616d94565b8114617f1557600080fd5b50565b600081359050617f2781617f01565b92915050565b60008060408385031215617f4457617f43616d05565b5b6000617f528582860161723d565b9250506020617f6385828601617f18565b9150509250929050565b600080600080600080600060e0888a031215617f8c57617f8b616d05565b5b6000617f9a8a828b0161723d565b9750506020617fab8a828b0161723d565b9650506040617fbc8a828b01616e15565b9550506060617fcd8a828b01616e15565b9450506080617fde8a828b01616e4e565b93505060a0617fef8a828b0161702a565b92505060c06180008a828b0161702a565b91505092959891949750929550565b6000806040838503121561802657618025616d05565b5b60006180348582860161723d565b92505060206180458582860161723d565b9150509250929050565b61805881617a22565b811461806357600080fd5b50565b6000813590506180758161804f565b92915050565b6000806040838503121561809257618091616d05565b5b60006180a08582860161723d565b92505060206180b185828601618066565b9150509250929050565b6180c481617a22565b82525050565b60007bffffffffffffffffffffffffffffffffffffffffffffffffffffffff82169050919050565b6180fb816180ca565b82525050565b60408201600082015161811760008501826180bb565b50602082015161812a60208501826180f2565b50505050565b60006040820190506181456000830184618101565b92915050565b600080600080600060a0868803121561816757618166616d05565b5b60006181758882890161723d565b95505060206181868882890161723d565b945050604061819788828901616e15565b93505060606181a888828901616e15565b925050608086013567ffffffffffffffff8111156181c9576181c8616d0a565b5b6181d588828901616fdb565b9150509295509295909350565b600080600080608085870312156181fc576181fb616d05565b5b600085013567ffffffffffffffff81111561821a57618219616d0a565b5b61822687828801617b43565b945050602085013567ffffffffffffffff81111561824757618246616d0a565b5b61825387828801617b43565b93505060406182648782880161723d565b925050606061827587828801616e15565b91505092959194509250565b600061828c82617c74565b9050919050565b61829c81618281565b82525050565b60006020820190506182b76000830184618293565b92915050565b600081905092915050565b60006182d483856182bd565b93506182e1838584616f8a565b82840190509392505050565b60006182fa8284866182c8565b91508190509392505050565b600060a08201905061831b600083018861770f565b6183286020830187616dd4565b6183356040830186617739565b618342606083018561770f565b61834f608083018461770f565b9695505050505050565b7f476f7665726e6f723a206f6e6c79476f7665726e616e63650000000000000000600082015250565b600061838f601883617155565b915061839a82618359565b602082019050919050565b600060208201905081810360008301526183be81618382565b9050919050565b7f476f7665726e6f723a2070726f706f73616c206e6f742073756363657373667560008201527f6c00000000000000000000000000000000000000000000000000000000000000602082015250565b6000618421602183617155565b915061842c826183c5565b604082019050919050565b6000602082019050818103600083015261845081618414565b9050919050565b7f4e487b7100000000000000000000000000000000000000000000000000000000600052601160045260246000fd5b600061849182616dca565b915061849c83616dca565b9250827fffffffffffffffffffffffffffffffffffffffffffffffffffffffffffffffff038211156184d1576184d0618457565b5b828201905092915050565b7f4552433230566f7465733a20626c6f636b206e6f7420796574206d696e656400600082015250565b6000618512601f83617155565b915061851d826184dc565b602082019050919050565b6000602082019050818103600083015261854181618505565b9050919050565b600060608201905061855d600083018661770f565b61856a6020830185616dd4565b6185776040830184617739565b949350505050565b7f476f7665726e6f723a20756e6b6e6f776e2070726f706f73616c206964000000600082015250565b60006185b5601d83617155565b91506185c08261857f565b602082019050919050565b600060208201905081810360008301526185e4816185a8565b9050919050565b60006185f682616dca565b915061860183616dca565b92508282101561861457618613618457565b5b828203905092915050565b7f4e487b7100000000000000000000000000000000000000000000000000000000600052603260045260246000fd5b7f4e487b7100000000000000000000000000000000000000000000000000000000600052602260045260246000fd5b6000600282049050600182168061869557607f821691505b602082108114156186a9576186a861864e565b5b50919050565b7f45524332303a2064656372656173656420616c6c6f77616e63652062656c6f7760008201527f207a65726f000000000000000000000000000000000000000000000000000000602082015250565b600061870b602583617155565b9150618716826186af565b604082019050919050565b6000602082019050818103600083015261873a816186fe565b9050919050565b7f4552433230566f7465733a207369676e61747572652065787069726564000000600082015250565b6000618777601d83617155565b915061878282618741565b602082019050919050565b600060208201905081810360008301526187a68161876a565b9050919050565b60006080820190506187c2600083018761770f565b6187cf6020830186617954565b6187dc6040830185616dd4565b6187e96060830184616dd4565b95945050505050565b7f4552433230566f7465733a20696e76616c6964206e6f6e636500000000000000600082015250565b6000618828601983617155565b9150618833826187f2565b602082019050919050565b600060208201905081810360008301526188578161881b565b9050919050565b600081519050919050565b600082825260208201905092915050565b6000819050602082019050919050565b61889381617214565b82525050565b60006188a5838361888a565b60208301905092915050565b6000602082019050919050565b60006188c98261885e565b6188d38185618869565b93506188de8361887a565b8060005b8381101561890f5781516188f68882618899565b9750618901836188b1565b9250506001810190506188e2565b5085935050505092915050565b600081519050919050565b600082825260208201905092915050565b6000819050602082019050919050565b61895181616dca565b82525050565b60006189638383618948565b60208301905092915050565b6000602082019050919050565b60006189878261891c565b6189918185618927565b935061899c83618938565b8060005b838110156189cd5781516189b48882618957565b97506189bf8361896f565b9250506001810190506189a0565b5085935050505092915050565b600081519050919050565b600082825260208201905092915050565b6000819050602082019050919050565b600081519050919050565b600082825260208201905092915050565b6000618a2d82618a06565b618a378185618a11565b9350618a47818560208601617166565b618a5081616ecd565b840191505092915050565b6000618a678383618a22565b905092915050565b6000602082019050919050565b6000618a87826189da565b618a9181856189e5565b935083602082028501618aa3856189f6565b8060005b85811015618adf5784840389528151618ac08582618a5b565b9450618acb83618a6f565b925060208a01995050600181019050618aa7565b50829750879550505050505092915050565b60006080820190508181036000830152618b0b81876188be565b90508181036020830152618b1f818661897c565b90508181036040830152618b338185618a7c565b9050618b42606083018461770f565b95945050505050565b7f45524332305065726d69743a206578706972656420646561646c696e65000000600082015250565b6000618b81601d83617155565b9150618b8c82618b4b565b602082019050919050565b60006020820190508181036000830152618bb081618b74565b9050919050565b600060c082019050618bcc600083018961770f565b618bd96020830188617954565b618be66040830187617954565b618bf36060830186616dd4565b618c006080830185616dd4565b618c0d60a0830184616dd4565b979650505050505050565b7f45524332305065726d69743a20696e76616c6964207369676e61747572650000600082015250565b6000618c4e601e83617155565b9150618c5982618c18565b602082019050919050565b60006020820190508181036000830152618c7d81618c41565b9050919050565b6000606082019050618c996000830186617954565b618ca66020830185617954565b618cb36040830184616dd4565b949350505050565b6000604082019050618cd06000830185617954565b618cdd6020830184616dd4565b9392505050565b7f4f776e61626c653a206e6577206f776e657220697320746865207a65726f206160008201527f6464726573730000000000000000000000000000000000000000000000000000602082015250565b6000618d40602683617155565b9150618d4b82618ce4565b604082019050919050565b60006020820190508181036000830152618d6f81618d33565b9050919050565b7f416c726561647920696e697469616c697a656400000000000000000000000000600082015250565b6000618dac601383617155565b9150618db782618d76565b602082019050919050565b60006020820190508181036000830152618ddb81618d9f565b9050919050565b7f476f7665726e6f723a20766f7465206e6f742063757272656e746c792061637460008201527f6976650000000000000000000000000000000000000000000000000000000000602082015250565b6000618e3e602383617155565b9150618e4982618de2565b604082019050919050565b60006020820190508181036000830152618e6d81618e31565b9050919050565b6000608082019050618e896000830187616dd4565b618e966020830186617739565b618ea36040830185616dd4565b8181036060830152618eb58184617199565b905095945050505050565b600082825260208201905092915050565b6000618edc82618a06565b618ee68185618ec0565b9350618ef6818560208601617166565b618eff81616ecd565b840191505092915050565b600060a082019050618f1f6000830188616dd4565b618f2c6020830187617739565b618f396040830186616dd4565b8181036060830152618f4b8185617199565b90508181036080830152618f5f8184618ed1565b90509695505050505050565b7f476f7665726e6f72566f74657351756f72756d4672616374696f6e3a2071756f60008201527f72756d4e756d657261746f72206f7665722071756f72756d44656e6f6d696e6160208201527f746f720000000000000000000000000000000000000000000000000000000000604082015250565b6000618fed604383617155565b9150618ff882618f6b565b606082019050919050565b6000602082019050818103600083015261901c81618fe0565b9050919050565b60006040820190506190386000830185616dd4565b6190456020830184616dd4565b9392505050565b7f45524332303a20617070726f76652066726f6d20746865207a65726f2061646460008201527f7265737300000000000000000000000000000000000000000000000000000000602082015250565b60006190a8602483617155565b91506190b38261904c565b604082019050919050565b600060208201905081810360008301526190d78161909b565b9050919050565b7f45524332303a20617070726f766520746f20746865207a65726f20616464726560008201527f7373000000000000000000000000000000000000000000000000000000000000602082015250565b600061913a602283617155565b9150619145826190de565b604082019050919050565b600060208201905081810360008301526191698161912d565b9050919050565b7f45524332303a20696e73756666696369656e7420616c6c6f77616e6365000000600082015250565b60006191a6601d83617155565b91506191b182619170565b602082019050919050565b600060208201905081810360008301526191d581619199565b9050919050565b7f45524332303a207472616e736665722066726f6d20746865207a65726f20616460008201527f6472657373000000000000000000000000000000000000000000000000000000602082015250565b6000619238602583617155565b9150619243826191dc565b604082019050919050565b600060208201905081810360008301526192678161922b565b9050919050565b7f45524332303a207472616e7366657220746f20746865207a65726f206164647260008201527f6573730000000000000000000000000000000000000000000000000000000000602082015250565b60006192ca602383617155565b91506192d58261926e565b604082019050919050565b600060208201905081810360008301526192f9816192bd565b9050919050565b7f45524332303a207472616e7366657220616d6f756e742065786365656473206260008201527f616c616e63650000000000000000000000000000000000000000000000000000602082015250565b600061935c602683617155565b915061936782619300565b604082019050919050565b6000602082019050818103600083015261938b8161934f565b9050919050565b600061939d82616dca565b91507fffffffffffffffffffffffffffffffffffffffffffffffffffffffffffffffff8214156193d0576193cf618457565b5b600182019050919050565b60006193e682618a06565b6193f081856182bd565b9350619400818560208601617166565b80840191505092915050565b600061941882846193db565b915081905092915050565b60008151905061943281616dfe565b92915050565b60006020828403121561944e5761944d616d05565b5b600061945c84828501619423565b91505092915050565b7f4f776e61626c653a2063616c6c6572206973206e6f7420746865206f776e6572600082015250565b600061949b602083617155565b91506194a682619465565b602082019050919050565b600060208201905081810360008301526194ca8161948e565b9050919050565b7f436865636b706f696e74733a20626c6f636b206e6f7420796574206d696e6564600082015250565b6000619507602083617155565b9150619512826194d1565b602082019050919050565b60006020820190508181036000830152619536816194fa565b9050919050565b7f53616665436173743a2076616c756520646f65736e27742066697420696e203360008201527f3220626974730000000000000000000000000000000000000000000000000000602082015250565b6000619599602683617155565b91506195a48261953d565b604082019050919050565b600060208201905081810360008301526195c88161958c565b9050919050565b7f476f7665726e6f723a2070726f706f73657220766f7465732062656c6f77207060008201527f726f706f73616c207468726573686f6c64000000000000000000000000000000602082015250565b600061962b603183617155565b9150619636826195cf565b604082019050919050565b6000602082019050818103600083015261965a8161961e565b9050919050565b7f476f7665726e6f723a20696e76616c69642070726f706f73616c206c656e677460008201527f6800000000000000000000000000000000000000000000000000000000000000602082015250565b60006196bd602183617155565b91506196c882619661565b604082019050919050565b600060208201905081810360008301526196ec816196b0565b9050919050565b7f476f7665726e6f723a20656d7074792070726f706f73616c0000000000000000600082015250565b6000619729601883617155565b9150619734826196f3565b602082019050919050565b600060208201905081810360008301526197588161971c565b9050919050565b7f476f7665726e6f723a2070726f706f73616c20616c726561647920657869737460008201527f7300000000000000000000000000000000000000000000000000000000000000602082015250565b60006197bb602183617155565b91506197c68261975f565b604082019050919050565b600060208201905081810360008301526197ea816197ae565b9050919050565b600067ffffffffffffffff82169050919050565b6000619810826197f1565b915061981b836197f1565b92508267ffffffffffffffff0382111561983857619837618457565b5b828201905092915050565b600081519050919050565b600082825260208201905092915050565b6000819050602082019050919050565b600082825260208201905092915050565b600061988b8261714a565b619895818561986f565b93506198a5818560208601617166565b6198ae81616ecd565b840191505092915050565b60006198c58383619880565b905092915050565b6000602082019050919050565b60006198e582619843565b6198ef818561984e565b9350836020820285016199018561985f565b8060005b8581101561993d578484038952815161991e85826198b9565b9450619929836198cd565b925060208a01995050600181019050619905565b50829750879550505050505092915050565b600061996a619965619960846197f1565b617c48565b616dca565b9050919050565b61997a8161994f565b82525050565b600061012082019050619996600083018c616dd4565b6199a3602083018b617954565b81810360408301526199b5818a6188be565b905081810360608301526199c9818961897c565b905081810360808301526199dd81886198da565b905081810360a08301526199f18187618a7c565b9050619a0060c0830186619971565b619a0d60e0830185619971565b818103610100830152619a208184617199565b90509a9950505050505050505050565b7f476f7665726e6f7253657474696e67733a20766f74696e6720706572696f642060008201527f746f6f206c6f7700000000000000000000000000000000000000000000000000602082015250565b6000619a8c602783617155565b9150619a9782619a30565b604082019050919050565b60006020820190508181036000830152619abb81619a7f565b9050919050565b7f496e697469616c697a61626c653a20636f6e7472616374206973206e6f74206960008201527f6e697469616c697a696e67000000000000000000000000000000000000000000602082015250565b6000619b1e602b83617155565b9150619b2982619ac2565b604082019050919050565b60006020820190508181036000830152619b4d81619b11565b9050919050565b6000619b5f82616dca565b9150619b6a83616dca565b9250817fffffffffffffffffffffffffffffffffffffffffffffffffffffffffffffffff0483118215151615619ba357619ba2618457565b5b828202905092915050565b7f4e487b7100000000000000000000000000000000000000000000000000000000600052601260045260246000fd5b6000619be882616dca565b9150619bf383616dca565b925082619c0357619c02619bae565b5b828204905092915050565b600081905092915050565b7f1901000000000000000000000000000000000000000000000000000000000000600082015250565b6000619c4f600283619c0e565b9150619c5a82619c19565b600282019050919050565b6000819050919050565b619c80619c7b82617009565b619c65565b82525050565b6000619c9182619c42565b9150619c9d8285619c6f565b602082019150619cad8284619c6f565b6020820191508190509392505050565b6000608082019050619cd2600083018761770f565b619cdf6020830186617739565b619cec604083018561770f565b619cf9606083018461770f565b95945050505050565b7f45434453413a20696e76616c6964207369676e61747572650000000000000000600082015250565b6000619d38601883617155565b9150619d4382619d02565b602082019050919050565b60006020820190508181036000830152619d6781619d2b565b9050919050565b7f45434453413a20696e76616c6964207369676e6174757265206c656e67746800600082015250565b6000619da4601f83617155565b9150619daf82619d6e565b602082019050919050565b60006020820190508181036000830152619dd381619d97565b9050919050565b7f45434453413a20696e76616c6964207369676e6174757265202773272076616c60008201527f7565000000000000000000000000000000000000000000000000000000000000602082015250565b6000619e36602283617155565b9150619e4182619dda565b604082019050919050565b60006020820190508181036000830152619e6581619e29565b9050919050565b7f53616665436173743a2076616c756520646f65736e27742066697420696e203260008201527f3234206269747300000000000000000000000000000000000000000000000000602082015250565b6000619ec8602783617155565b9150619ed382619e6c565b604082019050919050565b60006020820190508181036000830152619ef781619ebb565b9050919050565b600060a082019050619f13600083018861770f565b619f20602083018761770f565b619f2d604083018661770f565b619f3a6060830185616dd4565b619f476080830184617954565b9695505050505050565b7f4552433230566f7465733a20746f74616c20737570706c79207269736b73206f60008201527f766572666c6f77696e6720766f74657300000000000000000000000000000000602082015250565b6000619fad603083617155565b9150619fb882619f51565b604082019050919050565b60006020820190508181036000830152619fdc81619fa0565b9050919050565b7f53616665436173743a2076616c756520646f65736e27742066697420696e203660008201527f3420626974730000000000000000000000000000000000000000000000000000602082015250565b600061a03f602683617155565b915061a04a82619fe3565b604082019050919050565b6000602082019050818103600083015261a06e8161a032565b9050919050565b7f476f7665726e6f72566f74696e6753696d706c653a20766f746520616c72656160008201527f6479206361737400000000000000000000000000000000000000000000000000602082015250565b600061a0d1602783617155565b915061a0dc8261a075565b604082019050919050565b6000602082019050818103600083015261a1008161a0c4565b9050919050565b7f476f7665726e6f72566f74696e6753696d706c653a20696e76616c696420766160008201527f6c756520666f7220656e756d20566f7465547970650000000000000000000000602082015250565b600061a163603583617155565b915061a16e8261a107565b604082019050919050565b6000602082019050818103600083015261a1928161a156565b9050919050565b7f436865636b706f696e743a20696e76616c6964206b6579000000000000000000600082015250565b600061a1cf601783617155565b915061a1da8261a199565b602082019050919050565b6000602082019050818103600083015261a1fe8161a1c2565b9050919050565b7f45524332303a206d696e7420746f20746865207a65726f206164647265737300600082015250565b600061a23b601f83617155565b915061a2468261a205565b602082019050919050565b6000602082019050818103600083015261a26a8161a22e565b905091905056fe476f7665726e6f723a2072656c617920726576657274656420776974686f7574206d657373616765476f7665726e6f723a2063616c6c20726576657274656420776974686f7574206d657373616765a2646970667358221220fb5534be68b51f4ca151579976c15ee51e242c6324153bd7d99c1281e2dc21e564736f6c63430008090033",
  "linkReferences": {},
  "deployedLinkReferences": {}
}