{
  "_format": "hh-sol-artifact-1",
  "contractName": "ShareToken",
  "sourceName": "contracts/ShareToken.sol",
  "abi": [
    {
      "inputs": [],
      "stateMutability": "nonpayable",
      "type": "constructor"
    },
    {
      "inputs": [],
      "name": "Empty",
      "type": "error"
    },
    {
      "anonymous": false,
      "inputs": [
        {
          "indexed": true,
          "internalType": "address",
          "name": "_userAddress",
          "type": "address"
        },
        {
          "indexed": true,
          "internalType": "bool",
          "name": "_isFrozen",
          "type": "bool"
        }
      ],
      "name": "AddressFrozen",
      "type": "event"
    },
    {
      "anonymous": false,
      "inputs": [
        {
          "indexed": true,
          "internalType": "address",
          "name": "owner",
          "type": "address"
        },
        {
          "indexed": true,
          "internalType": "address",
          "name": "spender",
          "type": "address"
        },
        {
          "indexed": false,
          "internalType": "uint256",
          "name": "value",
          "type": "uint256"
        }
      ],
      "name": "Approval",
      "type": "event"
    },
    {
      "anonymous": false,
      "inputs": [
        {
          "indexed": true,
          "internalType": "address",
          "name": "delegator",
          "type": "address"
        },
        {
          "indexed": true,
          "internalType": "address",
          "name": "fromDelegate",
          "type": "address"
        },
        {
          "indexed": true,
          "internalType": "address",
          "name": "toDelegate",
          "type": "address"
        }
      ],
      "name": "DelegateChanged",
      "type": "event"
    },
    {
      "anonymous": false,
      "inputs": [
        {
          "indexed": true,
          "internalType": "address",
          "name": "delegate",
          "type": "address"
        },
        {
          "indexed": false,
          "internalType": "uint256",
          "name": "previousBalance",
          "type": "uint256"
        },
        {
          "indexed": false,
          "internalType": "uint256",
          "name": "newBalance",
          "type": "uint256"
        }
      ],
      "name": "DelegateVotesChanged",
      "type": "event"
    },
    {
      "anonymous": false,
      "inputs": [
        {
          "indexed": false,
          "internalType": "uint8",
          "name": "version",
          "type": "uint8"
        }
      ],
      "name": "Initialized",
      "type": "event"
    },
    {
      "anonymous": false,
      "inputs": [
        {
          "indexed": true,
          "internalType": "address",
          "name": "previousOwner",
          "type": "address"
        },
        {
          "indexed": true,
          "internalType": "address",
          "name": "newOwner",
          "type": "address"
        }
      ],
      "name": "OwnershipTransferred",
      "type": "event"
    },
    {
      "anonymous": false,
      "inputs": [
        {
          "indexed": false,
          "internalType": "uint256",
          "name": "proposalId",
          "type": "uint256"
        }
      ],
      "name": "ProposalCanceled",
      "type": "event"
    },
    {
      "anonymous": false,
      "inputs": [
        {
          "indexed": false,
          "internalType": "uint256",
          "name": "proposalId",
          "type": "uint256"
        },
        {
          "indexed": false,
          "internalType": "address",
          "name": "proposer",
          "type": "address"
        },
        {
          "indexed": false,
          "internalType": "address[]",
          "name": "targets",
          "type": "address[]"
        },
        {
          "indexed": false,
          "internalType": "uint256[]",
          "name": "values",
          "type": "uint256[]"
        },
        {
          "indexed": false,
          "internalType": "string[]",
          "name": "signatures",
          "type": "string[]"
        },
        {
          "indexed": false,
          "internalType": "bytes[]",
          "name": "calldatas",
          "type": "bytes[]"
        },
        {
          "indexed": false,
          "internalType": "uint256",
          "name": "startBlock",
          "type": "uint256"
        },
        {
          "indexed": false,
          "internalType": "uint256",
          "name": "endBlock",
          "type": "uint256"
        },
        {
          "indexed": false,
          "internalType": "string",
          "name": "description",
          "type": "string"
        }
      ],
      "name": "ProposalCreated",
      "type": "event"
    },
    {
      "anonymous": false,
      "inputs": [
        {
          "indexed": false,
          "internalType": "uint256",
          "name": "proposalId",
          "type": "uint256"
        }
      ],
      "name": "ProposalExecuted",
      "type": "event"
    },
    {
      "anonymous": false,
      "inputs": [
        {
          "indexed": false,
          "internalType": "uint256",
          "name": "oldProposalThreshold",
          "type": "uint256"
        },
        {
          "indexed": false,
          "internalType": "uint256",
          "name": "newProposalThreshold",
          "type": "uint256"
        }
      ],
      "name": "ProposalThresholdSet",
      "type": "event"
    },
    {
      "anonymous": false,
      "inputs": [
        {
          "indexed": false,
          "internalType": "uint256",
          "name": "oldQuorumNumerator",
          "type": "uint256"
        },
        {
          "indexed": false,
          "internalType": "uint256",
          "name": "newQuorumNumerator",
          "type": "uint256"
        }
      ],
      "name": "QuorumNumeratorUpdated",
      "type": "event"
    },
    {
      "anonymous": false,
      "inputs": [
        {
          "indexed": true,
          "internalType": "address",
          "name": "from",
          "type": "address"
        },
        {
          "indexed": true,
          "internalType": "address",
          "name": "to",
          "type": "address"
        },
        {
          "indexed": false,
          "internalType": "uint256",
          "name": "value",
          "type": "uint256"
        }
      ],
      "name": "Transfer",
      "type": "event"
    },
    {
      "anonymous": false,
      "inputs": [
        {
          "indexed": true,
          "internalType": "address",
          "name": "voter",
          "type": "address"
        },
        {
          "indexed": false,
          "internalType": "uint256",
          "name": "proposalId",
          "type": "uint256"
        },
        {
          "indexed": false,
          "internalType": "uint8",
          "name": "support",
          "type": "uint8"
        },
        {
          "indexed": false,
          "internalType": "uint256",
          "name": "weight",
          "type": "uint256"
        },
        {
          "indexed": false,
          "internalType": "string",
          "name": "reason",
          "type": "string"
        }
      ],
      "name": "VoteCast",
      "type": "event"
    },
    {
      "anonymous": false,
      "inputs": [
        {
          "indexed": true,
          "internalType": "address",
          "name": "voter",
          "type": "address"
        },
        {
          "indexed": false,
          "internalType": "uint256",
          "name": "proposalId",
          "type": "uint256"
        },
        {
          "indexed": false,
          "internalType": "uint8",
          "name": "support",
          "type": "uint8"
        },
        {
          "indexed": false,
          "internalType": "uint256",
          "name": "weight",
          "type": "uint256"
        },
        {
          "indexed": false,
          "internalType": "string",
          "name": "reason",
          "type": "string"
        },
        {
          "indexed": false,
          "internalType": "bytes",
          "name": "params",
          "type": "bytes"
        }
      ],
      "name": "VoteCastWithParams",
      "type": "event"
    },
    {
      "anonymous": false,
      "inputs": [
        {
          "indexed": false,
          "internalType": "uint256",
          "name": "oldVotingDelay",
          "type": "uint256"
        },
        {
          "indexed": false,
          "internalType": "uint256",
          "name": "newVotingDelay",
          "type": "uint256"
        }
      ],
      "name": "VotingDelaySet",
      "type": "event"
    },
    {
      "anonymous": false,
      "inputs": [
        {
          "indexed": false,
          "internalType": "uint256",
          "name": "oldVotingPeriod",
          "type": "uint256"
        },
        {
          "indexed": false,
          "internalType": "uint256",
          "name": "newVotingPeriod",
          "type": "uint256"
        }
      ],
      "name": "VotingPeriodSet",
      "type": "event"
    },
    {
      "inputs": [],
      "name": "BALLOT_TYPEHASH",
      "outputs": [
        {
          "internalType": "bytes32",
          "name": "",
          "type": "bytes32"
        }
      ],
      "stateMutability": "view",
      "type": "function"
    },
    {
      "inputs": [],
      "name": "COUNTING_MODE",
      "outputs": [
        {
          "internalType": "string",
          "name": "",
          "type": "string"
        }
      ],
      "stateMutability": "pure",
      "type": "function"
    },
    {
      "inputs": [],
      "name": "DOMAIN_SEPARATOR",
      "outputs": [
        {
          "internalType": "bytes32",
          "name": "",
          "type": "bytes32"
        }
      ],
      "stateMutability": "view",
      "type": "function"
    },
    {
      "inputs": [],
      "name": "EXTENDED_BALLOT_TYPEHASH",
      "outputs": [
        {
          "internalType": "bytes32",
          "name": "",
          "type": "bytes32"
        }
      ],
      "stateMutability": "view",
      "type": "function"
    },
    {
      "inputs": [
        {
          "internalType": "address",
          "name": "owner",
          "type": "address"
        },
        {
          "internalType": "address",
          "name": "spender",
          "type": "address"
        }
      ],
      "name": "allowance",
      "outputs": [
        {
          "internalType": "uint256",
          "name": "",
          "type": "uint256"
        }
      ],
      "stateMutability": "view",
      "type": "function"
    },
    {
      "inputs": [
        {
          "internalType": "address",
          "name": "spender",
          "type": "address"
        },
        {
          "internalType": "uint256",
          "name": "amount",
          "type": "uint256"
        }
      ],
      "name": "approve",
      "outputs": [
        {
          "internalType": "bool",
          "name": "",
          "type": "bool"
        }
      ],
      "stateMutability": "nonpayable",
      "type": "function"
    },
    {
      "inputs": [
        {
          "internalType": "address",
          "name": "account",
          "type": "address"
        }
      ],
      "name": "balanceOf",
      "outputs": [
        {
          "internalType": "uint256",
          "name": "",
          "type": "uint256"
        }
      ],
      "stateMutability": "view",
      "type": "function"
    },
    {
      "inputs": [
        {
          "internalType": "uint256",
          "name": "proposalId",
          "type": "uint256"
        },
        {
          "internalType": "uint8",
          "name": "support",
          "type": "uint8"
        }
      ],
      "name": "castVote",
      "outputs": [
        {
          "internalType": "uint256",
          "name": "",
          "type": "uint256"
        }
      ],
      "stateMutability": "nonpayable",
      "type": "function"
    },
    {
      "inputs": [
        {
          "internalType": "uint256",
          "name": "proposalId",
          "type": "uint256"
        },
        {
          "internalType": "uint8",
          "name": "support",
          "type": "uint8"
        },
        {
          "internalType": "uint8",
          "name": "v",
          "type": "uint8"
        },
        {
          "internalType": "bytes32",
          "name": "r",
          "type": "bytes32"
        },
        {
          "internalType": "bytes32",
          "name": "s",
          "type": "bytes32"
        }
      ],
      "name": "castVoteBySig",
      "outputs": [
        {
          "internalType": "uint256",
          "name": "",
          "type": "uint256"
        }
      ],
      "stateMutability": "nonpayable",
      "type": "function"
    },
    {
      "inputs": [
        {
          "internalType": "uint256",
          "name": "proposalId",
          "type": "uint256"
        },
        {
          "internalType": "uint8",
          "name": "support",
          "type": "uint8"
        },
        {
          "internalType": "string",
          "name": "reason",
          "type": "string"
        }
      ],
      "name": "castVoteWithReason",
      "outputs": [
        {
          "internalType": "uint256",
          "name": "",
          "type": "uint256"
        }
      ],
      "stateMutability": "nonpayable",
      "type": "function"
    },
    {
      "inputs": [
        {
          "internalType": "uint256",
          "name": "proposalId",
          "type": "uint256"
        },
        {
          "internalType": "uint8",
          "name": "support",
          "type": "uint8"
        },
        {
          "internalType": "string",
          "name": "reason",
          "type": "string"
        },
        {
          "internalType": "bytes",
          "name": "params",
          "type": "bytes"
        }
      ],
      "name": "castVoteWithReasonAndParams",
      "outputs": [
        {
          "internalType": "uint256",
          "name": "",
          "type": "uint256"
        }
      ],
      "stateMutability": "nonpayable",
      "type": "function"
    },
    {
      "inputs": [
        {
          "internalType": "uint256",
          "name": "proposalId",
          "type": "uint256"
        },
        {
          "internalType": "uint8",
          "name": "support",
          "type": "uint8"
        },
        {
          "internalType": "string",
          "name": "reason",
          "type": "string"
        },
        {
          "internalType": "bytes",
          "name": "params",
          "type": "bytes"
        },
        {
          "internalType": "uint8",
          "name": "v",
          "type": "uint8"
        },
        {
          "internalType": "bytes32",
          "name": "r",
          "type": "bytes32"
        },
        {
          "internalType": "bytes32",
          "name": "s",
          "type": "bytes32"
        }
      ],
      "name": "castVoteWithReasonAndParamsBySig",
      "outputs": [
        {
          "internalType": "uint256",
          "name": "",
          "type": "uint256"
        }
      ],
      "stateMutability": "nonpayable",
      "type": "function"
    },
    {
      "inputs": [
        {
          "internalType": "address",
          "name": "account",
          "type": "address"
        },
        {
          "internalType": "uint32",
          "name": "pos",
          "type": "uint32"
        }
      ],
      "name": "checkpoints",
      "outputs": [
        {
          "components": [
            {
              "internalType": "uint32",
              "name": "fromBlock",
              "type": "uint32"
            },
            {
              "internalType": "uint224",
              "name": "votes",
              "type": "uint224"
            }
          ],
          "internalType": "struct ERC20VotesUpgradeable.Checkpoint",
          "name": "",
          "type": "tuple"
        }
      ],
      "stateMutability": "view",
      "type": "function"
    },
    {
      "inputs": [],
      "name": "clauseNFT",
      "outputs": [
        {
          "internalType": "contract IERC721",
          "name": "",
          "type": "address"
        }
      ],
      "stateMutability": "view",
      "type": "function"
    },
    {
      "inputs": [],
      "name": "decimals",
      "outputs": [
        {
          "internalType": "uint8",
          "name": "",
          "type": "uint8"
        }
      ],
      "stateMutability": "view",
      "type": "function"
    },
    {
      "inputs": [
        {
          "internalType": "address",
          "name": "spender",
          "type": "address"
        },
        {
          "internalType": "uint256",
          "name": "subtractedValue",
          "type": "uint256"
        }
      ],
      "name": "decreaseAllowance",
      "outputs": [
        {
          "internalType": "bool",
          "name": "",
          "type": "bool"
        }
      ],
      "stateMutability": "nonpayable",
      "type": "function"
    },
    {
      "inputs": [
        {
          "internalType": "address",
          "name": "delegatee",
          "type": "address"
        }
      ],
      "name": "delegate",
      "outputs": [],
      "stateMutability": "nonpayable",
      "type": "function"
    },
    {
      "inputs": [
        {
          "internalType": "address",
          "name": "delegatee",
          "type": "address"
        },
        {
          "internalType": "uint256",
          "name": "nonce",
          "type": "uint256"
        },
        {
          "internalType": "uint256",
          "name": "expiry",
          "type": "uint256"
        },
        {
          "internalType": "uint8",
          "name": "v",
          "type": "uint8"
        },
        {
          "internalType": "bytes32",
          "name": "r",
          "type": "bytes32"
        },
        {
          "internalType": "bytes32",
          "name": "s",
          "type": "bytes32"
        }
      ],
      "name": "delegateBySig",
      "outputs": [],
      "stateMutability": "nonpayable",
      "type": "function"
    },
    {
      "inputs": [
        {
          "internalType": "address",
          "name": "account",
          "type": "address"
        }
      ],
      "name": "delegates",
      "outputs": [
        {
          "internalType": "address",
          "name": "",
          "type": "address"
        }
      ],
      "stateMutability": "view",
      "type": "function"
    },
    {
      "inputs": [
        {
          "internalType": "address[]",
          "name": "targets",
          "type": "address[]"
        },
        {
          "internalType": "uint256[]",
          "name": "values",
          "type": "uint256[]"
        },
        {
          "internalType": "bytes[]",
          "name": "calldatas",
          "type": "bytes[]"
        },
        {
          "internalType": "bytes32",
          "name": "descriptionHash",
          "type": "bytes32"
        }
      ],
      "name": "execute",
      "outputs": [
        {
          "internalType": "uint256",
          "name": "",
          "type": "uint256"
        }
      ],
      "stateMutability": "payable",
      "type": "function"
    },
    {
      "inputs": [
        {
          "internalType": "uint256",
          "name": "blockNumber",
          "type": "uint256"
        }
      ],
      "name": "getPastTotalSupply",
      "outputs": [
        {
          "internalType": "uint256",
          "name": "",
          "type": "uint256"
        }
      ],
      "stateMutability": "view",
      "type": "function"
    },
    {
      "inputs": [
        {
          "internalType": "address",
          "name": "account",
          "type": "address"
        },
        {
          "internalType": "uint256",
          "name": "blockNumber",
          "type": "uint256"
        }
      ],
      "name": "getPastVotes",
      "outputs": [
        {
          "internalType": "uint256",
          "name": "",
          "type": "uint256"
        }
      ],
      "stateMutability": "view",
      "type": "function"
    },
    {
      "inputs": [
        {
          "internalType": "address",
          "name": "account",
          "type": "address"
        }
      ],
      "name": "getVotes",
      "outputs": [
        {
          "internalType": "uint256",
          "name": "",
          "type": "uint256"
        }
      ],
      "stateMutability": "view",
      "type": "function"
    },
    {
      "inputs": [
        {
          "internalType": "address",
          "name": "account",
          "type": "address"
        },
        {
          "internalType": "uint256",
          "name": "blockNumber",
          "type": "uint256"
        }
      ],
      "name": "getVotes",
      "outputs": [
        {
          "internalType": "uint256",
          "name": "",
          "type": "uint256"
        }
      ],
      "stateMutability": "view",
      "type": "function"
    },
    {
      "inputs": [
        {
          "internalType": "address",
          "name": "account",
          "type": "address"
        },
        {
          "internalType": "uint256",
          "name": "blockNumber",
          "type": "uint256"
        },
        {
          "internalType": "bytes",
          "name": "params",
          "type": "bytes"
        }
      ],
      "name": "getVotesWithParams",
      "outputs": [
        {
          "internalType": "uint256",
          "name": "",
          "type": "uint256"
        }
      ],
      "stateMutability": "view",
      "type": "function"
    },
    {
      "inputs": [
        {
          "internalType": "uint256",
          "name": "proposalId",
          "type": "uint256"
        },
        {
          "internalType": "address",
          "name": "account",
          "type": "address"
        }
      ],
      "name": "hasVoted",
      "outputs": [
        {
          "internalType": "bool",
          "name": "",
          "type": "bool"
        }
      ],
      "stateMutability": "view",
      "type": "function"
    },
    {
      "inputs": [
        {
          "internalType": "address[]",
          "name": "targets",
          "type": "address[]"
        },
        {
          "internalType": "uint256[]",
          "name": "values",
          "type": "uint256[]"
        },
        {
          "internalType": "bytes[]",
          "name": "calldatas",
          "type": "bytes[]"
        },
        {
          "internalType": "bytes32",
          "name": "descriptionHash",
          "type": "bytes32"
        }
      ],
      "name": "hashProposal",
      "outputs": [
        {
          "internalType": "uint256",
          "name": "",
          "type": "uint256"
        }
      ],
      "stateMutability": "pure",
      "type": "function"
    },
    {
      "inputs": [
        {
          "internalType": "address",
          "name": "spender",
          "type": "address"
        },
        {
          "internalType": "uint256",
          "name": "addedValue",
          "type": "uint256"
        }
      ],
      "name": "increaseAllowance",
      "outputs": [
        {
          "internalType": "bool",
          "name": "",
          "type": "bool"
        }
      ],
      "stateMutability": "nonpayable",
      "type": "function"
    },
    {
      "inputs": [
        {
          "internalType": "string",
          "name": "_name",
          "type": "string"
        },
        {
          "internalType": "string",
          "name": "_symbol",
          "type": "string"
        },
        {
          "internalType": "address",
          "name": "_clauseNFT",
          "type": "address"
        },
        {
          "internalType": "uint256",
          "name": "_tokenId",
          "type": "uint256"
        }
      ],
      "name": "initialize",
      "outputs": [],
      "stateMutability": "nonpayable",
      "type": "function"
    },
    {
      "inputs": [],
      "name": "initialized",
      "outputs": [
        {
          "internalType": "bool",
          "name": "",
          "type": "bool"
        }
      ],
      "stateMutability": "view",
      "type": "function"
    },
    {
      "inputs": [
        {
          "internalType": "address",
          "name": "to",
          "type": "address"
        },
        {
          "internalType": "uint256",
          "name": "amount",
          "type": "uint256"
        }
      ],
      "name": "mint",
      "outputs": [],
      "stateMutability": "nonpayable",
      "type": "function"
    },
    {
      "inputs": [],
      "name": "name",
      "outputs": [
        {
          "internalType": "string",
          "name": "",
          "type": "string"
        }
      ],
      "stateMutability": "view",
      "type": "function"
    },
    {
      "inputs": [
        {
          "internalType": "address",
          "name": "owner",
          "type": "address"
        }
      ],
      "name": "nonces",
      "outputs": [
        {
          "internalType": "uint256",
          "name": "",
          "type": "uint256"
        }
      ],
      "stateMutability": "view",
      "type": "function"
    },
    {
      "inputs": [
        {
          "internalType": "address",
          "name": "account",
          "type": "address"
        }
      ],
      "name": "numCheckpoints",
      "outputs": [
        {
          "internalType": "uint32",
          "name": "",
          "type": "uint32"
        }
      ],
      "stateMutability": "view",
      "type": "function"
    },
    {
      "inputs": [
        {
          "internalType": "address",
          "name": "",
          "type": "address"
        },
        {
          "internalType": "address",
          "name": "",
          "type": "address"
        },
        {
          "internalType": "uint256[]",
          "name": "",
          "type": "uint256[]"
        },
        {
          "internalType": "uint256[]",
          "name": "",
          "type": "uint256[]"
        },
        {
          "internalType": "bytes",
          "name": "",
          "type": "bytes"
        }
      ],
      "name": "onERC1155BatchReceived",
      "outputs": [
        {
          "internalType": "bytes4",
          "name": "",
          "type": "bytes4"
        }
      ],
      "stateMutability": "nonpayable",
      "type": "function"
    },
    {
      "inputs": [
        {
          "internalType": "address",
          "name": "",
          "type": "address"
        },
        {
          "internalType": "address",
          "name": "",
          "type": "address"
        },
        {
          "internalType": "uint256",
          "name": "",
          "type": "uint256"
        },
        {
          "internalType": "uint256",
          "name": "",
          "type": "uint256"
        },
        {
          "internalType": "bytes",
          "name": "",
          "type": "bytes"
        }
      ],
      "name": "onERC1155Received",
      "outputs": [
        {
          "internalType": "bytes4",
          "name": "",
          "type": "bytes4"
        }
      ],
      "stateMutability": "nonpayable",
      "type": "function"
    },
    {
      "inputs": [
        {
          "internalType": "address",
          "name": "operator",
          "type": "address"
        },
        {
          "internalType": "address",
          "name": "from",
          "type": "address"
        },
        {
          "internalType": "uint256",
          "name": "_tokenId",
          "type": "uint256"
        },
        {
          "internalType": "bytes",
          "name": "data",
          "type": "bytes"
        }
      ],
      "name": "onERC721Received",
      "outputs": [
        {
          "internalType": "bytes4",
          "name": "",
          "type": "bytes4"
        }
      ],
      "stateMutability": "nonpayable",
      "type": "function"
    },
    {
      "inputs": [],
      "name": "owner",
      "outputs": [
        {
          "internalType": "address",
          "name": "",
          "type": "address"
        }
      ],
      "stateMutability": "view",
      "type": "function"
    },
    {
      "inputs": [
        {
          "internalType": "address",
          "name": "owner",
          "type": "address"
        },
        {
          "internalType": "address",
          "name": "spender",
          "type": "address"
        },
        {
          "internalType": "uint256",
          "name": "value",
          "type": "uint256"
        },
        {
          "internalType": "uint256",
          "name": "deadline",
          "type": "uint256"
        },
        {
          "internalType": "uint8",
          "name": "v",
          "type": "uint8"
        },
        {
          "internalType": "bytes32",
          "name": "r",
          "type": "bytes32"
        },
        {
          "internalType": "bytes32",
          "name": "s",
          "type": "bytes32"
        }
      ],
      "name": "permit",
      "outputs": [],
      "stateMutability": "nonpayable",
      "type": "function"
    },
    {
      "inputs": [
        {
          "internalType": "uint256",
          "name": "proposalId",
          "type": "uint256"
        }
      ],
      "name": "proposalDeadline",
      "outputs": [
        {
          "internalType": "uint256",
          "name": "",
          "type": "uint256"
        }
      ],
      "stateMutability": "view",
      "type": "function"
    },
    {
      "inputs": [
        {
          "internalType": "uint256",
          "name": "proposalId",
          "type": "uint256"
        }
      ],
      "name": "proposalSnapshot",
      "outputs": [
        {
          "internalType": "uint256",
          "name": "",
          "type": "uint256"
        }
      ],
      "stateMutability": "view",
      "type": "function"
    },
    {
      "inputs": [],
      "name": "proposalThreshold",
      "outputs": [
        {
          "internalType": "uint256",
          "name": "",
          "type": "uint256"
        }
      ],
      "stateMutability": "view",
      "type": "function"
    },
    {
      "inputs": [
        {
          "internalType": "uint256",
          "name": "proposalId",
          "type": "uint256"
        }
      ],
      "name": "proposalVotes",
      "outputs": [
        {
          "internalType": "uint256",
          "name": "againstVotes",
          "type": "uint256"
        },
        {
          "internalType": "uint256",
          "name": "forVotes",
          "type": "uint256"
        },
        {
          "internalType": "uint256",
          "name": "abstainVotes",
          "type": "uint256"
        }
      ],
      "stateMutability": "view",
      "type": "function"
    },
    {
      "inputs": [
        {
          "internalType": "address[]",
          "name": "targets",
          "type": "address[]"
        },
        {
          "internalType": "uint256[]",
          "name": "values",
          "type": "uint256[]"
        },
        {
          "internalType": "bytes[]",
          "name": "calldatas",
          "type": "bytes[]"
        },
        {
          "internalType": "string",
          "name": "description",
          "type": "string"
        }
      ],
      "name": "propose",
      "outputs": [
        {
          "internalType": "uint256",
          "name": "",
          "type": "uint256"
        }
      ],
      "stateMutability": "nonpayable",
      "type": "function"
    },
    {
      "inputs": [
        {
          "internalType": "address",
          "name": "_clauseNFT",
          "type": "address"
        },
        {
          "internalType": "uint256",
          "name": "_tokenId",
          "type": "uint256"
        }
      ],
      "name": "proposeUpdateClause",
      "outputs": [],
      "stateMutability": "nonpayable",
      "type": "function"
    },
    {
      "inputs": [
        {
          "internalType": "uint256",
          "name": "blockNumber",
          "type": "uint256"
        }
      ],
      "name": "quorum",
      "outputs": [
        {
          "internalType": "uint256",
          "name": "",
          "type": "uint256"
        }
      ],
      "stateMutability": "view",
      "type": "function"
    },
    {
      "inputs": [],
      "name": "quorumDenominator",
      "outputs": [
        {
          "internalType": "uint256",
          "name": "",
          "type": "uint256"
        }
      ],
      "stateMutability": "view",
      "type": "function"
    },
    {
      "inputs": [
        {
          "internalType": "uint256",
          "name": "blockNumber",
          "type": "uint256"
        }
      ],
      "name": "quorumNumerator",
      "outputs": [
        {
          "internalType": "uint256",
          "name": "",
          "type": "uint256"
        }
      ],
      "stateMutability": "view",
      "type": "function"
    },
    {
      "inputs": [],
      "name": "quorumNumerator",
      "outputs": [
        {
          "internalType": "uint256",
          "name": "",
          "type": "uint256"
        }
      ],
      "stateMutability": "view",
      "type": "function"
    },
    {
      "inputs": [
        {
          "internalType": "address",
          "name": "target",
          "type": "address"
        },
        {
          "internalType": "uint256",
          "name": "value",
          "type": "uint256"
        },
        {
          "internalType": "bytes",
          "name": "data",
          "type": "bytes"
        }
      ],
      "name": "relay",
      "outputs": [],
      "stateMutability": "payable",
      "type": "function"
    },
    {
      "inputs": [],
      "name": "renounceOwnership",
      "outputs": [],
      "stateMutability": "nonpayable",
      "type": "function"
    },
    {
      "inputs": [
        {
          "internalType": "address",
          "name": "_userAddress",
          "type": "address"
        },
        {
          "internalType": "bool",
          "name": "_freeze",
          "type": "bool"
        }
      ],
      "name": "setAddressFrozen",
      "outputs": [],
      "stateMutability": "nonpayable",
      "type": "function"
    },
    {
      "inputs": [
        {
          "internalType": "uint256",
          "name": "newProposalThreshold",
          "type": "uint256"
        }
      ],
      "name": "setProposalThreshold",
      "outputs": [],
      "stateMutability": "nonpayable",
      "type": "function"
    },
    {
      "inputs": [
        {
          "internalType": "uint256",
          "name": "newVotingDelay",
          "type": "uint256"
        }
      ],
      "name": "setVotingDelay",
      "outputs": [],
      "stateMutability": "nonpayable",
      "type": "function"
    },
    {
      "inputs": [
        {
          "internalType": "uint256",
          "name": "newVotingPeriod",
          "type": "uint256"
        }
      ],
      "name": "setVotingPeriod",
      "outputs": [],
      "stateMutability": "nonpayable",
      "type": "function"
    },
    {
      "inputs": [
        {
          "internalType": "uint256",
          "name": "proposalId",
          "type": "uint256"
        }
      ],
      "name": "state",
      "outputs": [
        {
          "internalType": "enum IGovernorUpgradeable.ProposalState",
          "name": "",
          "type": "uint8"
        }
      ],
      "stateMutability": "view",
      "type": "function"
    },
    {
      "inputs": [
        {
          "internalType": "bytes4",
          "name": "interfaceId",
          "type": "bytes4"
        }
      ],
      "name": "supportsInterface",
      "outputs": [
        {
          "internalType": "bool",
          "name": "",
          "type": "bool"
        }
      ],
      "stateMutability": "view",
      "type": "function"
    },
    {
      "inputs": [],
      "name": "symbol",
      "outputs": [
        {
          "internalType": "string",
          "name": "",
          "type": "string"
        }
      ],
      "stateMutability": "view",
      "type": "function"
    },
    {
      "inputs": [],
      "name": "token",
      "outputs": [
        {
          "internalType": "contract IVotesUpgradeable",
          "name": "",
          "type": "address"
        }
      ],
      "stateMutability": "view",
      "type": "function"
    },
    {
      "inputs": [],
      "name": "tokenId",
      "outputs": [
        {
          "internalType": "uint256",
          "name": "",
          "type": "uint256"
        }
      ],
      "stateMutability": "view",
      "type": "function"
    },
    {
      "inputs": [],
      "name": "totalSupply",
      "outputs": [
        {
          "internalType": "uint256",
          "name": "",
          "type": "uint256"
        }
      ],
      "stateMutability": "view",
      "type": "function"
    },
    {
      "inputs": [
        {
          "internalType": "address",
          "name": "to",
          "type": "address"
        },
        {
          "internalType": "uint256",
          "name": "amount",
          "type": "uint256"
        }
      ],
      "name": "transfer",
      "outputs": [
        {
          "internalType": "bool",
          "name": "",
          "type": "bool"
        }
      ],
      "stateMutability": "nonpayable",
      "type": "function"
    },
    {
      "inputs": [
        {
          "internalType": "address",
          "name": "from",
          "type": "address"
        },
        {
          "internalType": "address",
          "name": "to",
          "type": "address"
        },
        {
          "internalType": "uint256",
          "name": "amount",
          "type": "uint256"
        }
      ],
      "name": "transferFrom",
      "outputs": [
        {
          "internalType": "bool",
          "name": "",
          "type": "bool"
        }
      ],
      "stateMutability": "nonpayable",
      "type": "function"
    },
    {
      "inputs": [
        {
          "internalType": "address",
          "name": "newOwner",
          "type": "address"
        }
      ],
      "name": "transferOwnership",
      "outputs": [],
      "stateMutability": "nonpayable",
      "type": "function"
    },
    {
      "inputs": [
        {
          "internalType": "address",
          "name": "_clauseNFT",
          "type": "address"
        },
        {
          "internalType": "uint256",
          "name": "_tokenId",
          "type": "uint256"
        }
      ],
      "name": "updateClause",
      "outputs": [],
      "stateMutability": "nonpayable",
      "type": "function"
    },
    {
      "inputs": [
        {
          "internalType": "uint256",
          "name": "newQuorumNumerator",
          "type": "uint256"
        }
      ],
      "name": "updateQuorumNumerator",
      "outputs": [],
      "stateMutability": "nonpayable",
      "type": "function"
    },
    {
      "inputs": [],
      "name": "version",
      "outputs": [
        {
          "internalType": "string",
          "name": "",
          "type": "string"
        }
      ],
      "stateMutability": "view",
      "type": "function"
    },
    {
      "inputs": [],
      "name": "votingDelay",
      "outputs": [
        {
          "internalType": "uint256",
          "name": "",
          "type": "uint256"
        }
      ],
      "stateMutability": "view",
      "type": "function"
    },
    {
      "inputs": [],
      "name": "votingPeriod",
      "outputs": [
        {
          "internalType": "uint256",
          "name": "",
          "type": "uint256"
        }
      ],
      "stateMutability": "view",
      "type": "function"
    },
    {
      "stateMutability": "payable",
      "type": "receive"
    }
  ],
  "bytecode": "0x6080604052610291805460ff191690553480156200001c57600080fd5b50620000276200002d565b620000ef565b600054610100900460ff16156200009a5760405162461bcd60e51b815260206004820152602760248201527f496e697469616c697a61626c653a20636f6e747261637420697320696e697469604482015266616c697a696e6760c81b606482015260840160405180910390fd5b60005460ff9081161015620000ed576000805460ff191660ff9081179091556040519081527f7f26b83ff96e1f2b6a682f133852f6798a09c465da95921460cefb38474024989060200160405180910390a15b565b61575480620000ff6000396000f3fe6080604052600436106103fe5760003560e01c80637b3c71d311610213578063c3cda52011610123578063ea0217cf116100ab578063f23a6e611161007a578063f23a6e6114610cf8578063f2fde38b14610d24578063f542033f14610d44578063f8ce560a14610d64578063fc0c546a14610d8457600080fd5b8063ea0217cf14610c4e578063eb9019d414610c6e578063ece40cc114610c8e578063f1127ed814610cae57600080fd5b8063da39b354116100f2578063da39b35414610b74578063dd4e2ba514610b94578063dd62ed3e14610bda578063deaaa7cc14610bfa578063e741b71c14610c2e57600080fd5b8063c3cda52014610af4578063c59057e414610b14578063c69c09cf14610b34578063d505accf14610b5457600080fd5b80639a802a6d116101a6578063a9059cbb11610175578063a9059cbb14610a60578063b58131b014610a80578063bc197c8114610a95578063c01f9e3714610ac1578063c28bc2fa14610ae157600080fd5b80639a802a6d146109eb5780639ab24eb014610a0b578063a457c2d714610a2b578063a7713a7014610a4b57600080fd5b80638da5cb5b116101e25780638da5cb5b146109845780638e539e8c146109a257806395d89b41146109c257806397c3d334146109d757600080fd5b80637b3c71d3146109035780637d5e81e2146109235780637ecebe00146109435780638400bb041461096357600080fd5b8063395093511161030e57806356781388116102a157806360c4247f1161027057806360c4247f146108435780636fcfff451461086357806370a082311461089857806370b0f660146108ce578063715018a6146108ee57600080fd5b806356781388146107ab578063587cde1e146107cb5780635c19a95c146108035780635f398a141461082357600080fd5b806340c10f19116102dd57806340c10f19146106c057806343859632146106e0578063544ffc9c1461072b57806354fd4d501461078157600080fd5b806339509351146106335780633a46b1a8146106535780633bccf4fd146106735780633e4f49e61461069357600080fd5b806317d70f7c116103915780632d63f693116103605780632d63f693146105995780632fe3e261146105b9578063313ce567146105ed5780633644e515146106095780633932abb11461061e57600080fd5b806317d70f7c1461053a57806318160ddd1461055157806323b872dd146105665780632656227d1461058657600080fd5b806306fdde03116103cd57806306fdde03146104a4578063095ea7b3146104c6578063150b7a02146104e6578063158ef93e1461051f57600080fd5b806301ffc9a71461040c57806302a251a314610441578063034201811461046457806306f3f9e61461048457600080fd5b3661040757005b005b600080fd5b34801561041857600080fd5b5061042c610427366004614ecf565b610da5565b60405190151581526020015b60405180910390f35b34801561044d57600080fd5b50610456610e12565b604051908152602001610438565b34801561047057600080fd5b5061045661047f366004615088565b610e23565b34801561049057600080fd5b5061040561049f366004614f6f565b610f1b565b3480156104b057600080fd5b506104b9610f6c565b6040516104389190615309565b3480156104d257600080fd5b5061042c6104e1366004614c3f565b610f76565b3480156104f257600080fd5b50610506610501366004614ace565b610f8e565b6040516001600160e01b03199091168152602001610438565b34801561052b57600080fd5b506102915461042c9060ff1681565b34801561054657600080fd5b506104566102905481565b34801561055d57600080fd5b50603554610456565b34801561057257600080fd5b5061042c610581366004614a93565b610fdc565b610456610594366004614d9d565b611002565b3480156105a557600080fd5b506104566105b4366004614f6f565b61114b565b3480156105c557600080fd5b506104567fb3b3f3b703cd84ce352197dcff232b1b5d3cfb2025ce47cf04742d0651f1af8881565b3480156105f957600080fd5b5060405160128152602001610438565b34801561061557600080fd5b50610456611183565b34801561062a57600080fd5b5061045661118d565b34801561063f57600080fd5b5061042c61064e366004614c3f565b611199565b34801561065f57600080fd5b5061045661066e366004614c3f565b6111bb565b34801561067f57600080fd5b5061045661068e36600461512b565b61122f565b34801561069f57600080fd5b506106b36106ae366004614f6f565b6112a5565b60405161043891906152e1565b3480156106cc57600080fd5b506104056106db366004614c3f565b6113a3565b3480156106ec57600080fd5b5061042c6106fb366004614f9f565b60008281526101f8602090815260408083206001600160a01b038516845260030190915290205460ff1692915050565b34801561073757600080fd5b50610766610746366004614f6f565b60009081526101f860205260409020805460018201546002909201549092565b60408051938452602084019290925290820152606001610438565b34801561078d57600080fd5b506040805180820190915260018152603160f81b60208201526104b9565b3480156107b757600080fd5b506104566107c6366004614fc1565b6113b9565b3480156107d757600080fd5b506107eb6107e63660046149a2565b6113e2565b6040516001600160a01b039091168152602001610438565b34801561080f57600080fd5b5061040561081e3660046149a2565b611401565b34801561082f57600080fd5b5061045661083e366004615022565b61140b565b34801561084f57600080fd5b5061045661085e366004614f6f565b611455565b34801561086f57600080fd5b5061088361087e3660046149a2565b6114fc565b60405163ffffffff9091168152602001610438565b3480156108a457600080fd5b506104566108b33660046149a2565b6001600160a01b031660009081526033602052604090205490565b3480156108da57600080fd5b506104056108e9366004614f6f565b61151f565b3480156108fa57600080fd5b50610405611564565b34801561090f57600080fd5b5061045661091e366004614fe3565b611578565b34801561092f57600080fd5b5061045661093e366004614e28565b6115c0565b34801561094f57600080fd5b5061045661095e3660046149a2565b6115df565b34801561096f57600080fd5b5061028f546107eb906001600160a01b031681565b34801561099057600080fd5b506065546001600160a01b03166107eb565b3480156109ae57600080fd5b506104566109bd366004614f6f565b6115fd565b3480156109ce57600080fd5b506104b961165a565b3480156109e357600080fd5b506064610456565b3480156109f757600080fd5b50610456610a06366004614cbf565b6116ec565b348015610a1757600080fd5b50610456610a263660046149a2565b6116f9565b348015610a3757600080fd5b5061042c610a46366004614c3f565b61178f565b348015610a5757600080fd5b50610456611815565b348015610a6c57600080fd5b5061042c610a7b366004614c3f565b611842565b348015610a8c57600080fd5b50610456611850565b348015610aa157600080fd5b50610506610ab03660046149ee565b63bc197c8160e01b95945050505050565b348015610acd57600080fd5b50610456610adc366004614f6f565b61185c565b610405610aef366004614c68565b61188c565b348015610b0057600080fd5b50610405610b0f366004614d13565b611959565b348015610b2057600080fd5b50610456610b2f366004614d9d565b611a70565b348015610b4057600080fd5b50610405610b4f366004614c05565b611aaa565b348015610b6057600080fd5b50610405610b6f366004614b9c565b611abc565b348015610b8057600080fd5b50610405610b8f366004614c3f565b611c20565b348015610ba057600080fd5b506040805180820190915260208082527f737570706f72743d627261766f2671756f72756d3d666f722c6162737461696e908201526104b9565b348015610be657600080fd5b50610456610bf53660046149bc565b611cda565b348015610c0657600080fd5b506104567f150214d74d59b7d1e90c73fc22ef3d991dd0a76b046543d4d80ab92d2a50328f81565b348015610c3a57600080fd5b50610405610c49366004614c3f565b611d05565b348015610c5a57600080fd5b50610405610c69366004614f6f565b611e30565b348015610c7a57600080fd5b50610456610c89366004614c3f565b611e75565b348015610c9a57600080fd5b50610405610ca9366004614f6f565b611e96565b348015610cba57600080fd5b50610cce610cc9366004614d6a565b611edb565b60408051825163ffffffff1681526020928301516001600160e01b03169281019290925201610438565b348015610d0457600080fd5b50610506610d13366004614b3a565b63f23a6e6160e01b95945050505050565b348015610d3057600080fd5b50610405610d3f3660046149a2565b611f6d565b348015610d5057600080fd5b50610405610d5f366004614ef7565b611fe3565b348015610d7057600080fd5b50610456610d7f366004614f6f565b612119565b348015610d9057600080fd5b5061022a546107eb906001600160a01b031681565b60006001600160e01b0319821663bf26d89760e01b1480610dd657506001600160e01b031982166379dd796f60e01b145b80610df157506001600160e01b03198216630271189760e51b145b80610e0c57506301ffc9a760e01b6001600160e01b03198316145b92915050565b6000610e1e6101c75490565b905090565b600080610ec7610ebf7fb3b3f3b703cd84ce352197dcff232b1b5d3cfb2025ce47cf04742d0651f1af888c8c8c8c604051610e5f92919061526a565b60405180910390208b80519060200120604051602001610ea4959493929190948552602085019390935260ff9190911660408401526060830152608082015260a00190565b60405160208183030381529060405280519060200120612124565b868686612172565b9050610f0d8a828b8b8b8080601f0160208091040260200160405190810160405280939291908181526020018383808284376000920191909152508d9250612190915050565b9a9950505050505050505050565b333014610f435760405162461bcd60e51b8152600401610f3a9061531c565b60405180910390fd5b610f60565b80610f54610196612300565b14610f5e57610f48565b505b610f698161238c565b50565b6060610e1e6124db565b600033610f848185856124eb565b5060019392505050565b6000610fd286868686868080601f01602080910402602001604051908101604052809392919081815260200183838082843760009201919091525061260f92505050565b9695505050505050565b600033610fea85828561261f565b610ff5858585612699565b60019150505b9392505050565b60008061101186868686611a70565b9050600061101e826112a5565b9050600481600781111561104257634e487b7160e01b600052602160045260246000fd5b148061106d5750600581600781111561106b57634e487b7160e01b600052602160045260246000fd5b145b6110c35760405162461bcd60e51b815260206004820152602160248201527f476f7665726e6f723a2070726f706f73616c206e6f74207375636365737366756044820152601b60fa1b6064820152608401610f3a565b6000828152610195602052604090819020600201805460ff19166001179055517f712ae1383f79ac853f8d882153778e0260ef8f03b504e2866e0593e04d2b291f906111129084815260200190565b60405180910390a16111278288888888612855565b61113482888888886128fe565b6111418288888888612855565b5095945050505050565b6000818152610195602090815260408083208151928301909152546001600160401b0316908190525b6001600160401b031692915050565b6000610e1e612a1e565b6000610e1e6101c65490565b600033610f848185856111ac8383611cda565b6111b6919061558e565b6124eb565b600043821061120c5760405162461bcd60e51b815260206004820152601f60248201527f4552433230566f7465733a20626c6f636b206e6f7420796574206d696e6564006044820152606401610f3a565b6001600160a01b038316600090815261013160205260409020610ffb9083612a99565b604080517f150214d74d59b7d1e90c73fc22ef3d991dd0a76b046543d4d80ab92d2a50328f602082015290810186905260ff85166060820152600090819061127d90610ebf90608001610ea4565b905061129a87828860405180602001604052806000815250612b8f565b979650505050505050565b600081815261019560205260408120600281015460ff16156112ca5750600792915050565b6002810154610100900460ff16156112e55750600292915050565b60006112f08461114b565b90508061133f5760405162461bcd60e51b815260206004820152601d60248201527f476f7665726e6f723a20756e6b6e6f776e2070726f706f73616c2069640000006044820152606401610f3a565b438110611350575060009392505050565b600061135b8561185c565b905043811061136f57506001949350505050565b61137885612bb2565b8015611388575061138885612bea565b1561139857506004949350505050565b506003949350505050565b6113ab612cc5565b6113b58282612d1f565b5050565b6000803390506113da84828560405180602001604052806000815250612b8f565b949350505050565b6001600160a01b03908116600090815261013060205260409020541690565b610f693382612d29565b60008033905061129a87828888888080601f0160208091040260200160405190810160405280939291908181526020018383808284376000920191909152508a9250612190915050565b61025e546000908061146c57505061025d54919050565b600061025e61147c600184615610565b8154811061149a57634e487b7160e01b600052603260045260246000fd5b60009182526020918290206040805180820190915291015463ffffffff8116808352600160201b9091046001600160e01b031692820192909252915084106114f057602001516001600160e01b03169392505050565b6113da61025e85612d5d565b6001600160a01b03811660009081526101316020526040812054610e0c90612de3565b33301461153e5760405162461bcd60e51b8152600401610f3a9061531c565b61155b565b8061154f610196612300565b1461155957611543565b505b610f6981612e4c565b61156c612cc5565b6115766000612e8f565b565b600080339050610fd286828787878080601f016020809104026020016040519081016040528093929190818152602001838380828437600092019190915250612b8f92505050565b60006115ca612cc5565b6115d685858585612ee1565b95945050505050565b6001600160a01b038116600090815260fd6020526040812054610e0c565b600043821061164e5760405162461bcd60e51b815260206004820152601f60248201527f4552433230566f7465733a20626c6f636b206e6f7420796574206d696e6564006044820152606401610f3a565b610e0c61013283612a99565b60606037805461166990615653565b80601f016020809104026020016040519081016040528092919081815260200182805461169590615653565b80156116e25780601f106116b7576101008083540402835291602001916116e2565b820191906000526020600020905b8154815290600101906020018083116116c557829003601f168201915b5050505050905090565b60006113da8484846131b3565b6001600160a01b03811660009081526101316020526040812054801561177c576001600160a01b03831660009081526101316020526040902061173d600183615610565b8154811061175b57634e487b7160e01b600052603260045260246000fd5b600091825260209091200154600160201b90046001600160e01b031661177f565b60005b6001600160e01b03169392505050565b6000338161179d8286611cda565b9050838110156117fd5760405162461bcd60e51b815260206004820152602560248201527f45524332303a2064656372656173656420616c6c6f77616e63652062656c6f77604482015264207a65726f60d81b6064820152608401610f3a565b61180a82868684036124eb565b506001949350505050565b61025e546000901561183a5761182c61025e613239565b6001600160e01b0316905090565b5061025d5490565b600033610f84818585612699565b6000610e1e6101c85490565b6000818152610195602090815260408083208151928301909152600101546001600160401b031690819052611174565b3330146118ab5760405162461bcd60e51b8152600401610f3a9061531c565b6118c8565b806118bc610196612300565b146118c6576118b0565b505b600080856001600160a01b03168585856040516118e692919061526a565b60006040518083038185875af1925050503d8060008114611923576040519150601f19603f3d011682016040523d82523d6000602084013e611928565b606091505b509150915061195082826040518060600160405280602881526020016156d060289139613272565b50505050505050565b834211156119a95760405162461bcd60e51b815260206004820152601d60248201527f4552433230566f7465733a207369676e617475726520657870697265640000006044820152606401610f3a565b604080517fe48329057bfd03d55e49b547132e39cffd9c1820ad7b9d4c5307691425d15adf60208201526001600160a01b038816918101919091526060810186905260808101859052600090611a0d90611a059060a001610ea4565b858585612172565b9050611a188161328b565b8614611a665760405162461bcd60e51b815260206004820152601960248201527f4552433230566f7465733a20696e76616c6964206e6f6e6365000000000000006044820152606401610f3a565b6119508188612d29565b600084848484604051602001611a899493929190615296565b60408051601f19818403018152919052805160209091012095945050505050565b611ab2612cc5565b6113b582826132b3565b83421115611b0c5760405162461bcd60e51b815260206004820152601d60248201527f45524332305065726d69743a206578706972656420646561646c696e650000006044820152606401610f3a565b60007f6e71edae12b1b97f4d1f60370fef10105fa2faae0126114a169c64845d6126c9888888611b3b8c61328b565b6040805160208101969096526001600160a01b0394851690860152929091166060840152608083015260a082015260c0810186905260e0016040516020818303038152906040528051906020012090506000611b9682612124565b90506000611ba682878787612172565b9050896001600160a01b0316816001600160a01b031614611c095760405162461bcd60e51b815260206004820152601e60248201527f45524332305065726d69743a20696e76616c6964207369676e617475726500006044820152606401610f3a565b611c148a8a8a6124eb565b50505050505050505050565b333014611c3f5760405162461bcd60e51b8152600401610f3a9061531c565b611c5c565b80611c50610196612300565b14611c5a57611c44565b505b61028f80546001600160a01b0319166001600160a01b038416908117909155604051632142170760e11b8152336004820152306024820152604481018390526342842e0e90606401600060405180830381600087803b158015611cbe57600080fd5b505af1158015611cd2573d6000803e3d6000fd5b505050505050565b6001600160a01b03918216600090815260346020908152604080832093909416825291909152205490565b611d0d612cc5565b6040516001600160a01b03831660248201526044810182905260009060640160408051601f198184030181529190526020810180516001600160e01b031663368e6cd560e21b17905260608051919250908190819030908290600090611d8357634e487b7160e01b600052603260045260246000fd5b60200260200101906001600160a01b031690816001600160a01b031681525050600082600081518110611dc657634e487b7160e01b600052603260045260246000fd5b6020026020010181815250508381600081518110611df457634e487b7160e01b600052603260045260246000fd5b60200260200101819052506119508383836040518060400160405280600d81526020016c55706461746520436c6175736560981b8152506115c0565b333014611e4f5760405162461bcd60e51b8152600401610f3a9061531c565b611e6c565b80611e60610196612300565b14611e6a57611e54565b505b610f6981613308565b6000610ffb8383611e9160408051602081019091526000815290565b6131b3565b333014611eb55760405162461bcd60e51b8152600401610f3a9061531c565b611ed2565b80611ec6610196612300565b14611ed057611eba565b505b610f69816133ab565b60408051808201909152600080825260208201526001600160a01b038316600090815261013160205260409020805463ffffffff8416908110611f2e57634e487b7160e01b600052603260045260246000fd5b60009182526020918290206040805180820190915291015463ffffffff81168252600160201b90046001600160e01b0316918101919091529392505050565b611f75612cc5565b6001600160a01b038116611fda5760405162461bcd60e51b815260206004820152602660248201527f4f776e61626c653a206e6577206f776e657220697320746865207a65726f206160448201526564647265737360d01b6064820152608401610f3a565b610f6981612e8f565b611feb612cc5565b6102915460ff16156120355760405162461bcd60e51b8152602060048201526013602482015272105b1c9958591e481a5b9a5d1a585b1a5e9959606a1b6044820152606401610f3a565b61203f84846133ee565b61204761341f565b6120508461344e565b612058613498565b612061846134bf565b61207060016000196000613516565b612078613498565b6120813061354d565b61208b600061357d565b61028f80546001600160a01b0319166001600160a01b038416908117909155604051632142170760e11b8152336004820152306024820152604481018390526342842e0e90606401600060405180830381600087803b1580156120ed57600080fd5b505af1158015612101573d6000803e3d6000fd5b5050610291805460ff19166001179055505050505050565b6000610e0c826135ad565b6000610e0c612131612a1e565b8360405161190160f01b6020820152602281018390526042810182905260009060620160405160208183030381529060405280519060200120905092915050565b60008060006121838787878761364b565b915091506111418161370f565b60008581526101956020526040812060016121aa886112a5565b60078111156121c957634e487b7160e01b600052602160045260246000fd5b146122225760405162461bcd60e51b815260206004820152602360248201527f476f7665726e6f723a20766f7465206e6f742063757272656e746c792061637460448201526269766560e81b6064820152608401610f3a565b604080516020810190915281546001600160401b03169081905260009061224b908890866131b3565b905061225a8888888488613895565b83516122ac57866001600160a01b03167fb8e138887d0aa13bab447e82de9d5c1777041ecd21ca36ba824ff1e6c07ddda48988848960405161229f94939291906154cd565b60405180910390a261129a565b866001600160a01b03167fe2babfbac5889a709b63bb7f598b324e08bc5a4fb9ec647fb3cbc9ec07eb871289888489896040516122ed9594939291906154f5565b60405180910390a2979650505050505050565b600061231f8254600f81810b810b600160801b909204810b900b131590565b1561233d57604051631ed9509560e11b815260040160405180910390fd5b508054600f90810b80820b820b600090815260018085016020526040822080549290558454920190920b6001600160801b03166fffffffffffffffffffffffffffffffff199091161790915590565b606481111561240f5760405162461bcd60e51b815260206004820152604360248201527f476f7665726e6f72566f74657351756f72756d4672616374696f6e3a2071756f60448201527f72756d4e756d657261746f72206f7665722071756f72756d44656e6f6d696e616064820152623a37b960e91b608482015260a401610f3a565b6000612419611815565b9050801580159061242b575061025e54155b1561249057604080518082019091526000815261025e906020810161244f846138d1565b6001600160e01b039081169091528254600181018455600093845260209384902083519490930151909116600160201b0263ffffffff909316929092179101555b61249c61025e8361393a565b505060408051828152602081018490527f0553476bf02ef2726e8ce5ced78d63e26e602e4a2257b1f559418e24b4633997910160405180910390a15050565b6060610194805461166990615653565b6001600160a01b03831661254d5760405162461bcd60e51b8152602060048201526024808201527f45524332303a20617070726f76652066726f6d20746865207a65726f206164646044820152637265737360e01b6064820152608401610f3a565b6001600160a01b0382166125ae5760405162461bcd60e51b815260206004820152602260248201527f45524332303a20617070726f766520746f20746865207a65726f206164647265604482015261737360f01b6064820152608401610f3a565b6001600160a01b0383811660008181526034602090815260408083209487168084529482529182902085905590518481527f8c5be1e5ebec7d5bd14f71427d1e84f3dd0314c0f7b2291e5b200ac8c7c3b925910160405180910390a3505050565b630a85bd0160e11b949350505050565b600061262b8484611cda565b9050600019811461269357818110156126865760405162461bcd60e51b815260206004820152601d60248201527f45524332303a20696e73756666696369656e7420616c6c6f77616e63650000006044820152606401610f3a565b61269384848484036124eb565b50505050565b6001600160a01b0383166126fd5760405162461bcd60e51b815260206004820152602560248201527f45524332303a207472616e736665722066726f6d20746865207a65726f206164604482015264647265737360d81b6064820152608401610f3a565b6001600160a01b03821661275f5760405162461bcd60e51b815260206004820152602360248201527f45524332303a207472616e7366657220746f20746865207a65726f206164647260448201526265737360e81b6064820152608401610f3a565b61276a838383613970565b6001600160a01b038316600090815260336020526040902054818110156127e25760405162461bcd60e51b815260206004820152602660248201527f45524332303a207472616e7366657220616d6f756e7420657863656564732062604482015265616c616e636560d01b6064820152608401610f3a565b6001600160a01b0380851660008181526033602052604080822086860390559286168082529083902080548601905591517fddf252ad1be2c89b69c2b068fc378daa952ba7f163c4a11628f55a4df523b3ef906128429086815260200190565b60405180910390a36126938484846139ae565b6128f7565b8451811015611cd257306001600160a01b031685828151811061288d57634e487b7160e01b600052603260045260246000fd5b60200260200101516001600160a01b031614156128e7576128e78382815181106128c757634e487b7160e01b600052603260045260246000fd5b602002602001015180519060200120610196613a0990919063ffffffff16565b6128f081615688565b905061285a565b5050505050565b60006040518060600160405280602781526020016156f860279139905060005b85518110156119505760008087838151811061294a57634e487b7160e01b600052603260045260246000fd5b60200260200101516001600160a01b031687848151811061297b57634e487b7160e01b600052603260045260246000fd5b60200260200101518785815181106129a357634e487b7160e01b600052603260045260246000fd5b60200260200101516040516129b8919061527a565b60006040518083038185875af1925050503d80600081146129f5576040519150601f19603f3d011682016040523d82523d6000602084013e6129fa565b606091505b5091509150612a0a828286613272565b50505080612a1790615688565b905061291e565b6000610e1e7f8b73c3c69bb8fe3d512ecc4cf759cc79239f7b179b0ffacaa9a75d522b39400f612a4d60c95490565b60ca546040805160208101859052908101839052606081018290524660808201523060a082015260009060c0016040516020818303038152906040528051906020012090509392505050565b815460009081816005811115612af3576000612ab484613a4f565b612abe9085615610565b600088815260209020909150869082015463ffffffff161115612ae357809150612af1565b612aee81600161558e565b92505b505b80821015612b40576000612b078383613ba4565b600088815260209020909150869082015463ffffffff161115612b2c57809150612b3a565b612b3781600161558e565b92505b50612af3565b8015612b7957612b6386612b55600184615610565b600091825260209091200190565b54600160201b90046001600160e01b0316612b7c565b60005b6001600160e01b03169695505050505050565b60006115d685858585612bad60408051602081019091526000815290565b612190565b60008181526101f86020526040812060028101546001820154612bd5919061558e565b612be1610d7f8561114b565b11159392505050565b600080600080612c148560009081526101f860205260409020805460018201546002909201549092565b909450909250905080612c27838561558e565b612c31919061558e565b61022a546001600160a01b0316638e539e8c612c4c8861114b565b6040518263ffffffff1660e01b8152600401612c6a91815260200190565b60206040518083038186803b158015612c8257600080fd5b505afa158015612c96573d6000803e3d6000fd5b505050506040513d601f19601f82011682018060405250810190612cba9190614f87565b111595945050505050565b6065546001600160a01b031633146115765760405162461bcd60e51b815260206004820181905260248201527f4f776e61626c653a2063616c6c6572206973206e6f7420746865206f776e65726044820152606401610f3a565b6113b58282613bbf565b6001600160a01b03821660008181526102926020526040902080546001600160a01b03191690911790556113b58282613c4a565b6000438210612dae5760405162461bcd60e51b815260206004820181905260248201527f436865636b706f696e74733a20626c6f636b206e6f7420796574206d696e65646044820152606401610f3a565b6000612db983612de3565b84549091506000612dcc86848385613ce1565b90508015612b7957612b6386612b55600184615610565b600063ffffffff821115612e485760405162461bcd60e51b815260206004820152602660248201527f53616665436173743a2076616c756520646f65736e27742066697420696e203360448201526532206269747360d01b6064820152608401610f3a565b5090565b6101c65460408051918252602082018390527fc565b045403dc03c2eea82b81a0465edad9e2e7fc4d97e11421c209da93d7a93910160405180910390a16101c655565b606580546001600160a01b038381166001600160a01b0319831681179093556040519116919082907f8be0079c531659141344cd1fd0a4f28419497f9722a3daafe3b4186f6b6457e090600090a35050565b6000612eeb611850565b612efa33610c89600143615610565b1015612f625760405162461bcd60e51b815260206004820152603160248201527f476f7665726e6f723a2070726f706f73657220766f7465732062656c6f7720706044820152701c9bdc1bdcd85b081d1a1c995cda1bdb19607a1b6064820152608401610f3a565b6000612f778686868680519060200120611a70565b90508451865114612f9a5760405162461bcd60e51b8152600401610f3a90615353565b8351865114612fbb5760405162461bcd60e51b8152600401610f3a90615353565b600086511161300c5760405162461bcd60e51b815260206004820152601860248201527f476f7665726e6f723a20656d7074792070726f706f73616c00000000000000006044820152606401610f3a565b60008181526101956020908152604091829020825191820190925281546001600160401b0316908190521561308d5760405162461bcd60e51b815260206004820152602160248201527f476f7665726e6f723a2070726f706f73616c20616c72656164792065786973746044820152607360f81b6064820152608401610f3a565b600061309f61309a61118d565b613d3f565b6130a843613d3f565b6130b291906155a6565b905060006130c161309a610e12565b6130cb90836155a6565b835467ffffffffffffffff19166001600160401b038416178455905060018301805467ffffffffffffffff19166001600160401b0383161790557f7d84a6263ae0d98d3329bd7b46bb4e8d6f98cd35a7adb45c274c8b7fd5ebd5e084338b8b8d516001600160401b0381111561315157634e487b7160e01b600052604160045260246000fd5b60405190808252806020026020018201604052801561318457816020015b606081526020019060019003908161316f5790505b508c88888e60405161319e999897969594939291906153df565b60405180910390a15091979650505050505050565b61022a54604051630748d63560e31b81526001600160a01b038581166004830152602482018590526000921690633a46b1a89060440160206040518083038186803b15801561320157600080fd5b505afa158015613215573d6000803e3d6000fd5b505050506040513d601f19601f820116820180604052508101906113da9190614f87565b805460009080156132695761325383612b55600184615610565b54600160201b90046001600160e01b0316610ffb565b60009392505050565b60608315613281575081610ffb565b610ffb8383613da7565b6001600160a01b038116600090815260fd602052604090208054600181018255905b50919050565b6001600160a01b03821660008181526102936020526040808220805460ff191685151590811790915590519092917fa3e40a317eac9d2f33de1f67819e7103be50ca171b0559ba3ef1313e2e9c9ed491a35050565b600081116133685760405162461bcd60e51b815260206004820152602760248201527f476f7665726e6f7253657474696e67733a20766f74696e6720706572696f6420604482015266746f6f206c6f7760c81b6064820152608401610f3a565b6101c75460408051918252602082018390527f7e3f7f0708a84de9203036abaa450dccc85ad5ff52f78c170f3edb55cf5e8828910160405180910390a16101c755565b6101c85460408051918252602082018390527fccb45da8d5717e6c4544694297c4ba5cf151d455c9bb0ed4fc7a38411bc05461910160405180910390a16101c855565b600054610100900460ff166134155760405162461bcd60e51b8152600401610f3a90615394565b6113b58282613dd1565b600054610100900460ff166134465760405162461bcd60e51b8152600401610f3a90615394565b611576613e1f565b600054610100900460ff166134755760405162461bcd60e51b8152600401610f3a90615394565b610f6981604051806040016040528060018152602001603160f81b815250613e4f565b600054610100900460ff166115765760405162461bcd60e51b8152600401610f3a90615394565b600054610100900460ff166134e65760405162461bcd60e51b8152600401610f3a90615394565b61350d816135086040805180820190915260018152603160f81b602082015290565b613e4f565b610f6981613e90565b600054610100900460ff1661353d5760405162461bcd60e51b8152600401610f3a90615394565b613548838383613ecb565b505050565b600054610100900460ff166135745760405162461bcd60e51b8152600401610f3a90615394565b610f6981613f0d565b600054610100900460ff166135a45760405162461bcd60e51b8152600401610f3a90615394565b610f6981613f57565b600060646135ba83611455565b61022a54604051632394e7a360e21b8152600481018690526001600160a01b0390911690638e539e8c9060240160206040518083038186803b1580156135ff57600080fd5b505afa158015613613573d6000803e3d6000fd5b505050506040513d601f19601f820116820180604052508101906136379190614f87565b61364191906155f1565b610e0c91906155d1565b6000807f7fffffffffffffffffffffffffffffff5d576e7357a4501ddfe92f46681b20a08311156136825750600090506003613706565b6040805160008082526020820180845289905260ff881692820192909252606081018690526080810185905260019060a0016020604051602081039080840390855afa1580156136d6573d6000803e3d6000fd5b5050604051601f1901519150506001600160a01b0381166136ff57600060019250925050613706565b9150600090505b94509492505050565b600081600481111561373157634e487b7160e01b600052602160045260246000fd5b141561373a5750565b600181600481111561375c57634e487b7160e01b600052602160045260246000fd5b14156137aa5760405162461bcd60e51b815260206004820152601860248201527f45434453413a20696e76616c6964207369676e617475726500000000000000006044820152606401610f3a565b60028160048111156137cc57634e487b7160e01b600052602160045260246000fd5b141561381a5760405162461bcd60e51b815260206004820152601f60248201527f45434453413a20696e76616c6964207369676e6174757265206c656e677468006044820152606401610f3a565b600381600481111561383c57634e487b7160e01b600052602160045260246000fd5b1415610f695760405162461bcd60e51b815260206004820152602260248201527f45434453413a20696e76616c6964207369676e6174757265202773272076616c604482015261756560f01b6064820152608401610f3a565b6138a28585858585613f7e565b6001600160a01b03848116600090815261029260205260409020541660ff8416611cd257611cd28160016132b3565b60006001600160e01b03821115612e485760405162461bcd60e51b815260206004820152602760248201527f53616665436173743a2076616c756520646f65736e27742066697420696e20326044820152663234206269747360c81b6064820152608401610f3a565b6000806139588461394a43612de3565b613953866138d1565b6140fe565b6001600160e01b0391821693501690505b9250929050565b6001600160a01b038316600090815261029360205260409020548390839060ff1615806139a557506001600160a01b03811633145b61285557600080fd5b6001600160a01b038216158015906139d257506139ca826114fc565b63ffffffff16155b80156139ef575060006139e4836113e2565b6001600160a01b0316145b156139fe576139fe8283612d29565b6135488383836142a8565b8154600160801b90819004600f90810b80820b820b6000908152600180870160205260409091209490945584549301900b6001600160801b039081169091029116179055565b600081613a5e57506000919050565b60006001613a6b846142c3565b901c6001901b90506001818481613a9257634e487b7160e01b600052601260045260246000fd5b048201901c90506001818481613ab857634e487b7160e01b600052601260045260246000fd5b048201901c90506001818481613ade57634e487b7160e01b600052601260045260246000fd5b048201901c90506001818481613b0457634e487b7160e01b600052601260045260246000fd5b048201901c90506001818481613b2a57634e487b7160e01b600052601260045260246000fd5b048201901c90506001818481613b5057634e487b7160e01b600052601260045260246000fd5b048201901c90506001818481613b7657634e487b7160e01b600052601260045260246000fd5b048201901c9050610ffb81828581613b9e57634e487b7160e01b600052601260045260246000fd5b04614357565b6000613bb360028484186155d1565b610ffb9084841661558e565b613bc9828261436d565b6035546001600160e01b031015613c3b5760405162461bcd60e51b815260206004820152603060248201527f4552433230566f7465733a20746f74616c20737570706c79207269736b73206f60448201526f766572666c6f77696e6720766f74657360801b6064820152608401610f3a565b6126936101326144428361444e565b6000613c55836113e2565b90506000613c78846001600160a01b031660009081526033602052604090205490565b6001600160a01b038581166000818152610130602052604080822080546001600160a01b031916898616908117909155905194955093928616927f3134e8a2e6d97e929a7e54011ea5485d7d196dd5f0ba4d4ef95803e8e3fc257f9190a461269382848361459f565b60005b81831015613d37576000613cf88484613ba4565b60008781526020902090915063ffffffff86169082015463ffffffff161115613d2357809250613d31565b613d2e81600161558e565b93505b50613ce4565b509392505050565b60006001600160401b03821115612e485760405162461bcd60e51b815260206004820152602660248201527f53616665436173743a2076616c756520646f65736e27742066697420696e203660448201526534206269747360d01b6064820152608401610f3a565b815115613db75781518083602001fd5b8060405162461bcd60e51b8152600401610f3a9190615309565b600054610100900460ff16613df85760405162461bcd60e51b8152600401610f3a90615394565b8151613e0b9060369060208501906146ea565b5080516135489060379060208401906146ea565b600054610100900460ff16613e465760405162461bcd60e51b8152600401610f3a90615394565b61157633612e8f565b600054610100900460ff16613e765760405162461bcd60e51b8152600401610f3a90615394565b81516020928301208151919092012060c99190915560ca55565b600054610100900460ff16613eb75760405162461bcd60e51b8152600401610f3a90615394565b80516113b5906101949060208401906146ea565b600054610100900460ff16613ef25760405162461bcd60e51b8152600401610f3a90615394565b613efb83612e4c565b613f0482613308565b613548816133ab565b600054610100900460ff16613f345760405162461bcd60e51b8152600401610f3a90615394565b61022a80546001600160a01b0319166001600160a01b0392909216919091179055565b600054610100900460ff16610f605760405162461bcd60e51b8152600401610f3a90615394565b60008581526101f8602090815260408083206001600160a01b0388168452600381019092529091205460ff16156140075760405162461bcd60e51b815260206004820152602760248201527f476f7665726e6f72566f74696e6753696d706c653a20766f746520616c726561604482015266191e4818d85cdd60ca1b6064820152608401610f3a565b6001600160a01b03851660009081526003820160205260408120805460ff1916600117905560ff168460ff161415614058578281600001600082825461404d919061558e565b90915550611cd29050565b60ff841660011415614078578281600101600082825461404d919061558e565b60ff841660021415614098578281600201600082825461404d919061558e565b60405162461bcd60e51b815260206004820152603560248201527f476f7665726e6f72566f74696e6753696d706c653a20696e76616c69642076616044820152746c756520666f7220656e756d20566f74655479706560581b6064820152608401610f3a565b82546000908190801561424b57600061411c87612b55600185615610565b60408051808201909152905463ffffffff808216808452600160201b9092046001600160e01b03166020840152919250908716101561419d5760405162461bcd60e51b815260206004820152601760248201527f436865636b706f696e743a20696e76616c6964206b65790000000000000000006044820152606401610f3a565b8563ffffffff16816000015163ffffffff1614156141ec57846141c588612b55600186615610565b80546001600160e01b0392909216600160201b0263ffffffff90921691909117905561423b565b6040805180820190915263ffffffff80881682526001600160e01b0380881660208085019182528b54600181018d5560008d81529190912094519151909216600160201b029216919091179101555b6020015192508391506142a09050565b50506040805180820190915263ffffffff80851682526001600160e01b0380851660208085019182528854600181018a5560008a815291822095519251909316600160201b0291909316179201919091559050815b935093915050565b6135486142b4846113e2565b6142bd846113e2565b8361459f565b600080608083901c156142d857608092831c92015b604083901c156142ea57604092831c92015b602083901c156142fc57602092831c92015b601083901c1561430e57601092831c92015b600883901c1561432057600892831c92015b600483901c1561433257600492831c92015b600283901c1561434457600292831c92015b600183901c15610e0c5760010192915050565b60008183106143665781610ffb565b5090919050565b6001600160a01b0382166143c35760405162461bcd60e51b815260206004820152601f60248201527f45524332303a206d696e7420746f20746865207a65726f2061646472657373006044820152606401610f3a565b6143cf60008383613970565b80603560008282546143e1919061558e565b90915550506001600160a01b0382166000818152603360209081526040808320805486019055518481527fddf252ad1be2c89b69c2b068fc378daa952ba7f163c4a11628f55a4df523b3ef910160405180910390a36113b5600083836139ae565b6000610ffb828461558e565b8254600090819081811561449a5761446b87612b55600185615610565b60408051808201909152905463ffffffff81168252600160201b90046001600160e01b031660208201526144af565b60408051808201909152600080825260208201525b905080602001516001600160e01b031693506144cf84868863ffffffff16565b92506000821180156144e75750805163ffffffff1643145b1561452b576144f5836138d1565b61450488612b55600186615610565b80546001600160e01b0392909216600160201b0263ffffffff909216919091179055614595565b86604051806040016040528061454043612de3565b63ffffffff168152602001614554866138d1565b6001600160e01b039081169091528254600181018455600093845260209384902083519490930151909116600160201b0263ffffffff909316929092179101555b5050935093915050565b816001600160a01b0316836001600160a01b0316141580156145c15750600081115b15613548576001600160a01b03831615614650576001600160a01b03831660009081526101316020526040812081906145fd906146de8561444e565b91509150846001600160a01b03167fdec2bacdd2f05b59de34da9b523dff8be42e5e38e818c82fdb0bae774387a7248383604051614645929190918252602082015260400190565b60405180910390a250505b6001600160a01b03821615613548576001600160a01b0382166000908152610131602052604081208190614687906144428561444e565b91509150836001600160a01b03167fdec2bacdd2f05b59de34da9b523dff8be42e5e38e818c82fdb0bae774387a72483836040516146cf929190918252602082015260400190565b60405180910390a25050505050565b6000610ffb8284615610565b8280546146f690615653565b90600052602060002090601f016020900481019282614718576000855561475e565b82601f1061473157805160ff191683800117855561475e565b8280016001018555821561475e579182015b8281111561475e578251825591602001919060010190614743565b50612e489291505b80821115612e485760008155600101614766565b80356001600160a01b038116811461479157600080fd5b919050565b600082601f8301126147a6578081fd5b813560206147bb6147b68361556b565b61553b565b80838252828201915082860187848660051b89010111156147da578586fd5b855b858110156147ff576147ed8261477a565b845292840192908401906001016147dc565b5090979650505050505050565b600082601f83011261481c578081fd5b8135602061482c6147b68361556b565b80838252828201915082860187848660051b890101111561484b578586fd5b855b858110156147ff5781356001600160401b0381111561486a578788fd5b6148788a87838c0101614927565b855250928401929084019060010161484d565b600082601f83011261489b578081fd5b813560206148ab6147b68361556b565b80838252828201915082860187848660051b89010111156148ca578586fd5b855b858110156147ff578135845292840192908401906001016148cc565b60008083601f8401126148f9578182fd5b5081356001600160401b0381111561490f578182fd5b60208301915083602082850101111561396957600080fd5b600082601f830112614937578081fd5b81356001600160401b03811115614950576149506156b9565b614963601f8201601f191660200161553b565b818152846020838601011115614977578283fd5b816020850160208301379081016020019190915292915050565b803560ff8116811461479157600080fd5b6000602082840312156149b3578081fd5b610ffb8261477a565b600080604083850312156149ce578081fd5b6149d78361477a565b91506149e56020840161477a565b90509250929050565b600080600080600060a08688031215614a05578081fd5b614a0e8661477a565b9450614a1c6020870161477a565b935060408601356001600160401b0380821115614a37578283fd5b614a4389838a0161488b565b94506060880135915080821115614a58578283fd5b614a6489838a0161488b565b93506080880135915080821115614a79578283fd5b50614a8688828901614927565b9150509295509295909350565b600080600060608486031215614aa7578283fd5b614ab08461477a565b9250614abe6020850161477a565b9150604084013590509250925092565b600080600080600060808688031215614ae5578283fd5b614aee8661477a565b9450614afc6020870161477a565b93506040860135925060608601356001600160401b03811115614b1d578182fd5b614b29888289016148e8565b969995985093965092949392505050565b600080600080600060a08688031215614b51578283fd5b614b5a8661477a565b9450614b686020870161477a565b9350604086013592506060860135915060808601356001600160401b03811115614b90578182fd5b614a8688828901614927565b600080600080600080600060e0888a031215614bb6578485fd5b614bbf8861477a565b9650614bcd6020890161477a565b95506040880135945060608801359350614be960808901614991565b925060a0880135915060c0880135905092959891949750929550565b60008060408385031215614c17578182fd5b614c208361477a565b915060208301358015158114614c34578182fd5b809150509250929050565b60008060408385031215614c51578182fd5b614c5a8361477a565b946020939093013593505050565b60008060008060608587031215614c7d578182fd5b614c868561477a565b93506020850135925060408501356001600160401b03811115614ca7578283fd5b614cb3878288016148e8565b95989497509550505050565b600080600060608486031215614cd3578081fd5b614cdc8461477a565b92506020840135915060408401356001600160401b03811115614cfd578182fd5b614d0986828701614927565b9150509250925092565b60008060008060008060c08789031215614d2b578384fd5b614d348761477a565b95506020870135945060408701359350614d5060608801614991565b92506080870135915060a087013590509295509295509295565b60008060408385031215614d7c578182fd5b614d858361477a565b9150602083013563ffffffff81168114614c34578182fd5b60008060008060808587031215614db2578182fd5b84356001600160401b0380821115614dc8578384fd5b614dd488838901614796565b95506020870135915080821115614de9578384fd5b614df58883890161488b565b94506040870135915080821115614e0a578384fd5b50614e178782880161480c565b949793965093946060013593505050565b60008060008060808587031215614e3d578182fd5b84356001600160401b0380821115614e53578384fd5b614e5f88838901614796565b95506020870135915080821115614e74578384fd5b614e808883890161488b565b94506040870135915080821115614e95578384fd5b614ea18883890161480c565b93506060870135915080821115614eb6578283fd5b50614ec387828801614927565b91505092959194509250565b600060208284031215614ee0578081fd5b81356001600160e01b031981168114610ffb578182fd5b60008060008060808587031215614f0c578182fd5b84356001600160401b0380821115614f22578384fd5b614f2e88838901614927565b95506020870135915080821115614f43578384fd5b50614f5087828801614927565b935050614f5f6040860161477a565b9396929550929360600135925050565b600060208284031215614f80578081fd5b5035919050565b600060208284031215614f98578081fd5b5051919050565b60008060408385031215614fb1578182fd5b823591506149e56020840161477a565b60008060408385031215614fd3578182fd5b823591506149e560208401614991565b60008060008060608587031215614ff8578182fd5b8435935061500860208601614991565b925060408501356001600160401b03811115614ca7578283fd5b600080600080600060808688031215615039578283fd5b8535945061504960208701614991565b935060408601356001600160401b0380821115615064578485fd5b61507089838a016148e8565b90955093506060880135915080821115614a79578283fd5b60008060008060008060008060e0898b0312156150a3578182fd5b883597506150b360208a01614991565b965060408901356001600160401b03808211156150ce578384fd5b6150da8c838d016148e8565b909850965060608b01359150808211156150f2578384fd5b506150ff8b828c01614927565b94505061510e60808a01614991565b925060a0890135915060c089013590509295985092959890939650565b600080600080600060a08688031215615142578283fd5b8535945061515260208701614991565b935061516060408701614991565b94979396509394606081013594506080013592915050565b6000815180845260208085019450808401835b838110156151b05781516001600160a01b03168752958201959082019060010161518b565b509495945050505050565b600081518084526020808501808196508360051b81019150828601855b858110156152025782840389526151f084835161523e565b988501989350908401906001016151d8565b5091979650505050505050565b6000815180845260208085019450808401835b838110156151b057815187529582019590820190600101615222565b60008151808452615256816020860160208601615627565b601f01601f19169290920160200192915050565b8183823760009101908152919050565b6000825161528c818460208701615627565b9190910192915050565b6080815260006152a96080830187615178565b82810360208401526152bb818761520f565b905082810360408401526152cf81866151bb565b91505082606083015295945050505050565b602081016008831061530357634e487b7160e01b600052602160045260246000fd5b91905290565b602081526000610ffb602083018461523e565b60208082526018908201527f476f7665726e6f723a206f6e6c79476f7665726e616e63650000000000000000604082015260600190565b60208082526021908201527f476f7665726e6f723a20696e76616c69642070726f706f73616c206c656e67746040820152600d60fb1b606082015260800190565b6020808252602b908201527f496e697469616c697a61626c653a20636f6e7472616374206973206e6f74206960408201526a6e697469616c697a696e6760a81b606082015260800190565b60006101208b8352602060018060a01b038c16818501528160408501526154088285018c615178565b9150838203606085015261541c828b61520f565b915083820360808501528189518084528284019150828160051b850101838c01865b8381101561546c57601f1987840301855261545a83835161523e565b9486019492509085019060010161543e565b505086810360a0880152615480818c6151bb565b94505050505061549b60c08401876001600160401b03169052565b6001600160401b03851660e08401528281036101008401526154bd818561523e565b9c9b505050505050505050505050565b84815260ff84166020820152826040820152608060608201526000610fd2608083018461523e565b85815260ff8516602082015283604082015260a06060820152600061551d60a083018561523e565b828103608084015261552f818561523e565b98975050505050505050565b604051601f8201601f191681016001600160401b0381118282101715615563576155636156b9565b604052919050565b60006001600160401b03821115615584576155846156b9565b5060051b60200190565b600082198211156155a1576155a16156a3565b500190565b60006001600160401b038083168185168083038211156155c8576155c86156a3565b01949350505050565b6000826155ec57634e487b7160e01b81526012600452602481fd5b500490565b600081600019048311821515161561560b5761560b6156a3565b500290565b600082821015615622576156226156a3565b500390565b60005b8381101561564257818101518382015260200161562a565b838111156126935750506000910152565b600181811c9082168061566757607f821691505b602082108114156132ad57634e487b7160e01b600052602260045260246000fd5b600060001982141561569c5761569c6156a3565b5060010190565b634e487b7160e01b600052601160045260246000fd5b634e487b7160e01b600052604160045260246000fdfe476f7665726e6f723a2072656c617920726576657274656420776974686f7574206d657373616765476f7665726e6f723a2063616c6c20726576657274656420776974686f7574206d657373616765a264697066735822122012b8549c374df530255adad94a9b48f18f15826adc8e5b96509cb47b66309bb564736f6c63430008040033",
  "linkReferences": {},
  "deployedLinkReferences": {}
}