{
  "_format": "hh-sol-artifact-1",
  "contractName": "ShareToken",
  "sourceName": "contracts/ShareToken.sol",
  "abi": [
    {
      "inputs": [],
      "stateMutability": "nonpayable",
      "type": "constructor"
    },
    {
      "inputs": [],
      "name": "Empty",
      "type": "error"
    },
    {
      "anonymous": false,
      "inputs": [
        {
          "indexed": true,
          "internalType": "address",
          "name": "_userAddress",
          "type": "address"
        },
        {
          "indexed": true,
          "internalType": "bool",
          "name": "_isFrozen",
          "type": "bool"
        }
      ],
      "name": "AddressFrozen",
      "type": "event"
    },
    {
      "anonymous": false,
      "inputs": [
        {
          "indexed": true,
          "internalType": "address",
          "name": "owner",
          "type": "address"
        },
        {
          "indexed": true,
          "internalType": "address",
          "name": "spender",
          "type": "address"
        },
        {
          "indexed": false,
          "internalType": "uint256",
          "name": "value",
          "type": "uint256"
        }
      ],
      "name": "Approval",
      "type": "event"
    },
    {
      "anonymous": false,
      "inputs": [
        {
          "indexed": true,
          "internalType": "address",
          "name": "delegator",
          "type": "address"
        },
        {
          "indexed": true,
          "internalType": "address",
          "name": "fromDelegate",
          "type": "address"
        },
        {
          "indexed": true,
          "internalType": "address",
          "name": "toDelegate",
          "type": "address"
        }
      ],
      "name": "DelegateChanged",
      "type": "event"
    },
    {
      "anonymous": false,
      "inputs": [
        {
          "indexed": true,
          "internalType": "address",
          "name": "delegate",
          "type": "address"
        },
        {
          "indexed": false,
          "internalType": "uint256",
          "name": "previousBalance",
          "type": "uint256"
        },
        {
          "indexed": false,
          "internalType": "uint256",
          "name": "newBalance",
          "type": "uint256"
        }
      ],
      "name": "DelegateVotesChanged",
      "type": "event"
    },
    {
      "anonymous": false,
      "inputs": [
        {
          "indexed": false,
          "internalType": "uint8",
          "name": "version",
          "type": "uint8"
        }
      ],
      "name": "Initialized",
      "type": "event"
    },
    {
      "anonymous": false,
      "inputs": [
        {
          "indexed": true,
          "internalType": "address",
          "name": "previousOwner",
          "type": "address"
        },
        {
          "indexed": true,
          "internalType": "address",
          "name": "newOwner",
          "type": "address"
        }
      ],
      "name": "OwnershipTransferred",
      "type": "event"
    },
    {
      "anonymous": false,
      "inputs": [
        {
          "indexed": false,
          "internalType": "uint256",
          "name": "proposalId",
          "type": "uint256"
        }
      ],
      "name": "ProposalCanceled",
      "type": "event"
    },
    {
      "anonymous": false,
      "inputs": [
        {
          "indexed": false,
          "internalType": "uint256",
          "name": "proposalId",
          "type": "uint256"
        },
        {
          "indexed": false,
          "internalType": "address",
          "name": "proposer",
          "type": "address"
        },
        {
          "indexed": false,
          "internalType": "address[]",
          "name": "targets",
          "type": "address[]"
        },
        {
          "indexed": false,
          "internalType": "uint256[]",
          "name": "values",
          "type": "uint256[]"
        },
        {
          "indexed": false,
          "internalType": "string[]",
          "name": "signatures",
          "type": "string[]"
        },
        {
          "indexed": false,
          "internalType": "bytes[]",
          "name": "calldatas",
          "type": "bytes[]"
        },
        {
          "indexed": false,
          "internalType": "uint256",
          "name": "startBlock",
          "type": "uint256"
        },
        {
          "indexed": false,
          "internalType": "uint256",
          "name": "endBlock",
          "type": "uint256"
        },
        {
          "indexed": false,
          "internalType": "string",
          "name": "description",
          "type": "string"
        }
      ],
      "name": "ProposalCreated",
      "type": "event"
    },
    {
      "anonymous": false,
      "inputs": [
        {
          "indexed": false,
          "internalType": "uint256",
          "name": "proposalId",
          "type": "uint256"
        }
      ],
      "name": "ProposalExecuted",
      "type": "event"
    },
    {
      "anonymous": false,
      "inputs": [
        {
          "indexed": false,
          "internalType": "uint256",
          "name": "oldProposalThreshold",
          "type": "uint256"
        },
        {
          "indexed": false,
          "internalType": "uint256",
          "name": "newProposalThreshold",
          "type": "uint256"
        }
      ],
      "name": "ProposalThresholdSet",
      "type": "event"
    },
    {
      "anonymous": false,
      "inputs": [
        {
          "indexed": false,
          "internalType": "uint256",
          "name": "oldQuorumNumerator",
          "type": "uint256"
        },
        {
          "indexed": false,
          "internalType": "uint256",
          "name": "newQuorumNumerator",
          "type": "uint256"
        }
      ],
      "name": "QuorumNumeratorUpdated",
      "type": "event"
    },
    {
      "anonymous": false,
      "inputs": [
        {
          "indexed": true,
          "internalType": "address",
          "name": "from",
          "type": "address"
        },
        {
          "indexed": true,
          "internalType": "address",
          "name": "to",
          "type": "address"
        },
        {
          "indexed": false,
          "internalType": "uint256",
          "name": "value",
          "type": "uint256"
        }
      ],
      "name": "Transfer",
      "type": "event"
    },
    {
      "anonymous": false,
      "inputs": [
        {
          "indexed": true,
          "internalType": "address",
          "name": "voter",
          "type": "address"
        },
        {
          "indexed": false,
          "internalType": "uint256",
          "name": "proposalId",
          "type": "uint256"
        },
        {
          "indexed": false,
          "internalType": "uint8",
          "name": "support",
          "type": "uint8"
        },
        {
          "indexed": false,
          "internalType": "uint256",
          "name": "weight",
          "type": "uint256"
        },
        {
          "indexed": false,
          "internalType": "string",
          "name": "reason",
          "type": "string"
        }
      ],
      "name": "VoteCast",
      "type": "event"
    },
    {
      "anonymous": false,
      "inputs": [
        {
          "indexed": true,
          "internalType": "address",
          "name": "voter",
          "type": "address"
        },
        {
          "indexed": false,
          "internalType": "uint256",
          "name": "proposalId",
          "type": "uint256"
        },
        {
          "indexed": false,
          "internalType": "uint8",
          "name": "support",
          "type": "uint8"
        },
        {
          "indexed": false,
          "internalType": "uint256",
          "name": "weight",
          "type": "uint256"
        },
        {
          "indexed": false,
          "internalType": "string",
          "name": "reason",
          "type": "string"
        },
        {
          "indexed": false,
          "internalType": "bytes",
          "name": "params",
          "type": "bytes"
        }
      ],
      "name": "VoteCastWithParams",
      "type": "event"
    },
    {
      "anonymous": false,
      "inputs": [
        {
          "indexed": false,
          "internalType": "uint256",
          "name": "oldVotingDelay",
          "type": "uint256"
        },
        {
          "indexed": false,
          "internalType": "uint256",
          "name": "newVotingDelay",
          "type": "uint256"
        }
      ],
      "name": "VotingDelaySet",
      "type": "event"
    },
    {
      "anonymous": false,
      "inputs": [
        {
          "indexed": false,
          "internalType": "uint256",
          "name": "oldVotingPeriod",
          "type": "uint256"
        },
        {
          "indexed": false,
          "internalType": "uint256",
          "name": "newVotingPeriod",
          "type": "uint256"
        }
      ],
      "name": "VotingPeriodSet",
      "type": "event"
    },
    {
      "inputs": [],
      "name": "BALLOT_TYPEHASH",
      "outputs": [
        {
          "internalType": "bytes32",
          "name": "",
          "type": "bytes32"
        }
      ],
      "stateMutability": "view",
      "type": "function"
    },
    {
      "inputs": [],
      "name": "COUNTING_MODE",
      "outputs": [
        {
          "internalType": "string",
          "name": "",
          "type": "string"
        }
      ],
      "stateMutability": "pure",
      "type": "function"
    },
    {
      "inputs": [],
      "name": "DOMAIN_SEPARATOR",
      "outputs": [
        {
          "internalType": "bytes32",
          "name": "",
          "type": "bytes32"
        }
      ],
      "stateMutability": "view",
      "type": "function"
    },
    {
      "inputs": [],
      "name": "EXTENDED_BALLOT_TYPEHASH",
      "outputs": [
        {
          "internalType": "bytes32",
          "name": "",
          "type": "bytes32"
        }
      ],
      "stateMutability": "view",
      "type": "function"
    },
    {
      "inputs": [
        {
          "internalType": "address",
          "name": "owner",
          "type": "address"
        },
        {
          "internalType": "address",
          "name": "spender",
          "type": "address"
        }
      ],
      "name": "allowance",
      "outputs": [
        {
          "internalType": "uint256",
          "name": "",
          "type": "uint256"
        }
      ],
      "stateMutability": "view",
      "type": "function"
    },
    {
      "inputs": [
        {
          "internalType": "address",
          "name": "spender",
          "type": "address"
        },
        {
          "internalType": "uint256",
          "name": "amount",
          "type": "uint256"
        }
      ],
      "name": "approve",
      "outputs": [
        {
          "internalType": "bool",
          "name": "",
          "type": "bool"
        }
      ],
      "stateMutability": "nonpayable",
      "type": "function"
    },
    {
      "inputs": [
        {
          "internalType": "address",
          "name": "account",
          "type": "address"
        }
      ],
      "name": "balanceOf",
      "outputs": [
        {
          "internalType": "uint256",
          "name": "",
          "type": "uint256"
        }
      ],
      "stateMutability": "view",
      "type": "function"
    },
    {
      "inputs": [
        {
          "internalType": "uint256",
          "name": "proposalId",
          "type": "uint256"
        },
        {
          "internalType": "uint8",
          "name": "support",
          "type": "uint8"
        }
      ],
      "name": "castVote",
      "outputs": [
        {
          "internalType": "uint256",
          "name": "",
          "type": "uint256"
        }
      ],
      "stateMutability": "nonpayable",
      "type": "function"
    },
    {
      "inputs": [
        {
          "internalType": "uint256",
          "name": "proposalId",
          "type": "uint256"
        },
        {
          "internalType": "uint8",
          "name": "support",
          "type": "uint8"
        },
        {
          "internalType": "uint8",
          "name": "v",
          "type": "uint8"
        },
        {
          "internalType": "bytes32",
          "name": "r",
          "type": "bytes32"
        },
        {
          "internalType": "bytes32",
          "name": "s",
          "type": "bytes32"
        }
      ],
      "name": "castVoteBySig",
      "outputs": [
        {
          "internalType": "uint256",
          "name": "",
          "type": "uint256"
        }
      ],
      "stateMutability": "nonpayable",
      "type": "function"
    },
    {
      "inputs": [
        {
          "internalType": "uint256",
          "name": "proposalId",
          "type": "uint256"
        },
        {
          "internalType": "uint8",
          "name": "support",
          "type": "uint8"
        },
        {
          "internalType": "string",
          "name": "reason",
          "type": "string"
        }
      ],
      "name": "castVoteWithReason",
      "outputs": [
        {
          "internalType": "uint256",
          "name": "",
          "type": "uint256"
        }
      ],
      "stateMutability": "nonpayable",
      "type": "function"
    },
    {
      "inputs": [
        {
          "internalType": "uint256",
          "name": "proposalId",
          "type": "uint256"
        },
        {
          "internalType": "uint8",
          "name": "support",
          "type": "uint8"
        },
        {
          "internalType": "string",
          "name": "reason",
          "type": "string"
        },
        {
          "internalType": "bytes",
          "name": "params",
          "type": "bytes"
        }
      ],
      "name": "castVoteWithReasonAndParams",
      "outputs": [
        {
          "internalType": "uint256",
          "name": "",
          "type": "uint256"
        }
      ],
      "stateMutability": "nonpayable",
      "type": "function"
    },
    {
      "inputs": [
        {
          "internalType": "uint256",
          "name": "proposalId",
          "type": "uint256"
        },
        {
          "internalType": "uint8",
          "name": "support",
          "type": "uint8"
        },
        {
          "internalType": "string",
          "name": "reason",
          "type": "string"
        },
        {
          "internalType": "bytes",
          "name": "params",
          "type": "bytes"
        },
        {
          "internalType": "uint8",
          "name": "v",
          "type": "uint8"
        },
        {
          "internalType": "bytes32",
          "name": "r",
          "type": "bytes32"
        },
        {
          "internalType": "bytes32",
          "name": "s",
          "type": "bytes32"
        }
      ],
      "name": "castVoteWithReasonAndParamsBySig",
      "outputs": [
        {
          "internalType": "uint256",
          "name": "",
          "type": "uint256"
        }
      ],
      "stateMutability": "nonpayable",
      "type": "function"
    },
    {
      "inputs": [
        {
          "internalType": "address",
          "name": "account",
          "type": "address"
        },
        {
          "internalType": "uint32",
          "name": "pos",
          "type": "uint32"
        }
      ],
      "name": "checkpoints",
      "outputs": [
        {
          "components": [
            {
              "internalType": "uint32",
              "name": "fromBlock",
              "type": "uint32"
            },
            {
              "internalType": "uint224",
              "name": "votes",
              "type": "uint224"
            }
          ],
          "internalType": "struct ERC20VotesUpgradeable.Checkpoint",
          "name": "",
          "type": "tuple"
        }
      ],
      "stateMutability": "view",
      "type": "function"
    },
    {
      "inputs": [],
      "name": "clauseNFT",
      "outputs": [
        {
          "internalType": "contract IERC721",
          "name": "",
          "type": "address"
        }
      ],
      "stateMutability": "view",
      "type": "function"
    },
    {
      "inputs": [],
      "name": "clauseNFTAddress",
      "outputs": [
        {
          "internalType": "address",
          "name": "",
          "type": "address"
        }
      ],
      "stateMutability": "view",
      "type": "function"
    },
    {
      "inputs": [],
      "name": "decimals",
      "outputs": [
        {
          "internalType": "uint8",
          "name": "",
          "type": "uint8"
        }
      ],
      "stateMutability": "view",
      "type": "function"
    },
    {
      "inputs": [
        {
          "internalType": "address",
          "name": "spender",
          "type": "address"
        },
        {
          "internalType": "uint256",
          "name": "subtractedValue",
          "type": "uint256"
        }
      ],
      "name": "decreaseAllowance",
      "outputs": [
        {
          "internalType": "bool",
          "name": "",
          "type": "bool"
        }
      ],
      "stateMutability": "nonpayable",
      "type": "function"
    },
    {
      "inputs": [
        {
          "internalType": "address",
          "name": "delegatee",
          "type": "address"
        }
      ],
      "name": "delegate",
      "outputs": [],
      "stateMutability": "nonpayable",
      "type": "function"
    },
    {
      "inputs": [
        {
          "internalType": "address",
          "name": "delegatee",
          "type": "address"
        },
        {
          "internalType": "uint256",
          "name": "nonce",
          "type": "uint256"
        },
        {
          "internalType": "uint256",
          "name": "expiry",
          "type": "uint256"
        },
        {
          "internalType": "uint8",
          "name": "v",
          "type": "uint8"
        },
        {
          "internalType": "bytes32",
          "name": "r",
          "type": "bytes32"
        },
        {
          "internalType": "bytes32",
          "name": "s",
          "type": "bytes32"
        }
      ],
      "name": "delegateBySig",
      "outputs": [],
      "stateMutability": "nonpayable",
      "type": "function"
    },
    {
      "inputs": [
        {
          "internalType": "address",
          "name": "account",
          "type": "address"
        }
      ],
      "name": "delegates",
      "outputs": [
        {
          "internalType": "address",
          "name": "",
          "type": "address"
        }
      ],
      "stateMutability": "view",
      "type": "function"
    },
    {
      "inputs": [],
      "name": "deployer",
      "outputs": [
        {
          "internalType": "address",
          "name": "",
          "type": "address"
        }
      ],
      "stateMutability": "view",
      "type": "function"
    },
    {
      "inputs": [
        {
          "internalType": "address[]",
          "name": "targets",
          "type": "address[]"
        },
        {
          "internalType": "uint256[]",
          "name": "values",
          "type": "uint256[]"
        },
        {
          "internalType": "bytes[]",
          "name": "calldatas",
          "type": "bytes[]"
        },
        {
          "internalType": "bytes32",
          "name": "descriptionHash",
          "type": "bytes32"
        }
      ],
      "name": "execute",
      "outputs": [
        {
          "internalType": "uint256",
          "name": "",
          "type": "uint256"
        }
      ],
      "stateMutability": "payable",
      "type": "function"
    },
    {
      "inputs": [
        {
          "internalType": "uint256",
          "name": "blockNumber",
          "type": "uint256"
        }
      ],
      "name": "getPastTotalSupply",
      "outputs": [
        {
          "internalType": "uint256",
          "name": "",
          "type": "uint256"
        }
      ],
      "stateMutability": "view",
      "type": "function"
    },
    {
      "inputs": [
        {
          "internalType": "address",
          "name": "account",
          "type": "address"
        },
        {
          "internalType": "uint256",
          "name": "blockNumber",
          "type": "uint256"
        }
      ],
      "name": "getPastVotes",
      "outputs": [
        {
          "internalType": "uint256",
          "name": "",
          "type": "uint256"
        }
      ],
      "stateMutability": "view",
      "type": "function"
    },
    {
      "inputs": [
        {
          "internalType": "address",
          "name": "account",
          "type": "address"
        }
      ],
      "name": "getVotes",
      "outputs": [
        {
          "internalType": "uint256",
          "name": "",
          "type": "uint256"
        }
      ],
      "stateMutability": "view",
      "type": "function"
    },
    {
      "inputs": [
        {
          "internalType": "address",
          "name": "account",
          "type": "address"
        },
        {
          "internalType": "uint256",
          "name": "blockNumber",
          "type": "uint256"
        }
      ],
      "name": "getVotes",
      "outputs": [
        {
          "internalType": "uint256",
          "name": "",
          "type": "uint256"
        }
      ],
      "stateMutability": "view",
      "type": "function"
    },
    {
      "inputs": [
        {
          "internalType": "address",
          "name": "account",
          "type": "address"
        },
        {
          "internalType": "uint256",
          "name": "blockNumber",
          "type": "uint256"
        },
        {
          "internalType": "bytes",
          "name": "params",
          "type": "bytes"
        }
      ],
      "name": "getVotesWithParams",
      "outputs": [
        {
          "internalType": "uint256",
          "name": "",
          "type": "uint256"
        }
      ],
      "stateMutability": "view",
      "type": "function"
    },
    {
      "inputs": [
        {
          "internalType": "uint256",
          "name": "proposalId",
          "type": "uint256"
        },
        {
          "internalType": "address",
          "name": "account",
          "type": "address"
        }
      ],
      "name": "hasVoted",
      "outputs": [
        {
          "internalType": "bool",
          "name": "",
          "type": "bool"
        }
      ],
      "stateMutability": "view",
      "type": "function"
    },
    {
      "inputs": [
        {
          "internalType": "address[]",
          "name": "targets",
          "type": "address[]"
        },
        {
          "internalType": "uint256[]",
          "name": "values",
          "type": "uint256[]"
        },
        {
          "internalType": "bytes[]",
          "name": "calldatas",
          "type": "bytes[]"
        },
        {
          "internalType": "bytes32",
          "name": "descriptionHash",
          "type": "bytes32"
        }
      ],
      "name": "hashProposal",
      "outputs": [
        {
          "internalType": "uint256",
          "name": "",
          "type": "uint256"
        }
      ],
      "stateMutability": "pure",
      "type": "function"
    },
    {
      "inputs": [
        {
          "internalType": "address",
          "name": "spender",
          "type": "address"
        },
        {
          "internalType": "uint256",
          "name": "addedValue",
          "type": "uint256"
        }
      ],
      "name": "increaseAllowance",
      "outputs": [
        {
          "internalType": "bool",
          "name": "",
          "type": "bool"
        }
      ],
      "stateMutability": "nonpayable",
      "type": "function"
    },
    {
      "inputs": [
        {
          "internalType": "string",
          "name": "_name",
          "type": "string"
        },
        {
          "internalType": "string",
          "name": "_symbol",
          "type": "string"
        },
        {
          "internalType": "address",
          "name": "_clauseNFT",
          "type": "address"
        },
        {
          "internalType": "uint256",
          "name": "_tokenId",
          "type": "uint256"
        }
      ],
      "name": "initialize",
      "outputs": [],
      "stateMutability": "nonpayable",
      "type": "function"
    },
    {
      "inputs": [
        {
          "internalType": "address",
          "name": "to",
          "type": "address"
        },
        {
          "internalType": "uint256",
          "name": "amount",
          "type": "uint256"
        }
      ],
      "name": "mint",
      "outputs": [],
      "stateMutability": "nonpayable",
      "type": "function"
    },
    {
      "inputs": [],
      "name": "name",
      "outputs": [
        {
          "internalType": "string",
          "name": "",
          "type": "string"
        }
      ],
      "stateMutability": "view",
      "type": "function"
    },
    {
      "inputs": [
        {
          "internalType": "address",
          "name": "owner",
          "type": "address"
        }
      ],
      "name": "nonces",
      "outputs": [
        {
          "internalType": "uint256",
          "name": "",
          "type": "uint256"
        }
      ],
      "stateMutability": "view",
      "type": "function"
    },
    {
      "inputs": [
        {
          "internalType": "address",
          "name": "account",
          "type": "address"
        }
      ],
      "name": "numCheckpoints",
      "outputs": [
        {
          "internalType": "uint32",
          "name": "",
          "type": "uint32"
        }
      ],
      "stateMutability": "view",
      "type": "function"
    },
    {
      "inputs": [
        {
          "internalType": "address",
          "name": "",
          "type": "address"
        },
        {
          "internalType": "address",
          "name": "",
          "type": "address"
        },
        {
          "internalType": "uint256[]",
          "name": "",
          "type": "uint256[]"
        },
        {
          "internalType": "uint256[]",
          "name": "",
          "type": "uint256[]"
        },
        {
          "internalType": "bytes",
          "name": "",
          "type": "bytes"
        }
      ],
      "name": "onERC1155BatchReceived",
      "outputs": [
        {
          "internalType": "bytes4",
          "name": "",
          "type": "bytes4"
        }
      ],
      "stateMutability": "nonpayable",
      "type": "function"
    },
    {
      "inputs": [
        {
          "internalType": "address",
          "name": "",
          "type": "address"
        },
        {
          "internalType": "address",
          "name": "",
          "type": "address"
        },
        {
          "internalType": "uint256",
          "name": "",
          "type": "uint256"
        },
        {
          "internalType": "uint256",
          "name": "",
          "type": "uint256"
        },
        {
          "internalType": "bytes",
          "name": "",
          "type": "bytes"
        }
      ],
      "name": "onERC1155Received",
      "outputs": [
        {
          "internalType": "bytes4",
          "name": "",
          "type": "bytes4"
        }
      ],
      "stateMutability": "nonpayable",
      "type": "function"
    },
    {
      "inputs": [
        {
          "internalType": "address",
          "name": "operator",
          "type": "address"
        },
        {
          "internalType": "address",
          "name": "from",
          "type": "address"
        },
        {
          "internalType": "uint256",
          "name": "_tokenId",
          "type": "uint256"
        },
        {
          "internalType": "bytes",
          "name": "data",
          "type": "bytes"
        }
      ],
      "name": "onERC721Received",
      "outputs": [
        {
          "internalType": "bytes4",
          "name": "",
          "type": "bytes4"
        }
      ],
      "stateMutability": "nonpayable",
      "type": "function"
    },
    {
      "inputs": [],
      "name": "owner",
      "outputs": [
        {
          "internalType": "address",
          "name": "",
          "type": "address"
        }
      ],
      "stateMutability": "view",
      "type": "function"
    },
    {
      "inputs": [
        {
          "internalType": "address",
          "name": "owner",
          "type": "address"
        },
        {
          "internalType": "address",
          "name": "spender",
          "type": "address"
        },
        {
          "internalType": "uint256",
          "name": "value",
          "type": "uint256"
        },
        {
          "internalType": "uint256",
          "name": "deadline",
          "type": "uint256"
        },
        {
          "internalType": "uint8",
          "name": "v",
          "type": "uint8"
        },
        {
          "internalType": "bytes32",
          "name": "r",
          "type": "bytes32"
        },
        {
          "internalType": "bytes32",
          "name": "s",
          "type": "bytes32"
        }
      ],
      "name": "permit",
      "outputs": [],
      "stateMutability": "nonpayable",
      "type": "function"
    },
    {
      "inputs": [
        {
          "internalType": "uint256",
          "name": "proposalId",
          "type": "uint256"
        }
      ],
      "name": "proposalDeadline",
      "outputs": [
        {
          "internalType": "uint256",
          "name": "",
          "type": "uint256"
        }
      ],
      "stateMutability": "view",
      "type": "function"
    },
    {
      "inputs": [
        {
          "internalType": "uint256",
          "name": "proposalId",
          "type": "uint256"
        }
      ],
      "name": "proposalSnapshot",
      "outputs": [
        {
          "internalType": "uint256",
          "name": "",
          "type": "uint256"
        }
      ],
      "stateMutability": "view",
      "type": "function"
    },
    {
      "inputs": [],
      "name": "proposalThreshold",
      "outputs": [
        {
          "internalType": "uint256",
          "name": "",
          "type": "uint256"
        }
      ],
      "stateMutability": "view",
      "type": "function"
    },
    {
      "inputs": [
        {
          "internalType": "uint256",
          "name": "proposalId",
          "type": "uint256"
        }
      ],
      "name": "proposalVotes",
      "outputs": [
        {
          "internalType": "uint256",
          "name": "againstVotes",
          "type": "uint256"
        },
        {
          "internalType": "uint256",
          "name": "forVotes",
          "type": "uint256"
        },
        {
          "internalType": "uint256",
          "name": "abstainVotes",
          "type": "uint256"
        }
      ],
      "stateMutability": "view",
      "type": "function"
    },
    {
      "inputs": [
        {
          "internalType": "address[]",
          "name": "targets",
          "type": "address[]"
        },
        {
          "internalType": "uint256[]",
          "name": "values",
          "type": "uint256[]"
        },
        {
          "internalType": "bytes[]",
          "name": "calldatas",
          "type": "bytes[]"
        },
        {
          "internalType": "string",
          "name": "description",
          "type": "string"
        }
      ],
      "name": "propose",
      "outputs": [
        {
          "internalType": "uint256",
          "name": "",
          "type": "uint256"
        }
      ],
      "stateMutability": "nonpayable",
      "type": "function"
    },
    {
      "inputs": [
        {
          "internalType": "address",
          "name": "_clauseNFT",
          "type": "address"
        },
        {
          "internalType": "uint256",
          "name": "_tokenId",
          "type": "uint256"
        }
      ],
      "name": "proposeUpdateClause",
      "outputs": [],
      "stateMutability": "nonpayable",
      "type": "function"
    },
    {
      "inputs": [
        {
          "internalType": "string",
          "name": "_baseURI",
          "type": "string"
        }
      ],
      "name": "proposeUpdateClauseNFTbaseURI",
      "outputs": [],
      "stateMutability": "nonpayable",
      "type": "function"
    },
    {
      "inputs": [
        {
          "internalType": "uint256",
          "name": "blockNumber",
          "type": "uint256"
        }
      ],
      "name": "quorum",
      "outputs": [
        {
          "internalType": "uint256",
          "name": "",
          "type": "uint256"
        }
      ],
      "stateMutability": "view",
      "type": "function"
    },
    {
      "inputs": [],
      "name": "quorumDenominator",
      "outputs": [
        {
          "internalType": "uint256",
          "name": "",
          "type": "uint256"
        }
      ],
      "stateMutability": "view",
      "type": "function"
    },
    {
      "inputs": [
        {
          "internalType": "uint256",
          "name": "blockNumber",
          "type": "uint256"
        }
      ],
      "name": "quorumNumerator",
      "outputs": [
        {
          "internalType": "uint256",
          "name": "",
          "type": "uint256"
        }
      ],
      "stateMutability": "view",
      "type": "function"
    },
    {
      "inputs": [],
      "name": "quorumNumerator",
      "outputs": [
        {
          "internalType": "uint256",
          "name": "",
          "type": "uint256"
        }
      ],
      "stateMutability": "view",
      "type": "function"
    },
    {
      "inputs": [
        {
          "internalType": "address",
          "name": "target",
          "type": "address"
        },
        {
          "internalType": "uint256",
          "name": "value",
          "type": "uint256"
        },
        {
          "internalType": "bytes",
          "name": "data",
          "type": "bytes"
        }
      ],
      "name": "relay",
      "outputs": [],
      "stateMutability": "payable",
      "type": "function"
    },
    {
      "inputs": [],
      "name": "renounceOwnership",
      "outputs": [],
      "stateMutability": "nonpayable",
      "type": "function"
    },
    {
      "inputs": [
        {
          "internalType": "address",
          "name": "_userAddress",
          "type": "address"
        },
        {
          "internalType": "bool",
          "name": "_freeze",
          "type": "bool"
        }
      ],
      "name": "setAddressFrozen",
      "outputs": [],
      "stateMutability": "nonpayable",
      "type": "function"
    },
    {
      "inputs": [
        {
          "internalType": "uint256",
          "name": "newProposalThreshold",
          "type": "uint256"
        }
      ],
      "name": "setProposalThreshold",
      "outputs": [],
      "stateMutability": "nonpayable",
      "type": "function"
    },
    {
      "inputs": [
        {
          "internalType": "uint256",
          "name": "newVotingDelay",
          "type": "uint256"
        }
      ],
      "name": "setVotingDelay",
      "outputs": [],
      "stateMutability": "nonpayable",
      "type": "function"
    },
    {
      "inputs": [
        {
          "internalType": "uint256",
          "name": "newVotingPeriod",
          "type": "uint256"
        }
      ],
      "name": "setVotingPeriod",
      "outputs": [],
      "stateMutability": "nonpayable",
      "type": "function"
    },
    {
      "inputs": [
        {
          "internalType": "uint256",
          "name": "proposalId",
          "type": "uint256"
        }
      ],
      "name": "state",
      "outputs": [
        {
          "internalType": "enum IGovernorUpgradeable.ProposalState",
          "name": "",
          "type": "uint8"
        }
      ],
      "stateMutability": "view",
      "type": "function"
    },
    {
      "inputs": [
        {
          "internalType": "bytes4",
          "name": "interfaceId",
          "type": "bytes4"
        }
      ],
      "name": "supportsInterface",
      "outputs": [
        {
          "internalType": "bool",
          "name": "",
          "type": "bool"
        }
      ],
      "stateMutability": "view",
      "type": "function"
    },
    {
      "inputs": [],
      "name": "symbol",
      "outputs": [
        {
          "internalType": "string",
          "name": "",
          "type": "string"
        }
      ],
      "stateMutability": "view",
      "type": "function"
    },
    {
      "inputs": [],
      "name": "token",
      "outputs": [
        {
          "internalType": "contract IVotesUpgradeable",
          "name": "",
          "type": "address"
        }
      ],
      "stateMutability": "view",
      "type": "function"
    },
    {
      "inputs": [],
      "name": "tokenId",
      "outputs": [
        {
          "internalType": "uint256",
          "name": "",
          "type": "uint256"
        }
      ],
      "stateMutability": "view",
      "type": "function"
    },
    {
      "inputs": [],
      "name": "totalSupply",
      "outputs": [
        {
          "internalType": "uint256",
          "name": "",
          "type": "uint256"
        }
      ],
      "stateMutability": "view",
      "type": "function"
    },
    {
      "inputs": [
        {
          "internalType": "address",
          "name": "to",
          "type": "address"
        },
        {
          "internalType": "uint256",
          "name": "amount",
          "type": "uint256"
        }
      ],
      "name": "transfer",
      "outputs": [
        {
          "internalType": "bool",
          "name": "",
          "type": "bool"
        }
      ],
      "stateMutability": "nonpayable",
      "type": "function"
    },
    {
      "inputs": [
        {
          "internalType": "address",
          "name": "from",
          "type": "address"
        },
        {
          "internalType": "address",
          "name": "to",
          "type": "address"
        },
        {
          "internalType": "uint256",
          "name": "amount",
          "type": "uint256"
        }
      ],
      "name": "transferFrom",
      "outputs": [
        {
          "internalType": "bool",
          "name": "",
          "type": "bool"
        }
      ],
      "stateMutability": "nonpayable",
      "type": "function"
    },
    {
      "inputs": [
        {
          "internalType": "address",
          "name": "newOwner",
          "type": "address"
        }
      ],
      "name": "transferOwnership",
      "outputs": [],
      "stateMutability": "nonpayable",
      "type": "function"
    },
    {
      "inputs": [
        {
          "internalType": "address",
          "name": "_clauseNFT",
          "type": "address"
        },
        {
          "internalType": "uint256",
          "name": "_tokenId",
          "type": "uint256"
        }
      ],
      "name": "updateClause",
      "outputs": [],
      "stateMutability": "nonpayable",
      "type": "function"
    },
    {
      "inputs": [
        {
          "internalType": "uint256",
          "name": "newQuorumNumerator",
          "type": "uint256"
        }
      ],
      "name": "updateQuorumNumerator",
      "outputs": [],
      "stateMutability": "nonpayable",
      "type": "function"
    },
    {
      "inputs": [],
      "name": "version",
      "outputs": [
        {
          "internalType": "string",
          "name": "",
          "type": "string"
        }
      ],
      "stateMutability": "view",
      "type": "function"
    },
    {
      "inputs": [],
      "name": "votingDelay",
      "outputs": [
        {
          "internalType": "uint256",
          "name": "",
          "type": "uint256"
        }
      ],
      "stateMutability": "view",
      "type": "function"
    },
    {
      "inputs": [],
      "name": "votingPeriod",
      "outputs": [
        {
          "internalType": "uint256",
          "name": "",
          "type": "uint256"
        }
      ],
      "stateMutability": "view",
      "type": "function"
    },
    {
      "stateMutability": "payable",
      "type": "receive"
    }
  ],
  "bytecode": "0x608060405234801561001057600080fd5b5061029280546001600160a01b03191633179055615f0080620000346000396000f3fe6080604052600436106104145760003560e01c80637ecebe001161021e578063c59057e411610123578063ea0217cf116100ab578063f23a6e611161007a578063f23a6e6114610d55578063f2fde38b14610d81578063f542033f14610da1578063f8ce560a14610dc1578063fc0c546a14610de157600080fd5b8063ea0217cf14610cab578063eb9019d414610ccb578063ece40cc114610ceb578063f1127ed814610d0b57600080fd5b8063da39b354116100f2578063da39b35414610bd1578063dd4e2ba514610bf1578063dd62ed3e14610c37578063deaaa7cc14610c57578063e741b71c14610c8b57600080fd5b8063c59057e414610b50578063c69c09cf14610b70578063d505accf14610b90578063d5f3948814610bb057600080fd5b8063a457c2d7116101a6578063bc197c8111610175578063bc197c8114610ab1578063bf708f9614610add578063c01f9e3714610afd578063c28bc2fa14610b1d578063c3cda52014610b3057600080fd5b8063a457c2d714610a47578063a7713a7014610a67578063a9059cbb14610a7c578063b58131b014610a9c57600080fd5b806395d89b41116101ed57806395d89b41146109bd57806397c3d334146109d25780639a802a6d146109e65780639ab24eb014610a065780639e8948f914610a2657600080fd5b80637ecebe001461093e5780638400bb041461095e5780638da5cb5b1461097f5780638e539e8c1461099d57600080fd5b80633a46b1a8116103245780635c19a95c116102ac57806370a082311161027b57806370a082311461089357806370b0f660146108c9578063715018a6146108e95780637b3c71d3146108fe5780637d5e81e21461091e57600080fd5b80635c19a95c146107fe5780635f398a141461081e57806360c4247f1461083e5780636fcfff451461085e57600080fd5b806343859632116102f357806343859632146106db578063544ffc9c1461072657806354fd4d501461077c57806356781388146107a6578063587cde1e146107c657600080fd5b80633a46b1a81461064e5780633bccf4fd1461066e5780633e4f49e61461068e57806340c10f19146106bb57600080fd5b806318160ddd116103a75780632fe3e261116103765780632fe3e261146105b4578063313ce567146105e85780633644e515146106045780633932abb114610619578063395093511461062e57600080fd5b806318160ddd1461054c57806323b872dd146105615780632656227d146105815780632d63f6931461059457600080fd5b806306fdde03116103e357806306fdde03146104ba578063095ea7b3146104dc578063150b7a02146104fc57806317d70f7c1461053557600080fd5b806301ffc9a71461042257806302a251a314610457578063034201811461047a57806306f3f9e61461049a57600080fd5b3661041d57005b005b600080fd5b34801561042e57600080fd5b5061044261043d366004615619565b610e02565b60405190151581526020015b60405180910390f35b34801561046357600080fd5b5061046c610e6f565b60405190815260200161044e565b34801561048657600080fd5b5061046c610495366004615811565b610e80565b3480156104a657600080fd5b5061041b6104b53660046156ed565b610f78565b3480156104c657600080fd5b506104cf610fc9565b60405161044e9190615a92565b3480156104e857600080fd5b506104426104f7366004615363565b610fd3565b34801561050857600080fd5b5061051c6105173660046151f3565b610feb565b6040516001600160e01b0319909116815260200161044e565b34801561054157600080fd5b5061046c6102905481565b34801561055857600080fd5b5060355461046c565b34801561056d57600080fd5b5061044261057c3660046151b3565b611039565b61046c61058f3660046154cb565b61105f565b3480156105a057600080fd5b5061046c6105af3660046156ed565b6111a8565b3480156105c057600080fd5b5061046c7fb3b3f3b703cd84ce352197dcff232b1b5d3cfb2025ce47cf04742d0651f1af8881565b3480156105f457600080fd5b506040516012815260200161044e565b34801561061057600080fd5b5061046c6111e0565b34801561062557600080fd5b5061046c6111ea565b34801561063a57600080fd5b50610442610649366004615363565b6111f6565b34801561065a57600080fd5b5061046c610669366004615363565b611218565b34801561067a57600080fd5b5061046c6106893660046158b4565b61128c565b34801561069a57600080fd5b506106ae6106a93660046156ed565b611302565b60405161044e9190615a6a565b3480156106c757600080fd5b5061041b6106d6366004615363565b611400565b3480156106e757600080fd5b506104426106f636600461571d565b60008281526101f8602090815260408083206001600160a01b038516845260030190915290205460ff1692915050565b34801561073257600080fd5b506107616107413660046156ed565b60009081526101f860205260409020805460018201546002909201549092565b6040805193845260208401929092529082015260600161044e565b34801561078857600080fd5b506040805180820190915260018152603160f81b60208201526104cf565b3480156107b257600080fd5b5061046c6107c1366004615741565b611416565b3480156107d257600080fd5b506107e66107e136600461509a565b61143f565b6040516001600160a01b03909116815260200161044e565b34801561080a57600080fd5b5061041b61081936600461509a565b61145e565b34801561082a57600080fd5b5061046c6108393660046157ab565b611468565b34801561084a57600080fd5b5061046c6108593660046156ed565b6114b2565b34801561086a57600080fd5b5061087e61087936600461509a565b611559565b60405163ffffffff909116815260200161044e565b34801561089f57600080fd5b5061046c6108ae36600461509a565b6001600160a01b031660009081526033602052604090205490565b3480156108d557600080fd5b5061041b6108e43660046156ed565b61157c565b3480156108f557600080fd5b5061041b6115c1565b34801561090a57600080fd5b5061046c61091936600461576c565b6115d5565b34801561092a57600080fd5b5061046c610939366004615556565b61161d565b34801561094a57600080fd5b5061046c61095936600461509a565b61163c565b34801561096a57600080fd5b5061028f546107e6906001600160a01b031681565b34801561098b57600080fd5b506065546001600160a01b03166107e6565b3480156109a957600080fd5b5061046c6109b83660046156ed565b61165a565b3480156109c957600080fd5b506104cf6116b7565b3480156109de57600080fd5b50606461046c565b3480156109f257600080fd5b5061046c610a013660046153e7565b611749565b348015610a1257600080fd5b5061046c610a2136600461509a565b611756565b348015610a3257600080fd5b50610291546107e6906001600160a01b031681565b348015610a5357600080fd5b50610442610a62366004615363565b6117ec565b348015610a7357600080fd5b5061046c611872565b348015610a8857600080fd5b50610442610a97366004615363565b61189f565b348015610aa857600080fd5b5061046c6118ad565b348015610abd57600080fd5b5061051c610acc36600461510a565b63bc197c8160e01b95945050505050565b348015610ae957600080fd5b5061041b610af8366004615641565b6118b9565b348015610b0957600080fd5b5061046c610b183660046156ed565b6119fe565b61041b610b2b36600461538e565b611a2e565b348015610b3c57600080fd5b5061041b610b4b36600461543d565b611afb565b348015610b5c57600080fd5b5061046c610b6b3660046154cb565b611c12565b348015610b7c57600080fd5b5061041b610b8b366004615336565b611c4c565b348015610b9c57600080fd5b5061041b610bab3660046152c9565b611c5e565b348015610bbc57600080fd5b50610292546107e6906001600160a01b031681565b348015610bdd57600080fd5b5061041b610bec366004615363565b611dc2565b348015610bfd57600080fd5b506040805180820190915260208082527f737570706f72743d627261766f2671756f72756d3d666f722c6162737461696e908201526104cf565b348015610c4357600080fd5b5061046c610c523660046150d2565b6120cf565b348015610c6357600080fd5b5061046c7f150214d74d59b7d1e90c73fc22ef3d991dd0a76b046543d4d80ab92d2a50328f81565b348015610c9757600080fd5b5061041b610ca6366004615363565b6120fa565b348015610cb757600080fd5b5061041b610cc63660046156ed565b612225565b348015610cd757600080fd5b5061046c610ce6366004615363565b61226a565b348015610cf757600080fd5b5061041b610d063660046156ed565b61228b565b348015610d1757600080fd5b50610d2b610d26366004615496565b6122d0565b60408051825163ffffffff1681526020928301516001600160e01b0316928101929092520161044e565b348015610d6157600080fd5b5061051c610d70366004615263565b63f23a6e6160e01b95945050505050565b348015610d8d57600080fd5b5061041b610d9c36600461509a565b612362565b348015610dad57600080fd5b5061041b610dbc366004615673565b6123d8565b348015610dcd57600080fd5b5061046c610ddc3660046156ed565b61282d565b348015610ded57600080fd5b5061022a546107e6906001600160a01b031681565b60006001600160e01b0319821663bf26d89760e01b1480610e3357506001600160e01b031982166379dd796f60e01b145b80610e4e57506001600160e01b03198216630271189760e51b145b80610e6957506301ffc9a760e01b6001600160e01b03198316145b92915050565b6000610e7b6101c75490565b905090565b600080610f24610f1c7fb3b3f3b703cd84ce352197dcff232b1b5d3cfb2025ce47cf04742d0651f1af888c8c8c8c604051610ebc9291906159f3565b60405180910390208b80519060200120604051602001610f01959493929190948552602085019390935260ff9190911660408401526060830152608082015260a00190565b60405160208183030381529060405280519060200120612838565b868686612886565b9050610f6a8a828b8b8b8080601f0160208091040260200160405190810160405280939291908181526020018383808284376000920191909152508d92506128a4915050565b9a9950505050505050505050565b333014610fa05760405162461bcd60e51b8152600401610f9790615aa5565b60405180910390fd5b610fbd565b80610fb1610196612a14565b14610fbb57610fa5565b505b610fc681612aa0565b50565b6060610e7b612bef565b600033610fe1818585612bff565b5060019392505050565b600061102f86868686868080601f016020809104026020016040519081016040528093929190818152602001838380828437600092019190915250612d2392505050565b9695505050505050565b600033611047858285612d33565b611052858585612dad565b60019150505b9392505050565b60008061106e86868686611c12565b9050600061107b82611302565b9050600481600781111561109f57634e487b7160e01b600052602160045260246000fd5b14806110ca575060058160078111156110c857634e487b7160e01b600052602160045260246000fd5b145b6111205760405162461bcd60e51b815260206004820152602160248201527f476f7665726e6f723a2070726f706f73616c206e6f74207375636365737366756044820152601b60fa1b6064820152608401610f97565b6000828152610195602052604090819020600201805460ff19166001179055517f712ae1383f79ac853f8d882153778e0260ef8f03b504e2866e0593e04d2b291f9061116f9084815260200190565b60405180910390a16111848288888888612f69565b611191828888888861300b565b61119e8288888888612f69565b5095945050505050565b6000818152610195602090815260408083208151928301909152546001600160401b0316908190525b6001600160401b031692915050565b6000610e7b61312b565b6000610e7b6101c65490565b600033610fe181858561120983836120cf565b6112139190615d17565b612bff565b60004382106112695760405162461bcd60e51b815260206004820152601f60248201527f4552433230566f7465733a20626c6f636b206e6f7420796574206d696e6564006044820152606401610f97565b6001600160a01b03831660009081526101316020526040902061105890836131a6565b604080517f150214d74d59b7d1e90c73fc22ef3d991dd0a76b046543d4d80ab92d2a50328f602082015290810186905260ff8516606082015260009081906112da90610f1c90608001610f01565b90506112f78782886040518060200160405280600081525061329c565b979650505050505050565b600081815261019560205260408120600281015460ff16156113275750600792915050565b6002810154610100900460ff16156113425750600292915050565b600061134d846111a8565b90508061139c5760405162461bcd60e51b815260206004820152601d60248201527f476f7665726e6f723a20756e6b6e6f776e2070726f706f73616c2069640000006044820152606401610f97565b4381106113ad575060009392505050565b60006113b8856119fe565b90504381106113cc57506001949350505050565b6113d5856132bf565b80156113e557506113e5856132f7565b156113f557506004949350505050565b506003949350505050565b6114086133d2565b611412828261342c565b5050565b6000803390506114378482856040518060200160405280600081525061329c565b949350505050565b6001600160a01b03908116600090815261013060205260409020541690565b610fc63382613436565b6000803390506112f787828888888080601f0160208091040260200160405190810160405280939291908181526020018383808284376000920191909152508a92506128a4915050565b61025e54600090806114c957505061025d54919050565b600061025e6114d9600184615d99565b815481106114f757634e487b7160e01b600052603260045260246000fd5b60009182526020918290206040805180820190915291015463ffffffff8116808352600160201b9091046001600160e01b0316928201929092529150841061154d57602001516001600160e01b03169392505050565b61143761025e8561346a565b6001600160a01b03811660009081526101316020526040812054610e69906134f0565b33301461159b5760405162461bcd60e51b8152600401610f9790615aa5565b6115b8565b806115ac610196612a14565b146115b6576115a0565b505b610fc681613559565b6115c96133d2565b6115d3600061359c565b565b60008033905061102f86828787878080601f01602080910402602001604051908101604052809392919081815260200183838082843760009201919091525061329c92505050565b60006116276133d2565b611633858585856135ee565b95945050505050565b6001600160a01b038116600090815260fd6020526040812054610e69565b60004382106116ab5760405162461bcd60e51b815260206004820152601f60248201527f4552433230566f7465733a20626c6f636b206e6f7420796574206d696e6564006044820152606401610f97565b610e69610132836131a6565b6060603780546116c690615ddc565b80601f01602080910402602001604051908101604052809291908181526020018280546116f290615ddc565b801561173f5780601f106117145761010080835404028352916020019161173f565b820191906000526020600020905b81548152906001019060200180831161172257829003601f168201915b5050505050905090565b60006114378484846138c0565b6001600160a01b0381166000908152610131602052604081205480156117d9576001600160a01b03831660009081526101316020526040902061179a600183615d99565b815481106117b857634e487b7160e01b600052603260045260246000fd5b600091825260209091200154600160201b90046001600160e01b03166117dc565b60005b6001600160e01b03169392505050565b600033816117fa82866120cf565b90508381101561185a5760405162461bcd60e51b815260206004820152602560248201527f45524332303a2064656372656173656420616c6c6f77616e63652062656c6f77604482015264207a65726f60d81b6064820152608401610f97565b6118678286868403612bff565b506001949350505050565b61025e54600090156118975761188961025e613946565b6001600160e01b0316905090565b5061025d5490565b600033610fe1818585612dad565b6000610e7b6101c85490565b6118c16133d2565b6000816040516024016118d49190615a92565b60408051601f198184030181529190526020810180516001600160e01b03166355f804b360e01b179052610291546060805192935091829182916001600160a01b0390911690829060009061193957634e487b7160e01b600052603260045260246000fd5b60200260200101906001600160a01b031690816001600160a01b03168152505060008260008151811061197c57634e487b7160e01b600052603260045260246000fd5b60200260200101818152505083816000815181106119aa57634e487b7160e01b600052603260045260246000fd5b60200260200101819052506119f68383836040518060400160405280601981526020017f55706461746520436c617573654e46542042617365205552490000000000000081525061161d565b505050505050565b6000818152610195602090815260408083208151928301909152600101546001600160401b0316908190526111d1565b333014611a4d5760405162461bcd60e51b8152600401610f9790615aa5565b611a6a565b80611a5e610196612a14565b14611a6857611a52565b505b600080856001600160a01b0316858585604051611a889291906159f3565b60006040518083038185875af1925050503d8060008114611ac5576040519150601f19603f3d011682016040523d82523d6000602084013e611aca565b606091505b5091509150611af28282604051806060016040528060288152602001615e7c6028913961397f565b50505050505050565b83421115611b4b5760405162461bcd60e51b815260206004820152601d60248201527f4552433230566f7465733a207369676e617475726520657870697265640000006044820152606401610f97565b604080517fe48329057bfd03d55e49b547132e39cffd9c1820ad7b9d4c5307691425d15adf60208201526001600160a01b038816918101919091526060810186905260808101859052600090611baf90611ba79060a001610f01565b858585612886565b9050611bba81613998565b8614611c085760405162461bcd60e51b815260206004820152601960248201527f4552433230566f7465733a20696e76616c6964206e6f6e6365000000000000006044820152606401610f97565b611af28188613436565b600084848484604051602001611c2b9493929190615a1f565b60408051601f19818403018152919052805160209091012095945050505050565b611c546133d2565b61141282826139c0565b83421115611cae5760405162461bcd60e51b815260206004820152601d60248201527f45524332305065726d69743a206578706972656420646561646c696e650000006044820152606401610f97565b60007f6e71edae12b1b97f4d1f60370fef10105fa2faae0126114a169c64845d6126c9888888611cdd8c613998565b6040805160208101969096526001600160a01b0394851690860152929091166060840152608083015260a082015260c0810186905260e0016040516020818303038152906040528051906020012090506000611d3882612838565b90506000611d4882878787612886565b9050896001600160a01b0316816001600160a01b031614611dab5760405162461bcd60e51b815260206004820152601e60248201527f45524332305065726d69743a20696e76616c6964207369676e617475726500006044820152606401610f97565b611db68a8a8a612bff565b50505050505050505050565b333014611de15760405162461bcd60e51b8152600401610f9790615aa5565b611dfe565b80611df2610196612a14565b14611dfc57611de6565b505b8130826000836001600160a01b0316636352211e836040518263ffffffff1660e01b8152600401611e3191815260200190565b60206040518083038186803b158015611e4957600080fd5b505afa158015611e5d573d6000803e3d6000fd5b505050506040513d601f19601f82011682018060405250810190611e8191906150b6565b9050806001600160a01b0316836001600160a01b03161480611f1f575060405163e985e9c560e01b81526001600160a01b038281166004830152848116602483015285169063e985e9c59060440160206040518083038186803b158015611ee757600080fd5b505afa158015611efb573d6000803e3d6000fd5b505050506040513d601f19601f82011682018060405250810190611f1f91906155fd565b80611fad575060405163020604bf60e21b8152600481018390526001600160a01b03808516919086169063081812fc9060240160206040518083038186803b158015611f6a57600080fd5b505afa158015611f7e573d6000803e3d6000fd5b505050506040513d601f19601f82011682018060405250810190611fa291906150b6565b6001600160a01b0316145b611fb657600080fd5b61029085905561029180546001600160a01b0319166001600160a01b0388169081179091556040516331a9108f60e11b815260048101879052309190636352211e9060240160206040518083038186803b15801561201357600080fd5b505afa158015612027573d6000803e3d6000fd5b505050506040513d601f19601f8201168201806040525081019061204b91906150b6565b6001600160a01b0316146119f65761028f80546001600160a01b0319166001600160a01b038816908117909155604051632142170760e11b8152336004820152306024820152604481018790526342842e0e90606401600060405180830381600087803b1580156120bb57600080fd5b505af1158015611db6573d6000803e3d6000fd5b6001600160a01b03918216600090815260346020908152604080832093909416825291909152205490565b6121026133d2565b6040516001600160a01b03831660248201526044810182905260009060640160408051601f198184030181529190526020810180516001600160e01b031663368e6cd560e21b1790526060805191925090819081903090829060009061217857634e487b7160e01b600052603260045260246000fd5b60200260200101906001600160a01b031690816001600160a01b0316815250506000826000815181106121bb57634e487b7160e01b600052603260045260246000fd5b60200260200101818152505083816000815181106121e957634e487b7160e01b600052603260045260246000fd5b6020026020010181905250611af28383836040518060400160405280600d81526020016c55706461746520436c6175736560981b81525061161d565b3330146122445760405162461bcd60e51b8152600401610f9790615aa5565b612261565b80612255610196612a14565b1461225f57612249565b505b610fc681613a15565b6000611058838361228660408051602081019091526000815290565b6138c0565b3330146122aa5760405162461bcd60e51b8152600401610f9790615aa5565b6122c7565b806122bb610196612a14565b146122c5576122af565b505b610fc681613ab8565b60408051808201909152600080825260208201526001600160a01b038316600090815261013160205260409020805463ffffffff841690811061232357634e487b7160e01b600052603260045260246000fd5b60009182526020918290206040805180820190915291015463ffffffff81168252600160201b90046001600160e01b0316918101919091529392505050565b61236a6133d2565b6001600160a01b0381166123cf5760405162461bcd60e51b815260206004820152602660248201527f4f776e61626c653a206e6577206f776e657220697320746865207a65726f206160448201526564647265737360d01b6064820152608401610f97565b610fc68161359c565b600054610100900460ff16158080156123f85750600054600160ff909116105b806124125750303b158015612412575060005460ff166001145b6124755760405162461bcd60e51b815260206004820152602e60248201527f496e697469616c697a61626c653a20636f6e747261637420697320616c72656160448201526d191e481a5b9a5d1a585b1a5e995960921b6064820152608401610f97565b6000805460ff191660011790558015612498576000805461ff0019166101001790555b8230836000836001600160a01b0316636352211e836040518263ffffffff1660e01b81526004016124cb91815260200190565b60206040518083038186803b1580156124e357600080fd5b505afa1580156124f7573d6000803e3d6000fd5b505050506040513d601f19601f8201168201806040525081019061251b91906150b6565b9050806001600160a01b0316836001600160a01b031614806125b9575060405163e985e9c560e01b81526001600160a01b038281166004830152848116602483015285169063e985e9c59060440160206040518083038186803b15801561258157600080fd5b505afa158015612595573d6000803e3d6000fd5b505050506040513d601f19601f820116820180604052508101906125b991906155fd565b80612647575060405163020604bf60e21b8152600481018390526001600160a01b03808516919086169063081812fc9060240160206040518083038186803b15801561260457600080fd5b505afa158015612618573d6000803e3d6000fd5b505050506040513d601f19601f8201168201806040525081019061263c91906150b6565b6001600160a01b0316145b61265057600080fd5b610292546001600160a01b0316331461266857600080fd5b612670613afb565b61267a8989613b2a565b61268389613b5b565b61268b613ba5565b61269489613bcc565b6126a360016000196000613c23565b6126ab613ba5565b6126b430613c5a565b6126be6000613c8a565b61029086905561029180546001600160a01b0319166001600160a01b0389169081179091556040516331a9108f60e11b815260048101889052309190636352211e9060240160206040518083038186803b15801561271b57600080fd5b505afa15801561272f573d6000803e3d6000fd5b505050506040513d601f19601f8201168201806040525081019061275391906150b6565b6001600160a01b0316146127dc5761028f80546001600160a01b0319166001600160a01b038916908117909155604051632142170760e11b8152336004820152306024820152604481018890526342842e0e90606401600060405180830381600087803b1580156127c357600080fd5b505af11580156127d7573d6000803e3d6000fd5b505050505b505050508015612826576000805461ff0019169055604051600181527f7f26b83ff96e1f2b6a682f133852f6798a09c465da95921460cefb38474024989060200160405180910390a15b5050505050565b6000610e6982613cba565b6000610e6961284561312b565b8360405161190160f01b6020820152602281018390526042810182905260009060620160405160208183030381529060405280519060200120905092915050565b600080600061289787878787613d58565b9150915061119e81613e1c565b60008581526101956020526040812060016128be88611302565b60078111156128dd57634e487b7160e01b600052602160045260246000fd5b146129365760405162461bcd60e51b815260206004820152602360248201527f476f7665726e6f723a20766f7465206e6f742063757272656e746c792061637460448201526269766560e81b6064820152608401610f97565b604080516020810190915281546001600160401b03169081905260009061295f908890866138c0565b905061296e8888888488613fa2565b83516129c057866001600160a01b03167fb8e138887d0aa13bab447e82de9d5c1777041ecd21ca36ba824ff1e6c07ddda4898884896040516129b39493929190615c56565b60405180910390a26112f7565b866001600160a01b03167fe2babfbac5889a709b63bb7f598b324e08bc5a4fb9ec647fb3cbc9ec07eb87128988848989604051612a01959493929190615c7e565b60405180910390a2979650505050505050565b6000612a338254600f81810b810b600160801b909204810b900b131590565b15612a5157604051631ed9509560e11b815260040160405180910390fd5b508054600f90810b80820b820b600090815260018085016020526040822080549290558454920190920b6001600160801b03166fffffffffffffffffffffffffffffffff199091161790915590565b6064811115612b235760405162461bcd60e51b815260206004820152604360248201527f476f7665726e6f72566f74657351756f72756d4672616374696f6e3a2071756f60448201527f72756d4e756d657261746f72206f7665722071756f72756d44656e6f6d696e616064820152623a37b960e91b608482015260a401610f97565b6000612b2d611872565b90508015801590612b3f575061025e54155b15612ba457604080518082019091526000815261025e9060208101612b6384613fde565b6001600160e01b039081169091528254600181018455600093845260209384902083519490930151909116600160201b0263ffffffff909316929092179101555b612bb061025e83614047565b505060408051828152602081018490527f0553476bf02ef2726e8ce5ced78d63e26e602e4a2257b1f559418e24b4633997910160405180910390a15050565b606061019480546116c690615ddc565b6001600160a01b038316612c615760405162461bcd60e51b8152602060048201526024808201527f45524332303a20617070726f76652066726f6d20746865207a65726f206164646044820152637265737360e01b6064820152608401610f97565b6001600160a01b038216612cc25760405162461bcd60e51b815260206004820152602260248201527f45524332303a20617070726f766520746f20746865207a65726f206164647265604482015261737360f01b6064820152608401610f97565b6001600160a01b0383811660008181526034602090815260408083209487168084529482529182902085905590518481527f8c5be1e5ebec7d5bd14f71427d1e84f3dd0314c0f7b2291e5b200ac8c7c3b925910160405180910390a3505050565b630a85bd0160e11b949350505050565b6000612d3f84846120cf565b90506000198114612da75781811015612d9a5760405162461bcd60e51b815260206004820152601d60248201527f45524332303a20696e73756666696369656e7420616c6c6f77616e63650000006044820152606401610f97565b612da78484848403612bff565b50505050565b6001600160a01b038316612e115760405162461bcd60e51b815260206004820152602560248201527f45524332303a207472616e736665722066726f6d20746865207a65726f206164604482015264647265737360d81b6064820152608401610f97565b6001600160a01b038216612e735760405162461bcd60e51b815260206004820152602360248201527f45524332303a207472616e7366657220746f20746865207a65726f206164647260448201526265737360e81b6064820152608401610f97565b612e7e83838361407d565b6001600160a01b03831660009081526033602052604090205481811015612ef65760405162461bcd60e51b815260206004820152602660248201527f45524332303a207472616e7366657220616d6f756e7420657863656564732062604482015265616c616e636560d01b6064820152608401610f97565b6001600160a01b0380851660008181526033602052604080822086860390559286168082529083902080548601905591517fddf252ad1be2c89b69c2b068fc378daa952ba7f163c4a11628f55a4df523b3ef90612f569086815260200190565b60405180910390a3612da78484846140bb565b612826565b84518110156119f657306001600160a01b0316858281518110612fa157634e487b7160e01b600052603260045260246000fd5b60200260200101516001600160a01b03161415612ffb57612ffb838281518110612fdb57634e487b7160e01b600052603260045260246000fd5b60200260200101518051906020012061019661411690919063ffffffff16565b61300481615e11565b9050612f6e565b6000604051806060016040528060278152602001615ea460279139905060005b8551811015611af25760008087838151811061305757634e487b7160e01b600052603260045260246000fd5b60200260200101516001600160a01b031687848151811061308857634e487b7160e01b600052603260045260246000fd5b60200260200101518785815181106130b057634e487b7160e01b600052603260045260246000fd5b60200260200101516040516130c59190615a03565b60006040518083038185875af1925050503d8060008114613102576040519150601f19603f3d011682016040523d82523d6000602084013e613107565b606091505b509150915061311782828661397f565b5050508061312490615e11565b905061302b565b6000610e7b7f8b73c3c69bb8fe3d512ecc4cf759cc79239f7b179b0ffacaa9a75d522b39400f61315a60c95490565b60ca546040805160208101859052908101839052606081018290524660808201523060a082015260009060c0016040516020818303038152906040528051906020012090509392505050565b8154600090818160058111156132005760006131c18461415c565b6131cb9085615d99565b600088815260209020909150869082015463ffffffff1611156131f0578091506131fe565b6131fb816001615d17565b92505b505b8082101561324d57600061321483836142b1565b600088815260209020909150869082015463ffffffff16111561323957809150613247565b613244816001615d17565b92505b50613200565b80156132865761327086613262600184615d99565b600091825260209091200190565b54600160201b90046001600160e01b0316613289565b60005b6001600160e01b03169695505050505050565b6000611633858585856132ba60408051602081019091526000815290565b6128a4565b60008181526101f860205260408120600281015460018201546132e29190615d17565b6132ee610ddc856111a8565b11159392505050565b6000806000806133218560009081526101f860205260409020805460018201546002909201549092565b9094509092509050806133348385615d17565b61333e9190615d17565b61022a546001600160a01b0316638e539e8c613359886111a8565b6040518263ffffffff1660e01b815260040161337791815260200190565b60206040518083038186803b15801561338f57600080fd5b505afa1580156133a3573d6000803e3d6000fd5b505050506040513d601f19601f820116820180604052508101906133c79190615705565b111595945050505050565b6065546001600160a01b031633146115d35760405162461bcd60e51b815260206004820181905260248201527f4f776e61626c653a2063616c6c6572206973206e6f7420746865206f776e65726044820152606401610f97565b61141282826142cc565b6001600160a01b03821660008181526102936020526040902080546001600160a01b03191690911790556114128282614357565b60004382106134bb5760405162461bcd60e51b815260206004820181905260248201527f436865636b706f696e74733a20626c6f636b206e6f7420796574206d696e65646044820152606401610f97565b60006134c6836134f0565b845490915060006134d9868483856143ee565b905080156132865761327086613262600184615d99565b600063ffffffff8211156135555760405162461bcd60e51b815260206004820152602660248201527f53616665436173743a2076616c756520646f65736e27742066697420696e203360448201526532206269747360d01b6064820152608401610f97565b5090565b6101c65460408051918252602082018390527fc565b045403dc03c2eea82b81a0465edad9e2e7fc4d97e11421c209da93d7a93910160405180910390a16101c655565b606580546001600160a01b038381166001600160a01b0319831681179093556040519116919082907f8be0079c531659141344cd1fd0a4f28419497f9722a3daafe3b4186f6b6457e090600090a35050565b60006135f86118ad565b61360733610ce6600143615d99565b101561366f5760405162461bcd60e51b815260206004820152603160248201527f476f7665726e6f723a2070726f706f73657220766f7465732062656c6f7720706044820152701c9bdc1bdcd85b081d1a1c995cda1bdb19607a1b6064820152608401610f97565b60006136848686868680519060200120611c12565b905084518651146136a75760405162461bcd60e51b8152600401610f9790615adc565b83518651146136c85760405162461bcd60e51b8152600401610f9790615adc565b60008651116137195760405162461bcd60e51b815260206004820152601860248201527f476f7665726e6f723a20656d7074792070726f706f73616c00000000000000006044820152606401610f97565b60008181526101956020908152604091829020825191820190925281546001600160401b0316908190521561379a5760405162461bcd60e51b815260206004820152602160248201527f476f7665726e6f723a2070726f706f73616c20616c72656164792065786973746044820152607360f81b6064820152608401610f97565b60006137ac6137a76111ea565b61444c565b6137b54361444c565b6137bf9190615d2f565b905060006137ce6137a7610e6f565b6137d89083615d2f565b835467ffffffffffffffff19166001600160401b038416178455905060018301805467ffffffffffffffff19166001600160401b0383161790557f7d84a6263ae0d98d3329bd7b46bb4e8d6f98cd35a7adb45c274c8b7fd5ebd5e084338b8b8d516001600160401b0381111561385e57634e487b7160e01b600052604160045260246000fd5b60405190808252806020026020018201604052801561389157816020015b606081526020019060019003908161387c5790505b508c88888e6040516138ab99989796959493929190615b68565b60405180910390a15091979650505050505050565b61022a54604051630748d63560e31b81526001600160a01b038581166004830152602482018590526000921690633a46b1a89060440160206040518083038186803b15801561390e57600080fd5b505afa158015613922573d6000803e3d6000fd5b505050506040513d601f19601f820116820180604052508101906114379190615705565b805460009080156139765761396083613262600184615d99565b54600160201b90046001600160e01b0316611058565b60009392505050565b6060831561398e575081611058565b61105883836144b4565b6001600160a01b038116600090815260fd602052604090208054600181018255905b50919050565b6001600160a01b03821660008181526102946020526040808220805460ff191685151590811790915590519092917fa3e40a317eac9d2f33de1f67819e7103be50ca171b0559ba3ef1313e2e9c9ed491a35050565b60008111613a755760405162461bcd60e51b815260206004820152602760248201527f476f7665726e6f7253657474696e67733a20766f74696e6720706572696f6420604482015266746f6f206c6f7760c81b6064820152608401610f97565b6101c75460408051918252602082018390527f7e3f7f0708a84de9203036abaa450dccc85ad5ff52f78c170f3edb55cf5e8828910160405180910390a16101c755565b6101c85460408051918252602082018390527fccb45da8d5717e6c4544694297c4ba5cf151d455c9bb0ed4fc7a38411bc05461910160405180910390a16101c855565b600054610100900460ff16613b225760405162461bcd60e51b8152600401610f9790615b1d565b6115d36144de565b600054610100900460ff16613b515760405162461bcd60e51b8152600401610f9790615b1d565b611412828261450e565b600054610100900460ff16613b825760405162461bcd60e51b8152600401610f9790615b1d565b610fc681604051806040016040528060018152602001603160f81b81525061455c565b600054610100900460ff166115d35760405162461bcd60e51b8152600401610f9790615b1d565b600054610100900460ff16613bf35760405162461bcd60e51b8152600401610f9790615b1d565b613c1a81613c156040805180820190915260018152603160f81b602082015290565b61455c565b610fc68161459d565b600054610100900460ff16613c4a5760405162461bcd60e51b8152600401610f9790615b1d565b613c558383836145d8565b505050565b600054610100900460ff16613c815760405162461bcd60e51b8152600401610f9790615b1d565b610fc68161461a565b600054610100900460ff16613cb15760405162461bcd60e51b8152600401610f9790615b1d565b610fc681614664565b60006064613cc7836114b2565b61022a54604051632394e7a360e21b8152600481018690526001600160a01b0390911690638e539e8c9060240160206040518083038186803b158015613d0c57600080fd5b505afa158015613d20573d6000803e3d6000fd5b505050506040513d601f19601f82011682018060405250810190613d449190615705565b613d4e9190615d7a565b610e699190615d5a565b6000807f7fffffffffffffffffffffffffffffff5d576e7357a4501ddfe92f46681b20a0831115613d8f5750600090506003613e13565b6040805160008082526020820180845289905260ff881692820192909252606081018690526080810185905260019060a0016020604051602081039080840390855afa158015613de3573d6000803e3d6000fd5b5050604051601f1901519150506001600160a01b038116613e0c57600060019250925050613e13565b9150600090505b94509492505050565b6000816004811115613e3e57634e487b7160e01b600052602160045260246000fd5b1415613e475750565b6001816004811115613e6957634e487b7160e01b600052602160045260246000fd5b1415613eb75760405162461bcd60e51b815260206004820152601860248201527f45434453413a20696e76616c6964207369676e617475726500000000000000006044820152606401610f97565b6002816004811115613ed957634e487b7160e01b600052602160045260246000fd5b1415613f275760405162461bcd60e51b815260206004820152601f60248201527f45434453413a20696e76616c6964207369676e6174757265206c656e677468006044820152606401610f97565b6003816004811115613f4957634e487b7160e01b600052602160045260246000fd5b1415610fc65760405162461bcd60e51b815260206004820152602260248201527f45434453413a20696e76616c6964207369676e6174757265202773272076616c604482015261756560f01b6064820152608401610f97565b613faf858585858561468b565b6001600160a01b03848116600090815261029360205260409020541660ff84166119f6576119f68160016139c0565b60006001600160e01b038211156135555760405162461bcd60e51b815260206004820152602760248201527f53616665436173743a2076616c756520646f65736e27742066697420696e20326044820152663234206269747360c81b6064820152608401610f97565b60008061406584614057436134f0565b61406086613fde565b61480b565b6001600160e01b0391821693501690505b9250929050565b6001600160a01b038316600090815261029460205260409020548390839060ff1615806140b257506001600160a01b03811633145b612f6957600080fd5b6001600160a01b038216158015906140df57506140d782611559565b63ffffffff16155b80156140fc575060006140f18361143f565b6001600160a01b0316145b1561410b5761410b8283613436565b613c558383836149b5565b8154600160801b90819004600f90810b80820b820b6000908152600180870160205260409091209490945584549301900b6001600160801b039081169091029116179055565b60008161416b57506000919050565b60006001614178846149d0565b901c6001901b9050600181848161419f57634e487b7160e01b600052601260045260246000fd5b048201901c905060018184816141c557634e487b7160e01b600052601260045260246000fd5b048201901c905060018184816141eb57634e487b7160e01b600052601260045260246000fd5b048201901c9050600181848161421157634e487b7160e01b600052601260045260246000fd5b048201901c9050600181848161423757634e487b7160e01b600052601260045260246000fd5b048201901c9050600181848161425d57634e487b7160e01b600052601260045260246000fd5b048201901c9050600181848161428357634e487b7160e01b600052601260045260246000fd5b048201901c9050611058818285816142ab57634e487b7160e01b600052601260045260246000fd5b04614a64565b60006142c06002848418615d5a565b61105890848416615d17565b6142d68282614a7a565b6035546001600160e01b0310156143485760405162461bcd60e51b815260206004820152603060248201527f4552433230566f7465733a20746f74616c20737570706c79207269736b73206f60448201526f766572666c6f77696e6720766f74657360801b6064820152608401610f97565b612da7610132614b4f83614b5b565b60006143628361143f565b90506000614385846001600160a01b031660009081526033602052604090205490565b6001600160a01b038581166000818152610130602052604080822080546001600160a01b031916898616908117909155905194955093928616927f3134e8a2e6d97e929a7e54011ea5485d7d196dd5f0ba4d4ef95803e8e3fc257f9190a4612da7828483614cac565b60005b8183101561444457600061440584846142b1565b60008781526020902090915063ffffffff86169082015463ffffffff1611156144305780925061443e565b61443b816001615d17565b93505b506143f1565b509392505050565b60006001600160401b038211156135555760405162461bcd60e51b815260206004820152602660248201527f53616665436173743a2076616c756520646f65736e27742066697420696e203660448201526534206269747360d01b6064820152608401610f97565b8151156144c45781518083602001fd5b8060405162461bcd60e51b8152600401610f979190615a92565b600054610100900460ff166145055760405162461bcd60e51b8152600401610f9790615b1d565b6115d33361359c565b600054610100900460ff166145355760405162461bcd60e51b8152600401610f9790615b1d565b8151614548906036906020850190614df7565b508051613c55906037906020840190614df7565b600054610100900460ff166145835760405162461bcd60e51b8152600401610f9790615b1d565b81516020928301208151919092012060c99190915560ca55565b600054610100900460ff166145c45760405162461bcd60e51b8152600401610f9790615b1d565b805161141290610194906020840190614df7565b600054610100900460ff166145ff5760405162461bcd60e51b8152600401610f9790615b1d565b61460883613559565b61461182613a15565b613c5581613ab8565b600054610100900460ff166146415760405162461bcd60e51b8152600401610f9790615b1d565b61022a80546001600160a01b0319166001600160a01b0392909216919091179055565b600054610100900460ff16610fbd5760405162461bcd60e51b8152600401610f9790615b1d565b60008581526101f8602090815260408083206001600160a01b0388168452600381019092529091205460ff16156147145760405162461bcd60e51b815260206004820152602760248201527f476f7665726e6f72566f74696e6753696d706c653a20766f746520616c726561604482015266191e4818d85cdd60ca1b6064820152608401610f97565b6001600160a01b03851660009081526003820160205260408120805460ff1916600117905560ff168460ff161415614765578281600001600082825461475a9190615d17565b909155506119f69050565b60ff841660011415614785578281600101600082825461475a9190615d17565b60ff8416600214156147a5578281600201600082825461475a9190615d17565b60405162461bcd60e51b815260206004820152603560248201527f476f7665726e6f72566f74696e6753696d706c653a20696e76616c69642076616044820152746c756520666f7220656e756d20566f74655479706560581b6064820152608401610f97565b82546000908190801561495857600061482987613262600185615d99565b60408051808201909152905463ffffffff808216808452600160201b9092046001600160e01b0316602084015291925090871610156148aa5760405162461bcd60e51b815260206004820152601760248201527f436865636b706f696e743a20696e76616c6964206b65790000000000000000006044820152606401610f97565b8563ffffffff16816000015163ffffffff1614156148f957846148d288613262600186615d99565b80546001600160e01b0392909216600160201b0263ffffffff909216919091179055614948565b6040805180820190915263ffffffff80881682526001600160e01b0380881660208085019182528b54600181018d5560008d81529190912094519151909216600160201b029216919091179101555b6020015192508391506149ad9050565b50506040805180820190915263ffffffff80851682526001600160e01b0380851660208085019182528854600181018a5560008a815291822095519251909316600160201b0291909316179201919091559050815b935093915050565b613c556149c18461143f565b6149ca8461143f565b83614cac565b600080608083901c156149e557608092831c92015b604083901c156149f757604092831c92015b602083901c15614a0957602092831c92015b601083901c15614a1b57601092831c92015b600883901c15614a2d57600892831c92015b600483901c15614a3f57600492831c92015b600283901c15614a5157600292831c92015b600183901c15610e695760010192915050565b6000818310614a735781611058565b5090919050565b6001600160a01b038216614ad05760405162461bcd60e51b815260206004820152601f60248201527f45524332303a206d696e7420746f20746865207a65726f2061646472657373006044820152606401610f97565b614adc6000838361407d565b8060356000828254614aee9190615d17565b90915550506001600160a01b0382166000818152603360209081526040808320805486019055518481527fddf252ad1be2c89b69c2b068fc378daa952ba7f163c4a11628f55a4df523b3ef910160405180910390a3611412600083836140bb565b60006110588284615d17565b82546000908190818115614ba757614b7887613262600185615d99565b60408051808201909152905463ffffffff81168252600160201b90046001600160e01b03166020820152614bbc565b60408051808201909152600080825260208201525b905080602001516001600160e01b03169350614bdc84868863ffffffff16565b9250600082118015614bf45750805163ffffffff1643145b15614c3857614c0283613fde565b614c1188613262600186615d99565b80546001600160e01b0392909216600160201b0263ffffffff909216919091179055614ca2565b866040518060400160405280614c4d436134f0565b63ffffffff168152602001614c6186613fde565b6001600160e01b039081169091528254600181018455600093845260209384902083519490930151909116600160201b0263ffffffff909316929092179101555b5050935093915050565b816001600160a01b0316836001600160a01b031614158015614cce5750600081115b15613c55576001600160a01b03831615614d5d576001600160a01b0383166000908152610131602052604081208190614d0a90614deb85614b5b565b91509150846001600160a01b03167fdec2bacdd2f05b59de34da9b523dff8be42e5e38e818c82fdb0bae774387a7248383604051614d52929190918252602082015260400190565b60405180910390a250505b6001600160a01b03821615613c55576001600160a01b0382166000908152610131602052604081208190614d9490614b4f85614b5b565b91509150836001600160a01b03167fdec2bacdd2f05b59de34da9b523dff8be42e5e38e818c82fdb0bae774387a7248383604051614ddc929190918252602082015260400190565b60405180910390a25050505050565b60006110588284615d99565b828054614e0390615ddc565b90600052602060002090601f016020900481019282614e255760008555614e6b565b82601f10614e3e57805160ff1916838001178555614e6b565b82800160010185558215614e6b579182015b82811115614e6b578251825591602001919060010190614e50565b506135559291505b808211156135555760008155600101614e73565b600082601f830112614e97578081fd5b81356020614eac614ea783615cf4565b615cc4565b80838252828201915082860187848660051b8901011115614ecb578586fd5b855b85811015614ef2578135614ee081615e58565b84529284019290840190600101614ecd565b5090979650505050505050565b600082601f830112614f0f578081fd5b81356020614f1f614ea783615cf4565b80838252828201915082860187848660051b8901011115614f3e578586fd5b855b85811015614ef25781356001600160401b03811115614f5d578788fd5b614f6b8a87838c010161501a565b8552509284019290840190600101614f40565b600082601f830112614f8e578081fd5b81356020614f9e614ea783615cf4565b80838252828201915082860187848660051b8901011115614fbd578586fd5b855b85811015614ef257813584529284019290840190600101614fbf565b60008083601f840112614fec578182fd5b5081356001600160401b03811115615002578182fd5b60208301915083602082850101111561407657600080fd5b600082601f83011261502a578081fd5b81356001600160401b0381111561504357615043615e42565b615056601f8201601f1916602001615cc4565b81815284602083860101111561506a578283fd5b816020850160208301379081016020019190915292915050565b803560ff8116811461509557600080fd5b919050565b6000602082840312156150ab578081fd5b813561105881615e58565b6000602082840312156150c7578081fd5b815161105881615e58565b600080604083850312156150e4578081fd5b82356150ef81615e58565b915060208301356150ff81615e58565b809150509250929050565b600080600080600060a08688031215615121578081fd5b853561512c81615e58565b9450602086013561513c81615e58565b935060408601356001600160401b0380821115615157578283fd5b61516389838a01614f7e565b94506060880135915080821115615178578283fd5b61518489838a01614f7e565b93506080880135915080821115615199578283fd5b506151a68882890161501a565b9150509295509295909350565b6000806000606084860312156151c7578081fd5b83356151d281615e58565b925060208401356151e281615e58565b929592945050506040919091013590565b60008060008060006080868803121561520a578283fd5b853561521581615e58565b9450602086013561522581615e58565b93506040860135925060608601356001600160401b03811115615246578182fd5b61525288828901614fdb565b969995985093965092949392505050565b600080600080600060a0868803121561527a578283fd5b853561528581615e58565b9450602086013561529581615e58565b9350604086013592506060860135915060808601356001600160401b038111156152bd578182fd5b6151a68882890161501a565b600080600080600080600060e0888a0312156152e3578485fd5b87356152ee81615e58565b965060208801356152fe81615e58565b9550604088013594506060880135935061531a60808901615084565b925060a0880135915060c0880135905092959891949750929550565b60008060408385031215615348578182fd5b823561535381615e58565b915060208301356150ff81615e6d565b60008060408385031215615375578182fd5b823561538081615e58565b946020939093013593505050565b600080600080606085870312156153a3578182fd5b84356153ae81615e58565b93506020850135925060408501356001600160401b038111156153cf578283fd5b6153db87828801614fdb565b95989497509550505050565b6000806000606084860312156153fb578081fd5b833561540681615e58565b92506020840135915060408401356001600160401b03811115615427578182fd5b6154338682870161501a565b9150509250925092565b60008060008060008060c08789031215615455578384fd5b863561546081615e58565b9550602087013594506040870135935061547c60608801615084565b92506080870135915060a087013590509295509295509295565b600080604083850312156154a8578182fd5b82356154b381615e58565b9150602083013563ffffffff811681146150ff578182fd5b600080600080608085870312156154e0578182fd5b84356001600160401b03808211156154f6578384fd5b61550288838901614e87565b95506020870135915080821115615517578384fd5b61552388838901614f7e565b94506040870135915080821115615538578384fd5b5061554587828801614eff565b949793965093946060013593505050565b6000806000806080858703121561556b578182fd5b84356001600160401b0380821115615581578384fd5b61558d88838901614e87565b955060208701359150808211156155a2578384fd5b6155ae88838901614f7e565b945060408701359150808211156155c3578384fd5b6155cf88838901614eff565b935060608701359150808211156155e4578283fd5b506155f18782880161501a565b91505092959194509250565b60006020828403121561560e578081fd5b815161105881615e6d565b60006020828403121561562a578081fd5b81356001600160e01b031981168114611058578182fd5b600060208284031215615652578081fd5b81356001600160401b03811115615667578182fd5b6114378482850161501a565b60008060008060808587031215615688578182fd5b84356001600160401b038082111561569e578384fd5b6156aa8883890161501a565b955060208701359150808211156156bf578384fd5b506156cc8782880161501a565b93505060408501356156dd81615e58565b9396929550929360600135925050565b6000602082840312156156fe578081fd5b5035919050565b600060208284031215615716578081fd5b5051919050565b6000806040838503121561572f578182fd5b8235915060208301356150ff81615e58565b60008060408385031215615753578182fd5b8235915061576360208401615084565b90509250929050565b60008060008060608587031215615781578182fd5b8435935061579160208601615084565b925060408501356001600160401b038111156153cf578283fd5b6000806000806000608086880312156157c2578283fd5b853594506157d260208701615084565b935060408601356001600160401b03808211156157ed578485fd5b6157f989838a01614fdb565b90955093506060880135915080821115615199578283fd5b60008060008060008060008060e0898b03121561582c578182fd5b8835975061583c60208a01615084565b965060408901356001600160401b0380821115615857578384fd5b6158638c838d01614fdb565b909850965060608b013591508082111561587b578384fd5b506158888b828c0161501a565b94505061589760808a01615084565b925060a0890135915060c089013590509295985092959890939650565b600080600080600060a086880312156158cb578283fd5b853594506158db60208701615084565b93506158e960408701615084565b94979396509394606081013594506080013592915050565b6000815180845260208085019450808401835b838110156159395781516001600160a01b031687529582019590820190600101615914565b509495945050505050565b600081518084526020808501808196508360051b81019150828601855b8581101561598b5782840389526159798483516159c7565b98850198935090840190600101615961565b5091979650505050505050565b6000815180845260208085019450808401835b83811015615939578151875295820195908201906001016159ab565b600081518084526159df816020860160208601615db0565b601f01601f19169290920160200192915050565b8183823760009101908152919050565b60008251615a15818460208701615db0565b9190910192915050565b608081526000615a326080830187615901565b8281036020840152615a448187615998565b90508281036040840152615a588186615944565b91505082606083015295945050505050565b6020810160088310615a8c57634e487b7160e01b600052602160045260246000fd5b91905290565b60208152600061105860208301846159c7565b60208082526018908201527f476f7665726e6f723a206f6e6c79476f7665726e616e63650000000000000000604082015260600190565b60208082526021908201527f476f7665726e6f723a20696e76616c69642070726f706f73616c206c656e67746040820152600d60fb1b606082015260800190565b6020808252602b908201527f496e697469616c697a61626c653a20636f6e7472616374206973206e6f74206960408201526a6e697469616c697a696e6760a81b606082015260800190565b60006101208b8352602060018060a01b038c1681850152816040850152615b918285018c615901565b91508382036060850152615ba5828b615998565b915083820360808501528189518084528284019150828160051b850101838c01865b83811015615bf557601f19878403018552615be38383516159c7565b94860194925090850190600101615bc7565b505086810360a0880152615c09818c615944565b945050505050615c2460c08401876001600160401b03169052565b6001600160401b03851660e0840152828103610100840152615c4681856159c7565b9c9b505050505050505050505050565b84815260ff8416602082015282604082015260806060820152600061102f60808301846159c7565b85815260ff8516602082015283604082015260a060608201526000615ca660a08301856159c7565b8281036080840152615cb881856159c7565b98975050505050505050565b604051601f8201601f191681016001600160401b0381118282101715615cec57615cec615e42565b604052919050565b60006001600160401b03821115615d0d57615d0d615e42565b5060051b60200190565b60008219821115615d2a57615d2a615e2c565b500190565b60006001600160401b03808316818516808303821115615d5157615d51615e2c565b01949350505050565b600082615d7557634e487b7160e01b81526012600452602481fd5b500490565b6000816000190483118215151615615d9457615d94615e2c565b500290565b600082821015615dab57615dab615e2c565b500390565b60005b83811015615dcb578181015183820152602001615db3565b83811115612da75750506000910152565b600181811c90821680615df057607f821691505b602082108114156139ba57634e487b7160e01b600052602260045260246000fd5b6000600019821415615e2557615e25615e2c565b5060010190565b634e487b7160e01b600052601160045260246000fd5b634e487b7160e01b600052604160045260246000fd5b6001600160a01b0381168114610fc657600080fd5b8015158114610fc657600080fdfe476f7665726e6f723a2072656c617920726576657274656420776974686f7574206d657373616765476f7665726e6f723a2063616c6c20726576657274656420776974686f7574206d657373616765a2646970667358221220f62fe1c8107449b15bb4857ac7f10b4d95f1ae1f09281db801ae8e8bb50da05964736f6c63430008040033",
  "linkReferences": {},
  "deployedLinkReferences": {}
}