{
  "_format": "hh-sol-artifact-1",
  "contractName": "TokenGovernor",
  "sourceName": "contracts/TokenGovernor.sol",
  "abi": [
    {
      "inputs": [],
      "stateMutability": "nonpayable",
      "type": "constructor"
    },
    {
      "inputs": [],
      "name": "Empty",
      "type": "error"
    },
    {
      "anonymous": false,
      "inputs": [
        {
          "indexed": false,
          "internalType": "address",
          "name": "previousAdmin",
          "type": "address"
        },
        {
          "indexed": false,
          "internalType": "address",
          "name": "newAdmin",
          "type": "address"
        }
      ],
      "name": "AdminChanged",
      "type": "event"
    },
    {
      "anonymous": false,
      "inputs": [
        {
          "indexed": true,
          "internalType": "address",
          "name": "beacon",
          "type": "address"
        }
      ],
      "name": "BeaconUpgraded",
      "type": "event"
    },
    {
      "anonymous": false,
      "inputs": [
        {
          "indexed": false,
          "internalType": "uint8",
          "name": "version",
          "type": "uint8"
        }
      ],
      "name": "Initialized",
      "type": "event"
    },
    {
      "anonymous": false,
      "inputs": [
        {
          "indexed": true,
          "internalType": "address",
          "name": "previousOwner",
          "type": "address"
        },
        {
          "indexed": true,
          "internalType": "address",
          "name": "newOwner",
          "type": "address"
        }
      ],
      "name": "OwnershipTransferred",
      "type": "event"
    },
    {
      "anonymous": false,
      "inputs": [
        {
          "indexed": false,
          "internalType": "uint256",
          "name": "proposalId",
          "type": "uint256"
        }
      ],
      "name": "ProposalCanceled",
      "type": "event"
    },
    {
      "anonymous": false,
      "inputs": [
        {
          "indexed": false,
          "internalType": "uint256",
          "name": "proposalId",
          "type": "uint256"
        },
        {
          "indexed": false,
          "internalType": "address",
          "name": "proposer",
          "type": "address"
        },
        {
          "indexed": false,
          "internalType": "address[]",
          "name": "targets",
          "type": "address[]"
        },
        {
          "indexed": false,
          "internalType": "uint256[]",
          "name": "values",
          "type": "uint256[]"
        },
        {
          "indexed": false,
          "internalType": "string[]",
          "name": "signatures",
          "type": "string[]"
        },
        {
          "indexed": false,
          "internalType": "bytes[]",
          "name": "calldatas",
          "type": "bytes[]"
        },
        {
          "indexed": false,
          "internalType": "uint256",
          "name": "startBlock",
          "type": "uint256"
        },
        {
          "indexed": false,
          "internalType": "uint256",
          "name": "endBlock",
          "type": "uint256"
        },
        {
          "indexed": false,
          "internalType": "string",
          "name": "description",
          "type": "string"
        }
      ],
      "name": "ProposalCreated",
      "type": "event"
    },
    {
      "anonymous": false,
      "inputs": [
        {
          "indexed": false,
          "internalType": "uint256",
          "name": "proposalId",
          "type": "uint256"
        }
      ],
      "name": "ProposalExecuted",
      "type": "event"
    },
    {
      "anonymous": false,
      "inputs": [
        {
          "indexed": false,
          "internalType": "uint256",
          "name": "oldProposalThreshold",
          "type": "uint256"
        },
        {
          "indexed": false,
          "internalType": "uint256",
          "name": "newProposalThreshold",
          "type": "uint256"
        }
      ],
      "name": "ProposalThresholdSet",
      "type": "event"
    },
    {
      "anonymous": false,
      "inputs": [
        {
          "indexed": false,
          "internalType": "uint256",
          "name": "oldQuorumNumerator",
          "type": "uint256"
        },
        {
          "indexed": false,
          "internalType": "uint256",
          "name": "newQuorumNumerator",
          "type": "uint256"
        }
      ],
      "name": "QuorumNumeratorUpdated",
      "type": "event"
    },
    {
      "anonymous": false,
      "inputs": [
        {
          "indexed": true,
          "internalType": "address",
          "name": "implementation",
          "type": "address"
        }
      ],
      "name": "Upgraded",
      "type": "event"
    },
    {
      "anonymous": false,
      "inputs": [
        {
          "indexed": true,
          "internalType": "address",
          "name": "voter",
          "type": "address"
        },
        {
          "indexed": false,
          "internalType": "uint256",
          "name": "proposalId",
          "type": "uint256"
        },
        {
          "indexed": false,
          "internalType": "uint8",
          "name": "support",
          "type": "uint8"
        },
        {
          "indexed": false,
          "internalType": "uint256",
          "name": "weight",
          "type": "uint256"
        },
        {
          "indexed": false,
          "internalType": "string",
          "name": "reason",
          "type": "string"
        }
      ],
      "name": "VoteCast",
      "type": "event"
    },
    {
      "anonymous": false,
      "inputs": [
        {
          "indexed": true,
          "internalType": "address",
          "name": "voter",
          "type": "address"
        },
        {
          "indexed": false,
          "internalType": "uint256",
          "name": "proposalId",
          "type": "uint256"
        },
        {
          "indexed": false,
          "internalType": "uint8",
          "name": "support",
          "type": "uint8"
        },
        {
          "indexed": false,
          "internalType": "uint256",
          "name": "weight",
          "type": "uint256"
        },
        {
          "indexed": false,
          "internalType": "string",
          "name": "reason",
          "type": "string"
        },
        {
          "indexed": false,
          "internalType": "bytes",
          "name": "params",
          "type": "bytes"
        }
      ],
      "name": "VoteCastWithParams",
      "type": "event"
    },
    {
      "anonymous": false,
      "inputs": [
        {
          "indexed": false,
          "internalType": "uint256",
          "name": "oldVotingDelay",
          "type": "uint256"
        },
        {
          "indexed": false,
          "internalType": "uint256",
          "name": "newVotingDelay",
          "type": "uint256"
        }
      ],
      "name": "VotingDelaySet",
      "type": "event"
    },
    {
      "anonymous": false,
      "inputs": [
        {
          "indexed": false,
          "internalType": "uint256",
          "name": "oldVotingPeriod",
          "type": "uint256"
        },
        {
          "indexed": false,
          "internalType": "uint256",
          "name": "newVotingPeriod",
          "type": "uint256"
        }
      ],
      "name": "VotingPeriodSet",
      "type": "event"
    },
    {
      "inputs": [],
      "name": "BALLOT_TYPEHASH",
      "outputs": [
        {
          "internalType": "bytes32",
          "name": "",
          "type": "bytes32"
        }
      ],
      "stateMutability": "view",
      "type": "function"
    },
    {
      "inputs": [],
      "name": "COUNTING_MODE",
      "outputs": [
        {
          "internalType": "string",
          "name": "",
          "type": "string"
        }
      ],
      "stateMutability": "pure",
      "type": "function"
    },
    {
      "inputs": [],
      "name": "EXTENDED_BALLOT_TYPEHASH",
      "outputs": [
        {
          "internalType": "bytes32",
          "name": "",
          "type": "bytes32"
        }
      ],
      "stateMutability": "view",
      "type": "function"
    },
    {
      "inputs": [
        {
          "internalType": "contract IVotesUpgradeable",
          "name": "_token",
          "type": "address"
        }
      ],
      "name": "__Token_Governor_init",
      "outputs": [],
      "stateMutability": "nonpayable",
      "type": "function"
    },
    {
      "inputs": [
        {
          "internalType": "uint256",
          "name": "proposalId",
          "type": "uint256"
        },
        {
          "internalType": "uint8",
          "name": "support",
          "type": "uint8"
        }
      ],
      "name": "castVote",
      "outputs": [
        {
          "internalType": "uint256",
          "name": "",
          "type": "uint256"
        }
      ],
      "stateMutability": "nonpayable",
      "type": "function"
    },
    {
      "inputs": [
        {
          "internalType": "uint256",
          "name": "proposalId",
          "type": "uint256"
        },
        {
          "internalType": "uint8",
          "name": "support",
          "type": "uint8"
        },
        {
          "internalType": "uint8",
          "name": "v",
          "type": "uint8"
        },
        {
          "internalType": "bytes32",
          "name": "r",
          "type": "bytes32"
        },
        {
          "internalType": "bytes32",
          "name": "s",
          "type": "bytes32"
        }
      ],
      "name": "castVoteBySig",
      "outputs": [
        {
          "internalType": "uint256",
          "name": "",
          "type": "uint256"
        }
      ],
      "stateMutability": "nonpayable",
      "type": "function"
    },
    {
      "inputs": [
        {
          "internalType": "uint256",
          "name": "proposalId",
          "type": "uint256"
        },
        {
          "internalType": "uint8",
          "name": "support",
          "type": "uint8"
        },
        {
          "internalType": "string",
          "name": "reason",
          "type": "string"
        }
      ],
      "name": "castVoteWithReason",
      "outputs": [
        {
          "internalType": "uint256",
          "name": "",
          "type": "uint256"
        }
      ],
      "stateMutability": "nonpayable",
      "type": "function"
    },
    {
      "inputs": [
        {
          "internalType": "uint256",
          "name": "proposalId",
          "type": "uint256"
        },
        {
          "internalType": "uint8",
          "name": "support",
          "type": "uint8"
        },
        {
          "internalType": "string",
          "name": "reason",
          "type": "string"
        },
        {
          "internalType": "bytes",
          "name": "params",
          "type": "bytes"
        }
      ],
      "name": "castVoteWithReasonAndParams",
      "outputs": [
        {
          "internalType": "uint256",
          "name": "",
          "type": "uint256"
        }
      ],
      "stateMutability": "nonpayable",
      "type": "function"
    },
    {
      "inputs": [
        {
          "internalType": "uint256",
          "name": "proposalId",
          "type": "uint256"
        },
        {
          "internalType": "uint8",
          "name": "support",
          "type": "uint8"
        },
        {
          "internalType": "string",
          "name": "reason",
          "type": "string"
        },
        {
          "internalType": "bytes",
          "name": "params",
          "type": "bytes"
        },
        {
          "internalType": "uint8",
          "name": "v",
          "type": "uint8"
        },
        {
          "internalType": "bytes32",
          "name": "r",
          "type": "bytes32"
        },
        {
          "internalType": "bytes32",
          "name": "s",
          "type": "bytes32"
        }
      ],
      "name": "castVoteWithReasonAndParamsBySig",
      "outputs": [
        {
          "internalType": "uint256",
          "name": "",
          "type": "uint256"
        }
      ],
      "stateMutability": "nonpayable",
      "type": "function"
    },
    {
      "inputs": [
        {
          "internalType": "address[]",
          "name": "targets",
          "type": "address[]"
        },
        {
          "internalType": "uint256[]",
          "name": "values",
          "type": "uint256[]"
        },
        {
          "internalType": "bytes[]",
          "name": "calldatas",
          "type": "bytes[]"
        },
        {
          "internalType": "bytes32",
          "name": "descriptionHash",
          "type": "bytes32"
        }
      ],
      "name": "execute",
      "outputs": [
        {
          "internalType": "uint256",
          "name": "",
          "type": "uint256"
        }
      ],
      "stateMutability": "payable",
      "type": "function"
    },
    {
      "inputs": [
        {
          "internalType": "address",
          "name": "account",
          "type": "address"
        },
        {
          "internalType": "uint256",
          "name": "blockNumber",
          "type": "uint256"
        }
      ],
      "name": "getVotes",
      "outputs": [
        {
          "internalType": "uint256",
          "name": "",
          "type": "uint256"
        }
      ],
      "stateMutability": "view",
      "type": "function"
    },
    {
      "inputs": [
        {
          "internalType": "address",
          "name": "account",
          "type": "address"
        },
        {
          "internalType": "uint256",
          "name": "blockNumber",
          "type": "uint256"
        },
        {
          "internalType": "bytes",
          "name": "params",
          "type": "bytes"
        }
      ],
      "name": "getVotesWithParams",
      "outputs": [
        {
          "internalType": "uint256",
          "name": "",
          "type": "uint256"
        }
      ],
      "stateMutability": "view",
      "type": "function"
    },
    {
      "inputs": [
        {
          "internalType": "uint256",
          "name": "proposalId",
          "type": "uint256"
        },
        {
          "internalType": "address",
          "name": "account",
          "type": "address"
        }
      ],
      "name": "hasVoted",
      "outputs": [
        {
          "internalType": "bool",
          "name": "",
          "type": "bool"
        }
      ],
      "stateMutability": "view",
      "type": "function"
    },
    {
      "inputs": [
        {
          "internalType": "address[]",
          "name": "targets",
          "type": "address[]"
        },
        {
          "internalType": "uint256[]",
          "name": "values",
          "type": "uint256[]"
        },
        {
          "internalType": "bytes[]",
          "name": "calldatas",
          "type": "bytes[]"
        },
        {
          "internalType": "bytes32",
          "name": "descriptionHash",
          "type": "bytes32"
        }
      ],
      "name": "hashProposal",
      "outputs": [
        {
          "internalType": "uint256",
          "name": "",
          "type": "uint256"
        }
      ],
      "stateMutability": "pure",
      "type": "function"
    },
    {
      "inputs": [],
      "name": "name",
      "outputs": [
        {
          "internalType": "string",
          "name": "",
          "type": "string"
        }
      ],
      "stateMutability": "view",
      "type": "function"
    },
    {
      "inputs": [
        {
          "internalType": "address",
          "name": "",
          "type": "address"
        },
        {
          "internalType": "address",
          "name": "",
          "type": "address"
        },
        {
          "internalType": "uint256[]",
          "name": "",
          "type": "uint256[]"
        },
        {
          "internalType": "uint256[]",
          "name": "",
          "type": "uint256[]"
        },
        {
          "internalType": "bytes",
          "name": "",
          "type": "bytes"
        }
      ],
      "name": "onERC1155BatchReceived",
      "outputs": [
        {
          "internalType": "bytes4",
          "name": "",
          "type": "bytes4"
        }
      ],
      "stateMutability": "nonpayable",
      "type": "function"
    },
    {
      "inputs": [
        {
          "internalType": "address",
          "name": "",
          "type": "address"
        },
        {
          "internalType": "address",
          "name": "",
          "type": "address"
        },
        {
          "internalType": "uint256",
          "name": "",
          "type": "uint256"
        },
        {
          "internalType": "uint256",
          "name": "",
          "type": "uint256"
        },
        {
          "internalType": "bytes",
          "name": "",
          "type": "bytes"
        }
      ],
      "name": "onERC1155Received",
      "outputs": [
        {
          "internalType": "bytes4",
          "name": "",
          "type": "bytes4"
        }
      ],
      "stateMutability": "nonpayable",
      "type": "function"
    },
    {
      "inputs": [
        {
          "internalType": "address",
          "name": "",
          "type": "address"
        },
        {
          "internalType": "address",
          "name": "",
          "type": "address"
        },
        {
          "internalType": "uint256",
          "name": "",
          "type": "uint256"
        },
        {
          "internalType": "bytes",
          "name": "",
          "type": "bytes"
        }
      ],
      "name": "onERC721Received",
      "outputs": [
        {
          "internalType": "bytes4",
          "name": "",
          "type": "bytes4"
        }
      ],
      "stateMutability": "nonpayable",
      "type": "function"
    },
    {
      "inputs": [],
      "name": "owner",
      "outputs": [
        {
          "internalType": "address",
          "name": "",
          "type": "address"
        }
      ],
      "stateMutability": "view",
      "type": "function"
    },
    {
      "inputs": [
        {
          "internalType": "uint256",
          "name": "proposalId",
          "type": "uint256"
        }
      ],
      "name": "proposalDeadline",
      "outputs": [
        {
          "internalType": "uint256",
          "name": "",
          "type": "uint256"
        }
      ],
      "stateMutability": "view",
      "type": "function"
    },
    {
      "inputs": [
        {
          "internalType": "uint256",
          "name": "proposalId",
          "type": "uint256"
        }
      ],
      "name": "proposalSnapshot",
      "outputs": [
        {
          "internalType": "uint256",
          "name": "",
          "type": "uint256"
        }
      ],
      "stateMutability": "view",
      "type": "function"
    },
    {
      "inputs": [],
      "name": "proposalThreshold",
      "outputs": [
        {
          "internalType": "uint256",
          "name": "",
          "type": "uint256"
        }
      ],
      "stateMutability": "view",
      "type": "function"
    },
    {
      "inputs": [
        {
          "internalType": "uint256",
          "name": "proposalId",
          "type": "uint256"
        }
      ],
      "name": "proposalVotes",
      "outputs": [
        {
          "internalType": "uint256",
          "name": "againstVotes",
          "type": "uint256"
        },
        {
          "internalType": "uint256",
          "name": "forVotes",
          "type": "uint256"
        },
        {
          "internalType": "uint256",
          "name": "abstainVotes",
          "type": "uint256"
        }
      ],
      "stateMutability": "view",
      "type": "function"
    },
    {
      "inputs": [
        {
          "internalType": "address[]",
          "name": "targets",
          "type": "address[]"
        },
        {
          "internalType": "uint256[]",
          "name": "values",
          "type": "uint256[]"
        },
        {
          "internalType": "bytes[]",
          "name": "calldatas",
          "type": "bytes[]"
        },
        {
          "internalType": "string",
          "name": "description",
          "type": "string"
        }
      ],
      "name": "propose",
      "outputs": [
        {
          "internalType": "uint256",
          "name": "",
          "type": "uint256"
        }
      ],
      "stateMutability": "nonpayable",
      "type": "function"
    },
    {
      "inputs": [],
      "name": "proxiableUUID",
      "outputs": [
        {
          "internalType": "bytes32",
          "name": "",
          "type": "bytes32"
        }
      ],
      "stateMutability": "view",
      "type": "function"
    },
    {
      "inputs": [
        {
          "internalType": "uint256",
          "name": "blockNumber",
          "type": "uint256"
        }
      ],
      "name": "quorum",
      "outputs": [
        {
          "internalType": "uint256",
          "name": "",
          "type": "uint256"
        }
      ],
      "stateMutability": "view",
      "type": "function"
    },
    {
      "inputs": [],
      "name": "quorumDenominator",
      "outputs": [
        {
          "internalType": "uint256",
          "name": "",
          "type": "uint256"
        }
      ],
      "stateMutability": "view",
      "type": "function"
    },
    {
      "inputs": [
        {
          "internalType": "uint256",
          "name": "blockNumber",
          "type": "uint256"
        }
      ],
      "name": "quorumNumerator",
      "outputs": [
        {
          "internalType": "uint256",
          "name": "",
          "type": "uint256"
        }
      ],
      "stateMutability": "view",
      "type": "function"
    },
    {
      "inputs": [],
      "name": "quorumNumerator",
      "outputs": [
        {
          "internalType": "uint256",
          "name": "",
          "type": "uint256"
        }
      ],
      "stateMutability": "view",
      "type": "function"
    },
    {
      "inputs": [
        {
          "internalType": "address",
          "name": "target",
          "type": "address"
        },
        {
          "internalType": "uint256",
          "name": "value",
          "type": "uint256"
        },
        {
          "internalType": "bytes",
          "name": "data",
          "type": "bytes"
        }
      ],
      "name": "relay",
      "outputs": [],
      "stateMutability": "payable",
      "type": "function"
    },
    {
      "inputs": [],
      "name": "renounceOwnership",
      "outputs": [],
      "stateMutability": "nonpayable",
      "type": "function"
    },
    {
      "inputs": [
        {
          "internalType": "uint256",
          "name": "newProposalThreshold",
          "type": "uint256"
        }
      ],
      "name": "setProposalThreshold",
      "outputs": [],
      "stateMutability": "nonpayable",
      "type": "function"
    },
    {
      "inputs": [
        {
          "internalType": "uint256",
          "name": "newVotingDelay",
          "type": "uint256"
        }
      ],
      "name": "setVotingDelay",
      "outputs": [],
      "stateMutability": "nonpayable",
      "type": "function"
    },
    {
      "inputs": [
        {
          "internalType": "uint256",
          "name": "newVotingPeriod",
          "type": "uint256"
        }
      ],
      "name": "setVotingPeriod",
      "outputs": [],
      "stateMutability": "nonpayable",
      "type": "function"
    },
    {
      "inputs": [
        {
          "internalType": "uint256",
          "name": "proposalId",
          "type": "uint256"
        }
      ],
      "name": "state",
      "outputs": [
        {
          "internalType": "enum IGovernorUpgradeable.ProposalState",
          "name": "",
          "type": "uint8"
        }
      ],
      "stateMutability": "view",
      "type": "function"
    },
    {
      "inputs": [
        {
          "internalType": "bytes4",
          "name": "interfaceId",
          "type": "bytes4"
        }
      ],
      "name": "supportsInterface",
      "outputs": [
        {
          "internalType": "bool",
          "name": "",
          "type": "bool"
        }
      ],
      "stateMutability": "view",
      "type": "function"
    },
    {
      "inputs": [],
      "name": "token",
      "outputs": [
        {
          "internalType": "contract IVotesUpgradeable",
          "name": "",
          "type": "address"
        }
      ],
      "stateMutability": "view",
      "type": "function"
    },
    {
      "inputs": [
        {
          "internalType": "address",
          "name": "newOwner",
          "type": "address"
        }
      ],
      "name": "transferOwnership",
      "outputs": [],
      "stateMutability": "nonpayable",
      "type": "function"
    },
    {
      "inputs": [
        {
          "internalType": "uint256",
          "name": "newQuorumNumerator",
          "type": "uint256"
        }
      ],
      "name": "updateQuorumNumerator",
      "outputs": [],
      "stateMutability": "nonpayable",
      "type": "function"
    },
    {
      "inputs": [
        {
          "internalType": "address",
          "name": "newImplementation",
          "type": "address"
        }
      ],
      "name": "upgradeTo",
      "outputs": [],
      "stateMutability": "nonpayable",
      "type": "function"
    },
    {
      "inputs": [
        {
          "internalType": "address",
          "name": "newImplementation",
          "type": "address"
        },
        {
          "internalType": "bytes",
          "name": "data",
          "type": "bytes"
        }
      ],
      "name": "upgradeToAndCall",
      "outputs": [],
      "stateMutability": "payable",
      "type": "function"
    },
    {
      "inputs": [],
      "name": "version",
      "outputs": [
        {
          "internalType": "string",
          "name": "",
          "type": "string"
        }
      ],
      "stateMutability": "view",
      "type": "function"
    },
    {
      "inputs": [],
      "name": "votingDelay",
      "outputs": [
        {
          "internalType": "uint256",
          "name": "",
          "type": "uint256"
        }
      ],
      "stateMutability": "view",
      "type": "function"
    },
    {
      "inputs": [],
      "name": "votingPeriod",
      "outputs": [
        {
          "internalType": "uint256",
          "name": "",
          "type": "uint256"
        }
      ],
      "stateMutability": "view",
      "type": "function"
    },
    {
      "stateMutability": "payable",
      "type": "receive"
    }
  ],
  "bytecode": "0x60a06040523060601b6080523480156200001857600080fd5b50600054610100900460ff16158080156200003a5750600054600160ff909116105b806200006a575062000057306200014460201b620017be1760201c565b1580156200006a575060005460ff166001145b620000d25760405162461bcd60e51b815260206004820152602e60248201527f496e697469616c697a61626c653a20636f6e747261637420697320616c72656160448201526d191e481a5b9a5d1a585b1a5e995960921b606482015260840160405180910390fd5b6000805460ff191660011790558015620000f6576000805461ff0019166101001790555b80156200013d576000805461ff0019169055604051600181527f7f26b83ff96e1f2b6a682f133852f6798a09c465da95921460cefb38474024989060200160405180910390a15b5062000153565b6001600160a01b03163b151590565b60805160601c61418f6200018e60003960008181610db201528181610df201528181610f1b01528181610f5b0152610fea015261418f6000f3fe60806040526004361061026b5760003560e01c806370b0f66011610144578063c28bc2fa116100b6578063eb9019d41161007a578063eb9019d4146107f2578063ece40cc114610812578063f23a6e6114610832578063f2fde38b1461085e578063f8ce560a1461087e578063fc0c546a1461089e57600080fd5b8063c28bc2fa14610725578063c59057e414610738578063dd4e2ba514610758578063deaaa7cc1461079e578063ea0217cf146107d257600080fd5b806397c3d3341161010857806397c3d3341461067b5780639a802a6d1461068f578063a7713a70146106af578063b58131b0146106c4578063bc197c81146106d9578063c01f9e371461070557600080fd5b806370b0f660146105d3578063715018a6146105f35780637b3c71d3146106085780637d5e81e2146106285780638da5cb5b1461064857600080fd5b80633932abb1116101dd57806352d1902d116101a157806352d1902d146104de578063544ffc9c146104f357806354fd4d501461054957806356781388146105735780635f398a141461059357806360c4247f146105b357600080fd5b80633932abb11461041e5780633bccf4fd146104335780633e4f49e61461045357806343859632146104805780634f1ef286146104cb57600080fd5b8063150b7a021161022f578063150b7a021461033357806317a38676146103775780632656227d146103975780632d63f693146103aa5780632fe3e261146103ca5780633659cfe6146103fe57600080fd5b806301ffc9a71461027957806302a251a3146102ae57806303420181146102d157806306f3f9e6146102f157806306fdde031461031157600080fd5b3661027457005b005b600080fd5b34801561028557600080fd5b5061029961029436600461388a565b6108c4565b60405190151581526020015b60405180910390f35b3480156102ba57600080fd5b506102c36108d5565b6040519081526020016102a5565b3480156102dd57600080fd5b506102c36102ec3660046139c9565b6108e0565b3480156102fd57600080fd5b5061027261030c3660046138b2565b6109d8565b34801561031d57600080fd5b50610326610a28565b6040516102a59190613c4a565b34801561033f57600080fd5b5061035e61034e366004613543565b630a85bd0160e11b949350505050565b6040516001600160e01b031990911681526020016102a5565b34801561038357600080fd5b5061027261039236600461347e565b610aba565b6102c36103a5366004613739565b610c28565b3480156103b657600080fd5b506102c36103c53660046138b2565b610d70565b3480156103d657600080fd5b506102c37fb3b3f3b703cd84ce352197dcff232b1b5d3cfb2025ce47cf04742d0651f1af8881565b34801561040a57600080fd5b5061027261041936600461347e565b610da7565b34801561042a57600080fd5b506102c3610e84565b34801561043f57600080fd5b506102c361044e366004613a6c565b610e8f565b34801561045f57600080fd5b5061047361046e3660046138b2565b610f05565b6040516102a59190613c22565b34801561048c57600080fd5b5061029961049b3660046138ca565b600082815261012f602090815260408083206001600160a01b038516845260030190915290205460ff1692915050565b6102726104d9366004613612565b610f10565b3480156104ea57600080fd5b506102c3610fdd565b3480156104ff57600080fd5b5061052e61050e3660046138b2565b600090815261012f60205260409020805460018201546002909201549092565b604080519384526020840192909252908201526060016102a5565b34801561055557600080fd5b506040805180820190915260018152603160f81b6020820152610326565b34801561057f57600080fd5b506102c361058e3660046138f9565b611090565b34801561059f57600080fd5b506102c36105ae366004613963565b6110b9565b3480156105bf57600080fd5b506102c36105ce3660046138b2565b611103565b3480156105df57600080fd5b506102726105ee3660046138b2565b6111aa565b3480156105ff57600080fd5b506102726111ee565b34801561061457600080fd5b506102c3610623366004613924565b611202565b34801561063457600080fd5b506102c36106433660046137c4565b611254565b34801561065457600080fd5b506101c6546001600160a01b03165b6040516001600160a01b0390911681526020016102a5565b34801561068757600080fd5b5060646102c3565b34801561069b57600080fd5b506102c36106aa3660046136e3565b611525565b3480156106bb57600080fd5b506102c361153c565b3480156106d057600080fd5b506102c3611569565b3480156106e557600080fd5b5061035e6106f436600461349a565b63bc197c8160e01b95945050505050565b34801561071157600080fd5b506102c36107203660046138b2565b611574565b61027261073336600461368a565b6115a3565b34801561074457600080fd5b506102c3610753366004613739565b61166f565b34801561076457600080fd5b506040805180820190915260208082527f737570706f72743d627261766f2671756f72756d3d666f722c6162737461696e90820152610326565b3480156107aa57600080fd5b506102c37f150214d74d59b7d1e90c73fc22ef3d991dd0a76b046543d4d80ab92d2a50328f81565b3480156107de57600080fd5b506102726107ed3660046138b2565b6116a9565b3480156107fe57600080fd5b506102c361080d36600461365f565b6116ed565b34801561081e57600080fd5b5061027261082d3660046138b2565b6116f9565b34801561083e57600080fd5b5061035e61084d3660046135ac565b63f23a6e6160e01b95945050505050565b34801561086a57600080fd5b5061027261087936600461347e565b61173d565b34801561088a57600080fd5b506102c36108993660046138b2565b6117b3565b3480156108aa57600080fd5b5061016154610663906001600160a01b031681565b905090565b60006108cf826117cd565b92915050565b60006108bf60fe5490565b60008061098461097c7fb3b3f3b703cd84ce352197dcff232b1b5d3cfb2025ce47cf04742d0651f1af888c8c8c8c60405161091c929190613bab565b60405180910390208b80519060200120604051602001610961959493929190948552602085019390935260ff9190911660408401526060830152608082015260a00190565b60405160208183030381529060405280519060200120611838565b868686611886565b90506109ca8a828b8b8b8080601f0160208091040260200160405190810160405280939291908181526020018383808284376000920191909152508d92506118a4915050565b9a9950505050505050505050565b333014610a005760405162461bcd60e51b81526004016109f790613c5d565b60405180910390fd5b610a1c565b80610a1060cd611a13565b14610a1a57610a05565b505b610a2581611a9f565b50565b606060cb8054610a379061402c565b80601f0160208091040260200160405190810160405280929190818152602001828054610a639061402c565b8015610ab05780601f10610a8557610100808354040283529160200191610ab0565b820191906000526020600020905b815481529060010190602001808311610a9357829003601f168201915b5050505050905090565b600054610100900460ff1615808015610ada5750600054600160ff909116105b80610af45750303b158015610af4575060005460ff166001145b610b575760405162461bcd60e51b815260206004820152602e60248201527f496e697469616c697a61626c653a20636f6e747261637420697320616c72656160448201526d191e481a5b9a5d1a585b1a5e995960921b60648201526084016109f7565b6000805460ff191660011790558015610b7a576000805461ff0019166101001790555b610ba36040518060400160405280600881526020016723b7bb32b93737b960c11b815250611be7565b610bb260016000196000611c3e565b610bba611c75565b610bc382611c9c565b610bcd6000611ccc565b610bd5611cfc565b610bdd611c75565b8015610c24576000805461ff0019169055604051600181527f7f26b83ff96e1f2b6a682f133852f6798a09c465da95921460cefb3847402498906020015b60405180910390a15b5050565b600080610c378686868661166f565b90506000610c4482610f05565b90506004816007811115610c6857634e487b7160e01b600052602160045260246000fd5b1480610c9357506005816007811115610c9157634e487b7160e01b600052602160045260246000fd5b145b610ce95760405162461bcd60e51b815260206004820152602160248201527f476f7665726e6f723a2070726f706f73616c206e6f74207375636365737366756044820152601b60fa1b60648201526084016109f7565b600082815260cc602052604090819020600201805460ff19166001179055517f712ae1383f79ac853f8d882153778e0260ef8f03b504e2866e0593e04d2b291f90610d379084815260200190565b60405180910390a1610d4c8288888888611d2b565b610d598288888888611dd5565b610d668288888888611d2b565b5095945050505050565b600081815260cc602090815260408083208151928301909152546001600160401b0316908190525b6001600160401b031692915050565b306001600160a01b037f0000000000000000000000000000000000000000000000000000000000000000161415610df05760405162461bcd60e51b81526004016109f790613cd5565b7f00000000000000000000000000000000000000000000000000000000000000006001600160a01b0316610e39600080516020614113833981519152546001600160a01b031690565b6001600160a01b031614610e5f5760405162461bcd60e51b81526004016109f790613d21565b610e6881611de2565b60408051600080825260208201909252610a2591839190611dea565b60006108bf60fd5490565b604080517f150214d74d59b7d1e90c73fc22ef3d991dd0a76b046543d4d80ab92d2a50328f602082015290810186905260ff851660608201526000908190610edd9061097c90608001610961565b9050610efa87828860405180602001604052806000815250611f64565b979650505050505050565b60006108cf82611f90565b306001600160a01b037f0000000000000000000000000000000000000000000000000000000000000000161415610f595760405162461bcd60e51b81526004016109f790613cd5565b7f00000000000000000000000000000000000000000000000000000000000000006001600160a01b0316610fa2600080516020614113833981519152546001600160a01b031690565b6001600160a01b031614610fc85760405162461bcd60e51b81526004016109f790613d21565b610fd182611de2565b610c2482826001611dea565b6000306001600160a01b037f0000000000000000000000000000000000000000000000000000000000000000161461107d5760405162461bcd60e51b815260206004820152603860248201527f555550535570677261646561626c653a206d757374206e6f742062652063616c60448201527f6c6564207468726f7567682064656c656761746563616c6c000000000000000060648201526084016109f7565b5060008051602061411383398151915290565b6000803390506110b184828560405180602001604052806000815250611f64565b949350505050565b600080339050610efa87828888888080601f0160208091040260200160405190810160405280939291908181526020018383808284376000920191909152508a92506118a4915050565b610195546000908061111a57505061019454919050565b600061019561112a600184613fe9565b8154811061114857634e487b7160e01b600052603260045260246000fd5b60009182526020918290206040805180820190915291015463ffffffff8116808352600160201b9091046001600160e01b0316928201929092529150841061119e57602001516001600160e01b03169392505050565b6110b16101958561208d565b3330146111c95760405162461bcd60e51b81526004016109f790613c5d565b6111e5565b806111d960cd611a13565b146111e3576111ce565b505b610a258161214d565b6111f661218e565b61120060006121e9565b565b60008033905061124a86828787878080601f016020809104026020016040519081016040528093929190818152602001838380828437600092019190915250611f6492505050565b9695505050505050565b600061125e611569565b61126d3361080d600143613fe9565b10156112d55760405162461bcd60e51b815260206004820152603160248201527f476f7665726e6f723a2070726f706f73657220766f7465732062656c6f7720706044820152701c9bdc1bdcd85b081d1a1c995cda1bdb19607a1b60648201526084016109f7565b60006112ea868686868051906020012061166f565b9050845186511461130d5760405162461bcd60e51b81526004016109f790613c94565b835186511461132e5760405162461bcd60e51b81526004016109f790613c94565b600086511161137f5760405162461bcd60e51b815260206004820152601860248201527f476f7665726e6f723a20656d7074792070726f706f73616c000000000000000060448201526064016109f7565b600081815260cc6020908152604091829020825191820190925281546001600160401b031690819052156113ff5760405162461bcd60e51b815260206004820152602160248201527f476f7665726e6f723a2070726f706f73616c20616c72656164792065786973746044820152607360f81b60648201526084016109f7565b600061141161140c610e84565b61223c565b61141a4361223c565b6114249190613f7f565b9050600061143361140c6108d5565b61143d9083613f7f565b835467ffffffffffffffff19166001600160401b038416178455905060018301805467ffffffffffffffff19166001600160401b0383161790557f7d84a6263ae0d98d3329bd7b46bb4e8d6f98cd35a7adb45c274c8b7fd5ebd5e084338b8b8d516001600160401b038111156114c357634e487b7160e01b600052604160045260246000fd5b6040519080825280602002602001820160405280156114f657816020015b60608152602001906001900390816114e15790505b508c88888e60405161151099989796959493929190613db8565b60405180910390a15091979650505050505050565b60006115328484846122a8565b90505b9392505050565b61019554600090156115615761155361019561232e565b6001600160e01b0316905090565b506101945490565b60006108bf60ff5490565b600081815260cc602090815260408083208151928301909152600101546001600160401b031690819052610d98565b3330146115c25760405162461bcd60e51b81526004016109f790613c5d565b6115de565b806115d260cd611a13565b146115dc576115c7565b505b600080856001600160a01b03168585856040516115fc929190613bab565b60006040518083038185875af1925050503d8060008114611639576040519150601f19603f3d011682016040523d82523d6000602084013e61163e565b606091505b509150915061166682826040518060600160405280602881526020016140c460289139612367565b50505050505050565b6000848484846040516020016116889493929190613bd7565b60408051601f19818403018152919052805160209091012095945050505050565b3330146116c85760405162461bcd60e51b81526004016109f790613c5d565b6116e4565b806116d860cd611a13565b146116e2576116cd565b505b610a2581612380565b60006115358383612421565b3330146117185760405162461bcd60e51b81526004016109f790613c5d565b611734565b8061172860cd611a13565b146117325761171d565b505b610a2581612442565b61174561218e565b6001600160a01b0381166117aa5760405162461bcd60e51b815260206004820152602660248201527f4f776e61626c653a206e6577206f776e657220697320746865207a65726f206160448201526564647265737360d01b60648201526084016109f7565b610a25816121e9565b60006108cf82612483565b6001600160a01b03163b151590565b60006001600160e01b0319821663bf26d89760e01b14806117fe57506001600160e01b031982166379dd796f60e01b145b8061181957506001600160e01b03198216630271189760e51b145b806108cf57506301ffc9a760e01b6001600160e01b03198316146108cf565b60006108cf611845612521565b8360405161190160f01b6020820152602281018390526042810182905260009060620160405160208183030381529060405280519060200120905092915050565b60008060006118978787878761259c565b91509150610d6681612660565b600085815260cc6020526040812060016118bd88610f05565b60078111156118dc57634e487b7160e01b600052602160045260246000fd5b146119355760405162461bcd60e51b815260206004820152602360248201527f476f7665726e6f723a20766f7465206e6f742063757272656e746c792061637460448201526269766560e81b60648201526084016109f7565b604080516020810190915281546001600160401b03169081905260009061195e908890866122a8565b905061196d88888884886127e6565b83516119bf57866001600160a01b03167fb8e138887d0aa13bab447e82de9d5c1777041ecd21ca36ba824ff1e6c07ddda4898884896040516119b29493929190613ea6565b60405180910390a2610efa565b866001600160a01b03167fe2babfbac5889a709b63bb7f598b324e08bc5a4fb9ec647fb3cbc9ec07eb87128988848989604051611a00959493929190613ece565b60405180910390a2979650505050505050565b6000611a328254600f81810b810b600160801b909204810b900b131590565b15611a5057604051631ed9509560e11b815260040160405180910390fd5b508054600f90810b80820b820b600090815260018085016020526040822080549290558454920190920b6001600160801b03166fffffffffffffffffffffffffffffffff199091161790915590565b6064811115611b225760405162461bcd60e51b815260206004820152604360248201527f476f7665726e6f72566f74657351756f72756d4672616374696f6e3a2071756f60448201527f72756d4e756d657261746f72206f7665722071756f72756d44656e6f6d696e616064820152623a37b960e91b608482015260a4016109f7565b6000611b2c61153c565b90508015801590611b3e575061019554155b15611ba35760408051808201909152600081526101959060208101611b62846127f3565b6001600160e01b039081169091528254600181018455600093845260209384902083519490930151909116600160201b0263ffffffff909316929092179101555b611baf6101958361285c565b505060408051828152602081018490527f0553476bf02ef2726e8ce5ced78d63e26e602e4a2257b1f559418e24b46339979101610c1b565b600054610100900460ff16611c0e5760405162461bcd60e51b81526004016109f790613d6d565b611c3581611c306040805180820190915260018152603160f81b602082015290565b612892565b610a25816128d3565b600054610100900460ff16611c655760405162461bcd60e51b81526004016109f790613d6d565b611c7083838361290d565b505050565b600054610100900460ff166112005760405162461bcd60e51b81526004016109f790613d6d565b600054610100900460ff16611cc35760405162461bcd60e51b81526004016109f790613d6d565b610a258161294f565b600054610100900460ff16611cf35760405162461bcd60e51b81526004016109f790613d6d565b610a2581612999565b600054610100900460ff16611d235760405162461bcd60e51b81526004016109f790613d6d565b6112006129c0565b611dce565b8451811015611dcc57306001600160a01b0316858281518110611d6357634e487b7160e01b600052603260045260246000fd5b60200260200101516001600160a01b03161415611dbc57611dbc838281518110611d9d57634e487b7160e01b600052603260045260246000fd5b60200260200101518051906020012060cd6129f090919063ffffffff16565b611dc581614067565b9050611d30565b505b5050505050565b611dce8585858585612a36565b610a2561218e565b7f4910fdfa16fed3260ed0e7147f7cc6da11a60208b5b9406d12a635614ffd91435460ff1615611e1d57611c7083612b56565b826001600160a01b03166352d1902d6040518163ffffffff1660e01b815260040160206040518083038186803b158015611e5657600080fd5b505afa925050508015611e86575060408051601f3d908101601f19168201909252611e8391810190613872565b60015b611ee95760405162461bcd60e51b815260206004820152602e60248201527f45524331393637557067726164653a206e657720696d706c656d656e7461746960448201526d6f6e206973206e6f74205555505360901b60648201526084016109f7565b6000805160206141138339815191528114611f585760405162461bcd60e51b815260206004820152602960248201527f45524331393637557067726164653a20756e737570706f727465642070726f786044820152681a58589b195555525160ba1b60648201526084016109f7565b50611c70838383612bf2565b6000611f8785858585611f8260408051602081019091526000815290565b6118a4565b95945050505050565b600081815260cc60205260408120600281015460ff1615611fb45750600792915050565b6002810154610100900460ff1615611fcf5750600292915050565b6000611fda84610d70565b9050806120295760405162461bcd60e51b815260206004820152601d60248201527f476f7665726e6f723a20756e6b6e6f776e2070726f706f73616c20696400000060448201526064016109f7565b43811061203a575060009392505050565b600061204585611574565b905043811061205957506001949350505050565b61206285612c1d565b8015612072575061207285612c55565b1561208257506004949350505050565b506003949350505050565b60004382106120de5760405162461bcd60e51b815260206004820181905260248201527f436865636b706f696e74733a20626c6f636b206e6f7420796574206d696e656460448201526064016109f7565b60006120e983612c72565b845490915060006120fc86848385612cd7565b905080156121375761212186612113600184613fe9565b600091825260209091200190565b54600160201b90046001600160e01b031661213a565b60005b6001600160e01b03169695505050505050565b60fd5460408051918252602082018390527fc565b045403dc03c2eea82b81a0465edad9e2e7fc4d97e11421c209da93d7a93910160405180910390a160fd55565b6101c6546001600160a01b031633146112005760405162461bcd60e51b815260206004820181905260248201527f4f776e61626c653a2063616c6c6572206973206e6f7420746865206f776e657260448201526064016109f7565b6101c680546001600160a01b038381166001600160a01b0319831681179093556040519116919082907f8be0079c531659141344cd1fd0a4f28419497f9722a3daafe3b4186f6b6457e090600090a35050565b60006001600160401b038211156122a45760405162461bcd60e51b815260206004820152602660248201527f53616665436173743a2076616c756520646f65736e27742066697420696e203660448201526534206269747360d01b60648201526084016109f7565b5090565b61016154604051630748d63560e31b81526001600160a01b038581166004830152602482018590526000921690633a46b1a89060440160206040518083038186803b1580156122f657600080fd5b505afa15801561230a573d6000803e3d6000fd5b505050506040513d601f19601f820116820180604052508101906115329190613872565b8054600090801561235e5761234883612113600184613fe9565b54600160201b90046001600160e01b0316611535565b60009392505050565b60608315612376575081611535565b6115358383612d35565b600081116123e05760405162461bcd60e51b815260206004820152602760248201527f476f7665726e6f7253657474696e67733a20766f74696e6720706572696f6420604482015266746f6f206c6f7760c81b60648201526084016109f7565b60fe5460408051918252602082018390527f7e3f7f0708a84de9203036abaa450dccc85ad5ff52f78c170f3edb55cf5e8828910160405180910390a160fe55565b6000611535838361243d60408051602081019091526000815290565b6122a8565b60ff5460408051918252602082018390527fccb45da8d5717e6c4544694297c4ba5cf151d455c9bb0ed4fc7a38411bc05461910160405180910390a160ff55565b6000606461249083611103565b61016154604051632394e7a360e21b8152600481018690526001600160a01b0390911690638e539e8c9060240160206040518083038186803b1580156124d557600080fd5b505afa1580156124e9573d6000803e3d6000fd5b505050506040513d601f19601f8201168201806040525081019061250d9190613872565b6125179190613fca565b6108cf9190613faa565b60006108bf7f8b73c3c69bb8fe3d512ecc4cf759cc79239f7b179b0ffacaa9a75d522b39400f61255060655490565b6066546040805160208101859052908101839052606081018290524660808201523060a082015260009060c0016040516020818303038152906040528051906020012090509392505050565b6000807f7fffffffffffffffffffffffffffffff5d576e7357a4501ddfe92f46681b20a08311156125d35750600090506003612657565b6040805160008082526020820180845289905260ff881692820192909252606081018690526080810185905260019060a0016020604051602081039080840390855afa158015612627573d6000803e3d6000fd5b5050604051601f1901519150506001600160a01b03811661265057600060019250925050612657565b9150600090505b94509492505050565b600081600481111561268257634e487b7160e01b600052602160045260246000fd5b141561268b5750565b60018160048111156126ad57634e487b7160e01b600052602160045260246000fd5b14156126fb5760405162461bcd60e51b815260206004820152601860248201527f45434453413a20696e76616c6964207369676e6174757265000000000000000060448201526064016109f7565b600281600481111561271d57634e487b7160e01b600052602160045260246000fd5b141561276b5760405162461bcd60e51b815260206004820152601f60248201527f45434453413a20696e76616c6964207369676e6174757265206c656e6774680060448201526064016109f7565b600381600481111561278d57634e487b7160e01b600052602160045260246000fd5b1415610a255760405162461bcd60e51b815260206004820152602260248201527f45434453413a20696e76616c6964207369676e6174757265202773272076616c604482015261756560f01b60648201526084016109f7565b611dce8585858585612d5f565b60006001600160e01b038211156122a45760405162461bcd60e51b815260206004820152602760248201527f53616665436173743a2076616c756520646f65736e27742066697420696e20326044820152663234206269747360c81b60648201526084016109f7565b60008061287a8461286c43612c72565b612875866127f3565b612edf565b6001600160e01b0391821693501690505b9250929050565b600054610100900460ff166128b95760405162461bcd60e51b81526004016109f790613d6d565b815160209283012081519190920120606591909155606655565b600054610100900460ff166128fa5760405162461bcd60e51b81526004016109f790613d6d565b8051610c249060cb9060208401906131cf565b600054610100900460ff166129345760405162461bcd60e51b81526004016109f790613d6d565b61293d8361214d565b61294682612380565b611c7081612442565b600054610100900460ff166129765760405162461bcd60e51b81526004016109f790613d6d565b61016180546001600160a01b0319166001600160a01b0392909216919091179055565b600054610100900460ff16610a1c5760405162461bcd60e51b81526004016109f790613d6d565b600054610100900460ff166129e75760405162461bcd60e51b81526004016109f790613d6d565b611200336121e9565b8154600160801b90819004600f90810b80820b820b6000908152600180870160205260409091209490945584549301900b6001600160801b039081169091029116179055565b60006040518060600160405280602781526020016140ec60279139905060005b855181101561166657600080878381518110612a8257634e487b7160e01b600052603260045260246000fd5b60200260200101516001600160a01b0316878481518110612ab357634e487b7160e01b600052603260045260246000fd5b6020026020010151878581518110612adb57634e487b7160e01b600052603260045260246000fd5b6020026020010151604051612af09190613bbb565b60006040518083038185875af1925050503d8060008114612b2d576040519150601f19603f3d011682016040523d82523d6000602084013e612b32565b606091505b5091509150612b42828286612367565b50505080612b4f90614067565b9050612a56565b6001600160a01b0381163b612bc35760405162461bcd60e51b815260206004820152602d60248201527f455243313936373a206e657720696d706c656d656e746174696f6e206973206e60448201526c1bdd08184818dbdb9d1c9858dd609a1b60648201526084016109f7565b60008051602061411383398151915280546001600160a01b0319166001600160a01b0392909216919091179055565b612bfb83613089565b600082511180612c085750805b15611c7057612c1783836130c9565b50505050565b600081815261012f6020526040812060028101546001820154612c409190613f67565b612c4c61089985610d70565b11159392505050565b600081815261012f602052604081208054600190910154116108cf565b600063ffffffff8211156122a45760405162461bcd60e51b815260206004820152602660248201527f53616665436173743a2076616c756520646f65736e27742066697420696e203360448201526532206269747360d01b60648201526084016109f7565b60005b81831015612d2d576000612cee84846131b4565b60008781526020902090915063ffffffff86169082015463ffffffff161115612d1957809250612d27565b612d24816001613f67565b93505b50612cda565b509392505050565b815115612d455781518083602001fd5b8060405162461bcd60e51b81526004016109f79190613c4a565b600085815261012f602090815260408083206001600160a01b0388168452600381019092529091205460ff1615612de85760405162461bcd60e51b815260206004820152602760248201527f476f7665726e6f72566f74696e6753696d706c653a20766f746520616c726561604482015266191e4818d85cdd60ca1b60648201526084016109f7565b6001600160a01b03851660009081526003820160205260408120805460ff1916600117905560ff168460ff161415612e395782816000016000828254612e2e9190613f67565b90915550611dcc9050565b60ff841660011415612e595782816001016000828254612e2e9190613f67565b60ff841660021415612e795782816002016000828254612e2e9190613f67565b60405162461bcd60e51b815260206004820152603560248201527f476f7665726e6f72566f74696e6753696d706c653a20696e76616c69642076616044820152746c756520666f7220656e756d20566f74655479706560581b60648201526084016109f7565b82546000908190801561302c576000612efd87612113600185613fe9565b60408051808201909152905463ffffffff808216808452600160201b9092046001600160e01b031660208401529192509087161015612f7e5760405162461bcd60e51b815260206004820152601760248201527f436865636b706f696e743a20696e76616c6964206b657900000000000000000060448201526064016109f7565b8563ffffffff16816000015163ffffffff161415612fcd5784612fa688612113600186613fe9565b80546001600160e01b0392909216600160201b0263ffffffff90921691909117905561301c565b6040805180820190915263ffffffff80881682526001600160e01b0380881660208085019182528b54600181018d5560008d81529190912094519151909216600160201b029216919091179101555b6020015192508391506130819050565b50506040805180820190915263ffffffff80851682526001600160e01b0380851660208085019182528854600181018a5560008a815291822095519251909316600160201b0291909316179201919091559050815b935093915050565b61309281612b56565b6040516001600160a01b038216907fbc7cd75a20ee27fd9adebab32041f755214dbc6bffa90cc0225b39da2e5c2d3b90600090a250565b60606001600160a01b0383163b6131315760405162461bcd60e51b815260206004820152602660248201527f416464726573733a2064656c65676174652063616c6c20746f206e6f6e2d636f6044820152651b9d1c9858dd60d21b60648201526084016109f7565b600080846001600160a01b03168460405161314c9190613bbb565b600060405180830381855af49150503d8060008114613187576040519150601f19603f3d011682016040523d82523d6000602084013e61318c565b606091505b5091509150611f87828260405180606001604052806027815260200161413360279139612367565b60006131c36002848418613faa565b61153590848416613f67565b8280546131db9061402c565b90600052602060002090601f0160209004810192826131fd5760008555613243565b82601f1061321657805160ff1916838001178555613243565b82800160010185558215613243579182015b82811115613243578251825591602001919060010190613228565b506122a49291505b808211156122a4576000815560010161324b565b60006001600160401b0383111561327857613278614098565b61328b601f8401601f1916602001613f14565b905082815283838301111561329f57600080fd5b828260208301376000602084830101529392505050565b600082601f8301126132c6578081fd5b813560206132db6132d683613f44565b613f14565b80838252828201915082860187848660051b89010111156132fa578586fd5b855b8581101561332157813561330f816140ae565b845292840192908401906001016132fc565b5090979650505050505050565b600082601f83011261333e578081fd5b8135602061334e6132d683613f44565b80838252828201915082860187848660051b890101111561336d578586fd5b855b858110156133215781356001600160401b0381111561338c578788fd5b61339a8a87838c0101613449565b855250928401929084019060010161336f565b600082601f8301126133bd578081fd5b813560206133cd6132d683613f44565b80838252828201915082860187848660051b89010111156133ec578586fd5b855b85811015613321578135845292840192908401906001016133ee565b60008083601f84011261341b578182fd5b5081356001600160401b03811115613431578182fd5b60208301915083602082850101111561288b57600080fd5b600082601f830112613459578081fd5b6115358383356020850161325f565b803560ff8116811461347957600080fd5b919050565b60006020828403121561348f578081fd5b8135611535816140ae565b600080600080600060a086880312156134b1578081fd5b85356134bc816140ae565b945060208601356134cc816140ae565b935060408601356001600160401b03808211156134e7578283fd5b6134f389838a016133ad565b94506060880135915080821115613508578283fd5b61351489838a016133ad565b93506080880135915080821115613529578283fd5b5061353688828901613449565b9150509295509295909350565b60008060008060808587031215613558578384fd5b8435613563816140ae565b93506020850135613573816140ae565b92506040850135915060608501356001600160401b03811115613594578182fd5b6135a087828801613449565b91505092959194509250565b600080600080600060a086880312156135c3578283fd5b85356135ce816140ae565b945060208601356135de816140ae565b9350604086013592506060860135915060808601356001600160401b03811115613606578182fd5b61353688828901613449565b60008060408385031215613624578182fd5b823561362f816140ae565b915060208301356001600160401b03811115613649578182fd5b61365585828601613449565b9150509250929050565b60008060408385031215613671578182fd5b823561367c816140ae565b946020939093013593505050565b6000806000806060858703121561369f578182fd5b84356136aa816140ae565b93506020850135925060408501356001600160401b038111156136cb578283fd5b6136d78782880161340a565b95989497509550505050565b6000806000606084860312156136f7578081fd5b8335613702816140ae565b92506020840135915060408401356001600160401b03811115613723578182fd5b61372f86828701613449565b9150509250925092565b6000806000806080858703121561374e578182fd5b84356001600160401b0380821115613764578384fd5b613770888389016132b6565b95506020870135915080821115613785578384fd5b613791888389016133ad565b945060408701359150808211156137a6578384fd5b506137b38782880161332e565b949793965093946060013593505050565b600080600080608085870312156137d9578182fd5b84356001600160401b03808211156137ef578384fd5b6137fb888389016132b6565b95506020870135915080821115613810578384fd5b61381c888389016133ad565b94506040870135915080821115613831578384fd5b61383d8883890161332e565b93506060870135915080821115613852578283fd5b508501601f81018713613863578182fd5b6135a08782356020840161325f565b600060208284031215613883578081fd5b5051919050565b60006020828403121561389b578081fd5b81356001600160e01b031981168114611535578182fd5b6000602082840312156138c3578081fd5b5035919050565b600080604083850312156138dc578182fd5b8235915060208301356138ee816140ae565b809150509250929050565b6000806040838503121561390b578182fd5b8235915061391b60208401613468565b90509250929050565b60008060008060608587031215613939578182fd5b8435935061394960208601613468565b925060408501356001600160401b038111156136cb578283fd5b60008060008060006080868803121561397a578283fd5b8535945061398a60208701613468565b935060408601356001600160401b03808211156139a5578485fd5b6139b189838a0161340a565b90955093506060880135915080821115613529578283fd5b60008060008060008060008060e0898b0312156139e4578586fd5b883597506139f460208a01613468565b965060408901356001600160401b0380821115613a0f578788fd5b613a1b8c838d0161340a565b909850965060608b0135915080821115613a33578485fd5b50613a408b828c01613449565b945050613a4f60808a01613468565b925060a0890135915060c089013590509295985092959890939650565b600080600080600060a08688031215613a83578283fd5b85359450613a9360208701613468565b9350613aa160408701613468565b94979396509394606081013594506080013592915050565b6000815180845260208085019450808401835b83811015613af15781516001600160a01b031687529582019590820190600101613acc565b509495945050505050565b600081518084526020808501808196508360051b81019150828601855b85811015613b43578284038952613b31848351613b7f565b98850198935090840190600101613b19565b5091979650505050505050565b6000815180845260208085019450808401835b83811015613af157815187529582019590820190600101613b63565b60008151808452613b97816020860160208601614000565b601f01601f19169290920160200192915050565b8183823760009101908152919050565b60008251613bcd818460208701614000565b9190910192915050565b608081526000613bea6080830187613ab9565b8281036020840152613bfc8187613b50565b90508281036040840152613c108186613afc565b91505082606083015295945050505050565b6020810160088310613c4457634e487b7160e01b600052602160045260246000fd5b91905290565b6020815260006115356020830184613b7f565b60208082526018908201527f476f7665726e6f723a206f6e6c79476f7665726e616e63650000000000000000604082015260600190565b60208082526021908201527f476f7665726e6f723a20696e76616c69642070726f706f73616c206c656e67746040820152600d60fb1b606082015260800190565b6020808252602c908201527f46756e6374696f6e206d7573742062652063616c6c6564207468726f7567682060408201526b19195b1959d85d1958d85b1b60a21b606082015260800190565b6020808252602c908201527f46756e6374696f6e206d7573742062652063616c6c6564207468726f7567682060408201526b6163746976652070726f787960a01b606082015260800190565b6020808252602b908201527f496e697469616c697a61626c653a20636f6e7472616374206973206e6f74206960408201526a6e697469616c697a696e6760a81b606082015260800190565b60006101208b8352602060018060a01b038c1681850152816040850152613de18285018c613ab9565b91508382036060850152613df5828b613b50565b915083820360808501528189518084528284019150828160051b850101838c01865b83811015613e4557601f19878403018552613e33838351613b7f565b94860194925090850190600101613e17565b505086810360a0880152613e59818c613afc565b945050505050613e7460c08401876001600160401b03169052565b6001600160401b03851660e0840152828103610100840152613e968185613b7f565b9c9b505050505050505050505050565b84815260ff8416602082015282604082015260806060820152600061124a6080830184613b7f565b85815260ff8516602082015283604082015260a060608201526000613ef660a0830185613b7f565b8281036080840152613f088185613b7f565b98975050505050505050565b604051601f8201601f191681016001600160401b0381118282101715613f3c57613f3c614098565b604052919050565b60006001600160401b03821115613f5d57613f5d614098565b5060051b60200190565b60008219821115613f7a57613f7a614082565b500190565b60006001600160401b03808316818516808303821115613fa157613fa1614082565b01949350505050565b600082613fc557634e487b7160e01b81526012600452602481fd5b500490565b6000816000190483118215151615613fe457613fe4614082565b500290565b600082821015613ffb57613ffb614082565b500390565b60005b8381101561401b578181015183820152602001614003565b83811115612c175750506000910152565b600181811c9082168061404057607f821691505b6020821081141561406157634e487b7160e01b600052602260045260246000fd5b50919050565b600060001982141561407b5761407b614082565b5060010190565b634e487b7160e01b600052601160045260246000fd5b634e487b7160e01b600052604160045260246000fd5b6001600160a01b0381168114610a2557600080fdfe476f7665726e6f723a2072656c617920726576657274656420776974686f7574206d657373616765476f7665726e6f723a2063616c6c20726576657274656420776974686f7574206d657373616765360894a13ba1a3210667c828492db98dca3e2076cc3735a920a3ca505d382bbc416464726573733a206c6f772d6c6576656c2064656c65676174652063616c6c206661696c6564a26469706673582212205e8e3e9d657c3e84c2a5d0e48fdc63b68bafa9651f55fdec1412abe61ca6f34464736f6c63430008040033",
  "linkReferences": {},
  "deployedLinkReferences": {}
}