{
  "_format": "hh-sol-artifact-1",
  "contractName": "ClauseNFT",
  "sourceName": "contracts/ClauseNFT.sol",
  "abi": [
    {
      "inputs": [
        {
          "internalType": "string",
          "name": "_name",
          "type": "string"
        },
        {
          "internalType": "string",
          "name": "_symbol",
          "type": "string"
        },
        {
          "internalType": "string",
          "name": "baseURI",
          "type": "string"
        }
      ],
      "stateMutability": "nonpayable",
      "type": "constructor"
    },
    {
      "anonymous": false,
      "inputs": [
        {
          "indexed": true,
          "internalType": "address",
          "name": "owner",
          "type": "address"
        },
        {
          "indexed": true,
          "internalType": "address",
          "name": "approved",
          "type": "address"
        },
        {
          "indexed": true,
          "internalType": "uint256",
          "name": "tokenId",
          "type": "uint256"
        }
      ],
      "name": "Approval",
      "type": "event"
    },
    {
      "anonymous": false,
      "inputs": [
        {
          "indexed": true,
          "internalType": "address",
          "name": "owner",
          "type": "address"
        },
        {
          "indexed": true,
          "internalType": "address",
          "name": "operator",
          "type": "address"
        },
        {
          "indexed": false,
          "internalType": "bool",
          "name": "approved",
          "type": "bool"
        }
      ],
      "name": "ApprovalForAll",
      "type": "event"
    },
    {
      "anonymous": false,
      "inputs": [
        {
          "indexed": true,
          "internalType": "address",
          "name": "previousOwner",
          "type": "address"
        },
        {
          "indexed": true,
          "internalType": "address",
          "name": "newOwner",
          "type": "address"
        }
      ],
      "name": "OwnershipTransferred",
      "type": "event"
    },
    {
      "anonymous": false,
      "inputs": [
        {
          "indexed": true,
          "internalType": "address",
          "name": "from",
          "type": "address"
        },
        {
          "indexed": true,
          "internalType": "address",
          "name": "to",
          "type": "address"
        },
        {
          "indexed": true,
          "internalType": "uint256",
          "name": "tokenId",
          "type": "uint256"
        }
      ],
      "name": "Transfer",
      "type": "event"
    },
    {
      "inputs": [
        {
          "internalType": "address",
          "name": "to",
          "type": "address"
        },
        {
          "internalType": "uint256",
          "name": "tokenId",
          "type": "uint256"
        }
      ],
      "name": "approve",
      "outputs": [],
      "stateMutability": "nonpayable",
      "type": "function"
    },
    {
      "inputs": [
        {
          "internalType": "address",
          "name": "owner",
          "type": "address"
        }
      ],
      "name": "balanceOf",
      "outputs": [
        {
          "internalType": "uint256",
          "name": "",
          "type": "uint256"
        }
      ],
      "stateMutability": "view",
      "type": "function"
    },
    {
      "inputs": [
        {
          "internalType": "uint256",
          "name": "tokenId",
          "type": "uint256"
        }
      ],
      "name": "getApproved",
      "outputs": [
        {
          "internalType": "address",
          "name": "",
          "type": "address"
        }
      ],
      "stateMutability": "view",
      "type": "function"
    },
    {
      "inputs": [
        {
          "internalType": "address",
          "name": "owner",
          "type": "address"
        },
        {
          "internalType": "address",
          "name": "operator",
          "type": "address"
        }
      ],
      "name": "isApprovedForAll",
      "outputs": [
        {
          "internalType": "bool",
          "name": "",
          "type": "bool"
        }
      ],
      "stateMutability": "view",
      "type": "function"
    },
    {
      "inputs": [
        {
          "internalType": "address",
          "name": "_to",
          "type": "address"
        },
        {
          "internalType": "uint256",
          "name": "_tokenId",
          "type": "uint256"
        }
      ],
      "name": "mint",
      "outputs": [],
      "stateMutability": "nonpayable",
      "type": "function"
    },
    {
      "inputs": [
        {
          "internalType": "address",
          "name": "_to",
          "type": "address"
        },
        {
          "internalType": "uint256",
          "name": "_tokenId",
          "type": "uint256"
        },
        {
          "internalType": "string",
          "name": "tokenURI_",
          "type": "string"
        }
      ],
      "name": "mintWithURI",
      "outputs": [],
      "stateMutability": "nonpayable",
      "type": "function"
    },
    {
      "inputs": [],
      "name": "name",
      "outputs": [
        {
          "internalType": "string",
          "name": "",
          "type": "string"
        }
      ],
      "stateMutability": "view",
      "type": "function"
    },
    {
      "inputs": [],
      "name": "owner",
      "outputs": [
        {
          "internalType": "address",
          "name": "",
          "type": "address"
        }
      ],
      "stateMutability": "view",
      "type": "function"
    },
    {
      "inputs": [
        {
          "internalType": "uint256",
          "name": "tokenId",
          "type": "uint256"
        }
      ],
      "name": "ownerOf",
      "outputs": [
        {
          "internalType": "address",
          "name": "",
          "type": "address"
        }
      ],
      "stateMutability": "view",
      "type": "function"
    },
    {
      "inputs": [],
      "name": "renounceOwnership",
      "outputs": [],
      "stateMutability": "nonpayable",
      "type": "function"
    },
    {
      "inputs": [
        {
          "internalType": "address",
          "name": "from",
          "type": "address"
        },
        {
          "internalType": "address",
          "name": "to",
          "type": "address"
        },
        {
          "internalType": "uint256",
          "name": "tokenId",
          "type": "uint256"
        }
      ],
      "name": "safeTransferFrom",
      "outputs": [],
      "stateMutability": "nonpayable",
      "type": "function"
    },
    {
      "inputs": [
        {
          "internalType": "address",
          "name": "from",
          "type": "address"
        },
        {
          "internalType": "address",
          "name": "to",
          "type": "address"
        },
        {
          "internalType": "uint256",
          "name": "tokenId",
          "type": "uint256"
        },
        {
          "internalType": "bytes",
          "name": "data",
          "type": "bytes"
        }
      ],
      "name": "safeTransferFrom",
      "outputs": [],
      "stateMutability": "nonpayable",
      "type": "function"
    },
    {
      "inputs": [
        {
          "internalType": "address",
          "name": "operator",
          "type": "address"
        },
        {
          "internalType": "bool",
          "name": "approved",
          "type": "bool"
        }
      ],
      "name": "setApprovalForAll",
      "outputs": [],
      "stateMutability": "nonpayable",
      "type": "function"
    },
    {
      "inputs": [
        {
          "internalType": "string",
          "name": "baseURI_",
          "type": "string"
        }
      ],
      "name": "setBaseURI",
      "outputs": [],
      "stateMutability": "nonpayable",
      "type": "function"
    },
    {
      "inputs": [
        {
          "internalType": "bytes4",
          "name": "interfaceId",
          "type": "bytes4"
        }
      ],
      "name": "supportsInterface",
      "outputs": [
        {
          "internalType": "bool",
          "name": "",
          "type": "bool"
        }
      ],
      "stateMutability": "view",
      "type": "function"
    },
    {
      "inputs": [],
      "name": "symbol",
      "outputs": [
        {
          "internalType": "string",
          "name": "",
          "type": "string"
        }
      ],
      "stateMutability": "view",
      "type": "function"
    },
    {
      "inputs": [
        {
          "internalType": "uint256",
          "name": "tokenId",
          "type": "uint256"
        }
      ],
      "name": "tokenURI",
      "outputs": [
        {
          "internalType": "string",
          "name": "",
          "type": "string"
        }
      ],
      "stateMutability": "view",
      "type": "function"
    },
    {
      "inputs": [
        {
          "internalType": "address",
          "name": "from",
          "type": "address"
        },
        {
          "internalType": "address",
          "name": "to",
          "type": "address"
        },
        {
          "internalType": "uint256",
          "name": "tokenId",
          "type": "uint256"
        }
      ],
      "name": "transferFrom",
      "outputs": [],
      "stateMutability": "nonpayable",
      "type": "function"
    },
    {
      "inputs": [
        {
          "internalType": "address",
          "name": "newOwner",
          "type": "address"
        }
      ],
      "name": "transferOwnership",
      "outputs": [],
      "stateMutability": "nonpayable",
      "type": "function"
    }
  ],
  "bytecode": "0x60806040523480156200001157600080fd5b5060405162001b2738038062001b2783398101604081905262000034916200024e565b8251839083906200004d906000906020850190620000f5565b50805162000063906001906020840190620000f5565b505050620000806200007a6200009f60201b60201c565b620000a3565b805162000095906008906020840190620000f5565b505050506200032e565b3390565b600680546001600160a01b038381166001600160a01b0319831681179093556040519116919082907f8be0079c531659141344cd1fd0a4f28419497f9722a3daafe3b4186f6b6457e090600090a35050565b8280546200010390620002db565b90600052602060002090601f01602090048101928262000127576000855562000172565b82601f106200014257805160ff191683800117855562000172565b8280016001018555821562000172579182015b828111156200017257825182559160200191906001019062000155565b506200018092915062000184565b5090565b5b8082111562000180576000815560010162000185565b600082601f830112620001ac578081fd5b81516001600160401b0380821115620001c957620001c962000318565b604051601f8301601f19908116603f01168101908282118183101715620001f457620001f462000318565b8160405283815260209250868385880101111562000210578485fd5b8491505b8382101562000233578582018301518183018401529082019062000214565b838211156200024457848385830101525b9695505050505050565b60008060006060848603121562000263578283fd5b83516001600160401b03808211156200027a578485fd5b62000288878388016200019b565b945060208601519150808211156200029e578384fd5b620002ac878388016200019b565b93506040860151915080821115620002c2578283fd5b50620002d1868287016200019b565b9150509250925092565b600181811c90821680620002f057607f821691505b602082108114156200031257634e487b7160e01b600052602260045260246000fd5b50919050565b634e487b7160e01b600052604160045260246000fd5b6117e9806200033e6000396000f3fe608060405234801561001057600080fd5b50600436106101215760003560e01c80636352211e116100ad578063a22cb46511610071578063a22cb46514610257578063b88d4fde1461026a578063c87b56dd1461027d578063e985e9c514610290578063f2fde38b146102cc57600080fd5b80636352211e1461020257806370a0823114610215578063715018a6146102365780638da5cb5b1461023e57806395d89b411461024f57600080fd5b806323b872dd116100f457806323b872dd146101a357806340c10f19146101b657806342842e0e146101c95780634a99950b146101dc57806355f804b3146101ef57600080fd5b806301ffc9a71461012657806306fdde031461014e578063081812fc14610163578063095ea7b31461018e575b600080fd5b61013961013436600461150e565b6102df565b60405190151581526020015b60405180910390f35b610156610331565b6040516101459190611629565b610176610171366004611579565b6103c3565b6040516001600160a01b039091168152602001610145565b6101a161019c366004611490565b6103ea565b005b6101a16101b13660046113a2565b610505565b6101a16101c4366004611490565b610536565b6101a16101d73660046113a2565b61054c565b6101a16101ea3660046114b9565b610567565b6101a16101fd366004611546565b610583565b610176610210366004611579565b61059e565b610228610223366004611356565b6105fe565b604051908152602001610145565b6101a1610684565b6006546001600160a01b0316610176565b610156610698565b6101a1610265366004611456565b6106a7565b6101a16102783660046113dd565b6106b2565b61015661028b366004611579565b6106ea565b61013961029e366004611370565b6001600160a01b03918216600090815260056020908152604080832093909416825291909152205460ff1690565b6101a16102da366004611356565b61086c565b60006001600160e01b031982166380ac58cd60e01b148061031057506001600160e01b03198216635b5e139f60e01b145b8061032b57506301ffc9a760e01b6001600160e01b03198316145b92915050565b6060600080546103409061174c565b80601f016020809104026020016040519081016040528092919081815260200182805461036c9061174c565b80156103b95780601f1061038e576101008083540402835291602001916103b9565b820191906000526020600020905b81548152906001019060200180831161039c57829003601f168201915b5050505050905090565b60006103ce826108e5565b506000908152600460205260409020546001600160a01b031690565b60006103f58261059e565b9050806001600160a01b0316836001600160a01b031614156104685760405162461bcd60e51b815260206004820152602160248201527f4552433732313a20617070726f76616c20746f2063757272656e74206f776e656044820152603960f91b60648201526084015b60405180910390fd5b336001600160a01b03821614806104845750610484813361029e565b6104f65760405162461bcd60e51b815260206004820152603d60248201527f4552433732313a20617070726f76652063616c6c6572206973206e6f7420746f60448201527f6b656e206f776e6572206f7220617070726f76656420666f7220616c6c000000606482015260840161045f565b6105008383610944565b505050565b61050f33826109b2565b61052b5760405162461bcd60e51b815260040161045f9061163c565b610500838383610a31565b61053e610b95565b6105488282610bef565b5050565b610500838383604051806020016040528060008152506106b2565b61056f610b95565b6105798383610bef565b6105008282610d7a565b61058b610b95565b8051610548906008906020840190611205565b6000818152600260205260408120546001600160a01b03168061032b5760405162461bcd60e51b8152602060048201526018602482015277115490cdcc8c4e881a5b9d985b1a59081d1bdad95b88125160421b604482015260640161045f565b60006001600160a01b0382166106685760405162461bcd60e51b815260206004820152602960248201527f4552433732313a2061646472657373207a65726f206973206e6f7420612076616044820152683634b21037bbb732b960b91b606482015260840161045f565b506001600160a01b031660009081526003602052604090205490565b61068c610b95565b6106966000610e12565b565b6060600180546103409061174c565b610548338383610e64565b6106bc33836109b2565b6106d85760405162461bcd60e51b815260040161045f9061163c565b6106e484848484610f33565b50505050565b6000818152600260205260409020546060906001600160a01b03166107695760405162461bcd60e51b815260206004820152602f60248201527f4552433732314d657461646174613a2055524920717565727920666f72206e6f60448201526e3732bc34b9ba32b73a103a37b5b2b760891b606482015260840161045f565b600082815260076020526040812080546107829061174c565b80601f01602080910402602001604051908101604052809291908181526020018280546107ae9061174c565b80156107fb5780601f106107d0576101008083540402835291602001916107fb565b820191906000526020600020905b8154815290600101906020018083116107de57829003601f168201915b50505050509050600061080c610f66565b905080516000141561081f575092915050565b8151156108515780826040516020016108399291906115bd565b60405160208183030381529060405292505050919050565b8061085b85610f75565b6040516020016108399291906115bd565b610874610b95565b6001600160a01b0381166108d95760405162461bcd60e51b815260206004820152602660248201527f4f776e61626c653a206e6577206f776e657220697320746865207a65726f206160448201526564647265737360d01b606482015260840161045f565b6108e281610e12565b50565b6000818152600260205260409020546001600160a01b03166108e25760405162461bcd60e51b8152602060048201526018602482015277115490cdcc8c4e881a5b9d985b1a59081d1bdad95b88125160421b604482015260640161045f565b600081815260046020526040902080546001600160a01b0319166001600160a01b03841690811790915581906109798261059e565b6001600160a01b03167f8c5be1e5ebec7d5bd14f71427d1e84f3dd0314c0f7b2291e5b200ac8c7c3b92560405160405180910390a45050565b6000806109be8361059e565b9050806001600160a01b0316846001600160a01b03161480610a0557506001600160a01b0380821660009081526005602090815260408083209388168352929052205460ff165b80610a295750836001600160a01b0316610a1e846103c3565b6001600160a01b0316145b949350505050565b826001600160a01b0316610a448261059e565b6001600160a01b031614610a6a5760405162461bcd60e51b815260040161045f906116db565b6001600160a01b038216610acc5760405162461bcd60e51b8152602060048201526024808201527f4552433732313a207472616e7366657220746f20746865207a65726f206164646044820152637265737360e01b606482015260840161045f565b826001600160a01b0316610adf8261059e565b6001600160a01b031614610b055760405162461bcd60e51b815260040161045f906116db565b600081815260046020908152604080832080546001600160a01b03199081169091556001600160a01b0387811680865260038552838620805460001901905590871680865283862080546001019055868652600290945282852080549092168417909155905184937fddf252ad1be2c89b69c2b068fc378daa952ba7f163c4a11628f55a4df523b3ef91a4505050565b6006546001600160a01b031633146106965760405162461bcd60e51b815260206004820181905260248201527f4f776e61626c653a2063616c6c6572206973206e6f7420746865206f776e6572604482015260640161045f565b6001600160a01b038216610c455760405162461bcd60e51b815260206004820181905260248201527f4552433732313a206d696e7420746f20746865207a65726f2061646472657373604482015260640161045f565b6000818152600260205260409020546001600160a01b031615610caa5760405162461bcd60e51b815260206004820152601c60248201527f4552433732313a20746f6b656e20616c7265616479206d696e74656400000000604482015260640161045f565b6000818152600260205260409020546001600160a01b031615610d0f5760405162461bcd60e51b815260206004820152601c60248201527f4552433732313a20746f6b656e20616c7265616479206d696e74656400000000604482015260640161045f565b6001600160a01b038216600081815260036020908152604080832080546001019055848352600290915280822080546001600160a01b0319168417905551839291907fddf252ad1be2c89b69c2b068fc378daa952ba7f163c4a11628f55a4df523b3ef908290a45050565b6000828152600260205260409020546001600160a01b0316610df35760405162461bcd60e51b815260206004820152602c60248201527f4552433732314d657461646174613a2055524920736574206f66206e6f6e657860448201526b34b9ba32b73a103a37b5b2b760a11b606482015260840161045f565b6000828152600760209081526040909120825161050092840190611205565b600680546001600160a01b038381166001600160a01b0319831681179093556040519116919082907f8be0079c531659141344cd1fd0a4f28419497f9722a3daafe3b4186f6b6457e090600090a35050565b816001600160a01b0316836001600160a01b03161415610ec65760405162461bcd60e51b815260206004820152601960248201527f4552433732313a20617070726f766520746f2063616c6c657200000000000000604482015260640161045f565b6001600160a01b03838116600081815260056020908152604080832094871680845294825291829020805460ff191686151590811790915591519182527f17307eab39ab6107e8899845ad3d59bd9653f200f220920489ca2b5937696c31910160405180910390a3505050565b610f3e848484610a31565b610f4a84848484611020565b6106e45760405162461bcd60e51b815260040161045f90611689565b6060600880546103409061174c565b60606000610f828361112d565b600101905060008167ffffffffffffffff811115610fb057634e487b7160e01b600052604160045260246000fd5b6040519080825280601f01601f191660200182016040528015610fda576020820181803683370190505b5090508181016020015b600019016f181899199a1a9b1b9c1cb0b131b232b360811b600a86061a8153600a850494508461101357611018565b610fe4565b509392505050565b60006001600160a01b0384163b1561112257604051630a85bd0160e11b81526001600160a01b0385169063150b7a02906110649033908990889088906004016115ec565b602060405180830381600087803b15801561107e57600080fd5b505af19250505080156110ae575060408051601f3d908101601f191682019092526110ab9181019061152a565b60015b611108573d8080156110dc576040519150601f19603f3d011682016040523d82523d6000602084013e6110e1565b606091505b5080516111005760405162461bcd60e51b815260040161045f90611689565b805181602001fd5b6001600160e01b031916630a85bd0160e11b149050610a29565b506001949350505050565b60008072184f03e93ff9f4daa797ed6e38ed64bf6a1f0160401b831061116c5772184f03e93ff9f4daa797ed6e38ed64bf6a1f0160401b830492506040015b6d04ee2d6d415b85acef81000000008310611198576d04ee2d6d415b85acef8100000000830492506020015b662386f26fc1000083106111b657662386f26fc10000830492506010015b6305f5e10083106111ce576305f5e100830492506008015b61271083106111e257612710830492506004015b606483106111f4576064830492506002015b600a831061032b5760010192915050565b8280546112119061174c565b90600052602060002090601f0160209004810192826112335760008555611279565b82601f1061124c57805160ff1916838001178555611279565b82800160010185558215611279579182015b8281111561127957825182559160200191906001019061125e565b50611285929150611289565b5090565b5b80821115611285576000815560010161128a565b600067ffffffffffffffff808411156112b9576112b9611787565b604051601f8501601f19908116603f011681019082821181831017156112e1576112e1611787565b816040528093508581528686860111156112fa57600080fd5b858560208301376000602087830101525050509392505050565b80356001600160a01b038116811461132b57600080fd5b919050565b600082601f830112611340578081fd5b61134f8383356020850161129e565b9392505050565b600060208284031215611367578081fd5b61134f82611314565b60008060408385031215611382578081fd5b61138b83611314565b915061139960208401611314565b90509250929050565b6000806000606084860312156113b6578081fd5b6113bf84611314565b92506113cd60208501611314565b9150604084013590509250925092565b600080600080608085870312156113f2578081fd5b6113fb85611314565b935061140960208601611314565b925060408501359150606085013567ffffffffffffffff81111561142b578182fd5b8501601f8101871361143b578182fd5b61144a8782356020840161129e565b91505092959194509250565b60008060408385031215611468578182fd5b61147183611314565b915060208301358015158114611485578182fd5b809150509250929050565b600080604083850312156114a2578182fd5b6114ab83611314565b946020939093013593505050565b6000806000606084860312156114cd578283fd5b6114d684611314565b925060208401359150604084013567ffffffffffffffff8111156114f8578182fd5b61150486828701611330565b9150509250925092565b60006020828403121561151f578081fd5b813561134f8161179d565b60006020828403121561153b578081fd5b815161134f8161179d565b600060208284031215611557578081fd5b813567ffffffffffffffff81111561156d578182fd5b610a2984828501611330565b60006020828403121561158a578081fd5b5035919050565b600081518084526115a9816020860160208601611720565b601f01601f19169290920160200192915050565b600083516115cf818460208801611720565b8351908301906115e3818360208801611720565b01949350505050565b6001600160a01b038581168252841660208201526040810183905260806060820181905260009061161f90830184611591565b9695505050505050565b60208152600061134f6020830184611591565b6020808252602d908201527f4552433732313a2063616c6c6572206973206e6f7420746f6b656e206f776e6560408201526c1c881bdc88185c1c1c9bdd9959609a1b606082015260800190565b60208082526032908201527f4552433732313a207472616e7366657220746f206e6f6e20455243373231526560408201527131b2b4bb32b91034b6b83632b6b2b73a32b960711b606082015260800190565b60208082526025908201527f4552433732313a207472616e736665722066726f6d20696e636f72726563742060408201526437bbb732b960d91b606082015260800190565b60005b8381101561173b578181015183820152602001611723565b838111156106e45750506000910152565b600181811c9082168061176057607f821691505b6020821081141561178157634e487b7160e01b600052602260045260246000fd5b50919050565b634e487b7160e01b600052604160045260246000fd5b6001600160e01b0319811681146108e257600080fdfea2646970667358221220bd71bc61f3554f50066bc9be4575e95803a925eb823a8ae77f87402f5f78be2964736f6c63430008040033",
  "linkReferences": {},
  "deployedLinkReferences": {}
}